{
	"contracts/CoinFlip.sol": {
		"CoinFlip": {
			"abi": [
				{
					"constant": false,
					"inputs": [
						{
							"name": "_guess",
							"type": "bool"
						}
					],
					"name": "flip",
					"outputs": [
						{
							"name": "",
							"type": "bool"
						}
					],
					"payable": false,
					"stateMutability": "nonpayable",
					"type": "function"
				},
				{
					"constant": true,
					"inputs": [],
					"name": "consecutiveWins",
					"outputs": [
						{
							"name": "",
							"type": "uint256"
						}
					],
					"payable": false,
					"stateMutability": "view",
					"type": "function"
				},
				{
					"inputs": [],
					"payable": false,
					"stateMutability": "nonpayable",
					"type": "constructor"
				}
			],
			"devdoc": {
				"methods": {}
			},
			"evm": {
				"assembly": "    /* \"contracts/CoinFlip.sol\":71:768  contract CoinFlip {\r... */\n  mstore(0x40, 0x60)\n    /* \"contracts/CoinFlip.sol\":167:244  57896044618658097711785492504343953926634992332820282019728792003956564819968 */\n  0x8000000000000000000000000000000000000000000000000000000000000000\n    /* \"contracts/CoinFlip.sol\":150:244  uint256 FACTOR = 57896044618658097711785492504343953926634992332820282019728792003956564819968 */\n  0x2\n  sstore\n    /* \"contracts/CoinFlip.sol\":251:310  function CoinFlip() public {\r... */\n  jumpi(tag_1, iszero(callvalue))\n  0x0\n  dup1\n  revert\ntag_1:\n    /* \"contracts/CoinFlip.sol\":303:304  0 */\n  0x0\n    /* \"contracts/CoinFlip.sol\":285:300  consecutiveWins */\n  dup1\n    /* \"contracts/CoinFlip.sol\":285:304  consecutiveWins = 0 */\n  dup2\n  swap1\n  sstore\n  pop\n    /* \"contracts/CoinFlip.sol\":71:768  contract CoinFlip {\r... */\n  dataSize(sub_0)\n  dup1\n  dataOffset(sub_0)\n  0x0\n  codecopy\n  0x0\n  return\nstop\n\nsub_0: assembly {\n        /* \"contracts/CoinFlip.sol\":71:768  contract CoinFlip {\r... */\n      mstore(0x40, 0x60)\n      jumpi(tag_1, lt(calldatasize, 0x4))\n      calldataload(0x0)\n      0x100000000000000000000000000000000000000000000000000000000\n      swap1\n      div\n      0xffffffff\n      and\n      dup1\n      0x1d263f67\n      eq\n      tag_2\n      jumpi\n      dup1\n      0xe6f334d7\n      eq\n      tag_3\n      jumpi\n    tag_1:\n      0x0\n      dup1\n      revert\n        /* \"contracts/CoinFlip.sol\":316:765  function flip(bool _guess) public returns (bool) {\r... */\n    tag_2:\n      jumpi(tag_4, iszero(callvalue))\n      0x0\n      dup1\n      revert\n    tag_4:\n      tag_5\n      0x4\n      dup1\n      dup1\n      calldataload\n      iszero\n      iszero\n      swap1\n      0x20\n      add\n      swap1\n      swap2\n      swap1\n      pop\n      pop\n      jump(tag_6)\n    tag_5:\n      mload(0x40)\n      dup1\n      dup3\n      iszero\n      iszero\n      iszero\n      iszero\n      dup2\n      mstore\n      0x20\n      add\n      swap2\n      pop\n      pop\n      mload(0x40)\n      dup1\n      swap2\n      sub\n      swap1\n      return\n        /* \"contracts/CoinFlip.sol\":94:124  uint256 public consecutiveWins */\n    tag_3:\n      jumpi(tag_7, iszero(callvalue))\n      0x0\n      dup1\n      revert\n    tag_7:\n      tag_8\n      jump(tag_9)\n    tag_8:\n      mload(0x40)\n      dup1\n      dup3\n      dup2\n      mstore\n      0x20\n      add\n      swap2\n      pop\n      pop\n      mload(0x40)\n      dup1\n      swap2\n      sub\n      swap1\n      return\n        /* \"contracts/CoinFlip.sol\":316:765  function flip(bool _guess) public returns (bool) {\r... */\n    tag_6:\n        /* \"contracts/CoinFlip.sol\":359:363  bool */\n      0x0\n        /* \"contracts/CoinFlip.sol\":372:390  uint256 blockValue */\n      dup1\n        /* \"contracts/CoinFlip.sol\":531:547  uint256 coinFlip */\n      0x0\n        /* \"contracts/CoinFlip.sol\":574:583  bool side */\n      dup1\n        /* \"contracts/CoinFlip.sol\":430:431  1 */\n      0x1\n        /* \"contracts/CoinFlip.sol\":417:429  block.number */\n      number\n        /* \"contracts/CoinFlip.sol\":417:431  block.number-1 */\n      sub\n        /* \"contracts/CoinFlip.sol\":401:432  block.blockhash(block.number-1) */\n      blockhash\n        /* \"contracts/CoinFlip.sol\":393:433  uint256(block.blockhash(block.number-1)) */\n      0x1\n      swap1\n      div\n        /* \"contracts/CoinFlip.sol\":372:433  uint256 blockValue = uint256(block.blockhash(block.number-1)) */\n      swap3\n      pop\n        /* \"contracts/CoinFlip.sol\":458:468  blockValue */\n      dup3\n        /* \"contracts/CoinFlip.sol\":446:454  lastHash */\n      sload(0x1)\n        /* \"contracts/CoinFlip.sol\":446:468  lastHash == blockValue */\n      eq\n        /* \"contracts/CoinFlip.sol\":442:495  if (lastHash == blockValue) {\r... */\n      iszero\n      tag_11\n      jumpi\n        /* \"contracts/CoinFlip.sol\":479:487  revert() */\n      0x0\n      dup1\n      revert\n        /* \"contracts/CoinFlip.sol\":442:495  if (lastHash == blockValue) {\r... */\n    tag_11:\n        /* \"contracts/CoinFlip.sol\":514:524  blockValue */\n      dup3\n        /* \"contracts/CoinFlip.sol\":503:511  lastHash */\n      0x1\n        /* \"contracts/CoinFlip.sol\":503:524  lastHash = blockValue */\n      dup2\n      swap1\n      sstore\n      pop\n        /* \"contracts/CoinFlip.sol\":561:567  FACTOR */\n      sload(0x2)\n        /* \"contracts/CoinFlip.sol\":550:560  blockValue */\n      dup4\n        /* \"contracts/CoinFlip.sol\":550:567  blockValue/FACTOR */\n      dup2\n      iszero\n      iszero\n      tag_12\n      jumpi\n      invalid\n    tag_12:\n      div\n        /* \"contracts/CoinFlip.sol\":531:567  uint256 coinFlip = blockValue/FACTOR */\n      swap2\n      pop\n        /* \"contracts/CoinFlip.sol\":598:599  1 */\n      0x1\n        /* \"contracts/CoinFlip.sol\":586:594  coinFlip */\n      dup3\n        /* \"contracts/CoinFlip.sol\":586:599  coinFlip == 1 */\n      eq\n        /* \"contracts/CoinFlip.sol\":586:614  coinFlip == 1 ? true : false */\n      tag_13\n      jumpi\n        /* \"contracts/CoinFlip.sol\":609:614  false */\n      0x0\n        /* \"contracts/CoinFlip.sol\":586:614  coinFlip == 1 ? true : false */\n      jump(tag_14)\n    tag_13:\n        /* \"contracts/CoinFlip.sol\":602:606  true */\n      0x1\n        /* \"contracts/CoinFlip.sol\":586:614  coinFlip == 1 ? true : false */\n    tag_14:\n        /* \"contracts/CoinFlip.sol\":574:614  bool side = coinFlip == 1 ? true : false */\n      swap1\n      pop\n        /* \"contracts/CoinFlip.sol\":635:641  _guess */\n      dup5\n        /* \"contracts/CoinFlip.sol\":627:641  side == _guess */\n      iszero\n      iszero\n        /* \"contracts/CoinFlip.sol\":627:631  side */\n      dup2\n        /* \"contracts/CoinFlip.sol\":627:641  side == _guess */\n      iszero\n      iszero\n      eq\n        /* \"contracts/CoinFlip.sol\":623:760  if (side == _guess) {\r... */\n      iszero\n      tag_15\n      jumpi\n        /* \"contracts/CoinFlip.sol\":652:667  consecutiveWins */\n      0x0\n      dup1\n        /* \"contracts/CoinFlip.sol\":652:669  consecutiveWins++ */\n      dup2\n      sload\n      dup1\n      swap3\n      swap2\n      swap1\n      0x1\n      add\n      swap2\n      swap1\n      pop\n      sstore\n      pop\n        /* \"contracts/CoinFlip.sol\":685:689  true */\n      0x1\n        /* \"contracts/CoinFlip.sol\":678:689  return true */\n      swap4\n      pop\n      jump(tag_10)\n        /* \"contracts/CoinFlip.sol\":623:760  if (side == _guess) {\r... */\n    tag_15:\n        /* \"contracts/CoinFlip.sol\":730:731  0 */\n      0x0\n        /* \"contracts/CoinFlip.sol\":712:727  consecutiveWins */\n      dup1\n        /* \"contracts/CoinFlip.sol\":712:731  consecutiveWins = 0 */\n      dup2\n      swap1\n      sstore\n      pop\n        /* \"contracts/CoinFlip.sol\":747:752  false */\n      0x0\n        /* \"contracts/CoinFlip.sol\":740:752  return false */\n      swap4\n      pop\n        /* \"contracts/CoinFlip.sol\":316:765  function flip(bool _guess) public returns (bool) {\r... */\n    tag_10:\n      pop\n      pop\n      pop\n      swap2\n      swap1\n      pop\n      jump\t// out\n        /* \"contracts/CoinFlip.sol\":94:124  uint256 public consecutiveWins */\n    tag_9:\n      sload(0x0)\n      dup2\n      jump\t// out\n\n    auxdata: 0xa165627a7a72305820e13e0621fbb3c0e90801ad0715128c51459892e3660b61a63f1073ffa12df9b20029\n}\n",
				"bytecode": {
					"linkReferences": {},
					"object": "60606040527f8000000000000000000000000000000000000000000000000000000000000000600255341561003357600080fd5b6000808190555061016e806100496000396000f30060606040526004361061004c576000357c0100000000000000000000000000000000000000000000000000000000900463ffffffff1680631d263f6714610051578063e6f334d71461008e575b600080fd5b341561005c57600080fd5b610074600480803515159060200190919050506100b7565b604051808215151515815260200191505060405180910390f35b341561009957600080fd5b6100a161013c565b6040518082815260200191505060405180910390f35b60008060008060014303406001900492508260015414156100d757600080fd5b82600181905550600254838115156100eb57fe5b049150600182146100fd576000610100565b60015b9050841515811515141561012857600080815480929190600101919050555060019350610134565b60008081905550600093505b505050919050565b600054815600a165627a7a72305820e13e0621fbb3c0e90801ad0715128c51459892e3660b61a63f1073ffa12df9b20029",
					"opcodes": "PUSH1 0x60 PUSH1 0x40 MSTORE PUSH32 0x8000000000000000000000000000000000000000000000000000000000000000 PUSH1 0x2 SSTORE CALLVALUE ISZERO PUSH2 0x33 JUMPI PUSH1 0x0 DUP1 REVERT JUMPDEST PUSH1 0x0 DUP1 DUP2 SWAP1 SSTORE POP PUSH2 0x16E DUP1 PUSH2 0x49 PUSH1 0x0 CODECOPY PUSH1 0x0 RETURN STOP PUSH1 0x60 PUSH1 0x40 MSTORE PUSH1 0x4 CALLDATASIZE LT PUSH2 0x4C JUMPI PUSH1 0x0 CALLDATALOAD PUSH29 0x100000000000000000000000000000000000000000000000000000000 SWAP1 DIV PUSH4 0xFFFFFFFF AND DUP1 PUSH4 0x1D263F67 EQ PUSH2 0x51 JUMPI DUP1 PUSH4 0xE6F334D7 EQ PUSH2 0x8E JUMPI JUMPDEST PUSH1 0x0 DUP1 REVERT JUMPDEST CALLVALUE ISZERO PUSH2 0x5C JUMPI PUSH1 0x0 DUP1 REVERT JUMPDEST PUSH2 0x74 PUSH1 0x4 DUP1 DUP1 CALLDATALOAD ISZERO ISZERO SWAP1 PUSH1 0x20 ADD SWAP1 SWAP2 SWAP1 POP POP PUSH2 0xB7 JUMP JUMPDEST PUSH1 0x40 MLOAD DUP1 DUP3 ISZERO ISZERO ISZERO ISZERO DUP2 MSTORE PUSH1 0x20 ADD SWAP2 POP POP PUSH1 0x40 MLOAD DUP1 SWAP2 SUB SWAP1 RETURN JUMPDEST CALLVALUE ISZERO PUSH2 0x99 JUMPI PUSH1 0x0 DUP1 REVERT JUMPDEST PUSH2 0xA1 PUSH2 0x13C JUMP JUMPDEST PUSH1 0x40 MLOAD DUP1 DUP3 DUP2 MSTORE PUSH1 0x20 ADD SWAP2 POP POP PUSH1 0x40 MLOAD DUP1 SWAP2 SUB SWAP1 RETURN JUMPDEST PUSH1 0x0 DUP1 PUSH1 0x0 DUP1 PUSH1 0x1 NUMBER SUB BLOCKHASH PUSH1 0x1 SWAP1 DIV SWAP3 POP DUP3 PUSH1 0x1 SLOAD EQ ISZERO PUSH2 0xD7 JUMPI PUSH1 0x0 DUP1 REVERT JUMPDEST DUP3 PUSH1 0x1 DUP2 SWAP1 SSTORE POP PUSH1 0x2 SLOAD DUP4 DUP2 ISZERO ISZERO PUSH2 0xEB JUMPI INVALID JUMPDEST DIV SWAP2 POP PUSH1 0x1 DUP3 EQ PUSH2 0xFD JUMPI PUSH1 0x0 PUSH2 0x100 JUMP JUMPDEST PUSH1 0x1 JUMPDEST SWAP1 POP DUP5 ISZERO ISZERO DUP2 ISZERO ISZERO EQ ISZERO PUSH2 0x128 JUMPI PUSH1 0x0 DUP1 DUP2 SLOAD DUP1 SWAP3 SWAP2 SWAP1 PUSH1 0x1 ADD SWAP2 SWAP1 POP SSTORE POP PUSH1 0x1 SWAP4 POP PUSH2 0x134 JUMP JUMPDEST PUSH1 0x0 DUP1 DUP2 SWAP1 SSTORE POP PUSH1 0x0 SWAP4 POP JUMPDEST POP POP POP SWAP2 SWAP1 POP JUMP JUMPDEST PUSH1 0x0 SLOAD DUP2 JUMP STOP LOG1 PUSH6 0x627A7A723058 KECCAK256 0xe1 RETURNDATACOPY MOD 0x21 CREATE2 0xb3 0xc0 0xe9 ADDMOD ADD 0xad SMOD ISZERO SLT DUP13 MLOAD GASLIMIT SWAP9 SWAP3 0xe3 PUSH7 0xB61A63F1073FF LOG1 0x2d 0xf9 0xb2 STOP 0x29 "
				},
				"gasEstimates": {
					"creation": {
						"codeDepositCost": "73200",
						"executionCost": "25138",
						"totalCost": "98338"
					},
					"external": {
						"consecutiveWins()": "408",
						"flip(bool)": "41117"
					}
				},
				"methodIdentifiers": {
					"consecutiveWins()": "e6f334d7",
					"flip(bool)": "1d263f67"
				}
			},
			"userdoc": {
				"methods": {}
			}
		}
	}
}