{
	"contracts/Delegatecall.sol": {
		"B": {
			"abi": [
				{
					"inputs": [
						{
							"internalType": "address",
							"name": "_addr",
							"type": "address"
						},
						{
							"internalType": "uint256",
							"name": "_num",
							"type": "uint256"
						}
					],
					"name": "callSetVars",
					"outputs": [],
					"stateMutability": "payable",
					"type": "function"
				},
				{
					"inputs": [
						{
							"internalType": "address",
							"name": "_addr",
							"type": "address"
						},
						{
							"internalType": "uint256",
							"name": "_num",
							"type": "uint256"
						}
					],
					"name": "delegatecallSetVars",
					"outputs": [],
					"stateMutability": "payable",
					"type": "function"
				},
				{
					"inputs": [],
					"name": "num",
					"outputs": [
						{
							"internalType": "uint256",
							"name": "",
							"type": "uint256"
						}
					],
					"stateMutability": "view",
					"type": "function"
				},
				{
					"inputs": [],
					"name": "sender",
					"outputs": [
						{
							"internalType": "address",
							"name": "",
							"type": "address"
						}
					],
					"stateMutability": "view",
					"type": "function"
				}
			],
			"devdoc": {
				"kind": "dev",
				"methods": {},
				"version": 1
			},
			"evm": {
				"assembly": "    /* \"contracts/Delegatecall.sol\":653:1392  contract B {... */\n  mstore(0x40, 0x80)\n  callvalue\n  dup1\n  iszero\n  tag_1\n  jumpi\n  revert(0x00, 0x00)\ntag_1:\n  pop\n  dataSize(sub_0)\n  dup1\n  dataOffset(sub_0)\n  0x00\n  codecopy\n  0x00\n  return\nstop\n\nsub_0: assembly {\n        /* \"contracts/Delegatecall.sol\":653:1392  contract B {... */\n      mstore(0x40, 0x80)\n      jumpi(tag_1, lt(calldatasize, 0x04))\n      shr(0xe0, calldataload(0x00))\n      dup1\n      0x1c1cba57\n      eq\n      tag_2\n      jumpi\n      dup1\n      0x4e70b1dc\n      eq\n      tag_3\n      jumpi\n      dup1\n      0x67e404ce\n      eq\n      tag_4\n      jumpi\n      dup1\n      0xb39a9641\n      eq\n      tag_5\n      jumpi\n    tag_1:\n      revert(0x00, 0x00)\n        /* \"contracts/Delegatecall.sol\":1135:1389  function delegatecallSetVars(address _addr, uint _num) external payable{... */\n    tag_2:\n      tag_6\n      0x04\n      dup1\n      calldatasize\n      sub\n      dup2\n      add\n      swap1\n      tag_7\n      swap2\n      swap1\n      tag_8\n      jump\t// in\n    tag_7:\n      tag_9\n      jump\t// in\n    tag_6:\n      stop\n        /* \"contracts/Delegatecall.sol\":671:686  uint public num */\n    tag_3:\n      callvalue\n      dup1\n      iszero\n      tag_10\n      jumpi\n      revert(0x00, 0x00)\n    tag_10:\n      pop\n      tag_11\n      tag_12\n      jump\t// in\n    tag_11:\n      mload(0x40)\n      tag_13\n      swap2\n      swap1\n      tag_14\n      jump\t// in\n    tag_13:\n      mload(0x40)\n      dup1\n      swap2\n      sub\n      swap1\n      return\n        /* \"contracts/Delegatecall.sol\":693:714  address public sender */\n    tag_4:\n      callvalue\n      dup1\n      iszero\n      tag_15\n      jumpi\n      revert(0x00, 0x00)\n    tag_15:\n      pop\n      tag_16\n      tag_17\n      jump\t// in\n    tag_16:\n      mload(0x40)\n      tag_18\n      swap2\n      swap1\n      tag_19\n      jump\t// in\n    tag_18:\n      mload(0x40)\n      dup1\n      swap2\n      sub\n      swap1\n      return\n        /* \"contracts/Delegatecall.sol\":807:1037  function callSetVars(address _addr, uint _num) external payable{... */\n    tag_5:\n      tag_20\n      0x04\n      dup1\n      calldatasize\n      sub\n      dup2\n      add\n      swap1\n      tag_21\n      swap2\n      swap1\n      tag_8\n      jump\t// in\n    tag_21:\n      tag_22\n      jump\t// in\n    tag_20:\n      stop\n        /* \"contracts/Delegatecall.sol\":1135:1389  function delegatecallSetVars(address _addr, uint _num) external payable{... */\n    tag_9:\n        /* \"contracts/Delegatecall.sol\":1253:1265  bool success */\n      0x00\n        /* \"contracts/Delegatecall.sol\":1267:1284  bytes memory data */\n      0x00\n        /* \"contracts/Delegatecall.sol\":1288:1293  _addr */\n      dup4\n        /* \"contracts/Delegatecall.sol\":1288:1306  _addr.delegatecall */\n      0xffffffffffffffffffffffffffffffffffffffff\n      and\n        /* \"contracts/Delegatecall.sol\":1365:1369  _num */\n      dup4\n        /* \"contracts/Delegatecall.sol\":1321:1370  abi.encodeWithSignature(\"setVars(uint256)\", _num) */\n      add(0x24, mload(0x40))\n      tag_24\n      swap2\n      swap1\n      tag_14\n      jump\t// in\n    tag_24:\n      mload(0x40)\n      0x20\n      dup2\n      dup4\n      sub\n      sub\n      dup2\n      mstore\n      swap1\n      0x40\n      mstore\n      and(not(0xffffffffffffffffffffffffffffffffffffffffffffffffffffffff), 0x6466414b00000000000000000000000000000000000000000000000000000000)\n      0x20\n      dup3\n      add\n      dup1\n      mload\n      0xffffffffffffffffffffffffffffffffffffffffffffffffffffffff\n      dup4\n      dup2\n      dup4\n      and\n      or\n      dup4\n      mstore\n      pop\n      pop\n      pop\n      pop\n        /* \"contracts/Delegatecall.sol\":1288:1381  _addr.delegatecall(... */\n      mload(0x40)\n      tag_25\n      swap2\n      swap1\n      tag_26\n      jump\t// in\n    tag_25:\n      0x00\n      mload(0x40)\n      dup1\n      dup4\n      sub\n      dup2\n      dup6\n      gas\n      delegatecall\n      swap2\n      pop\n      pop\n      returndatasize\n      dup1\n      0x00\n      dup2\n      eq\n      tag_29\n      jumpi\n      mload(0x40)\n      swap2\n      pop\n      and(add(returndatasize, 0x3f), not(0x1f))\n      dup3\n      add\n      0x40\n      mstore\n      returndatasize\n      dup3\n      mstore\n      returndatasize\n      0x00\n      0x20\n      dup5\n      add\n      returndatacopy\n      jump(tag_28)\n    tag_29:\n      0x60\n      swap2\n      pop\n    tag_28:\n      pop\n        /* \"contracts/Delegatecall.sol\":1252:1381  (bool success, bytes memory data) = _addr.delegatecall(... */\n      swap2\n      pop\n      swap2\n      pop\n        /* \"contracts/Delegatecall.sol\":1206:1389  {... */\n      pop\n      pop\n        /* \"contracts/Delegatecall.sol\":1135:1389  function delegatecallSetVars(address _addr, uint _num) external payable{... */\n      pop\n      pop\n      jump\t// out\n        /* \"contracts/Delegatecall.sol\":671:686  uint public num */\n    tag_12:\n      sload(0x00)\n      dup2\n      jump\t// out\n        /* \"contracts/Delegatecall.sol\":693:714  address public sender */\n    tag_17:\n      0x01\n      0x00\n      swap1\n      sload\n      swap1\n      0x0100\n      exp\n      swap1\n      div\n      0xffffffffffffffffffffffffffffffffffffffff\n      and\n      dup2\n      jump\t// out\n        /* \"contracts/Delegatecall.sol\":807:1037  function callSetVars(address _addr, uint _num) external payable{... */\n    tag_22:\n        /* \"contracts/Delegatecall.sol\":909:921  bool success */\n      0x00\n        /* \"contracts/Delegatecall.sol\":923:940  bytes memory data */\n      0x00\n        /* \"contracts/Delegatecall.sol\":944:949  _addr */\n      dup4\n        /* \"contracts/Delegatecall.sol\":944:954  _addr.call */\n      0xffffffffffffffffffffffffffffffffffffffff\n      and\n        /* \"contracts/Delegatecall.sol\":1013:1017  _num */\n      dup4\n        /* \"contracts/Delegatecall.sol\":969:1018  abi.encodeWithSignature(\"setVars(uint256)\", _num) */\n      add(0x24, mload(0x40))\n      tag_31\n      swap2\n      swap1\n      tag_14\n      jump\t// in\n    tag_31:\n      mload(0x40)\n      0x20\n      dup2\n      dup4\n      sub\n      sub\n      dup2\n      mstore\n      swap1\n      0x40\n      mstore\n      and(not(0xffffffffffffffffffffffffffffffffffffffffffffffffffffffff), 0x6466414b00000000000000000000000000000000000000000000000000000000)\n      0x20\n      dup3\n      add\n      dup1\n      mload\n      0xffffffffffffffffffffffffffffffffffffffffffffffffffffffff\n      dup4\n      dup2\n      dup4\n      and\n      or\n      dup4\n      mstore\n      pop\n      pop\n      pop\n      pop\n        /* \"contracts/Delegatecall.sol\":944:1029  _addr.call(... */\n      mload(0x40)\n      tag_32\n      swap2\n      swap1\n      tag_26\n      jump\t// in\n    tag_32:\n      0x00\n      mload(0x40)\n      dup1\n      dup4\n      sub\n      dup2\n      0x00\n      dup7\n      gas\n      call\n      swap2\n      pop\n      pop\n      returndatasize\n      dup1\n      0x00\n      dup2\n      eq\n      tag_35\n      jumpi\n      mload(0x40)\n      swap2\n      pop\n      and(add(returndatasize, 0x3f), not(0x1f))\n      dup3\n      add\n      0x40\n      mstore\n      returndatasize\n      dup3\n      mstore\n      returndatasize\n      0x00\n      0x20\n      dup5\n      add\n      returndatacopy\n      jump(tag_34)\n    tag_35:\n      0x60\n      swap2\n      pop\n    tag_34:\n      pop\n        /* \"contracts/Delegatecall.sol\":908:1029  (bool success, bytes memory data) = _addr.call(... */\n      swap2\n      pop\n      swap2\n      pop\n        /* \"contracts/Delegatecall.sol\":870:1037  {... */\n      pop\n      pop\n        /* \"contracts/Delegatecall.sol\":807:1037  function callSetVars(address _addr, uint _num) external payable{... */\n      pop\n      pop\n      jump\t// out\n        /* \"#utility.yul\":88:205   */\n    tag_37:\n        /* \"#utility.yul\":197:198   */\n      0x00\n        /* \"#utility.yul\":194:195   */\n      0x00\n        /* \"#utility.yul\":187:199   */\n      revert\n        /* \"#utility.yul\":334:460   */\n    tag_39:\n        /* \"#utility.yul\":371:378   */\n      0x00\n        /* \"#utility.yul\":411:453   */\n      0xffffffffffffffffffffffffffffffffffffffff\n        /* \"#utility.yul\":404:409   */\n      dup3\n        /* \"#utility.yul\":400:454   */\n      and\n        /* \"#utility.yul\":389:454   */\n      swap1\n      pop\n        /* \"#utility.yul\":334:460   */\n      swap2\n      swap1\n      pop\n      jump\t// out\n        /* \"#utility.yul\":466:562   */\n    tag_40:\n        /* \"#utility.yul\":503:510   */\n      0x00\n        /* \"#utility.yul\":532:556   */\n      tag_58\n        /* \"#utility.yul\":550:555   */\n      dup3\n        /* \"#utility.yul\":532:556   */\n      tag_39\n      jump\t// in\n    tag_58:\n        /* \"#utility.yul\":521:556   */\n      swap1\n      pop\n        /* \"#utility.yul\":466:562   */\n      swap2\n      swap1\n      pop\n      jump\t// out\n        /* \"#utility.yul\":568:690   */\n    tag_41:\n        /* \"#utility.yul\":641:665   */\n      tag_60\n        /* \"#utility.yul\":659:664   */\n      dup2\n        /* \"#utility.yul\":641:665   */\n      tag_40\n      jump\t// in\n    tag_60:\n        /* \"#utility.yul\":634:639   */\n      dup2\n        /* \"#utility.yul\":631:666   */\n      eq\n        /* \"#utility.yul\":621:684   */\n      tag_61\n      jumpi\n        /* \"#utility.yul\":680:681   */\n      0x00\n        /* \"#utility.yul\":677:678   */\n      0x00\n        /* \"#utility.yul\":670:682   */\n      revert\n        /* \"#utility.yul\":621:684   */\n    tag_61:\n        /* \"#utility.yul\":568:690   */\n      pop\n      jump\t// out\n        /* \"#utility.yul\":696:835   */\n    tag_42:\n        /* \"#utility.yul\":742:747   */\n      0x00\n        /* \"#utility.yul\":780:786   */\n      dup2\n        /* \"#utility.yul\":767:787   */\n      calldataload\n        /* \"#utility.yul\":758:787   */\n      swap1\n      pop\n        /* \"#utility.yul\":796:829   */\n      tag_63\n        /* \"#utility.yul\":823:828   */\n      dup2\n        /* \"#utility.yul\":796:829   */\n      tag_41\n      jump\t// in\n    tag_63:\n        /* \"#utility.yul\":696:835   */\n      swap3\n      swap2\n      pop\n      pop\n      jump\t// out\n        /* \"#utility.yul\":841:918   */\n    tag_43:\n        /* \"#utility.yul\":878:885   */\n      0x00\n        /* \"#utility.yul\":907:912   */\n      dup2\n        /* \"#utility.yul\":896:912   */\n      swap1\n      pop\n        /* \"#utility.yul\":841:918   */\n      swap2\n      swap1\n      pop\n      jump\t// out\n        /* \"#utility.yul\":924:1046   */\n    tag_44:\n        /* \"#utility.yul\":997:1021   */\n      tag_66\n        /* \"#utility.yul\":1015:1020   */\n      dup2\n        /* \"#utility.yul\":997:1021   */\n      tag_43\n      jump\t// in\n    tag_66:\n        /* \"#utility.yul\":990:995   */\n      dup2\n        /* \"#utility.yul\":987:1022   */\n      eq\n        /* \"#utility.yul\":977:1040   */\n      tag_67\n      jumpi\n        /* \"#utility.yul\":1036:1037   */\n      0x00\n        /* \"#utility.yul\":1033:1034   */\n      0x00\n        /* \"#utility.yul\":1026:1038   */\n      revert\n        /* \"#utility.yul\":977:1040   */\n    tag_67:\n        /* \"#utility.yul\":924:1046   */\n      pop\n      jump\t// out\n        /* \"#utility.yul\":1052:1191   */\n    tag_45:\n        /* \"#utility.yul\":1098:1103   */\n      0x00\n        /* \"#utility.yul\":1136:1142   */\n      dup2\n        /* \"#utility.yul\":1123:1143   */\n      calldataload\n        /* \"#utility.yul\":1114:1143   */\n      swap1\n      pop\n        /* \"#utility.yul\":1152:1185   */\n      tag_69\n        /* \"#utility.yul\":1179:1184   */\n      dup2\n        /* \"#utility.yul\":1152:1185   */\n      tag_44\n      jump\t// in\n    tag_69:\n        /* \"#utility.yul\":1052:1191   */\n      swap3\n      swap2\n      pop\n      pop\n      jump\t// out\n        /* \"#utility.yul\":1197:1671   */\n    tag_8:\n        /* \"#utility.yul\":1265:1271   */\n      0x00\n        /* \"#utility.yul\":1273:1279   */\n      0x00\n        /* \"#utility.yul\":1322:1324   */\n      0x40\n        /* \"#utility.yul\":1310:1319   */\n      dup4\n        /* \"#utility.yul\":1301:1308   */\n      dup6\n        /* \"#utility.yul\":1297:1320   */\n      sub\n        /* \"#utility.yul\":1293:1325   */\n      slt\n        /* \"#utility.yul\":1290:1409   */\n      iszero\n      tag_71\n      jumpi\n        /* \"#utility.yul\":1328:1407   */\n      tag_72\n      tag_37\n      jump\t// in\n    tag_72:\n        /* \"#utility.yul\":1290:1409   */\n    tag_71:\n        /* \"#utility.yul\":1448:1449   */\n      0x00\n        /* \"#utility.yul\":1473:1526   */\n      tag_73\n        /* \"#utility.yul\":1518:1525   */\n      dup6\n        /* \"#utility.yul\":1509:1515   */\n      dup3\n        /* \"#utility.yul\":1498:1507   */\n      dup7\n        /* \"#utility.yul\":1494:1516   */\n      add\n        /* \"#utility.yul\":1473:1526   */\n      tag_42\n      jump\t// in\n    tag_73:\n        /* \"#utility.yul\":1463:1526   */\n      swap3\n      pop\n        /* \"#utility.yul\":1419:1536   */\n      pop\n        /* \"#utility.yul\":1575:1577   */\n      0x20\n        /* \"#utility.yul\":1601:1654   */\n      tag_74\n        /* \"#utility.yul\":1646:1653   */\n      dup6\n        /* \"#utility.yul\":1637:1643   */\n      dup3\n        /* \"#utility.yul\":1626:1635   */\n      dup7\n        /* \"#utility.yul\":1622:1644   */\n      add\n        /* \"#utility.yul\":1601:1654   */\n      tag_45\n      jump\t// in\n    tag_74:\n        /* \"#utility.yul\":1591:1654   */\n      swap2\n      pop\n        /* \"#utility.yul\":1546:1664   */\n      pop\n        /* \"#utility.yul\":1197:1671   */\n      swap3\n      pop\n      swap3\n      swap1\n      pop\n      jump\t// out\n        /* \"#utility.yul\":1677:1795   */\n    tag_46:\n        /* \"#utility.yul\":1764:1788   */\n      tag_76\n        /* \"#utility.yul\":1782:1787   */\n      dup2\n        /* \"#utility.yul\":1764:1788   */\n      tag_43\n      jump\t// in\n    tag_76:\n        /* \"#utility.yul\":1759:1762   */\n      dup3\n        /* \"#utility.yul\":1752:1789   */\n      mstore\n        /* \"#utility.yul\":1677:1795   */\n      pop\n      pop\n      jump\t// out\n        /* \"#utility.yul\":1801:2023   */\n    tag_14:\n        /* \"#utility.yul\":1894:1898   */\n      0x00\n        /* \"#utility.yul\":1932:1934   */\n      0x20\n        /* \"#utility.yul\":1921:1930   */\n      dup3\n        /* \"#utility.yul\":1917:1935   */\n      add\n        /* \"#utility.yul\":1909:1935   */\n      swap1\n      pop\n        /* \"#utility.yul\":1945:2016   */\n      tag_78\n        /* \"#utility.yul\":2013:2014   */\n      0x00\n        /* \"#utility.yul\":2002:2011   */\n      dup4\n        /* \"#utility.yul\":1998:2015   */\n      add\n        /* \"#utility.yul\":1989:1995   */\n      dup5\n        /* \"#utility.yul\":1945:2016   */\n      tag_46\n      jump\t// in\n    tag_78:\n        /* \"#utility.yul\":1801:2023   */\n      swap3\n      swap2\n      pop\n      pop\n      jump\t// out\n        /* \"#utility.yul\":2029:2147   */\n    tag_47:\n        /* \"#utility.yul\":2116:2140   */\n      tag_80\n        /* \"#utility.yul\":2134:2139   */\n      dup2\n        /* \"#utility.yul\":2116:2140   */\n      tag_40\n      jump\t// in\n    tag_80:\n        /* \"#utility.yul\":2111:2114   */\n      dup3\n        /* \"#utility.yul\":2104:2141   */\n      mstore\n        /* \"#utility.yul\":2029:2147   */\n      pop\n      pop\n      jump\t// out\n        /* \"#utility.yul\":2153:2375   */\n    tag_19:\n        /* \"#utility.yul\":2246:2250   */\n      0x00\n        /* \"#utility.yul\":2284:2286   */\n      0x20\n        /* \"#utility.yul\":2273:2282   */\n      dup3\n        /* \"#utility.yul\":2269:2287   */\n      add\n        /* \"#utility.yul\":2261:2287   */\n      swap1\n      pop\n        /* \"#utility.yul\":2297:2368   */\n      tag_82\n        /* \"#utility.yul\":2365:2366   */\n      0x00\n        /* \"#utility.yul\":2354:2363   */\n      dup4\n        /* \"#utility.yul\":2350:2367   */\n      add\n        /* \"#utility.yul\":2341:2347   */\n      dup5\n        /* \"#utility.yul\":2297:2368   */\n      tag_47\n      jump\t// in\n    tag_82:\n        /* \"#utility.yul\":2153:2375   */\n      swap3\n      swap2\n      pop\n      pop\n      jump\t// out\n        /* \"#utility.yul\":2381:2479   */\n    tag_48:\n        /* \"#utility.yul\":2432:2438   */\n      0x00\n        /* \"#utility.yul\":2466:2471   */\n      dup2\n        /* \"#utility.yul\":2460:2472   */\n      mload\n        /* \"#utility.yul\":2450:2472   */\n      swap1\n      pop\n        /* \"#utility.yul\":2381:2479   */\n      swap2\n      swap1\n      pop\n      jump\t// out\n        /* \"#utility.yul\":2485:2632   */\n    tag_49:\n        /* \"#utility.yul\":2586:2597   */\n      0x00\n        /* \"#utility.yul\":2623:2626   */\n      dup2\n        /* \"#utility.yul\":2608:2626   */\n      swap1\n      pop\n        /* \"#utility.yul\":2485:2632   */\n      swap3\n      swap2\n      pop\n      pop\n      jump\t// out\n        /* \"#utility.yul\":2638:2777   */\n    tag_50:\n        /* \"#utility.yul\":2727:2733   */\n      dup3\n        /* \"#utility.yul\":2722:2725   */\n      dup2\n        /* \"#utility.yul\":2717:2720   */\n      dup4\n        /* \"#utility.yul\":2711:2734   */\n      mcopy\n        /* \"#utility.yul\":2768:2769   */\n      0x00\n        /* \"#utility.yul\":2759:2765   */\n      dup4\n        /* \"#utility.yul\":2754:2757   */\n      dup4\n        /* \"#utility.yul\":2750:2766   */\n      add\n        /* \"#utility.yul\":2743:2770   */\n      mstore\n        /* \"#utility.yul\":2638:2777   */\n      pop\n      pop\n      pop\n      jump\t// out\n        /* \"#utility.yul\":2783:3169   */\n    tag_51:\n        /* \"#utility.yul\":2887:2890   */\n      0x00\n        /* \"#utility.yul\":2915:2953   */\n      tag_87\n        /* \"#utility.yul\":2947:2952   */\n      dup3\n        /* \"#utility.yul\":2915:2953   */\n      tag_48\n      jump\t// in\n    tag_87:\n        /* \"#utility.yul\":2969:3057   */\n      tag_88\n        /* \"#utility.yul\":3050:3056   */\n      dup2\n        /* \"#utility.yul\":3045:3048   */\n      dup6\n        /* \"#utility.yul\":2969:3057   */\n      tag_49\n      jump\t// in\n    tag_88:\n        /* \"#utility.yul\":2962:3057   */\n      swap4\n      pop\n        /* \"#utility.yul\":3066:3131   */\n      tag_89\n        /* \"#utility.yul\":3124:3130   */\n      dup2\n        /* \"#utility.yul\":3119:3122   */\n      dup6\n        /* \"#utility.yul\":3112:3116   */\n      0x20\n        /* \"#utility.yul\":3105:3110   */\n      dup7\n        /* \"#utility.yul\":3101:3117   */\n      add\n        /* \"#utility.yul\":3066:3131   */\n      tag_50\n      jump\t// in\n    tag_89:\n        /* \"#utility.yul\":3156:3162   */\n      dup1\n        /* \"#utility.yul\":3151:3154   */\n      dup5\n        /* \"#utility.yul\":3147:3163   */\n      add\n        /* \"#utility.yul\":3140:3163   */\n      swap2\n      pop\n        /* \"#utility.yul\":2891:3169   */\n      pop\n        /* \"#utility.yul\":2783:3169   */\n      swap3\n      swap2\n      pop\n      pop\n      jump\t// out\n        /* \"#utility.yul\":3175:3446   */\n    tag_26:\n        /* \"#utility.yul\":3305:3308   */\n      0x00\n        /* \"#utility.yul\":3327:3420   */\n      tag_91\n        /* \"#utility.yul\":3416:3419   */\n      dup3\n        /* \"#utility.yul\":3407:3413   */\n      dup5\n        /* \"#utility.yul\":3327:3420   */\n      tag_51\n      jump\t// in\n    tag_91:\n        /* \"#utility.yul\":3320:3420   */\n      swap2\n      pop\n        /* \"#utility.yul\":3437:3440   */\n      dup2\n        /* \"#utility.yul\":3430:3440   */\n      swap1\n      pop\n        /* \"#utility.yul\":3175:3446   */\n      swap3\n      swap2\n      pop\n      pop\n      jump\t// out\n\n    auxdata: 0xa264697066735822122087f8938bef1032027ae0361937e007fe466a3df7bdc1f6b34d0bd564ad5df86d64736f6c634300081e0033\n}\n",
				"bytecode": {
					"linkReferences": {},
					"object": "6080604052348015600e575f5ffd5b506104ae8061001c5f395ff3fe60806040526004361061003e575f3560e01c80631c1cba57146100425780634e70b1dc1461005e57806367e404ce14610088578063b39a9641146100b2575b5f5ffd5b61005c60048036038101906100579190610382565b6100ce565b005b348015610069575f5ffd5b506100726101ca565b60405161007f91906103cf565b60405180910390f35b348015610093575f5ffd5b5061009c6101cf565b6040516100a991906103f7565b60405180910390f35b6100cc60048036038101906100c79190610382565b6101f4565b005b5f5f8373ffffffffffffffffffffffffffffffffffffffff16836040516024016100f891906103cf565b6040516020818303038152906040527f6466414b000000000000000000000000000000000000000000000000000000007bffffffffffffffffffffffffffffffffffffffffffffffffffffffff19166020820180517bffffffffffffffffffffffffffffffffffffffffffffffffffffffff83818316178352505050506040516101829190610462565b5f60405180830381855af49150503d805f81146101ba576040519150601f19603f3d011682016040523d82523d5f602084013e6101bf565b606091505b509150915050505050565b5f5481565b60015f9054906101000a900473ffffffffffffffffffffffffffffffffffffffff1681565b5f5f8373ffffffffffffffffffffffffffffffffffffffff168360405160240161021e91906103cf565b6040516020818303038152906040527f6466414b000000000000000000000000000000000000000000000000000000007bffffffffffffffffffffffffffffffffffffffffffffffffffffffff19166020820180517bffffffffffffffffffffffffffffffffffffffffffffffffffffffff83818316178352505050506040516102a89190610462565b5f604051808303815f865af19150503d805f81146102e1576040519150601f19603f3d011682016040523d82523d5f602084013e6102e6565b606091505b509150915050505050565b5f5ffd5b5f73ffffffffffffffffffffffffffffffffffffffff82169050919050565b5f61031e826102f5565b9050919050565b61032e81610314565b8114610338575f5ffd5b50565b5f8135905061034981610325565b92915050565b5f819050919050565b6103618161034f565b811461036b575f5ffd5b50565b5f8135905061037c81610358565b92915050565b5f5f60408385031215610398576103976102f1565b5b5f6103a58582860161033b565b92505060206103b68582860161036e565b9150509250929050565b6103c98161034f565b82525050565b5f6020820190506103e25f8301846103c0565b92915050565b6103f181610314565b82525050565b5f60208201905061040a5f8301846103e8565b92915050565b5f81519050919050565b5f81905092915050565b8281835e5f83830152505050565b5f61043c82610410565b610446818561041a565b9350610456818560208601610424565b80840191505092915050565b5f61046d8284610432565b91508190509291505056fea264697066735822122087f8938bef1032027ae0361937e007fe466a3df7bdc1f6b34d0bd564ad5df86d64736f6c634300081e0033",
					"opcodes": "PUSH1 0x80 PUSH1 0x40 MSTORE CALLVALUE DUP1 ISZERO PUSH1 0xE JUMPI PUSH0 PUSH0 REVERT JUMPDEST POP PUSH2 0x4AE DUP1 PUSH2 0x1C PUSH0 CODECOPY PUSH0 RETURN INVALID PUSH1 0x80 PUSH1 0x40 MSTORE PUSH1 0x4 CALLDATASIZE LT PUSH2 0x3E JUMPI PUSH0 CALLDATALOAD PUSH1 0xE0 SHR DUP1 PUSH4 0x1C1CBA57 EQ PUSH2 0x42 JUMPI DUP1 PUSH4 0x4E70B1DC EQ PUSH2 0x5E JUMPI DUP1 PUSH4 0x67E404CE EQ PUSH2 0x88 JUMPI DUP1 PUSH4 0xB39A9641 EQ PUSH2 0xB2 JUMPI JUMPDEST PUSH0 PUSH0 REVERT JUMPDEST PUSH2 0x5C PUSH1 0x4 DUP1 CALLDATASIZE SUB DUP2 ADD SWAP1 PUSH2 0x57 SWAP2 SWAP1 PUSH2 0x382 JUMP JUMPDEST PUSH2 0xCE JUMP JUMPDEST STOP JUMPDEST CALLVALUE DUP1 ISZERO PUSH2 0x69 JUMPI PUSH0 PUSH0 REVERT JUMPDEST POP PUSH2 0x72 PUSH2 0x1CA JUMP JUMPDEST PUSH1 0x40 MLOAD PUSH2 0x7F SWAP2 SWAP1 PUSH2 0x3CF JUMP JUMPDEST PUSH1 0x40 MLOAD DUP1 SWAP2 SUB SWAP1 RETURN JUMPDEST CALLVALUE DUP1 ISZERO PUSH2 0x93 JUMPI PUSH0 PUSH0 REVERT JUMPDEST POP PUSH2 0x9C PUSH2 0x1CF JUMP JUMPDEST PUSH1 0x40 MLOAD PUSH2 0xA9 SWAP2 SWAP1 PUSH2 0x3F7 JUMP JUMPDEST PUSH1 0x40 MLOAD DUP1 SWAP2 SUB SWAP1 RETURN JUMPDEST PUSH2 0xCC PUSH1 0x4 DUP1 CALLDATASIZE SUB DUP2 ADD SWAP1 PUSH2 0xC7 SWAP2 SWAP1 PUSH2 0x382 JUMP JUMPDEST PUSH2 0x1F4 JUMP JUMPDEST STOP JUMPDEST PUSH0 PUSH0 DUP4 PUSH20 0xFFFFFFFFFFFFFFFFFFFFFFFFFFFFFFFFFFFFFFFF AND DUP4 PUSH1 0x40 MLOAD PUSH1 0x24 ADD PUSH2 0xF8 SWAP2 SWAP1 PUSH2 0x3CF JUMP JUMPDEST PUSH1 0x40 MLOAD PUSH1 0x20 DUP2 DUP4 SUB SUB DUP2 MSTORE SWAP1 PUSH1 0x40 MSTORE PUSH32 0x6466414B00000000000000000000000000000000000000000000000000000000 PUSH28 0xFFFFFFFFFFFFFFFFFFFFFFFFFFFFFFFFFFFFFFFFFFFFFFFFFFFFFFFF NOT AND PUSH1 0x20 DUP3 ADD DUP1 MLOAD PUSH28 0xFFFFFFFFFFFFFFFFFFFFFFFFFFFFFFFFFFFFFFFFFFFFFFFFFFFFFFFF DUP4 DUP2 DUP4 AND OR DUP4 MSTORE POP POP POP POP PUSH1 0x40 MLOAD PUSH2 0x182 SWAP2 SWAP1 PUSH2 0x462 JUMP JUMPDEST PUSH0 PUSH1 0x40 MLOAD DUP1 DUP4 SUB DUP2 DUP6 GAS DELEGATECALL SWAP2 POP POP RETURNDATASIZE DUP1 PUSH0 DUP2 EQ PUSH2 0x1BA JUMPI PUSH1 0x40 MLOAD SWAP2 POP PUSH1 0x1F NOT PUSH1 0x3F RETURNDATASIZE ADD AND DUP3 ADD PUSH1 0x40 MSTORE RETURNDATASIZE DUP3 MSTORE RETURNDATASIZE PUSH0 PUSH1 0x20 DUP5 ADD RETURNDATACOPY PUSH2 0x1BF JUMP JUMPDEST PUSH1 0x60 SWAP2 POP JUMPDEST POP SWAP2 POP SWAP2 POP POP POP POP POP JUMP JUMPDEST PUSH0 SLOAD DUP2 JUMP JUMPDEST PUSH1 0x1 PUSH0 SWAP1 SLOAD SWAP1 PUSH2 0x100 EXP SWAP1 DIV PUSH20 0xFFFFFFFFFFFFFFFFFFFFFFFFFFFFFFFFFFFFFFFF AND DUP2 JUMP JUMPDEST PUSH0 PUSH0 DUP4 PUSH20 0xFFFFFFFFFFFFFFFFFFFFFFFFFFFFFFFFFFFFFFFF AND DUP4 PUSH1 0x40 MLOAD PUSH1 0x24 ADD PUSH2 0x21E SWAP2 SWAP1 PUSH2 0x3CF JUMP JUMPDEST PUSH1 0x40 MLOAD PUSH1 0x20 DUP2 DUP4 SUB SUB DUP2 MSTORE SWAP1 PUSH1 0x40 MSTORE PUSH32 0x6466414B00000000000000000000000000000000000000000000000000000000 PUSH28 0xFFFFFFFFFFFFFFFFFFFFFFFFFFFFFFFFFFFFFFFFFFFFFFFFFFFFFFFF NOT AND PUSH1 0x20 DUP3 ADD DUP1 MLOAD PUSH28 0xFFFFFFFFFFFFFFFFFFFFFFFFFFFFFFFFFFFFFFFFFFFFFFFFFFFFFFFF DUP4 DUP2 DUP4 AND OR DUP4 MSTORE POP POP POP POP PUSH1 0x40 MLOAD PUSH2 0x2A8 SWAP2 SWAP1 PUSH2 0x462 JUMP JUMPDEST PUSH0 PUSH1 0x40 MLOAD DUP1 DUP4 SUB DUP2 PUSH0 DUP7 GAS CALL SWAP2 POP POP RETURNDATASIZE DUP1 PUSH0 DUP2 EQ PUSH2 0x2E1 JUMPI PUSH1 0x40 MLOAD SWAP2 POP PUSH1 0x1F NOT PUSH1 0x3F RETURNDATASIZE ADD AND DUP3 ADD PUSH1 0x40 MSTORE RETURNDATASIZE DUP3 MSTORE RETURNDATASIZE PUSH0 PUSH1 0x20 DUP5 ADD RETURNDATACOPY PUSH2 0x2E6 JUMP JUMPDEST PUSH1 0x60 SWAP2 POP JUMPDEST POP SWAP2 POP SWAP2 POP POP POP POP POP JUMP JUMPDEST PUSH0 PUSH0 REVERT JUMPDEST PUSH0 PUSH20 0xFFFFFFFFFFFFFFFFFFFFFFFFFFFFFFFFFFFFFFFF DUP3 AND SWAP1 POP SWAP2 SWAP1 POP JUMP JUMPDEST PUSH0 PUSH2 0x31E DUP3 PUSH2 0x2F5 JUMP JUMPDEST SWAP1 POP SWAP2 SWAP1 POP JUMP JUMPDEST PUSH2 0x32E DUP2 PUSH2 0x314 JUMP JUMPDEST DUP2 EQ PUSH2 0x338 JUMPI PUSH0 PUSH0 REVERT JUMPDEST POP JUMP JUMPDEST PUSH0 DUP2 CALLDATALOAD SWAP1 POP PUSH2 0x349 DUP2 PUSH2 0x325 JUMP JUMPDEST SWAP3 SWAP2 POP POP JUMP JUMPDEST PUSH0 DUP2 SWAP1 POP SWAP2 SWAP1 POP JUMP JUMPDEST PUSH2 0x361 DUP2 PUSH2 0x34F JUMP JUMPDEST DUP2 EQ PUSH2 0x36B JUMPI PUSH0 PUSH0 REVERT JUMPDEST POP JUMP JUMPDEST PUSH0 DUP2 CALLDATALOAD SWAP1 POP PUSH2 0x37C DUP2 PUSH2 0x358 JUMP JUMPDEST SWAP3 SWAP2 POP POP JUMP JUMPDEST PUSH0 PUSH0 PUSH1 0x40 DUP4 DUP6 SUB SLT ISZERO PUSH2 0x398 JUMPI PUSH2 0x397 PUSH2 0x2F1 JUMP JUMPDEST JUMPDEST PUSH0 PUSH2 0x3A5 DUP6 DUP3 DUP7 ADD PUSH2 0x33B JUMP JUMPDEST SWAP3 POP POP PUSH1 0x20 PUSH2 0x3B6 DUP6 DUP3 DUP7 ADD PUSH2 0x36E JUMP JUMPDEST SWAP2 POP POP SWAP3 POP SWAP3 SWAP1 POP JUMP JUMPDEST PUSH2 0x3C9 DUP2 PUSH2 0x34F JUMP JUMPDEST DUP3 MSTORE POP POP JUMP JUMPDEST PUSH0 PUSH1 0x20 DUP3 ADD SWAP1 POP PUSH2 0x3E2 PUSH0 DUP4 ADD DUP5 PUSH2 0x3C0 JUMP JUMPDEST SWAP3 SWAP2 POP POP JUMP JUMPDEST PUSH2 0x3F1 DUP2 PUSH2 0x314 JUMP JUMPDEST DUP3 MSTORE POP POP JUMP JUMPDEST PUSH0 PUSH1 0x20 DUP3 ADD SWAP1 POP PUSH2 0x40A PUSH0 DUP4 ADD DUP5 PUSH2 0x3E8 JUMP JUMPDEST SWAP3 SWAP2 POP POP JUMP JUMPDEST PUSH0 DUP2 MLOAD SWAP1 POP SWAP2 SWAP1 POP JUMP JUMPDEST PUSH0 DUP2 SWAP1 POP SWAP3 SWAP2 POP POP JUMP JUMPDEST DUP3 DUP2 DUP4 MCOPY PUSH0 DUP4 DUP4 ADD MSTORE POP POP POP JUMP JUMPDEST PUSH0 PUSH2 0x43C DUP3 PUSH2 0x410 JUMP JUMPDEST PUSH2 0x446 DUP2 DUP6 PUSH2 0x41A JUMP JUMPDEST SWAP4 POP PUSH2 0x456 DUP2 DUP6 PUSH1 0x20 DUP7 ADD PUSH2 0x424 JUMP JUMPDEST DUP1 DUP5 ADD SWAP2 POP POP SWAP3 SWAP2 POP POP JUMP JUMPDEST PUSH0 PUSH2 0x46D DUP3 DUP5 PUSH2 0x432 JUMP JUMPDEST SWAP2 POP DUP2 SWAP1 POP SWAP3 SWAP2 POP POP JUMP INVALID LOG2 PUSH5 0x6970667358 0x22 SLT KECCAK256 DUP8 EXTCALL SWAP4 DUP12 0xEF LT ORIGIN MUL PUSH27 0xE0361937E007FE466A3DF7BDC1F6B34D0BD564AD5DF86D64736F6C PUSH4 0x4300081E STOP CALLER "
				},
				"gasEstimates": {
					"creation": {
						"codeDepositCost": "239600",
						"executionCost": "279",
						"totalCost": "239879"
					},
					"external": {
						"callSetVars(address,uint256)": "infinite",
						"delegatecallSetVars(address,uint256)": "infinite",
						"num()": "2424",
						"sender()": "2530"
					}
				},
				"methodIdentifiers": {
					"callSetVars(address,uint256)": "b39a9641",
					"delegatecallSetVars(address,uint256)": "1c1cba57",
					"num()": "4e70b1dc",
					"sender()": "67e404ce"
				}
			},
			"storageLayout": {
				"storage": [
					{
						"astId": 23,
						"contract": "contracts/Delegatecall.sol:B",
						"label": "num",
						"offset": 0,
						"slot": "0",
						"type": "t_uint256"
					},
					{
						"astId": 25,
						"contract": "contracts/Delegatecall.sol:B",
						"label": "sender",
						"offset": 0,
						"slot": "1",
						"type": "t_address"
					}
				],
				"types": {
					"t_address": {
						"encoding": "inplace",
						"label": "address",
						"numberOfBytes": "20"
					},
					"t_uint256": {
						"encoding": "inplace",
						"label": "uint256",
						"numberOfBytes": "32"
					}
				}
			},
			"userdoc": {
				"kind": "user",
				"methods": {},
				"version": 1
			}
		}
	}
}