{
	"contracts/Expking.sol": {
		"Exp": {
			"abi": [
				{
					"inputs": [
						{
							"internalType": "address payable",
							"name": "addr",
							"type": "address"
						}
					],
					"name": "getKing",
					"outputs": [],
					"stateMutability": "payable",
					"type": "function"
				},
				{
					"stateMutability": "payable",
					"type": "receive"
				}
			],
			"devdoc": {
				"kind": "dev",
				"methods": {},
				"version": 1
			},
			"evm": {
				"assembly": "    /* \"contracts/Expking.sol\":60:378  contract Exp {... */\n  mstore(0x40, 0x80)\n  callvalue\n  dup1\n  iszero\n  tag_1\n  jumpi\n  revert(0x00, 0x00)\ntag_1:\n  pop\n  dataSize(sub_0)\n  dup1\n  dataOffset(sub_0)\n  0x00\n  codecopy\n  0x00\n  return\nstop\n\nsub_0: assembly {\n        /* \"contracts/Expking.sol\":60:378  contract Exp {... */\n      mstore(0x40, 0x80)\n      jumpi(tag_1, lt(calldatasize, 0x04))\n      shr(0xe0, calldataload(0x00))\n      dup1\n      0x39992443\n      eq\n      tag_3\n      jumpi\n      jump(tag_2)\n    tag_1:\n    tag_2:\n      revert(0x00, 0x00)\n        /* \"contracts/Expking.sol\":80:314  function getKing(address payable addr) public payable {... */\n    tag_3:\n      tag_6\n      0x04\n      dup1\n      calldatasize\n      sub\n      dup2\n      add\n      swap1\n      tag_7\n      swap2\n      swap1\n      tag_8\n      jump\t// in\n    tag_7:\n      tag_9\n      jump\t// in\n    tag_6:\n      stop\n    tag_9:\n        /* \"contracts/Expking.sol\":220:232  bool success */\n      0x00\n        /* \"contracts/Expking.sol\":237:241  addr */\n      dup2\n        /* \"contracts/Expking.sol\":237:246  addr.call */\n      0xffffffffffffffffffffffffffffffffffffffff\n      and\n        /* \"contracts/Expking.sol\":254:266  0.0011 ether */\n      0x03e871b540c000\n        /* \"contracts/Expking.sol\":237:271  addr.call{value: 0.0011 ether}(\"\") */\n      mload(0x40)\n      tag_11\n      swap1\n      tag_12\n      jump\t// in\n    tag_11:\n      0x00\n      mload(0x40)\n      dup1\n      dup4\n      sub\n      dup2\n      dup6\n      dup8\n      gas\n      call\n      swap3\n      pop\n      pop\n      pop\n      returndatasize\n      dup1\n      0x00\n      dup2\n      eq\n      tag_15\n      jumpi\n      mload(0x40)\n      swap2\n      pop\n      and(add(returndatasize, 0x3f), not(0x1f))\n      dup3\n      add\n      0x40\n      mstore\n      returndatasize\n      dup3\n      mstore\n      returndatasize\n      0x00\n      0x20\n      dup5\n      add\n      returndatacopy\n      jump(tag_14)\n    tag_15:\n      0x60\n      swap2\n      pop\n    tag_14:\n      pop\n        /* \"contracts/Expking.sol\":219:271  (bool success, )= addr.call{value: 0.0011 ether}(\"\") */\n      pop\n      swap1\n      pop\n        /* \"contracts/Expking.sol\":290:297  success */\n      dup1\n        /* \"contracts/Expking.sol\":282:306  require(success, \"Fail\") */\n      tag_16\n      jumpi\n      mload(0x40)\n      0x08c379a000000000000000000000000000000000000000000000000000000000\n      dup2\n      mstore\n      0x04\n      add\n      tag_17\n      swap1\n      tag_18\n      jump\t// in\n    tag_17:\n      mload(0x40)\n      dup1\n      swap2\n      sub\n      swap1\n      revert\n    tag_16:\n        /* \"contracts/Expking.sol\":134:314  {... */\n      pop\n        /* \"contracts/Expking.sol\":80:314  function getKing(address payable addr) public payable {... */\n      pop\n      jump\t// out\n        /* \"#utility.yul\":88:205   */\n    tag_20:\n        /* \"#utility.yul\":197:198   */\n      0x00\n        /* \"#utility.yul\":194:195   */\n      0x00\n        /* \"#utility.yul\":187:199   */\n      revert\n        /* \"#utility.yul\":334:460   */\n    tag_22:\n        /* \"#utility.yul\":371:378   */\n      0x00\n        /* \"#utility.yul\":411:453   */\n      0xffffffffffffffffffffffffffffffffffffffff\n        /* \"#utility.yul\":404:409   */\n      dup3\n        /* \"#utility.yul\":400:454   */\n      and\n        /* \"#utility.yul\":389:454   */\n      swap1\n      pop\n        /* \"#utility.yul\":334:460   */\n      swap2\n      swap1\n      pop\n      jump\t// out\n        /* \"#utility.yul\":466:570   */\n    tag_23:\n        /* \"#utility.yul\":511:518   */\n      0x00\n        /* \"#utility.yul\":540:564   */\n      tag_38\n        /* \"#utility.yul\":558:563   */\n      dup3\n        /* \"#utility.yul\":540:564   */\n      tag_22\n      jump\t// in\n    tag_38:\n        /* \"#utility.yul\":529:564   */\n      swap1\n      pop\n        /* \"#utility.yul\":466:570   */\n      swap2\n      swap1\n      pop\n      jump\t// out\n        /* \"#utility.yul\":576:714   */\n    tag_24:\n        /* \"#utility.yul\":657:689   */\n      tag_40\n        /* \"#utility.yul\":683:688   */\n      dup2\n        /* \"#utility.yul\":657:689   */\n      tag_23\n      jump\t// in\n    tag_40:\n        /* \"#utility.yul\":650:655   */\n      dup2\n        /* \"#utility.yul\":647:690   */\n      eq\n        /* \"#utility.yul\":637:708   */\n      tag_41\n      jumpi\n        /* \"#utility.yul\":704:705   */\n      0x00\n        /* \"#utility.yul\":701:702   */\n      0x00\n        /* \"#utility.yul\":694:706   */\n      revert\n        /* \"#utility.yul\":637:708   */\n    tag_41:\n        /* \"#utility.yul\":576:714   */\n      pop\n      jump\t// out\n        /* \"#utility.yul\":720:875   */\n    tag_25:\n        /* \"#utility.yul\":774:779   */\n      0x00\n        /* \"#utility.yul\":812:818   */\n      dup2\n        /* \"#utility.yul\":799:819   */\n      calldataload\n        /* \"#utility.yul\":790:819   */\n      swap1\n      pop\n        /* \"#utility.yul\":828:869   */\n      tag_43\n        /* \"#utility.yul\":863:868   */\n      dup2\n        /* \"#utility.yul\":828:869   */\n      tag_24\n      jump\t// in\n    tag_43:\n        /* \"#utility.yul\":720:875   */\n      swap3\n      swap2\n      pop\n      pop\n      jump\t// out\n        /* \"#utility.yul\":881:1226   */\n    tag_8:\n        /* \"#utility.yul\":948:954   */\n      0x00\n        /* \"#utility.yul\":997:999   */\n      0x20\n        /* \"#utility.yul\":985:994   */\n      dup3\n        /* \"#utility.yul\":976:983   */\n      dup5\n        /* \"#utility.yul\":972:995   */\n      sub\n        /* \"#utility.yul\":968:1000   */\n      slt\n        /* \"#utility.yul\":965:1084   */\n      iszero\n      tag_45\n      jumpi\n        /* \"#utility.yul\":1003:1082   */\n      tag_46\n      tag_20\n      jump\t// in\n    tag_46:\n        /* \"#utility.yul\":965:1084   */\n    tag_45:\n        /* \"#utility.yul\":1123:1124   */\n      0x00\n        /* \"#utility.yul\":1148:1209   */\n      tag_47\n        /* \"#utility.yul\":1201:1208   */\n      dup5\n        /* \"#utility.yul\":1192:1198   */\n      dup3\n        /* \"#utility.yul\":1181:1190   */\n      dup6\n        /* \"#utility.yul\":1177:1199   */\n      add\n        /* \"#utility.yul\":1148:1209   */\n      tag_25\n      jump\t// in\n    tag_47:\n        /* \"#utility.yul\":1138:1209   */\n      swap2\n      pop\n        /* \"#utility.yul\":1094:1219   */\n      pop\n        /* \"#utility.yul\":881:1226   */\n      swap3\n      swap2\n      pop\n      pop\n      jump\t// out\n        /* \"#utility.yul\":1232:1379   */\n    tag_26:\n        /* \"#utility.yul\":1333:1344   */\n      0x00\n        /* \"#utility.yul\":1370:1373   */\n      dup2\n        /* \"#utility.yul\":1355:1373   */\n      swap1\n      pop\n        /* \"#utility.yul\":1232:1379   */\n      swap3\n      swap2\n      pop\n      pop\n      jump\t// out\n        /* \"#utility.yul\":1385:1499   */\n    tag_27:\n      pop\n      jump\t// out\n        /* \"#utility.yul\":1505:1903   */\n    tag_28:\n        /* \"#utility.yul\":1664:1667   */\n      0x00\n        /* \"#utility.yul\":1685:1768   */\n      tag_51\n        /* \"#utility.yul\":1766:1767   */\n      0x00\n        /* \"#utility.yul\":1761:1764   */\n      dup4\n        /* \"#utility.yul\":1685:1768   */\n      tag_26\n      jump\t// in\n    tag_51:\n        /* \"#utility.yul\":1678:1768   */\n      swap2\n      pop\n        /* \"#utility.yul\":1777:1870   */\n      tag_52\n        /* \"#utility.yul\":1866:1869   */\n      dup3\n        /* \"#utility.yul\":1777:1870   */\n      tag_27\n      jump\t// in\n    tag_52:\n        /* \"#utility.yul\":1895:1896   */\n      0x00\n        /* \"#utility.yul\":1890:1893   */\n      dup3\n        /* \"#utility.yul\":1886:1897   */\n      add\n        /* \"#utility.yul\":1879:1897   */\n      swap1\n      pop\n        /* \"#utility.yul\":1505:1903   */\n      swap2\n      swap1\n      pop\n      jump\t// out\n        /* \"#utility.yul\":1909:2288   */\n    tag_12:\n        /* \"#utility.yul\":2093:2096   */\n      0x00\n        /* \"#utility.yul\":2115:2262   */\n      tag_54\n        /* \"#utility.yul\":2258:2261   */\n      dup3\n        /* \"#utility.yul\":2115:2262   */\n      tag_28\n      jump\t// in\n    tag_54:\n        /* \"#utility.yul\":2108:2262   */\n      swap2\n      pop\n        /* \"#utility.yul\":2279:2282   */\n      dup2\n        /* \"#utility.yul\":2272:2282   */\n      swap1\n      pop\n        /* \"#utility.yul\":1909:2288   */\n      swap2\n      swap1\n      pop\n      jump\t// out\n        /* \"#utility.yul\":2294:2463   */\n    tag_29:\n        /* \"#utility.yul\":2378:2389   */\n      0x00\n        /* \"#utility.yul\":2412:2418   */\n      dup3\n        /* \"#utility.yul\":2407:2410   */\n      dup3\n        /* \"#utility.yul\":2400:2419   */\n      mstore\n        /* \"#utility.yul\":2452:2456   */\n      0x20\n        /* \"#utility.yul\":2447:2450   */\n      dup3\n        /* \"#utility.yul\":2443:2457   */\n      add\n        /* \"#utility.yul\":2428:2457   */\n      swap1\n      pop\n        /* \"#utility.yul\":2294:2463   */\n      swap3\n      swap2\n      pop\n      pop\n      jump\t// out\n        /* \"#utility.yul\":2469:2623   */\n    tag_30:\n        /* \"#utility.yul\":2609:2615   */\n      0x4661696c00000000000000000000000000000000000000000000000000000000\n        /* \"#utility.yul\":2605:2606   */\n      0x00\n        /* \"#utility.yul\":2597:2603   */\n      dup3\n        /* \"#utility.yul\":2593:2607   */\n      add\n        /* \"#utility.yul\":2586:2616   */\n      mstore\n        /* \"#utility.yul\":2469:2623   */\n      pop\n      jump\t// out\n        /* \"#utility.yul\":2629:2994   */\n    tag_31:\n        /* \"#utility.yul\":2771:2774   */\n      0x00\n        /* \"#utility.yul\":2792:2858   */\n      tag_58\n        /* \"#utility.yul\":2856:2857   */\n      0x04\n        /* \"#utility.yul\":2851:2854   */\n      dup4\n        /* \"#utility.yul\":2792:2858   */\n      tag_29\n      jump\t// in\n    tag_58:\n        /* \"#utility.yul\":2785:2858   */\n      swap2\n      pop\n        /* \"#utility.yul\":2867:2960   */\n      tag_59\n        /* \"#utility.yul\":2956:2959   */\n      dup3\n        /* \"#utility.yul\":2867:2960   */\n      tag_30\n      jump\t// in\n    tag_59:\n        /* \"#utility.yul\":2985:2987   */\n      0x20\n        /* \"#utility.yul\":2980:2983   */\n      dup3\n        /* \"#utility.yul\":2976:2988   */\n      add\n        /* \"#utility.yul\":2969:2988   */\n      swap1\n      pop\n        /* \"#utility.yul\":2629:2994   */\n      swap2\n      swap1\n      pop\n      jump\t// out\n        /* \"#utility.yul\":3000:3419   */\n    tag_18:\n        /* \"#utility.yul\":3166:3170   */\n      0x00\n        /* \"#utility.yul\":3204:3206   */\n      0x20\n        /* \"#utility.yul\":3193:3202   */\n      dup3\n        /* \"#utility.yul\":3189:3207   */\n      add\n        /* \"#utility.yul\":3181:3207   */\n      swap1\n      pop\n        /* \"#utility.yul\":3253:3262   */\n      dup2\n        /* \"#utility.yul\":3247:3251   */\n      dup2\n        /* \"#utility.yul\":3243:3263   */\n      sub\n        /* \"#utility.yul\":3239:3240   */\n      0x00\n        /* \"#utility.yul\":3228:3237   */\n      dup4\n        /* \"#utility.yul\":3224:3241   */\n      add\n        /* \"#utility.yul\":3217:3264   */\n      mstore\n        /* \"#utility.yul\":3281:3412   */\n      tag_61\n        /* \"#utility.yul\":3407:3411   */\n      dup2\n        /* \"#utility.yul\":3281:3412   */\n      tag_31\n      jump\t// in\n    tag_61:\n        /* \"#utility.yul\":3273:3412   */\n      swap1\n      pop\n        /* \"#utility.yul\":3000:3419   */\n      swap2\n      swap1\n      pop\n      jump\t// out\n\n    auxdata: 0xa26469706673582212207dd2952813b9fd8768b90899d87eeccd5d22def9dd4d53a67b556eb18ef6e32864736f6c634300081f0033\n}\n",
				"bytecode": {
					"linkReferences": {},
					"object": "6080604052348015600e575f5ffd5b5061026d8061001c5f395ff3fe608060405260043610610021575f3560e01c8063399924431461002657610022565b5b5f5ffd5b610040600480360381019061003b9190610153565b610042565b005b5f8173ffffffffffffffffffffffffffffffffffffffff166603e871b540c00060405161006e906101ab565b5f6040518083038185875af1925050503d805f81146100a8576040519150601f19603f3d011682016040523d82523d5f602084013e6100ad565b606091505b50509050806100f1576040517f08c379a00000000000000000000000000000000000000000000000000000000081526004016100e890610219565b60405180910390fd5b5050565b5f5ffd5b5f73ffffffffffffffffffffffffffffffffffffffff82169050919050565b5f610122826100f9565b9050919050565b61013281610118565b811461013c575f5ffd5b50565b5f8135905061014d81610129565b92915050565b5f60208284031215610168576101676100f5565b5b5f6101758482850161013f565b91505092915050565b5f81905092915050565b50565b5f6101965f8361017e565b91506101a182610188565b5f82019050919050565b5f6101b58261018b565b9150819050919050565b5f82825260208201905092915050565b7f4661696c000000000000000000000000000000000000000000000000000000005f82015250565b5f6102036004836101bf565b915061020e826101cf565b602082019050919050565b5f6020820190508181035f830152610230816101f7565b905091905056fea26469706673582212207dd2952813b9fd8768b90899d87eeccd5d22def9dd4d53a67b556eb18ef6e32864736f6c634300081f0033",
					"opcodes": "PUSH1 0x80 PUSH1 0x40 MSTORE CALLVALUE DUP1 ISZERO PUSH1 0xE JUMPI PUSH0 PUSH0 REVERT JUMPDEST POP PUSH2 0x26D DUP1 PUSH2 0x1C PUSH0 CODECOPY PUSH0 RETURN INVALID PUSH1 0x80 PUSH1 0x40 MSTORE PUSH1 0x4 CALLDATASIZE LT PUSH2 0x21 JUMPI PUSH0 CALLDATALOAD PUSH1 0xE0 SHR DUP1 PUSH4 0x39992443 EQ PUSH2 0x26 JUMPI PUSH2 0x22 JUMP JUMPDEST JUMPDEST PUSH0 PUSH0 REVERT JUMPDEST PUSH2 0x40 PUSH1 0x4 DUP1 CALLDATASIZE SUB DUP2 ADD SWAP1 PUSH2 0x3B SWAP2 SWAP1 PUSH2 0x153 JUMP JUMPDEST PUSH2 0x42 JUMP JUMPDEST STOP JUMPDEST PUSH0 DUP2 PUSH20 0xFFFFFFFFFFFFFFFFFFFFFFFFFFFFFFFFFFFFFFFF AND PUSH7 0x3E871B540C000 PUSH1 0x40 MLOAD PUSH2 0x6E SWAP1 PUSH2 0x1AB JUMP JUMPDEST PUSH0 PUSH1 0x40 MLOAD DUP1 DUP4 SUB DUP2 DUP6 DUP8 GAS CALL SWAP3 POP POP POP RETURNDATASIZE DUP1 PUSH0 DUP2 EQ PUSH2 0xA8 JUMPI PUSH1 0x40 MLOAD SWAP2 POP PUSH1 0x1F NOT PUSH1 0x3F RETURNDATASIZE ADD AND DUP3 ADD PUSH1 0x40 MSTORE RETURNDATASIZE DUP3 MSTORE RETURNDATASIZE PUSH0 PUSH1 0x20 DUP5 ADD RETURNDATACOPY PUSH2 0xAD JUMP JUMPDEST PUSH1 0x60 SWAP2 POP JUMPDEST POP POP SWAP1 POP DUP1 PUSH2 0xF1 JUMPI PUSH1 0x40 MLOAD PUSH32 0x8C379A000000000000000000000000000000000000000000000000000000000 DUP2 MSTORE PUSH1 0x4 ADD PUSH2 0xE8 SWAP1 PUSH2 0x219 JUMP JUMPDEST PUSH1 0x40 MLOAD DUP1 SWAP2 SUB SWAP1 REVERT JUMPDEST POP POP JUMP JUMPDEST PUSH0 PUSH0 REVERT JUMPDEST PUSH0 PUSH20 0xFFFFFFFFFFFFFFFFFFFFFFFFFFFFFFFFFFFFFFFF DUP3 AND SWAP1 POP SWAP2 SWAP1 POP JUMP JUMPDEST PUSH0 PUSH2 0x122 DUP3 PUSH2 0xF9 JUMP JUMPDEST SWAP1 POP SWAP2 SWAP1 POP JUMP JUMPDEST PUSH2 0x132 DUP2 PUSH2 0x118 JUMP JUMPDEST DUP2 EQ PUSH2 0x13C JUMPI PUSH0 PUSH0 REVERT JUMPDEST POP JUMP JUMPDEST PUSH0 DUP2 CALLDATALOAD SWAP1 POP PUSH2 0x14D DUP2 PUSH2 0x129 JUMP JUMPDEST SWAP3 SWAP2 POP POP JUMP JUMPDEST PUSH0 PUSH1 0x20 DUP3 DUP5 SUB SLT ISZERO PUSH2 0x168 JUMPI PUSH2 0x167 PUSH2 0xF5 JUMP JUMPDEST JUMPDEST PUSH0 PUSH2 0x175 DUP5 DUP3 DUP6 ADD PUSH2 0x13F JUMP JUMPDEST SWAP2 POP POP SWAP3 SWAP2 POP POP JUMP JUMPDEST PUSH0 DUP2 SWAP1 POP SWAP3 SWAP2 POP POP JUMP JUMPDEST POP JUMP JUMPDEST PUSH0 PUSH2 0x196 PUSH0 DUP4 PUSH2 0x17E JUMP JUMPDEST SWAP2 POP PUSH2 0x1A1 DUP3 PUSH2 0x188 JUMP JUMPDEST PUSH0 DUP3 ADD SWAP1 POP SWAP2 SWAP1 POP JUMP JUMPDEST PUSH0 PUSH2 0x1B5 DUP3 PUSH2 0x18B JUMP JUMPDEST SWAP2 POP DUP2 SWAP1 POP SWAP2 SWAP1 POP JUMP JUMPDEST PUSH0 DUP3 DUP3 MSTORE PUSH1 0x20 DUP3 ADD SWAP1 POP SWAP3 SWAP2 POP POP JUMP JUMPDEST PUSH32 0x4661696C00000000000000000000000000000000000000000000000000000000 PUSH0 DUP3 ADD MSTORE POP JUMP JUMPDEST PUSH0 PUSH2 0x203 PUSH1 0x4 DUP4 PUSH2 0x1BF JUMP JUMPDEST SWAP2 POP PUSH2 0x20E DUP3 PUSH2 0x1CF JUMP JUMPDEST PUSH1 0x20 DUP3 ADD SWAP1 POP SWAP2 SWAP1 POP JUMP JUMPDEST PUSH0 PUSH1 0x20 DUP3 ADD SWAP1 POP DUP2 DUP2 SUB PUSH0 DUP4 ADD MSTORE PUSH2 0x230 DUP2 PUSH2 0x1F7 JUMP JUMPDEST SWAP1 POP SWAP2 SWAP1 POP JUMP INVALID LOG2 PUSH5 0x6970667358 0x22 SLT KECCAK256 PUSH30 0xD2952813B9FD8768B90899D87EECCD5D22DEF9DD4D53A67B556EB18EF6E3 0x28 PUSH5 0x736F6C6343 STOP ADDMOD 0x1F STOP CALLER "
				},
				"gasEstimates": {
					"creation": {
						"codeDepositCost": "124200",
						"executionCost": "169",
						"totalCost": "124369"
					},
					"external": {
						"getKing(address)": "infinite"
					}
				},
				"methodIdentifiers": {
					"getKing(address)": "39992443"
				}
			},
			"storageLayout": {
				"storage": [],
				"types": null
			},
			"userdoc": {
				"kind": "user",
				"methods": {},
				"version": 1
			}
		}
	}
}