{
	"contracts/ReentrancyAttack.sol": {
		"Bank": {
			"abi": [
				{
					"inputs": [
						{
							"internalType": "address",
							"name": "",
							"type": "address"
						}
					],
					"name": "balanceOf",
					"outputs": [
						{
							"internalType": "uint256",
							"name": "",
							"type": "uint256"
						}
					],
					"stateMutability": "view",
					"type": "function"
				},
				{
					"inputs": [],
					"name": "deposit",
					"outputs": [],
					"stateMutability": "payable",
					"type": "function"
				},
				{
					"inputs": [],
					"name": "getBalance",
					"outputs": [
						{
							"internalType": "uint256",
							"name": "",
							"type": "uint256"
						}
					],
					"stateMutability": "view",
					"type": "function"
				},
				{
					"inputs": [],
					"name": "withdraw",
					"outputs": [],
					"stateMutability": "nonpayable",
					"type": "function"
				}
			],
			"devdoc": {
				"kind": "dev",
				"methods": {},
				"version": 1
			},
			"evm": {
				"assembly": "    /* \"contracts/ReentrancyAttack.sol\":73:934  contract Bank {... */\n  mstore(0x40, 0x80)\n  callvalue\n  dup1\n  iszero\n  tag_1\n  jumpi\n  revert(0x00, 0x00)\ntag_1:\n  pop\n  dataSize(sub_0)\n  dup1\n  dataOffset(sub_0)\n  0x00\n  codecopy\n  0x00\n  return\nstop\n\nsub_0: assembly {\n        /* \"contracts/ReentrancyAttack.sol\":73:934  contract Bank {... */\n      mstore(0x40, 0x80)\n      jumpi(tag_1, lt(calldatasize, 0x04))\n      shr(0xe0, calldataload(0x00))\n      dup1\n      0x12065fe0\n      eq\n      tag_2\n      jumpi\n      dup1\n      0x3ccfd60b\n      eq\n      tag_3\n      jumpi\n      dup1\n      0x70a08231\n      eq\n      tag_4\n      jumpi\n      dup1\n      0xd0e30db0\n      eq\n      tag_5\n      jumpi\n    tag_1:\n      revert(0x00, 0x00)\n        /* \"contracts/ReentrancyAttack.sol\":830:931  function getBalance() external view returns (uint256) {... */\n    tag_2:\n      callvalue\n      dup1\n      iszero\n      tag_6\n      jumpi\n      revert(0x00, 0x00)\n    tag_6:\n      pop\n      tag_7\n      tag_8\n      jump\t// in\n    tag_7:\n      mload(0x40)\n      tag_9\n      swap2\n      swap1\n      tag_10\n      jump\t// in\n    tag_9:\n      mload(0x40)\n      dup1\n      swap2\n      sub\n      swap1\n      return\n        /* \"contracts/ReentrancyAttack.sol\":342:786  function withdraw() external {... */\n    tag_3:\n      callvalue\n      dup1\n      iszero\n      tag_11\n      jumpi\n      revert(0x00, 0x00)\n    tag_11:\n      pop\n      tag_12\n      tag_13\n      jump\t// in\n    tag_12:\n      stop\n        /* \"contracts/ReentrancyAttack.sol\":94:139  mapping (address => uint256) public balanceOf */\n    tag_4:\n      callvalue\n      dup1\n      iszero\n      tag_14\n      jumpi\n      revert(0x00, 0x00)\n    tag_14:\n      pop\n      tag_15\n      0x04\n      dup1\n      calldatasize\n      sub\n      dup2\n      add\n      swap1\n      tag_16\n      swap2\n      swap1\n      tag_17\n      jump\t// in\n    tag_16:\n      tag_18\n      jump\t// in\n    tag_15:\n      mload(0x40)\n      tag_19\n      swap2\n      swap1\n      tag_10\n      jump\t// in\n    tag_19:\n      mload(0x40)\n      dup1\n      swap2\n      sub\n      swap1\n      return\n        /* \"contracts/ReentrancyAttack.sol\":206:295  function deposit() external payable {... */\n    tag_5:\n      tag_20\n      tag_21\n      jump\t// in\n    tag_20:\n      stop\n        /* \"contracts/ReentrancyAttack.sol\":830:931  function getBalance() external view returns (uint256) {... */\n    tag_8:\n        /* \"contracts/ReentrancyAttack.sol\":875:882  uint256 */\n      0x00\n        /* \"contracts/ReentrancyAttack.sol\":902:923  address(this).balance */\n      selfbalance\n        /* \"contracts/ReentrancyAttack.sol\":895:923  return address(this).balance */\n      swap1\n      pop\n        /* \"contracts/ReentrancyAttack.sol\":830:931  function getBalance() external view returns (uint256) {... */\n      swap1\n      jump\t// out\n        /* \"contracts/ReentrancyAttack.sol\":342:786  function withdraw() external {... */\n    tag_13:\n        /* \"contracts/ReentrancyAttack.sol\":407:422  uint256 balance */\n      0x00\n        /* \"contracts/ReentrancyAttack.sol\":425:434  balanceOf */\n      0x00\n        /* \"contracts/ReentrancyAttack.sol\":425:446  balanceOf[msg.sender] */\n      0x00\n        /* \"contracts/ReentrancyAttack.sol\":435:445  msg.sender */\n      caller\n        /* \"contracts/ReentrancyAttack.sol\":425:446  balanceOf[msg.sender] */\n      0xffffffffffffffffffffffffffffffffffffffff\n      and\n      0xffffffffffffffffffffffffffffffffffffffff\n      and\n      dup2\n      mstore\n      0x20\n      add\n      swap1\n      dup2\n      mstore\n      0x20\n      add\n      0x00\n      keccak256\n      sload\n        /* \"contracts/ReentrancyAttack.sol\":407:446  uint256 balance = balanceOf[msg.sender] */\n      swap1\n      pop\n        /* \"contracts/ReentrancyAttack.sol\":475:476  0 */\n      0x00\n        /* \"contracts/ReentrancyAttack.sol\":465:472  balance */\n      dup2\n        /* \"contracts/ReentrancyAttack.sol\":465:476  balance > 0 */\n      gt\n        /* \"contracts/ReentrancyAttack.sol\":457:501  require(balance > 0, \"Insufficient balance\") */\n      tag_24\n      jumpi\n      mload(0x40)\n      0x08c379a000000000000000000000000000000000000000000000000000000000\n      dup2\n      mstore\n      0x04\n      add\n      tag_25\n      swap1\n      tag_26\n      jump\t// in\n    tag_25:\n      mload(0x40)\n      dup1\n      swap2\n      sub\n      swap1\n      revert\n    tag_24:\n        /* \"contracts/ReentrancyAttack.sol\":613:625  bool success */\n      0x00\n        /* \"contracts/ReentrancyAttack.sol\":631:641  msg.sender */\n      caller\n        /* \"contracts/ReentrancyAttack.sol\":631:646  msg.sender.call */\n      0xffffffffffffffffffffffffffffffffffffffff\n      and\n        /* \"contracts/ReentrancyAttack.sol\":654:661  balance */\n      dup3\n        /* \"contracts/ReentrancyAttack.sol\":631:666  msg.sender.call{value: balance}(\"\") */\n      mload(0x40)\n      tag_27\n      swap1\n      tag_28\n      jump\t// in\n    tag_27:\n      0x00\n      mload(0x40)\n      dup1\n      dup4\n      sub\n      dup2\n      dup6\n      dup8\n      gas\n      call\n      swap3\n      pop\n      pop\n      pop\n      returndatasize\n      dup1\n      0x00\n      dup2\n      eq\n      tag_31\n      jumpi\n      mload(0x40)\n      swap2\n      pop\n      and(add(returndatasize, 0x3f), not(0x1f))\n      dup3\n      add\n      0x40\n      mstore\n      returndatasize\n      dup3\n      mstore\n      returndatasize\n      0x00\n      0x20\n      dup5\n      add\n      returndatacopy\n      jump(tag_30)\n    tag_31:\n      0x60\n      swap2\n      pop\n    tag_30:\n      pop\n        /* \"contracts/ReentrancyAttack.sol\":612:666  (bool success, ) = msg.sender.call{value: balance}(\"\") */\n      pop\n      swap1\n      pop\n        /* \"contracts/ReentrancyAttack.sol\":685:692  success */\n      dup1\n        /* \"contracts/ReentrancyAttack.sol\":677:717  require(success, \"Failed to send Ether\") */\n      tag_32\n      jumpi\n      mload(0x40)\n      0x08c379a000000000000000000000000000000000000000000000000000000000\n      dup2\n      mstore\n      0x04\n      add\n      tag_33\n      swap1\n      tag_34\n      jump\t// in\n    tag_33:\n      mload(0x40)\n      dup1\n      swap2\n      sub\n      swap1\n      revert\n    tag_32:\n        /* \"contracts/ReentrancyAttack.sol\":777:778  0 */\n      0x00\n        /* \"contracts/ReentrancyAttack.sol\":753:762  balanceOf */\n      0x00\n        /* \"contracts/ReentrancyAttack.sol\":753:774  balanceOf[msg.sender] */\n      0x00\n        /* \"contracts/ReentrancyAttack.sol\":763:773  msg.sender */\n      caller\n        /* \"contracts/ReentrancyAttack.sol\":753:774  balanceOf[msg.sender] */\n      0xffffffffffffffffffffffffffffffffffffffff\n      and\n      0xffffffffffffffffffffffffffffffffffffffff\n      and\n      dup2\n      mstore\n      0x20\n      add\n      swap1\n      dup2\n      mstore\n      0x20\n      add\n      0x00\n      keccak256\n        /* \"contracts/ReentrancyAttack.sol\":753:778  balanceOf[msg.sender] = 0 */\n      dup2\n      swap1\n      sstore\n      pop\n        /* \"contracts/ReentrancyAttack.sol\":371:786  {... */\n      pop\n      pop\n        /* \"contracts/ReentrancyAttack.sol\":342:786  function withdraw() external {... */\n      jump\t// out\n        /* \"contracts/ReentrancyAttack.sol\":94:139  mapping (address => uint256) public balanceOf */\n    tag_18:\n      mstore(0x20, 0x00)\n      dup1\n      0x00\n      mstore\n      keccak256(0x00, 0x40)\n      0x00\n      swap2\n      pop\n      swap1\n      pop\n      sload\n      dup2\n      jump\t// out\n        /* \"contracts/ReentrancyAttack.sol\":206:295  function deposit() external payable {... */\n    tag_21:\n        /* \"contracts/ReentrancyAttack.sol\":278:287  msg.value */\n      callvalue\n        /* \"contracts/ReentrancyAttack.sol\":253:262  balanceOf */\n      0x00\n        /* \"contracts/ReentrancyAttack.sol\":253:274  balanceOf[msg.sender] */\n      0x00\n        /* \"contracts/ReentrancyAttack.sol\":263:273  msg.sender */\n      caller\n        /* \"contracts/ReentrancyAttack.sol\":253:274  balanceOf[msg.sender] */\n      0xffffffffffffffffffffffffffffffffffffffff\n      and\n      0xffffffffffffffffffffffffffffffffffffffff\n      and\n      dup2\n      mstore\n      0x20\n      add\n      swap1\n      dup2\n      mstore\n      0x20\n      add\n      0x00\n      keccak256\n      0x00\n        /* \"contracts/ReentrancyAttack.sol\":253:287  balanceOf[msg.sender] += msg.value */\n      dup3\n      dup3\n      sload\n      tag_36\n      swap2\n      swap1\n      tag_37\n      jump\t// in\n    tag_36:\n      swap3\n      pop\n      pop\n      dup2\n      swap1\n      sstore\n      pop\n        /* \"contracts/ReentrancyAttack.sol\":206:295  function deposit() external payable {... */\n      jump\t// out\n        /* \"#utility.yul\":7:84   */\n    tag_38:\n        /* \"#utility.yul\":44:51   */\n      0x00\n        /* \"#utility.yul\":73:78   */\n      dup2\n        /* \"#utility.yul\":62:78   */\n      swap1\n      pop\n        /* \"#utility.yul\":7:84   */\n      swap2\n      swap1\n      pop\n      jump\t// out\n        /* \"#utility.yul\":90:208   */\n    tag_39:\n        /* \"#utility.yul\":177:201   */\n      tag_59\n        /* \"#utility.yul\":195:200   */\n      dup2\n        /* \"#utility.yul\":177:201   */\n      tag_38\n      jump\t// in\n    tag_59:\n        /* \"#utility.yul\":172:175   */\n      dup3\n        /* \"#utility.yul\":165:202   */\n      mstore\n        /* \"#utility.yul\":90:208   */\n      pop\n      pop\n      jump\t// out\n        /* \"#utility.yul\":214:436   */\n    tag_10:\n        /* \"#utility.yul\":307:311   */\n      0x00\n        /* \"#utility.yul\":345:347   */\n      0x20\n        /* \"#utility.yul\":334:343   */\n      dup3\n        /* \"#utility.yul\":330:348   */\n      add\n        /* \"#utility.yul\":322:348   */\n      swap1\n      pop\n        /* \"#utility.yul\":358:429   */\n      tag_61\n        /* \"#utility.yul\":426:427   */\n      0x00\n        /* \"#utility.yul\":415:424   */\n      dup4\n        /* \"#utility.yul\":411:428   */\n      add\n        /* \"#utility.yul\":402:408   */\n      dup5\n        /* \"#utility.yul\":358:429   */\n      tag_39\n      jump\t// in\n    tag_61:\n        /* \"#utility.yul\":214:436   */\n      swap3\n      swap2\n      pop\n      pop\n      jump\t// out\n        /* \"#utility.yul\":523:640   */\n    tag_41:\n        /* \"#utility.yul\":632:633   */\n      0x00\n        /* \"#utility.yul\":629:630   */\n      0x00\n        /* \"#utility.yul\":622:634   */\n      revert\n        /* \"#utility.yul\":769:895   */\n    tag_43:\n        /* \"#utility.yul\":806:813   */\n      0x00\n        /* \"#utility.yul\":846:888   */\n      0xffffffffffffffffffffffffffffffffffffffff\n        /* \"#utility.yul\":839:844   */\n      dup3\n        /* \"#utility.yul\":835:889   */\n      and\n        /* \"#utility.yul\":824:889   */\n      swap1\n      pop\n        /* \"#utility.yul\":769:895   */\n      swap2\n      swap1\n      pop\n      jump\t// out\n        /* \"#utility.yul\":901:997   */\n    tag_44:\n        /* \"#utility.yul\":938:945   */\n      0x00\n        /* \"#utility.yul\":967:991   */\n      tag_67\n        /* \"#utility.yul\":985:990   */\n      dup3\n        /* \"#utility.yul\":967:991   */\n      tag_43\n      jump\t// in\n    tag_67:\n        /* \"#utility.yul\":956:991   */\n      swap1\n      pop\n        /* \"#utility.yul\":901:997   */\n      swap2\n      swap1\n      pop\n      jump\t// out\n        /* \"#utility.yul\":1003:1125   */\n    tag_45:\n        /* \"#utility.yul\":1076:1100   */\n      tag_69\n        /* \"#utility.yul\":1094:1099   */\n      dup2\n        /* \"#utility.yul\":1076:1100   */\n      tag_44\n      jump\t// in\n    tag_69:\n        /* \"#utility.yul\":1069:1074   */\n      dup2\n        /* \"#utility.yul\":1066:1101   */\n      eq\n        /* \"#utility.yul\":1056:1119   */\n      tag_70\n      jumpi\n        /* \"#utility.yul\":1115:1116   */\n      0x00\n        /* \"#utility.yul\":1112:1113   */\n      0x00\n        /* \"#utility.yul\":1105:1117   */\n      revert\n        /* \"#utility.yul\":1056:1119   */\n    tag_70:\n        /* \"#utility.yul\":1003:1125   */\n      pop\n      jump\t// out\n        /* \"#utility.yul\":1131:1270   */\n    tag_46:\n        /* \"#utility.yul\":1177:1182   */\n      0x00\n        /* \"#utility.yul\":1215:1221   */\n      dup2\n        /* \"#utility.yul\":1202:1222   */\n      calldataload\n        /* \"#utility.yul\":1193:1222   */\n      swap1\n      pop\n        /* \"#utility.yul\":1231:1264   */\n      tag_72\n        /* \"#utility.yul\":1258:1263   */\n      dup2\n        /* \"#utility.yul\":1231:1264   */\n      tag_45\n      jump\t// in\n    tag_72:\n        /* \"#utility.yul\":1131:1270   */\n      swap3\n      swap2\n      pop\n      pop\n      jump\t// out\n        /* \"#utility.yul\":1276:1605   */\n    tag_17:\n        /* \"#utility.yul\":1335:1341   */\n      0x00\n        /* \"#utility.yul\":1384:1386   */\n      0x20\n        /* \"#utility.yul\":1372:1381   */\n      dup3\n        /* \"#utility.yul\":1363:1370   */\n      dup5\n        /* \"#utility.yul\":1359:1382   */\n      sub\n        /* \"#utility.yul\":1355:1387   */\n      slt\n        /* \"#utility.yul\":1352:1471   */\n      iszero\n      tag_74\n      jumpi\n        /* \"#utility.yul\":1390:1469   */\n      tag_75\n      tag_41\n      jump\t// in\n    tag_75:\n        /* \"#utility.yul\":1352:1471   */\n    tag_74:\n        /* \"#utility.yul\":1510:1511   */\n      0x00\n        /* \"#utility.yul\":1535:1588   */\n      tag_76\n        /* \"#utility.yul\":1580:1587   */\n      dup5\n        /* \"#utility.yul\":1571:1577   */\n      dup3\n        /* \"#utility.yul\":1560:1569   */\n      dup6\n        /* \"#utility.yul\":1556:1578   */\n      add\n        /* \"#utility.yul\":1535:1588   */\n      tag_46\n      jump\t// in\n    tag_76:\n        /* \"#utility.yul\":1525:1588   */\n      swap2\n      pop\n        /* \"#utility.yul\":1481:1598   */\n      pop\n        /* \"#utility.yul\":1276:1605   */\n      swap3\n      swap2\n      pop\n      pop\n      jump\t// out\n        /* \"#utility.yul\":1611:1780   */\n    tag_47:\n        /* \"#utility.yul\":1695:1706   */\n      0x00\n        /* \"#utility.yul\":1729:1735   */\n      dup3\n        /* \"#utility.yul\":1724:1727   */\n      dup3\n        /* \"#utility.yul\":1717:1736   */\n      mstore\n        /* \"#utility.yul\":1769:1773   */\n      0x20\n        /* \"#utility.yul\":1764:1767   */\n      dup3\n        /* \"#utility.yul\":1760:1774   */\n      add\n        /* \"#utility.yul\":1745:1774   */\n      swap1\n      pop\n        /* \"#utility.yul\":1611:1780   */\n      swap3\n      swap2\n      pop\n      pop\n      jump\t// out\n        /* \"#utility.yul\":1786:1956   */\n    tag_48:\n        /* \"#utility.yul\":1926:1948   */\n      0x496e73756666696369656e742062616c616e6365000000000000000000000000\n        /* \"#utility.yul\":1922:1923   */\n      0x00\n        /* \"#utility.yul\":1914:1920   */\n      dup3\n        /* \"#utility.yul\":1910:1924   */\n      add\n        /* \"#utility.yul\":1903:1949   */\n      mstore\n        /* \"#utility.yul\":1786:1956   */\n      pop\n      jump\t// out\n        /* \"#utility.yul\":1962:2328   */\n    tag_49:\n        /* \"#utility.yul\":2104:2107   */\n      0x00\n        /* \"#utility.yul\":2125:2192   */\n      tag_80\n        /* \"#utility.yul\":2189:2191   */\n      0x14\n        /* \"#utility.yul\":2184:2187   */\n      dup4\n        /* \"#utility.yul\":2125:2192   */\n      tag_47\n      jump\t// in\n    tag_80:\n        /* \"#utility.yul\":2118:2192   */\n      swap2\n      pop\n        /* \"#utility.yul\":2201:2294   */\n      tag_81\n        /* \"#utility.yul\":2290:2293   */\n      dup3\n        /* \"#utility.yul\":2201:2294   */\n      tag_48\n      jump\t// in\n    tag_81:\n        /* \"#utility.yul\":2319:2321   */\n      0x20\n        /* \"#utility.yul\":2314:2317   */\n      dup3\n        /* \"#utility.yul\":2310:2322   */\n      add\n        /* \"#utility.yul\":2303:2322   */\n      swap1\n      pop\n        /* \"#utility.yul\":1962:2328   */\n      swap2\n      swap1\n      pop\n      jump\t// out\n        /* \"#utility.yul\":2334:2753   */\n    tag_26:\n        /* \"#utility.yul\":2500:2504   */\n      0x00\n        /* \"#utility.yul\":2538:2540   */\n      0x20\n        /* \"#utility.yul\":2527:2536   */\n      dup3\n        /* \"#utility.yul\":2523:2541   */\n      add\n        /* \"#utility.yul\":2515:2541   */\n      swap1\n      pop\n        /* \"#utility.yul\":2587:2596   */\n      dup2\n        /* \"#utility.yul\":2581:2585   */\n      dup2\n        /* \"#utility.yul\":2577:2597   */\n      sub\n        /* \"#utility.yul\":2573:2574   */\n      0x00\n        /* \"#utility.yul\":2562:2571   */\n      dup4\n        /* \"#utility.yul\":2558:2575   */\n      add\n        /* \"#utility.yul\":2551:2598   */\n      mstore\n        /* \"#utility.yul\":2615:2746   */\n      tag_83\n        /* \"#utility.yul\":2741:2745   */\n      dup2\n        /* \"#utility.yul\":2615:2746   */\n      tag_49\n      jump\t// in\n    tag_83:\n        /* \"#utility.yul\":2607:2746   */\n      swap1\n      pop\n        /* \"#utility.yul\":2334:2753   */\n      swap2\n      swap1\n      pop\n      jump\t// out\n        /* \"#utility.yul\":2759:2906   */\n    tag_50:\n        /* \"#utility.yul\":2860:2871   */\n      0x00\n        /* \"#utility.yul\":2897:2900   */\n      dup2\n        /* \"#utility.yul\":2882:2900   */\n      swap1\n      pop\n        /* \"#utility.yul\":2759:2906   */\n      swap3\n      swap2\n      pop\n      pop\n      jump\t// out\n        /* \"#utility.yul\":2912:3026   */\n    tag_51:\n      pop\n      jump\t// out\n        /* \"#utility.yul\":3032:3430   */\n    tag_52:\n        /* \"#utility.yul\":3191:3194   */\n      0x00\n        /* \"#utility.yul\":3212:3295   */\n      tag_87\n        /* \"#utility.yul\":3293:3294   */\n      0x00\n        /* \"#utility.yul\":3288:3291   */\n      dup4\n        /* \"#utility.yul\":3212:3295   */\n      tag_50\n      jump\t// in\n    tag_87:\n        /* \"#utility.yul\":3205:3295   */\n      swap2\n      pop\n        /* \"#utility.yul\":3304:3397   */\n      tag_88\n        /* \"#utility.yul\":3393:3396   */\n      dup3\n        /* \"#utility.yul\":3304:3397   */\n      tag_51\n      jump\t// in\n    tag_88:\n        /* \"#utility.yul\":3422:3423   */\n      0x00\n        /* \"#utility.yul\":3417:3420   */\n      dup3\n        /* \"#utility.yul\":3413:3424   */\n      add\n        /* \"#utility.yul\":3406:3424   */\n      swap1\n      pop\n        /* \"#utility.yul\":3032:3430   */\n      swap2\n      swap1\n      pop\n      jump\t// out\n        /* \"#utility.yul\":3436:3815   */\n    tag_28:\n        /* \"#utility.yul\":3620:3623   */\n      0x00\n        /* \"#utility.yul\":3642:3789   */\n      tag_90\n        /* \"#utility.yul\":3785:3788   */\n      dup3\n        /* \"#utility.yul\":3642:3789   */\n      tag_52\n      jump\t// in\n    tag_90:\n        /* \"#utility.yul\":3635:3789   */\n      swap2\n      pop\n        /* \"#utility.yul\":3806:3809   */\n      dup2\n        /* \"#utility.yul\":3799:3809   */\n      swap1\n      pop\n        /* \"#utility.yul\":3436:3815   */\n      swap2\n      swap1\n      pop\n      jump\t// out\n        /* \"#utility.yul\":3821:3991   */\n    tag_53:\n        /* \"#utility.yul\":3961:3983   */\n      0x4661696c656420746f2073656e64204574686572000000000000000000000000\n        /* \"#utility.yul\":3957:3958   */\n      0x00\n        /* \"#utility.yul\":3949:3955   */\n      dup3\n        /* \"#utility.yul\":3945:3959   */\n      add\n        /* \"#utility.yul\":3938:3984   */\n      mstore\n        /* \"#utility.yul\":3821:3991   */\n      pop\n      jump\t// out\n        /* \"#utility.yul\":3997:4363   */\n    tag_54:\n        /* \"#utility.yul\":4139:4142   */\n      0x00\n        /* \"#utility.yul\":4160:4227   */\n      tag_93\n        /* \"#utility.yul\":4224:4226   */\n      0x14\n        /* \"#utility.yul\":4219:4222   */\n      dup4\n        /* \"#utility.yul\":4160:4227   */\n      tag_47\n      jump\t// in\n    tag_93:\n        /* \"#utility.yul\":4153:4227   */\n      swap2\n      pop\n        /* \"#utility.yul\":4236:4329   */\n      tag_94\n        /* \"#utility.yul\":4325:4328   */\n      dup3\n        /* \"#utility.yul\":4236:4329   */\n      tag_53\n      jump\t// in\n    tag_94:\n        /* \"#utility.yul\":4354:4356   */\n      0x20\n        /* \"#utility.yul\":4349:4352   */\n      dup3\n        /* \"#utility.yul\":4345:4357   */\n      add\n        /* \"#utility.yul\":4338:4357   */\n      swap1\n      pop\n        /* \"#utility.yul\":3997:4363   */\n      swap2\n      swap1\n      pop\n      jump\t// out\n        /* \"#utility.yul\":4369:4788   */\n    tag_34:\n        /* \"#utility.yul\":4535:4539   */\n      0x00\n        /* \"#utility.yul\":4573:4575   */\n      0x20\n        /* \"#utility.yul\":4562:4571   */\n      dup3\n        /* \"#utility.yul\":4558:4576   */\n      add\n        /* \"#utility.yul\":4550:4576   */\n      swap1\n      pop\n        /* \"#utility.yul\":4622:4631   */\n      dup2\n        /* \"#utility.yul\":4616:4620   */\n      dup2\n        /* \"#utility.yul\":4612:4632   */\n      sub\n        /* \"#utility.yul\":4608:4609   */\n      0x00\n        /* \"#utility.yul\":4597:4606   */\n      dup4\n        /* \"#utility.yul\":4593:4610   */\n      add\n        /* \"#utility.yul\":4586:4633   */\n      mstore\n        /* \"#utility.yul\":4650:4781   */\n      tag_96\n        /* \"#utility.yul\":4776:4780   */\n      dup2\n        /* \"#utility.yul\":4650:4781   */\n      tag_54\n      jump\t// in\n    tag_96:\n        /* \"#utility.yul\":4642:4781   */\n      swap1\n      pop\n        /* \"#utility.yul\":4369:4788   */\n      swap2\n      swap1\n      pop\n      jump\t// out\n        /* \"#utility.yul\":4794:4974   */\n    tag_55:\n        /* \"#utility.yul\":4842:4919   */\n      0x4e487b7100000000000000000000000000000000000000000000000000000000\n        /* \"#utility.yul\":4839:4840   */\n      0x00\n        /* \"#utility.yul\":4832:4920   */\n      mstore\n        /* \"#utility.yul\":4939:4943   */\n      0x11\n        /* \"#utility.yul\":4936:4937   */\n      0x04\n        /* \"#utility.yul\":4929:4944   */\n      mstore\n        /* \"#utility.yul\":4963:4967   */\n      0x24\n        /* \"#utility.yul\":4960:4961   */\n      0x00\n        /* \"#utility.yul\":4953:4968   */\n      revert\n        /* \"#utility.yul\":4980:5171   */\n    tag_37:\n        /* \"#utility.yul\":5020:5023   */\n      0x00\n        /* \"#utility.yul\":5039:5059   */\n      tag_99\n        /* \"#utility.yul\":5057:5058   */\n      dup3\n        /* \"#utility.yul\":5039:5059   */\n      tag_38\n      jump\t// in\n    tag_99:\n        /* \"#utility.yul\":5034:5059   */\n      swap2\n      pop\n        /* \"#utility.yul\":5073:5093   */\n      tag_100\n        /* \"#utility.yul\":5091:5092   */\n      dup4\n        /* \"#utility.yul\":5073:5093   */\n      tag_38\n      jump\t// in\n    tag_100:\n        /* \"#utility.yul\":5068:5093   */\n      swap3\n      pop\n        /* \"#utility.yul\":5116:5117   */\n      dup3\n        /* \"#utility.yul\":5113:5114   */\n      dup3\n        /* \"#utility.yul\":5109:5118   */\n      add\n        /* \"#utility.yul\":5102:5118   */\n      swap1\n      pop\n        /* \"#utility.yul\":5137:5140   */\n      dup1\n        /* \"#utility.yul\":5134:5135   */\n      dup3\n        /* \"#utility.yul\":5131:5141   */\n      gt\n        /* \"#utility.yul\":5128:5164   */\n      iszero\n      tag_101\n      jumpi\n        /* \"#utility.yul\":5144:5162   */\n      tag_102\n      tag_55\n      jump\t// in\n    tag_102:\n        /* \"#utility.yul\":5128:5164   */\n    tag_101:\n        /* \"#utility.yul\":4980:5171   */\n      swap3\n      swap2\n      pop\n      pop\n      jump\t// out\n\n    auxdata: 0xa2646970667358221220e7602f2a253873de5f5c0eb52835af1d40e7a027a077595a12ddbaac92c123b664736f6c634300081e0033\n}\n",
				"bytecode": {
					"linkReferences": {},
					"object": "6080604052348015600e575f5ffd5b506105178061001c5f395ff3fe60806040526004361061003e575f3560e01c806312065fe0146100425780633ccfd60b1461006c57806370a0823114610082578063d0e30db0146100be575b5f5ffd5b34801561004d575f5ffd5b506100566100c8565b60405161006391906102be565b60405180910390f35b348015610077575f5ffd5b506100806100cf565b005b34801561008d575f5ffd5b506100a860048036038101906100a39190610335565b61023e565b6040516100b591906102be565b60405180910390f35b6100c6610252565b005b5f47905090565b5f5f5f3373ffffffffffffffffffffffffffffffffffffffff1673ffffffffffffffffffffffffffffffffffffffff1681526020019081526020015f205490505f8111610151576040517f08c379a0000000000000000000000000000000000000000000000000000000008152600401610148906103ba565b60405180910390fd5b5f3373ffffffffffffffffffffffffffffffffffffffff168260405161017690610405565b5f6040518083038185875af1925050503d805f81146101b0576040519150601f19603f3d011682016040523d82523d5f602084013e6101b5565b606091505b50509050806101f9576040517f08c379a00000000000000000000000000000000000000000000000000000000081526004016101f090610463565b60405180910390fd5b5f5f5f3373ffffffffffffffffffffffffffffffffffffffff1673ffffffffffffffffffffffffffffffffffffffff1681526020019081526020015f20819055505050565b5f602052805f5260405f205f915090505481565b345f5f3373ffffffffffffffffffffffffffffffffffffffff1673ffffffffffffffffffffffffffffffffffffffff1681526020019081526020015f205f82825461029d91906104ae565b92505081905550565b5f819050919050565b6102b8816102a6565b82525050565b5f6020820190506102d15f8301846102af565b92915050565b5f5ffd5b5f73ffffffffffffffffffffffffffffffffffffffff82169050919050565b5f610304826102db565b9050919050565b610314816102fa565b811461031e575f5ffd5b50565b5f8135905061032f8161030b565b92915050565b5f6020828403121561034a576103496102d7565b5b5f61035784828501610321565b91505092915050565b5f82825260208201905092915050565b7f496e73756666696369656e742062616c616e63650000000000000000000000005f82015250565b5f6103a4601483610360565b91506103af82610370565b602082019050919050565b5f6020820190508181035f8301526103d181610398565b9050919050565b5f81905092915050565b50565b5f6103f05f836103d8565b91506103fb826103e2565b5f82019050919050565b5f61040f826103e5565b9150819050919050565b7f4661696c656420746f2073656e642045746865720000000000000000000000005f82015250565b5f61044d601483610360565b915061045882610419565b602082019050919050565b5f6020820190508181035f83015261047a81610441565b9050919050565b7f4e487b71000000000000000000000000000000000000000000000000000000005f52601160045260245ffd5b5f6104b8826102a6565b91506104c3836102a6565b92508282019050808211156104db576104da610481565b5b9291505056fea2646970667358221220e7602f2a253873de5f5c0eb52835af1d40e7a027a077595a12ddbaac92c123b664736f6c634300081e0033",
					"opcodes": "PUSH1 0x80 PUSH1 0x40 MSTORE CALLVALUE DUP1 ISZERO PUSH1 0xE JUMPI PUSH0 PUSH0 REVERT JUMPDEST POP PUSH2 0x517 DUP1 PUSH2 0x1C PUSH0 CODECOPY PUSH0 RETURN INVALID PUSH1 0x80 PUSH1 0x40 MSTORE PUSH1 0x4 CALLDATASIZE LT PUSH2 0x3E JUMPI PUSH0 CALLDATALOAD PUSH1 0xE0 SHR DUP1 PUSH4 0x12065FE0 EQ PUSH2 0x42 JUMPI DUP1 PUSH4 0x3CCFD60B EQ PUSH2 0x6C JUMPI DUP1 PUSH4 0x70A08231 EQ PUSH2 0x82 JUMPI DUP1 PUSH4 0xD0E30DB0 EQ PUSH2 0xBE JUMPI JUMPDEST PUSH0 PUSH0 REVERT JUMPDEST CALLVALUE DUP1 ISZERO PUSH2 0x4D JUMPI PUSH0 PUSH0 REVERT JUMPDEST POP PUSH2 0x56 PUSH2 0xC8 JUMP JUMPDEST PUSH1 0x40 MLOAD PUSH2 0x63 SWAP2 SWAP1 PUSH2 0x2BE JUMP JUMPDEST PUSH1 0x40 MLOAD DUP1 SWAP2 SUB SWAP1 RETURN JUMPDEST CALLVALUE DUP1 ISZERO PUSH2 0x77 JUMPI PUSH0 PUSH0 REVERT JUMPDEST POP PUSH2 0x80 PUSH2 0xCF JUMP JUMPDEST STOP JUMPDEST CALLVALUE DUP1 ISZERO PUSH2 0x8D JUMPI PUSH0 PUSH0 REVERT JUMPDEST POP PUSH2 0xA8 PUSH1 0x4 DUP1 CALLDATASIZE SUB DUP2 ADD SWAP1 PUSH2 0xA3 SWAP2 SWAP1 PUSH2 0x335 JUMP JUMPDEST PUSH2 0x23E JUMP JUMPDEST PUSH1 0x40 MLOAD PUSH2 0xB5 SWAP2 SWAP1 PUSH2 0x2BE JUMP JUMPDEST PUSH1 0x40 MLOAD DUP1 SWAP2 SUB SWAP1 RETURN JUMPDEST PUSH2 0xC6 PUSH2 0x252 JUMP JUMPDEST STOP JUMPDEST PUSH0 SELFBALANCE SWAP1 POP SWAP1 JUMP JUMPDEST PUSH0 PUSH0 PUSH0 CALLER PUSH20 0xFFFFFFFFFFFFFFFFFFFFFFFFFFFFFFFFFFFFFFFF AND PUSH20 0xFFFFFFFFFFFFFFFFFFFFFFFFFFFFFFFFFFFFFFFF AND DUP2 MSTORE PUSH1 0x20 ADD SWAP1 DUP2 MSTORE PUSH1 0x20 ADD PUSH0 KECCAK256 SLOAD SWAP1 POP PUSH0 DUP2 GT PUSH2 0x151 JUMPI PUSH1 0x40 MLOAD PUSH32 0x8C379A000000000000000000000000000000000000000000000000000000000 DUP2 MSTORE PUSH1 0x4 ADD PUSH2 0x148 SWAP1 PUSH2 0x3BA JUMP JUMPDEST PUSH1 0x40 MLOAD DUP1 SWAP2 SUB SWAP1 REVERT JUMPDEST PUSH0 CALLER PUSH20 0xFFFFFFFFFFFFFFFFFFFFFFFFFFFFFFFFFFFFFFFF AND DUP3 PUSH1 0x40 MLOAD PUSH2 0x176 SWAP1 PUSH2 0x405 JUMP JUMPDEST PUSH0 PUSH1 0x40 MLOAD DUP1 DUP4 SUB DUP2 DUP6 DUP8 GAS CALL SWAP3 POP POP POP RETURNDATASIZE DUP1 PUSH0 DUP2 EQ PUSH2 0x1B0 JUMPI PUSH1 0x40 MLOAD SWAP2 POP PUSH1 0x1F NOT PUSH1 0x3F RETURNDATASIZE ADD AND DUP3 ADD PUSH1 0x40 MSTORE RETURNDATASIZE DUP3 MSTORE RETURNDATASIZE PUSH0 PUSH1 0x20 DUP5 ADD RETURNDATACOPY PUSH2 0x1B5 JUMP JUMPDEST PUSH1 0x60 SWAP2 POP JUMPDEST POP POP SWAP1 POP DUP1 PUSH2 0x1F9 JUMPI PUSH1 0x40 MLOAD PUSH32 0x8C379A000000000000000000000000000000000000000000000000000000000 DUP2 MSTORE PUSH1 0x4 ADD PUSH2 0x1F0 SWAP1 PUSH2 0x463 JUMP JUMPDEST PUSH1 0x40 MLOAD DUP1 SWAP2 SUB SWAP1 REVERT JUMPDEST PUSH0 PUSH0 PUSH0 CALLER PUSH20 0xFFFFFFFFFFFFFFFFFFFFFFFFFFFFFFFFFFFFFFFF AND PUSH20 0xFFFFFFFFFFFFFFFFFFFFFFFFFFFFFFFFFFFFFFFF AND DUP2 MSTORE PUSH1 0x20 ADD SWAP1 DUP2 MSTORE PUSH1 0x20 ADD PUSH0 KECCAK256 DUP2 SWAP1 SSTORE POP POP POP JUMP JUMPDEST PUSH0 PUSH1 0x20 MSTORE DUP1 PUSH0 MSTORE PUSH1 0x40 PUSH0 KECCAK256 PUSH0 SWAP2 POP SWAP1 POP SLOAD DUP2 JUMP JUMPDEST CALLVALUE PUSH0 PUSH0 CALLER PUSH20 0xFFFFFFFFFFFFFFFFFFFFFFFFFFFFFFFFFFFFFFFF AND PUSH20 0xFFFFFFFFFFFFFFFFFFFFFFFFFFFFFFFFFFFFFFFF AND DUP2 MSTORE PUSH1 0x20 ADD SWAP1 DUP2 MSTORE PUSH1 0x20 ADD PUSH0 KECCAK256 PUSH0 DUP3 DUP3 SLOAD PUSH2 0x29D SWAP2 SWAP1 PUSH2 0x4AE JUMP JUMPDEST SWAP3 POP POP DUP2 SWAP1 SSTORE POP JUMP JUMPDEST PUSH0 DUP2 SWAP1 POP SWAP2 SWAP1 POP JUMP JUMPDEST PUSH2 0x2B8 DUP2 PUSH2 0x2A6 JUMP JUMPDEST DUP3 MSTORE POP POP JUMP JUMPDEST PUSH0 PUSH1 0x20 DUP3 ADD SWAP1 POP PUSH2 0x2D1 PUSH0 DUP4 ADD DUP5 PUSH2 0x2AF JUMP JUMPDEST SWAP3 SWAP2 POP POP JUMP JUMPDEST PUSH0 PUSH0 REVERT JUMPDEST PUSH0 PUSH20 0xFFFFFFFFFFFFFFFFFFFFFFFFFFFFFFFFFFFFFFFF DUP3 AND SWAP1 POP SWAP2 SWAP1 POP JUMP JUMPDEST PUSH0 PUSH2 0x304 DUP3 PUSH2 0x2DB JUMP JUMPDEST SWAP1 POP SWAP2 SWAP1 POP JUMP JUMPDEST PUSH2 0x314 DUP2 PUSH2 0x2FA JUMP JUMPDEST DUP2 EQ PUSH2 0x31E JUMPI PUSH0 PUSH0 REVERT JUMPDEST POP JUMP JUMPDEST PUSH0 DUP2 CALLDATALOAD SWAP1 POP PUSH2 0x32F DUP2 PUSH2 0x30B JUMP JUMPDEST SWAP3 SWAP2 POP POP JUMP JUMPDEST PUSH0 PUSH1 0x20 DUP3 DUP5 SUB SLT ISZERO PUSH2 0x34A JUMPI PUSH2 0x349 PUSH2 0x2D7 JUMP JUMPDEST JUMPDEST PUSH0 PUSH2 0x357 DUP5 DUP3 DUP6 ADD PUSH2 0x321 JUMP JUMPDEST SWAP2 POP POP SWAP3 SWAP2 POP POP JUMP JUMPDEST PUSH0 DUP3 DUP3 MSTORE PUSH1 0x20 DUP3 ADD SWAP1 POP SWAP3 SWAP2 POP POP JUMP JUMPDEST PUSH32 0x496E73756666696369656E742062616C616E6365000000000000000000000000 PUSH0 DUP3 ADD MSTORE POP JUMP JUMPDEST PUSH0 PUSH2 0x3A4 PUSH1 0x14 DUP4 PUSH2 0x360 JUMP JUMPDEST SWAP2 POP PUSH2 0x3AF DUP3 PUSH2 0x370 JUMP JUMPDEST PUSH1 0x20 DUP3 ADD SWAP1 POP SWAP2 SWAP1 POP JUMP JUMPDEST PUSH0 PUSH1 0x20 DUP3 ADD SWAP1 POP DUP2 DUP2 SUB PUSH0 DUP4 ADD MSTORE PUSH2 0x3D1 DUP2 PUSH2 0x398 JUMP JUMPDEST SWAP1 POP SWAP2 SWAP1 POP JUMP JUMPDEST PUSH0 DUP2 SWAP1 POP SWAP3 SWAP2 POP POP JUMP JUMPDEST POP JUMP JUMPDEST PUSH0 PUSH2 0x3F0 PUSH0 DUP4 PUSH2 0x3D8 JUMP JUMPDEST SWAP2 POP PUSH2 0x3FB DUP3 PUSH2 0x3E2 JUMP JUMPDEST PUSH0 DUP3 ADD SWAP1 POP SWAP2 SWAP1 POP JUMP JUMPDEST PUSH0 PUSH2 0x40F DUP3 PUSH2 0x3E5 JUMP JUMPDEST SWAP2 POP DUP2 SWAP1 POP SWAP2 SWAP1 POP JUMP JUMPDEST PUSH32 0x4661696C656420746F2073656E64204574686572000000000000000000000000 PUSH0 DUP3 ADD MSTORE POP JUMP JUMPDEST PUSH0 PUSH2 0x44D PUSH1 0x14 DUP4 PUSH2 0x360 JUMP JUMPDEST SWAP2 POP PUSH2 0x458 DUP3 PUSH2 0x419 JUMP JUMPDEST PUSH1 0x20 DUP3 ADD SWAP1 POP SWAP2 SWAP1 POP JUMP JUMPDEST PUSH0 PUSH1 0x20 DUP3 ADD SWAP1 POP DUP2 DUP2 SUB PUSH0 DUP4 ADD MSTORE PUSH2 0x47A DUP2 PUSH2 0x441 JUMP JUMPDEST SWAP1 POP SWAP2 SWAP1 POP JUMP JUMPDEST PUSH32 0x4E487B7100000000000000000000000000000000000000000000000000000000 PUSH0 MSTORE PUSH1 0x11 PUSH1 0x4 MSTORE PUSH1 0x24 PUSH0 REVERT JUMPDEST PUSH0 PUSH2 0x4B8 DUP3 PUSH2 0x2A6 JUMP JUMPDEST SWAP2 POP PUSH2 0x4C3 DUP4 PUSH2 0x2A6 JUMP JUMPDEST SWAP3 POP DUP3 DUP3 ADD SWAP1 POP DUP1 DUP3 GT ISZERO PUSH2 0x4DB JUMPI PUSH2 0x4DA PUSH2 0x481 JUMP JUMPDEST JUMPDEST SWAP3 SWAP2 POP POP JUMP INVALID LOG2 PUSH5 0x6970667358 0x22 SLT KECCAK256 SWAPN 0x60 0x2F 0x2A 0x25 CODESIZE PUSH20 0xDE5F5C0EB52835AF1D40E7A027A077595A12DDBA 0xAC SWAP3 0xC1 0x23 0xB6 PUSH5 0x736F6C6343 STOP ADDMOD 0x1E STOP CALLER "
				},
				"gasEstimates": {
					"creation": {
						"codeDepositCost": "260600",
						"executionCost": "298",
						"totalCost": "260898"
					},
					"external": {
						"balanceOf(address)": "2823",
						"deposit()": "infinite",
						"getBalance()": "312",
						"withdraw()": "infinite"
					}
				},
				"methodIdentifiers": {
					"balanceOf(address)": "70a08231",
					"deposit()": "d0e30db0",
					"getBalance()": "12065fe0",
					"withdraw()": "3ccfd60b"
				}
			},
			"storageLayout": {
				"storage": [
					{
						"astId": 5,
						"contract": "contracts/ReentrancyAttack.sol:Bank",
						"label": "balanceOf",
						"offset": 0,
						"slot": "0",
						"type": "t_mapping(t_address,t_uint256)"
					}
				],
				"types": {
					"t_address": {
						"encoding": "inplace",
						"label": "address",
						"numberOfBytes": "20"
					},
					"t_mapping(t_address,t_uint256)": {
						"encoding": "mapping",
						"key": "t_address",
						"label": "mapping(address => uint256)",
						"numberOfBytes": "32",
						"value": "t_uint256"
					},
					"t_uint256": {
						"encoding": "inplace",
						"label": "uint256",
						"numberOfBytes": "32"
					}
				}
			},
			"userdoc": {
				"kind": "user",
				"methods": {},
				"version": 1
			}
		}
	}
}