{
	"contracts/error.sol": {
		"Errors": {
			"abi": [
				{
					"inputs": [],
					"name": "TransferNotOwner",
					"type": "error"
				},
				{
					"inputs": [
						{
							"internalType": "uint256",
							"name": "tokenId",
							"type": "uint256"
						},
						{
							"internalType": "address",
							"name": "newOwner",
							"type": "address"
						}
					],
					"name": "transferOwner1",
					"outputs": [],
					"stateMutability": "nonpayable",
					"type": "function"
				},
				{
					"inputs": [
						{
							"internalType": "uint256",
							"name": "tokenId",
							"type": "uint256"
						},
						{
							"internalType": "address",
							"name": "newOwner",
							"type": "address"
						}
					],
					"name": "transferOwner2",
					"outputs": [],
					"stateMutability": "nonpayable",
					"type": "function"
				},
				{
					"inputs": [
						{
							"internalType": "uint256",
							"name": "tokenId",
							"type": "uint256"
						},
						{
							"internalType": "address",
							"name": "newOwner",
							"type": "address"
						}
					],
					"name": "transferOwner3",
					"outputs": [],
					"stateMutability": "nonpayable",
					"type": "function"
				}
			],
			"devdoc": {
				"kind": "dev",
				"methods": {},
				"version": 1
			},
			"evm": {
				"assembly": "    /* \"contracts/error.sol\":274:1183  contract Errors {... */\n  mstore(0x40, 0x80)\n  callvalue\n  dup1\n  iszero\n  tag_1\n  jumpi\n  revert(0x00, 0x00)\ntag_1:\n  pop\n  dataSize(sub_0)\n  dup1\n  dataOffset(sub_0)\n  0x00\n  codecopy\n  0x00\n  return\nstop\n\nsub_0: assembly {\n        /* \"contracts/error.sol\":274:1183  contract Errors {... */\n      mstore(0x40, 0x80)\n      callvalue\n      dup1\n      iszero\n      tag_1\n      jumpi\n      revert(0x00, 0x00)\n    tag_1:\n      pop\n      jumpi(tag_2, lt(calldatasize, 0x04))\n      shr(0xe0, calldataload(0x00))\n      dup1\n      0x0f4be868\n      eq\n      tag_3\n      jumpi\n      dup1\n      0x488d9f60\n      eq\n      tag_4\n      jumpi\n      dup1\n      0x83f5e67e\n      eq\n      tag_5\n      jumpi\n    tag_2:\n      revert(0x00, 0x00)\n        /* \"contracts/error.sol\":481:744  function transferOwner1(uint256 tokenId, address newOwner) public {... */\n    tag_3:\n      tag_6\n      0x04\n      dup1\n      calldatasize\n      sub\n      dup2\n      add\n      swap1\n      tag_7\n      swap2\n      swap1\n      tag_8\n      jump\t// in\n    tag_7:\n      tag_9\n      jump\t// in\n    tag_6:\n      stop\n        /* \"contracts/error.sol\":1019:1180  function transferOwner3(uint256 tokenId, address newOwner) public {... */\n    tag_4:\n      tag_10\n      0x04\n      dup1\n      calldatasize\n      sub\n      dup2\n      add\n      swap1\n      tag_11\n      swap2\n      swap1\n      tag_8\n      jump\t// in\n    tag_11:\n      tag_12\n      jump\t// in\n    tag_10:\n      stop\n        /* \"contracts/error.sol\":790:974  function transferOwner2(uint256 tokenId, address newOwner) public {... */\n    tag_5:\n      tag_13\n      0x04\n      dup1\n      calldatasize\n      sub\n      dup2\n      add\n      swap1\n      tag_14\n      swap2\n      swap1\n      tag_8\n      jump\t// in\n    tag_14:\n      tag_15\n      jump\t// in\n    tag_13:\n      stop\n        /* \"contracts/error.sol\":481:744  function transferOwner1(uint256 tokenId, address newOwner) public {... */\n    tag_9:\n        /* \"contracts/error.sol\":582:592  msg.sender */\n      caller\n        /* \"contracts/error.sol\":562:592  _owners[tokenId] != msg.sender */\n      0xffffffffffffffffffffffffffffffffffffffff\n      and\n        /* \"contracts/error.sol\":562:569  _owners */\n      0x00\n        /* \"contracts/error.sol\":562:578  _owners[tokenId] */\n      0x00\n        /* \"contracts/error.sol\":570:577  tokenId */\n      dup5\n        /* \"contracts/error.sol\":562:578  _owners[tokenId] */\n      dup2\n      mstore\n      0x20\n      add\n      swap1\n      dup2\n      mstore\n      0x20\n      add\n      0x00\n      keccak256\n      0x00\n      swap1\n      sload\n      swap1\n      0x0100\n      exp\n      swap1\n      div\n      0xffffffffffffffffffffffffffffffffffffffff\n      and\n        /* \"contracts/error.sol\":562:592  _owners[tokenId] != msg.sender */\n      0xffffffffffffffffffffffffffffffffffffffff\n      and\n      eq\n        /* \"contracts/error.sol\":558:699  if (_owners[tokenId] != msg.sender) {... */\n      tag_17\n      jumpi\n        /* \"contracts/error.sol\":616:634  TransferNotOwner() */\n      mload(0x40)\n      0x3fc2482600000000000000000000000000000000000000000000000000000000\n      dup2\n      mstore\n      0x04\n      add\n      mload(0x40)\n      dup1\n      swap2\n      sub\n      swap1\n      revert\n        /* \"contracts/error.sol\":558:699  if (_owners[tokenId] != msg.sender) {... */\n    tag_17:\n        /* \"contracts/error.sol\":728:736  newOwner */\n      dup1\n        /* \"contracts/error.sol\":709:716  _owners */\n      0x00\n        /* \"contracts/error.sol\":709:725  _owners[tokenId] */\n      0x00\n        /* \"contracts/error.sol\":717:724  tokenId */\n      dup5\n        /* \"contracts/error.sol\":709:725  _owners[tokenId] */\n      dup2\n      mstore\n      0x20\n      add\n      swap1\n      dup2\n      mstore\n      0x20\n      add\n      0x00\n      keccak256\n      0x00\n        /* \"contracts/error.sol\":709:736  _owners[tokenId] = newOwner */\n      0x0100\n      exp\n      dup2\n      sload\n      dup2\n      0xffffffffffffffffffffffffffffffffffffffff\n      mul\n      not\n      and\n      swap1\n      dup4\n      0xffffffffffffffffffffffffffffffffffffffff\n      and\n      mul\n      or\n      swap1\n      sstore\n      pop\n        /* \"contracts/error.sol\":481:744  function transferOwner1(uint256 tokenId, address newOwner) public {... */\n      pop\n      pop\n      jump\t// out\n        /* \"contracts/error.sol\":1019:1180  function transferOwner3(uint256 tokenId, address newOwner) public {... */\n    tag_12:\n        /* \"contracts/error.sol\":1123:1133  msg.sender */\n      caller\n        /* \"contracts/error.sol\":1103:1133  _owners[tokenId] == msg.sender */\n      0xffffffffffffffffffffffffffffffffffffffff\n      and\n        /* \"contracts/error.sol\":1103:1110  _owners */\n      0x00\n        /* \"contracts/error.sol\":1103:1119  _owners[tokenId] */\n      0x00\n        /* \"contracts/error.sol\":1111:1118  tokenId */\n      dup5\n        /* \"contracts/error.sol\":1103:1119  _owners[tokenId] */\n      dup2\n      mstore\n      0x20\n      add\n      swap1\n      dup2\n      mstore\n      0x20\n      add\n      0x00\n      keccak256\n      0x00\n      swap1\n      sload\n      swap1\n      0x0100\n      exp\n      swap1\n      div\n      0xffffffffffffffffffffffffffffffffffffffff\n      and\n        /* \"contracts/error.sol\":1103:1133  _owners[tokenId] == msg.sender */\n      0xffffffffffffffffffffffffffffffffffffffff\n      and\n      eq\n        /* \"contracts/error.sol\":1096:1134  assert(_owners[tokenId] == msg.sender) */\n      tag_19\n      jumpi\n      tag_20\n      tag_21\n      jump\t// in\n    tag_20:\n    tag_19:\n        /* \"contracts/error.sol\":1164:1172  newOwner */\n      dup1\n        /* \"contracts/error.sol\":1145:1152  _owners */\n      0x00\n        /* \"contracts/error.sol\":1145:1161  _owners[tokenId] */\n      0x00\n        /* \"contracts/error.sol\":1153:1160  tokenId */\n      dup5\n        /* \"contracts/error.sol\":1145:1161  _owners[tokenId] */\n      dup2\n      mstore\n      0x20\n      add\n      swap1\n      dup2\n      mstore\n      0x20\n      add\n      0x00\n      keccak256\n      0x00\n        /* \"contracts/error.sol\":1145:1172  _owners[tokenId] = newOwner */\n      0x0100\n      exp\n      dup2\n      sload\n      dup2\n      0xffffffffffffffffffffffffffffffffffffffff\n      mul\n      not\n      and\n      swap1\n      dup4\n      0xffffffffffffffffffffffffffffffffffffffff\n      and\n      mul\n      or\n      swap1\n      sstore\n      pop\n        /* \"contracts/error.sol\":1019:1180  function transferOwner3(uint256 tokenId, address newOwner) public {... */\n      pop\n      pop\n      jump\t// out\n        /* \"contracts/error.sol\":790:974  function transferOwner2(uint256 tokenId, address newOwner) public {... */\n    tag_15:\n        /* \"contracts/error.sol\":895:905  msg.sender */\n      caller\n        /* \"contracts/error.sol\":875:905  _owners[tokenId] == msg.sender */\n      0xffffffffffffffffffffffffffffffffffffffff\n      and\n        /* \"contracts/error.sol\":875:882  _owners */\n      0x00\n        /* \"contracts/error.sol\":875:891  _owners[tokenId] */\n      0x00\n        /* \"contracts/error.sol\":883:890  tokenId */\n      dup5\n        /* \"contracts/error.sol\":875:891  _owners[tokenId] */\n      dup2\n      mstore\n      0x20\n      add\n      swap1\n      dup2\n      mstore\n      0x20\n      add\n      0x00\n      keccak256\n      0x00\n      swap1\n      sload\n      swap1\n      0x0100\n      exp\n      swap1\n      div\n      0xffffffffffffffffffffffffffffffffffffffff\n      and\n        /* \"contracts/error.sol\":875:905  _owners[tokenId] == msg.sender */\n      0xffffffffffffffffffffffffffffffffffffffff\n      and\n      eq\n        /* \"contracts/error.sol\":867:928  require(_owners[tokenId] == msg.sender, \"Transfer Not Owner\") */\n      tag_23\n      jumpi\n      mload(0x40)\n      0x08c379a000000000000000000000000000000000000000000000000000000000\n      dup2\n      mstore\n      0x04\n      add\n      tag_24\n      swap1\n      tag_25\n      jump\t// in\n    tag_24:\n      mload(0x40)\n      dup1\n      swap2\n      sub\n      swap1\n      revert\n    tag_23:\n        /* \"contracts/error.sol\":958:966  newOwner */\n      dup1\n        /* \"contracts/error.sol\":939:946  _owners */\n      0x00\n        /* \"contracts/error.sol\":939:955  _owners[tokenId] */\n      0x00\n        /* \"contracts/error.sol\":947:954  tokenId */\n      dup5\n        /* \"contracts/error.sol\":939:955  _owners[tokenId] */\n      dup2\n      mstore\n      0x20\n      add\n      swap1\n      dup2\n      mstore\n      0x20\n      add\n      0x00\n      keccak256\n      0x00\n        /* \"contracts/error.sol\":939:966  _owners[tokenId] = newOwner */\n      0x0100\n      exp\n      dup2\n      sload\n      dup2\n      0xffffffffffffffffffffffffffffffffffffffff\n      mul\n      not\n      and\n      swap1\n      dup4\n      0xffffffffffffffffffffffffffffffffffffffff\n      and\n      mul\n      or\n      swap1\n      sstore\n      pop\n        /* \"contracts/error.sol\":790:974  function transferOwner2(uint256 tokenId, address newOwner) public {... */\n      pop\n      pop\n      jump\t// out\n        /* \"#utility.yul\":88:205   */\n    tag_27:\n        /* \"#utility.yul\":197:198   */\n      0x00\n        /* \"#utility.yul\":194:195   */\n      0x00\n        /* \"#utility.yul\":187:199   */\n      revert\n        /* \"#utility.yul\":334:411   */\n    tag_29:\n        /* \"#utility.yul\":371:378   */\n      0x00\n        /* \"#utility.yul\":400:405   */\n      dup2\n        /* \"#utility.yul\":389:405   */\n      swap1\n      pop\n        /* \"#utility.yul\":334:411   */\n      swap2\n      swap1\n      pop\n      jump\t// out\n        /* \"#utility.yul\":417:539   */\n    tag_30:\n        /* \"#utility.yul\":490:514   */\n      tag_45\n        /* \"#utility.yul\":508:513   */\n      dup2\n        /* \"#utility.yul\":490:514   */\n      tag_29\n      jump\t// in\n    tag_45:\n        /* \"#utility.yul\":483:488   */\n      dup2\n        /* \"#utility.yul\":480:515   */\n      eq\n        /* \"#utility.yul\":470:533   */\n      tag_46\n      jumpi\n        /* \"#utility.yul\":529:530   */\n      0x00\n        /* \"#utility.yul\":526:527   */\n      0x00\n        /* \"#utility.yul\":519:531   */\n      revert\n        /* \"#utility.yul\":470:533   */\n    tag_46:\n        /* \"#utility.yul\":417:539   */\n      pop\n      jump\t// out\n        /* \"#utility.yul\":545:684   */\n    tag_31:\n        /* \"#utility.yul\":591:596   */\n      0x00\n        /* \"#utility.yul\":629:635   */\n      dup2\n        /* \"#utility.yul\":616:636   */\n      calldataload\n        /* \"#utility.yul\":607:636   */\n      swap1\n      pop\n        /* \"#utility.yul\":645:678   */\n      tag_48\n        /* \"#utility.yul\":672:677   */\n      dup2\n        /* \"#utility.yul\":645:678   */\n      tag_30\n      jump\t// in\n    tag_48:\n        /* \"#utility.yul\":545:684   */\n      swap3\n      swap2\n      pop\n      pop\n      jump\t// out\n        /* \"#utility.yul\":690:816   */\n    tag_32:\n        /* \"#utility.yul\":727:734   */\n      0x00\n        /* \"#utility.yul\":767:809   */\n      0xffffffffffffffffffffffffffffffffffffffff\n        /* \"#utility.yul\":760:765   */\n      dup3\n        /* \"#utility.yul\":756:810   */\n      and\n        /* \"#utility.yul\":745:810   */\n      swap1\n      pop\n        /* \"#utility.yul\":690:816   */\n      swap2\n      swap1\n      pop\n      jump\t// out\n        /* \"#utility.yul\":822:918   */\n    tag_33:\n        /* \"#utility.yul\":859:866   */\n      0x00\n        /* \"#utility.yul\":888:912   */\n      tag_51\n        /* \"#utility.yul\":906:911   */\n      dup3\n        /* \"#utility.yul\":888:912   */\n      tag_32\n      jump\t// in\n    tag_51:\n        /* \"#utility.yul\":877:912   */\n      swap1\n      pop\n        /* \"#utility.yul\":822:918   */\n      swap2\n      swap1\n      pop\n      jump\t// out\n        /* \"#utility.yul\":924:1046   */\n    tag_34:\n        /* \"#utility.yul\":997:1021   */\n      tag_53\n        /* \"#utility.yul\":1015:1020   */\n      dup2\n        /* \"#utility.yul\":997:1021   */\n      tag_33\n      jump\t// in\n    tag_53:\n        /* \"#utility.yul\":990:995   */\n      dup2\n        /* \"#utility.yul\":987:1022   */\n      eq\n        /* \"#utility.yul\":977:1040   */\n      tag_54\n      jumpi\n        /* \"#utility.yul\":1036:1037   */\n      0x00\n        /* \"#utility.yul\":1033:1034   */\n      0x00\n        /* \"#utility.yul\":1026:1038   */\n      revert\n        /* \"#utility.yul\":977:1040   */\n    tag_54:\n        /* \"#utility.yul\":924:1046   */\n      pop\n      jump\t// out\n        /* \"#utility.yul\":1052:1191   */\n    tag_35:\n        /* \"#utility.yul\":1098:1103   */\n      0x00\n        /* \"#utility.yul\":1136:1142   */\n      dup2\n        /* \"#utility.yul\":1123:1143   */\n      calldataload\n        /* \"#utility.yul\":1114:1143   */\n      swap1\n      pop\n        /* \"#utility.yul\":1152:1185   */\n      tag_56\n        /* \"#utility.yul\":1179:1184   */\n      dup2\n        /* \"#utility.yul\":1152:1185   */\n      tag_34\n      jump\t// in\n    tag_56:\n        /* \"#utility.yul\":1052:1191   */\n      swap3\n      swap2\n      pop\n      pop\n      jump\t// out\n        /* \"#utility.yul\":1197:1671   */\n    tag_8:\n        /* \"#utility.yul\":1265:1271   */\n      0x00\n        /* \"#utility.yul\":1273:1279   */\n      0x00\n        /* \"#utility.yul\":1322:1324   */\n      0x40\n        /* \"#utility.yul\":1310:1319   */\n      dup4\n        /* \"#utility.yul\":1301:1308   */\n      dup6\n        /* \"#utility.yul\":1297:1320   */\n      sub\n        /* \"#utility.yul\":1293:1325   */\n      slt\n        /* \"#utility.yul\":1290:1409   */\n      iszero\n      tag_58\n      jumpi\n        /* \"#utility.yul\":1328:1407   */\n      tag_59\n      tag_27\n      jump\t// in\n    tag_59:\n        /* \"#utility.yul\":1290:1409   */\n    tag_58:\n        /* \"#utility.yul\":1448:1449   */\n      0x00\n        /* \"#utility.yul\":1473:1526   */\n      tag_60\n        /* \"#utility.yul\":1518:1525   */\n      dup6\n        /* \"#utility.yul\":1509:1515   */\n      dup3\n        /* \"#utility.yul\":1498:1507   */\n      dup7\n        /* \"#utility.yul\":1494:1516   */\n      add\n        /* \"#utility.yul\":1473:1526   */\n      tag_31\n      jump\t// in\n    tag_60:\n        /* \"#utility.yul\":1463:1526   */\n      swap3\n      pop\n        /* \"#utility.yul\":1419:1536   */\n      pop\n        /* \"#utility.yul\":1575:1577   */\n      0x20\n        /* \"#utility.yul\":1601:1654   */\n      tag_61\n        /* \"#utility.yul\":1646:1653   */\n      dup6\n        /* \"#utility.yul\":1637:1643   */\n      dup3\n        /* \"#utility.yul\":1626:1635   */\n      dup7\n        /* \"#utility.yul\":1622:1644   */\n      add\n        /* \"#utility.yul\":1601:1654   */\n      tag_35\n      jump\t// in\n    tag_61:\n        /* \"#utility.yul\":1591:1654   */\n      swap2\n      pop\n        /* \"#utility.yul\":1546:1664   */\n      pop\n        /* \"#utility.yul\":1197:1671   */\n      swap3\n      pop\n      swap3\n      swap1\n      pop\n      jump\t// out\n        /* \"#utility.yul\":1677:1857   */\n    tag_21:\n        /* \"#utility.yul\":1725:1802   */\n      0x4e487b7100000000000000000000000000000000000000000000000000000000\n        /* \"#utility.yul\":1722:1723   */\n      0x00\n        /* \"#utility.yul\":1715:1803   */\n      mstore\n        /* \"#utility.yul\":1822:1826   */\n      0x01\n        /* \"#utility.yul\":1819:1820   */\n      0x04\n        /* \"#utility.yul\":1812:1827   */\n      mstore\n        /* \"#utility.yul\":1846:1850   */\n      0x24\n        /* \"#utility.yul\":1843:1844   */\n      0x00\n        /* \"#utility.yul\":1836:1851   */\n      revert\n        /* \"#utility.yul\":1863:2032   */\n    tag_36:\n        /* \"#utility.yul\":1947:1958   */\n      0x00\n        /* \"#utility.yul\":1981:1987   */\n      dup3\n        /* \"#utility.yul\":1976:1979   */\n      dup3\n        /* \"#utility.yul\":1969:1988   */\n      mstore\n        /* \"#utility.yul\":2021:2025   */\n      0x20\n        /* \"#utility.yul\":2016:2019   */\n      dup3\n        /* \"#utility.yul\":2012:2026   */\n      add\n        /* \"#utility.yul\":1997:2026   */\n      swap1\n      pop\n        /* \"#utility.yul\":1863:2032   */\n      swap3\n      swap2\n      pop\n      pop\n      jump\t// out\n        /* \"#utility.yul\":2038:2206   */\n    tag_37:\n        /* \"#utility.yul\":2178:2198   */\n      0x5472616e73666572204e6f74204f776e65720000000000000000000000000000\n        /* \"#utility.yul\":2174:2175   */\n      0x00\n        /* \"#utility.yul\":2166:2172   */\n      dup3\n        /* \"#utility.yul\":2162:2176   */\n      add\n        /* \"#utility.yul\":2155:2199   */\n      mstore\n        /* \"#utility.yul\":2038:2206   */\n      pop\n      jump\t// out\n        /* \"#utility.yul\":2212:2578   */\n    tag_38:\n        /* \"#utility.yul\":2354:2357   */\n      0x00\n        /* \"#utility.yul\":2375:2442   */\n      tag_66\n        /* \"#utility.yul\":2439:2441   */\n      0x12\n        /* \"#utility.yul\":2434:2437   */\n      dup4\n        /* \"#utility.yul\":2375:2442   */\n      tag_36\n      jump\t// in\n    tag_66:\n        /* \"#utility.yul\":2368:2442   */\n      swap2\n      pop\n        /* \"#utility.yul\":2451:2544   */\n      tag_67\n        /* \"#utility.yul\":2540:2543   */\n      dup3\n        /* \"#utility.yul\":2451:2544   */\n      tag_37\n      jump\t// in\n    tag_67:\n        /* \"#utility.yul\":2569:2571   */\n      0x20\n        /* \"#utility.yul\":2564:2567   */\n      dup3\n        /* \"#utility.yul\":2560:2572   */\n      add\n        /* \"#utility.yul\":2553:2572   */\n      swap1\n      pop\n        /* \"#utility.yul\":2212:2578   */\n      swap2\n      swap1\n      pop\n      jump\t// out\n        /* \"#utility.yul\":2584:3003   */\n    tag_25:\n        /* \"#utility.yul\":2750:2754   */\n      0x00\n        /* \"#utility.yul\":2788:2790   */\n      0x20\n        /* \"#utility.yul\":2777:2786   */\n      dup3\n        /* \"#utility.yul\":2773:2791   */\n      add\n        /* \"#utility.yul\":2765:2791   */\n      swap1\n      pop\n        /* \"#utility.yul\":2837:2846   */\n      dup2\n        /* \"#utility.yul\":2831:2835   */\n      dup2\n        /* \"#utility.yul\":2827:2847   */\n      sub\n        /* \"#utility.yul\":2823:2824   */\n      0x00\n        /* \"#utility.yul\":2812:2821   */\n      dup4\n        /* \"#utility.yul\":2808:2825   */\n      add\n        /* \"#utility.yul\":2801:2848   */\n      mstore\n        /* \"#utility.yul\":2865:2996   */\n      tag_69\n        /* \"#utility.yul\":2991:2995   */\n      dup2\n        /* \"#utility.yul\":2865:2996   */\n      tag_38\n      jump\t// in\n    tag_69:\n        /* \"#utility.yul\":2857:2996   */\n      swap1\n      pop\n        /* \"#utility.yul\":2584:3003   */\n      swap2\n      swap1\n      pop\n      jump\t// out\n\n    auxdata: 0xa264697066735822122012e82b883390f9121ee9d2edb7bbe87bccd5576be1470119050cd908e3f732f464736f6c634300081e0033\n}\n",
				"bytecode": {
					"linkReferences": {},
					"object": "6080604052348015600e575f5ffd5b506104d38061001c5f395ff3fe608060405234801561000f575f5ffd5b506004361061003f575f3560e01c80630f4be86814610043578063488d9f601461005f57806383f5e67e1461007b575b5f5ffd5b61005d600480360381019061005891906103ba565b610097565b005b610079600480360381019061007491906103ba565b61017d565b005b610095600480360381019061009091906103ba565b61023a565b005b3373ffffffffffffffffffffffffffffffffffffffff165f5f8481526020019081526020015f205f9054906101000a900473ffffffffffffffffffffffffffffffffffffffff1673ffffffffffffffffffffffffffffffffffffffff161461012b576040517f3fc2482600000000000000000000000000000000000000000000000000000000815260040160405180910390fd5b805f5f8481526020019081526020015f205f6101000a81548173ffffffffffffffffffffffffffffffffffffffff021916908373ffffffffffffffffffffffffffffffffffffffff1602179055505050565b3373ffffffffffffffffffffffffffffffffffffffff165f5f8481526020019081526020015f205f9054906101000a900473ffffffffffffffffffffffffffffffffffffffff1673ffffffffffffffffffffffffffffffffffffffff16146101e8576101e76103f8565b5b805f5f8481526020019081526020015f205f6101000a81548173ffffffffffffffffffffffffffffffffffffffff021916908373ffffffffffffffffffffffffffffffffffffffff1602179055505050565b3373ffffffffffffffffffffffffffffffffffffffff165f5f8481526020019081526020015f205f9054906101000a900473ffffffffffffffffffffffffffffffffffffffff1673ffffffffffffffffffffffffffffffffffffffff16146102d7576040517f08c379a00000000000000000000000000000000000000000000000000000000081526004016102ce9061047f565b60405180910390fd5b805f5f8481526020019081526020015f205f6101000a81548173ffffffffffffffffffffffffffffffffffffffff021916908373ffffffffffffffffffffffffffffffffffffffff1602179055505050565b5f5ffd5b5f819050919050565b61033f8161032d565b8114610349575f5ffd5b50565b5f8135905061035a81610336565b92915050565b5f73ffffffffffffffffffffffffffffffffffffffff82169050919050565b5f61038982610360565b9050919050565b6103998161037f565b81146103a3575f5ffd5b50565b5f813590506103b481610390565b92915050565b5f5f604083850312156103d0576103cf610329565b5b5f6103dd8582860161034c565b92505060206103ee858286016103a6565b9150509250929050565b7f4e487b71000000000000000000000000000000000000000000000000000000005f52600160045260245ffd5b5f82825260208201905092915050565b7f5472616e73666572204e6f74204f776e657200000000000000000000000000005f82015250565b5f610469601283610425565b915061047482610435565b602082019050919050565b5f6020820190508181035f8301526104968161045d565b905091905056fea264697066735822122012e82b883390f9121ee9d2edb7bbe87bccd5576be1470119050cd908e3f732f464736f6c634300081e0033",
					"opcodes": "PUSH1 0x80 PUSH1 0x40 MSTORE CALLVALUE DUP1 ISZERO PUSH1 0xE JUMPI PUSH0 PUSH0 REVERT JUMPDEST POP PUSH2 0x4D3 DUP1 PUSH2 0x1C PUSH0 CODECOPY PUSH0 RETURN INVALID PUSH1 0x80 PUSH1 0x40 MSTORE CALLVALUE DUP1 ISZERO PUSH2 0xF JUMPI PUSH0 PUSH0 REVERT JUMPDEST POP PUSH1 0x4 CALLDATASIZE LT PUSH2 0x3F JUMPI PUSH0 CALLDATALOAD PUSH1 0xE0 SHR DUP1 PUSH4 0xF4BE868 EQ PUSH2 0x43 JUMPI DUP1 PUSH4 0x488D9F60 EQ PUSH2 0x5F JUMPI DUP1 PUSH4 0x83F5E67E EQ PUSH2 0x7B JUMPI JUMPDEST PUSH0 PUSH0 REVERT JUMPDEST PUSH2 0x5D PUSH1 0x4 DUP1 CALLDATASIZE SUB DUP2 ADD SWAP1 PUSH2 0x58 SWAP2 SWAP1 PUSH2 0x3BA JUMP JUMPDEST PUSH2 0x97 JUMP JUMPDEST STOP JUMPDEST PUSH2 0x79 PUSH1 0x4 DUP1 CALLDATASIZE SUB DUP2 ADD SWAP1 PUSH2 0x74 SWAP2 SWAP1 PUSH2 0x3BA JUMP JUMPDEST PUSH2 0x17D JUMP JUMPDEST STOP JUMPDEST PUSH2 0x95 PUSH1 0x4 DUP1 CALLDATASIZE SUB DUP2 ADD SWAP1 PUSH2 0x90 SWAP2 SWAP1 PUSH2 0x3BA JUMP JUMPDEST PUSH2 0x23A JUMP JUMPDEST STOP JUMPDEST CALLER PUSH20 0xFFFFFFFFFFFFFFFFFFFFFFFFFFFFFFFFFFFFFFFF AND PUSH0 PUSH0 DUP5 DUP2 MSTORE PUSH1 0x20 ADD SWAP1 DUP2 MSTORE PUSH1 0x20 ADD PUSH0 KECCAK256 PUSH0 SWAP1 SLOAD SWAP1 PUSH2 0x100 EXP SWAP1 DIV PUSH20 0xFFFFFFFFFFFFFFFFFFFFFFFFFFFFFFFFFFFFFFFF AND PUSH20 0xFFFFFFFFFFFFFFFFFFFFFFFFFFFFFFFFFFFFFFFF AND EQ PUSH2 0x12B JUMPI PUSH1 0x40 MLOAD PUSH32 0x3FC2482600000000000000000000000000000000000000000000000000000000 DUP2 MSTORE PUSH1 0x4 ADD PUSH1 0x40 MLOAD DUP1 SWAP2 SUB SWAP1 REVERT JUMPDEST DUP1 PUSH0 PUSH0 DUP5 DUP2 MSTORE PUSH1 0x20 ADD SWAP1 DUP2 MSTORE PUSH1 0x20 ADD PUSH0 KECCAK256 PUSH0 PUSH2 0x100 EXP DUP2 SLOAD DUP2 PUSH20 0xFFFFFFFFFFFFFFFFFFFFFFFFFFFFFFFFFFFFFFFF MUL NOT AND SWAP1 DUP4 PUSH20 0xFFFFFFFFFFFFFFFFFFFFFFFFFFFFFFFFFFFFFFFF AND MUL OR SWAP1 SSTORE POP POP POP JUMP JUMPDEST CALLER PUSH20 0xFFFFFFFFFFFFFFFFFFFFFFFFFFFFFFFFFFFFFFFF AND PUSH0 PUSH0 DUP5 DUP2 MSTORE PUSH1 0x20 ADD SWAP1 DUP2 MSTORE PUSH1 0x20 ADD PUSH0 KECCAK256 PUSH0 SWAP1 SLOAD SWAP1 PUSH2 0x100 EXP SWAP1 DIV PUSH20 0xFFFFFFFFFFFFFFFFFFFFFFFFFFFFFFFFFFFFFFFF AND PUSH20 0xFFFFFFFFFFFFFFFFFFFFFFFFFFFFFFFFFFFFFFFF AND EQ PUSH2 0x1E8 JUMPI PUSH2 0x1E7 PUSH2 0x3F8 JUMP JUMPDEST JUMPDEST DUP1 PUSH0 PUSH0 DUP5 DUP2 MSTORE PUSH1 0x20 ADD SWAP1 DUP2 MSTORE PUSH1 0x20 ADD PUSH0 KECCAK256 PUSH0 PUSH2 0x100 EXP DUP2 SLOAD DUP2 PUSH20 0xFFFFFFFFFFFFFFFFFFFFFFFFFFFFFFFFFFFFFFFF MUL NOT AND SWAP1 DUP4 PUSH20 0xFFFFFFFFFFFFFFFFFFFFFFFFFFFFFFFFFFFFFFFF AND MUL OR SWAP1 SSTORE POP POP POP JUMP JUMPDEST CALLER PUSH20 0xFFFFFFFFFFFFFFFFFFFFFFFFFFFFFFFFFFFFFFFF AND PUSH0 PUSH0 DUP5 DUP2 MSTORE PUSH1 0x20 ADD SWAP1 DUP2 MSTORE PUSH1 0x20 ADD PUSH0 KECCAK256 PUSH0 SWAP1 SLOAD SWAP1 PUSH2 0x100 EXP SWAP1 DIV PUSH20 0xFFFFFFFFFFFFFFFFFFFFFFFFFFFFFFFFFFFFFFFF AND PUSH20 0xFFFFFFFFFFFFFFFFFFFFFFFFFFFFFFFFFFFFFFFF AND EQ PUSH2 0x2D7 JUMPI PUSH1 0x40 MLOAD PUSH32 0x8C379A000000000000000000000000000000000000000000000000000000000 DUP2 MSTORE PUSH1 0x4 ADD PUSH2 0x2CE SWAP1 PUSH2 0x47F JUMP JUMPDEST PUSH1 0x40 MLOAD DUP1 SWAP2 SUB SWAP1 REVERT JUMPDEST DUP1 PUSH0 PUSH0 DUP5 DUP2 MSTORE PUSH1 0x20 ADD SWAP1 DUP2 MSTORE PUSH1 0x20 ADD PUSH0 KECCAK256 PUSH0 PUSH2 0x100 EXP DUP2 SLOAD DUP2 PUSH20 0xFFFFFFFFFFFFFFFFFFFFFFFFFFFFFFFFFFFFFFFF MUL NOT AND SWAP1 DUP4 PUSH20 0xFFFFFFFFFFFFFFFFFFFFFFFFFFFFFFFFFFFFFFFF AND MUL OR SWAP1 SSTORE POP POP POP JUMP JUMPDEST PUSH0 PUSH0 REVERT JUMPDEST PUSH0 DUP2 SWAP1 POP SWAP2 SWAP1 POP JUMP JUMPDEST PUSH2 0x33F DUP2 PUSH2 0x32D JUMP JUMPDEST DUP2 EQ PUSH2 0x349 JUMPI PUSH0 PUSH0 REVERT JUMPDEST POP JUMP JUMPDEST PUSH0 DUP2 CALLDATALOAD SWAP1 POP PUSH2 0x35A DUP2 PUSH2 0x336 JUMP JUMPDEST SWAP3 SWAP2 POP POP JUMP JUMPDEST PUSH0 PUSH20 0xFFFFFFFFFFFFFFFFFFFFFFFFFFFFFFFFFFFFFFFF DUP3 AND SWAP1 POP SWAP2 SWAP1 POP JUMP JUMPDEST PUSH0 PUSH2 0x389 DUP3 PUSH2 0x360 JUMP JUMPDEST SWAP1 POP SWAP2 SWAP1 POP JUMP JUMPDEST PUSH2 0x399 DUP2 PUSH2 0x37F JUMP JUMPDEST DUP2 EQ PUSH2 0x3A3 JUMPI PUSH0 PUSH0 REVERT JUMPDEST POP JUMP JUMPDEST PUSH0 DUP2 CALLDATALOAD SWAP1 POP PUSH2 0x3B4 DUP2 PUSH2 0x390 JUMP JUMPDEST SWAP3 SWAP2 POP POP JUMP JUMPDEST PUSH0 PUSH0 PUSH1 0x40 DUP4 DUP6 SUB SLT ISZERO PUSH2 0x3D0 JUMPI PUSH2 0x3CF PUSH2 0x329 JUMP JUMPDEST JUMPDEST PUSH0 PUSH2 0x3DD DUP6 DUP3 DUP7 ADD PUSH2 0x34C JUMP JUMPDEST SWAP3 POP POP PUSH1 0x20 PUSH2 0x3EE DUP6 DUP3 DUP7 ADD PUSH2 0x3A6 JUMP JUMPDEST SWAP2 POP POP SWAP3 POP SWAP3 SWAP1 POP JUMP JUMPDEST PUSH32 0x4E487B7100000000000000000000000000000000000000000000000000000000 PUSH0 MSTORE PUSH1 0x1 PUSH1 0x4 MSTORE PUSH1 0x24 PUSH0 REVERT JUMPDEST PUSH0 DUP3 DUP3 MSTORE PUSH1 0x20 DUP3 ADD SWAP1 POP SWAP3 SWAP2 POP POP JUMP JUMPDEST PUSH32 0x5472616E73666572204E6F74204F776E65720000000000000000000000000000 PUSH0 DUP3 ADD MSTORE POP JUMP JUMPDEST PUSH0 PUSH2 0x469 PUSH1 0x12 DUP4 PUSH2 0x425 JUMP JUMPDEST SWAP2 POP PUSH2 0x474 DUP3 PUSH2 0x435 JUMP JUMPDEST PUSH1 0x20 DUP3 ADD SWAP1 POP SWAP2 SWAP1 POP JUMP JUMPDEST PUSH0 PUSH1 0x20 DUP3 ADD SWAP1 POP DUP2 DUP2 SUB PUSH0 DUP4 ADD MSTORE PUSH2 0x496 DUP2 PUSH2 0x45D JUMP JUMPDEST SWAP1 POP SWAP2 SWAP1 POP JUMP INVALID LOG2 PUSH5 0x6970667358 0x22 SLT KECCAK256 SLT 0xE8 0x2B DUP9 CALLER SWAP1 EXTDELEGATECALL SLT 0x1E 0xE9 0xD2 0xED 0xB7 0xBB 0xE8 PUSH28 0xCCD5576BE1470119050CD908E3F732F464736F6C634300081E003300 "
				},
				"gasEstimates": {
					"creation": {
						"codeDepositCost": "247000",
						"executionCost": "285",
						"totalCost": "247285"
					},
					"external": {
						"transferOwner1(uint256,address)": "27182",
						"transferOwner2(uint256,address)": "27226",
						"transferOwner3(uint256,address)": "27204"
					}
				},
				"methodIdentifiers": {
					"transferOwner1(uint256,address)": "0f4be868",
					"transferOwner2(uint256,address)": "83f5e67e",
					"transferOwner3(uint256,address)": "488d9f60"
				}
			},
			"storageLayout": {
				"storage": [
					{
						"astId": 7,
						"contract": "contracts/error.sol:Errors",
						"label": "_owners",
						"offset": 0,
						"slot": "0",
						"type": "t_mapping(t_uint256,t_address)"
					}
				],
				"types": {
					"t_address": {
						"encoding": "inplace",
						"label": "address",
						"numberOfBytes": "20"
					},
					"t_mapping(t_uint256,t_address)": {
						"encoding": "mapping",
						"key": "t_uint256",
						"label": "mapping(uint256 => address)",
						"numberOfBytes": "32",
						"value": "t_address"
					},
					"t_uint256": {
						"encoding": "inplace",
						"label": "uint256",
						"numberOfBytes": "32"
					}
				}
			},
			"userdoc": {
				"kind": "user",
				"methods": {},
				"version": 1
			}
		}
	}
}