{
	"contracts/vul/DosGame.sol": {
		"Attack": {
			"abi": [
				{
					"stateMutability": "payable",
					"type": "fallback"
				},
				{
					"inputs": [
						{
							"internalType": "address",
							"name": "gameAddr",
							"type": "address"
						}
					],
					"name": "attack",
					"outputs": [],
					"stateMutability": "payable",
					"type": "function"
				}
			],
			"devdoc": {
				"kind": "dev",
				"methods": {},
				"version": 1
			},
			"evm": {
				"assembly": "    /* \"contracts/vul/DosGame.sol\":1304:1614  contract Attack {... */\n  mstore(0x40, 0x80)\n  callvalue\n  dup1\n  iszero\n  tag_1\n  jumpi\n  revert(0x00, 0x00)\ntag_1:\n  pop\n  dataSize(sub_0)\n  dup1\n  dataOffset(sub_0)\n  0x00\n  codecopy\n  0x00\n  return\nstop\n\nsub_0: assembly {\n        /* \"contracts/vul/DosGame.sol\":1304:1614  contract Attack {... */\n      mstore(0x40, 0x80)\n      jumpi(tag_1, lt(calldatasize, 0x04))\n      shr(0xe0, calldataload(0x00))\n      dup1\n      0xd018db3e\n      eq\n      tag_3\n      jumpi\n      jump(tag_2)\n    tag_1:\n    tag_2:\n        /* \"contracts/vul/DosGame.sol\":1398:1419  revert(\"DoS Attack!\") */\n      mload(0x40)\n      0x08c379a000000000000000000000000000000000000000000000000000000000\n      dup2\n      mstore\n      0x04\n      add\n      tag_6\n      swap1\n      tag_7\n      jump\t// in\n    tag_6:\n      mload(0x40)\n      dup1\n      swap2\n      sub\n      swap1\n      revert\n        /* \"contracts/vul/DosGame.sol\":1468:1611  function attack(address gameAddr) external payable {... */\n    tag_3:\n      tag_8\n      0x04\n      dup1\n      calldatasize\n      sub\n      dup2\n      add\n      swap1\n      tag_9\n      swap2\n      swap1\n      tag_10\n      jump\t// in\n    tag_9:\n      tag_11\n      jump\t// in\n    tag_8:\n      stop\n    tag_11:\n        /* \"contracts/vul/DosGame.sol\":1530:1541  DoSGame dos */\n      0x00\n        /* \"contracts/vul/DosGame.sol\":1552:1560  gameAddr */\n      dup2\n        /* \"contracts/vul/DosGame.sol\":1530:1561  DoSGame dos = DoSGame(gameAddr) */\n      swap1\n      pop\n        /* \"contracts/vul/DosGame.sol\":1572:1575  dos */\n      dup1\n        /* \"contracts/vul/DosGame.sol\":1572:1583  dos.deposit */\n      0xffffffffffffffffffffffffffffffffffffffff\n      and\n      0xd0e30db0\n        /* \"contracts/vul/DosGame.sol\":1591:1600  msg.value */\n      callvalue\n        /* \"contracts/vul/DosGame.sol\":1572:1603  dos.deposit{value: msg.value}() */\n      mload(0x40)\n      dup3\n      0xffffffff\n      and\n      0xe0\n      shl\n      dup2\n      mstore\n      0x04\n      add\n      0x00\n      mload(0x40)\n      dup1\n      dup4\n      sub\n      dup2\n      dup6\n      dup9\n      dup1\n      extcodesize\n      iszero\n      dup1\n      iszero\n      tag_13\n      jumpi\n      revert(0x00, 0x00)\n    tag_13:\n      pop\n      gas\n      call\n      iszero\n      dup1\n      iszero\n      tag_15\n      jumpi\n      returndatacopy(0x00, 0x00, returndatasize)\n      revert(0x00, returndatasize)\n    tag_15:\n      pop\n      pop\n      pop\n      pop\n      pop\n        /* \"contracts/vul/DosGame.sol\":1519:1611  {... */\n      pop\n        /* \"contracts/vul/DosGame.sol\":1468:1611  function attack(address gameAddr) external payable {... */\n      pop\n      jump\t// out\n        /* \"#utility.yul\":7:176   */\n    tag_16:\n        /* \"#utility.yul\":91:102   */\n      0x00\n        /* \"#utility.yul\":125:131   */\n      dup3\n        /* \"#utility.yul\":120:123   */\n      dup3\n        /* \"#utility.yul\":113:132   */\n      mstore\n        /* \"#utility.yul\":165:169   */\n      0x20\n        /* \"#utility.yul\":160:163   */\n      dup3\n        /* \"#utility.yul\":156:170   */\n      add\n        /* \"#utility.yul\":141:170   */\n      swap1\n      pop\n        /* \"#utility.yul\":7:176   */\n      swap3\n      swap2\n      pop\n      pop\n      jump\t// out\n        /* \"#utility.yul\":182:343   */\n    tag_17:\n        /* \"#utility.yul\":322:335   */\n      0x446f532041747461636b21000000000000000000000000000000000000000000\n        /* \"#utility.yul\":318:319   */\n      0x00\n        /* \"#utility.yul\":310:316   */\n      dup3\n        /* \"#utility.yul\":306:320   */\n      add\n        /* \"#utility.yul\":299:336   */\n      mstore\n        /* \"#utility.yul\":182:343   */\n      pop\n      jump\t// out\n        /* \"#utility.yul\":349:715   */\n    tag_18:\n        /* \"#utility.yul\":491:494   */\n      0x00\n        /* \"#utility.yul\":512:579   */\n      tag_30\n        /* \"#utility.yul\":576:578   */\n      0x0b\n        /* \"#utility.yul\":571:574   */\n      dup4\n        /* \"#utility.yul\":512:579   */\n      tag_16\n      jump\t// in\n    tag_30:\n        /* \"#utility.yul\":505:579   */\n      swap2\n      pop\n        /* \"#utility.yul\":588:681   */\n      tag_31\n        /* \"#utility.yul\":677:680   */\n      dup3\n        /* \"#utility.yul\":588:681   */\n      tag_17\n      jump\t// in\n    tag_31:\n        /* \"#utility.yul\":706:708   */\n      0x20\n        /* \"#utility.yul\":701:704   */\n      dup3\n        /* \"#utility.yul\":697:709   */\n      add\n        /* \"#utility.yul\":690:709   */\n      swap1\n      pop\n        /* \"#utility.yul\":349:715   */\n      swap2\n      swap1\n      pop\n      jump\t// out\n        /* \"#utility.yul\":721:1140   */\n    tag_7:\n        /* \"#utility.yul\":887:891   */\n      0x00\n        /* \"#utility.yul\":925:927   */\n      0x20\n        /* \"#utility.yul\":914:923   */\n      dup3\n        /* \"#utility.yul\":910:928   */\n      add\n        /* \"#utility.yul\":902:928   */\n      swap1\n      pop\n        /* \"#utility.yul\":974:983   */\n      dup2\n        /* \"#utility.yul\":968:972   */\n      dup2\n        /* \"#utility.yul\":964:984   */\n      sub\n        /* \"#utility.yul\":960:961   */\n      0x00\n        /* \"#utility.yul\":949:958   */\n      dup4\n        /* \"#utility.yul\":945:962   */\n      add\n        /* \"#utility.yul\":938:985   */\n      mstore\n        /* \"#utility.yul\":1002:1133   */\n      tag_33\n        /* \"#utility.yul\":1128:1132   */\n      dup2\n        /* \"#utility.yul\":1002:1133   */\n      tag_18\n      jump\t// in\n    tag_33:\n        /* \"#utility.yul\":994:1133   */\n      swap1\n      pop\n        /* \"#utility.yul\":721:1140   */\n      swap2\n      swap1\n      pop\n      jump\t// out\n        /* \"#utility.yul\":1227:1344   */\n    tag_20:\n        /* \"#utility.yul\":1336:1337   */\n      0x00\n        /* \"#utility.yul\":1333:1334   */\n      0x00\n        /* \"#utility.yul\":1326:1338   */\n      revert\n        /* \"#utility.yul\":1473:1599   */\n    tag_22:\n        /* \"#utility.yul\":1510:1517   */\n      0x00\n        /* \"#utility.yul\":1550:1592   */\n      0xffffffffffffffffffffffffffffffffffffffff\n        /* \"#utility.yul\":1543:1548   */\n      dup3\n        /* \"#utility.yul\":1539:1593   */\n      and\n        /* \"#utility.yul\":1528:1593   */\n      swap1\n      pop\n        /* \"#utility.yul\":1473:1599   */\n      swap2\n      swap1\n      pop\n      jump\t// out\n        /* \"#utility.yul\":1605:1701   */\n    tag_23:\n        /* \"#utility.yul\":1642:1649   */\n      0x00\n        /* \"#utility.yul\":1671:1695   */\n      tag_39\n        /* \"#utility.yul\":1689:1694   */\n      dup3\n        /* \"#utility.yul\":1671:1695   */\n      tag_22\n      jump\t// in\n    tag_39:\n        /* \"#utility.yul\":1660:1695   */\n      swap1\n      pop\n        /* \"#utility.yul\":1605:1701   */\n      swap2\n      swap1\n      pop\n      jump\t// out\n        /* \"#utility.yul\":1707:1829   */\n    tag_24:\n        /* \"#utility.yul\":1780:1804   */\n      tag_41\n        /* \"#utility.yul\":1798:1803   */\n      dup2\n        /* \"#utility.yul\":1780:1804   */\n      tag_23\n      jump\t// in\n    tag_41:\n        /* \"#utility.yul\":1773:1778   */\n      dup2\n        /* \"#utility.yul\":1770:1805   */\n      eq\n        /* \"#utility.yul\":1760:1823   */\n      tag_42\n      jumpi\n        /* \"#utility.yul\":1819:1820   */\n      0x00\n        /* \"#utility.yul\":1816:1817   */\n      0x00\n        /* \"#utility.yul\":1809:1821   */\n      revert\n        /* \"#utility.yul\":1760:1823   */\n    tag_42:\n        /* \"#utility.yul\":1707:1829   */\n      pop\n      jump\t// out\n        /* \"#utility.yul\":1835:1974   */\n    tag_25:\n        /* \"#utility.yul\":1881:1886   */\n      0x00\n        /* \"#utility.yul\":1919:1925   */\n      dup2\n        /* \"#utility.yul\":1906:1926   */\n      calldataload\n        /* \"#utility.yul\":1897:1926   */\n      swap1\n      pop\n        /* \"#utility.yul\":1935:1968   */\n      tag_44\n        /* \"#utility.yul\":1962:1967   */\n      dup2\n        /* \"#utility.yul\":1935:1968   */\n      tag_24\n      jump\t// in\n    tag_44:\n        /* \"#utility.yul\":1835:1974   */\n      swap3\n      swap2\n      pop\n      pop\n      jump\t// out\n        /* \"#utility.yul\":1980:2309   */\n    tag_10:\n        /* \"#utility.yul\":2039:2045   */\n      0x00\n        /* \"#utility.yul\":2088:2090   */\n      0x20\n        /* \"#utility.yul\":2076:2085   */\n      dup3\n        /* \"#utility.yul\":2067:2074   */\n      dup5\n        /* \"#utility.yul\":2063:2086   */\n      sub\n        /* \"#utility.yul\":2059:2091   */\n      slt\n        /* \"#utility.yul\":2056:2175   */\n      iszero\n      tag_46\n      jumpi\n        /* \"#utility.yul\":2094:2173   */\n      tag_47\n      tag_20\n      jump\t// in\n    tag_47:\n        /* \"#utility.yul\":2056:2175   */\n    tag_46:\n        /* \"#utility.yul\":2214:2215   */\n      0x00\n        /* \"#utility.yul\":2239:2292   */\n      tag_48\n        /* \"#utility.yul\":2284:2291   */\n      dup5\n        /* \"#utility.yul\":2275:2281   */\n      dup3\n        /* \"#utility.yul\":2264:2273   */\n      dup6\n        /* \"#utility.yul\":2260:2282   */\n      add\n        /* \"#utility.yul\":2239:2292   */\n      tag_25\n      jump\t// in\n    tag_48:\n        /* \"#utility.yul\":2229:2292   */\n      swap2\n      pop\n        /* \"#utility.yul\":2185:2302   */\n      pop\n        /* \"#utility.yul\":1980:2309   */\n      swap3\n      swap2\n      pop\n      pop\n      jump\t// out\n\n    auxdata: 0xa2646970667358221220d790ae50d952b6b018ed12d8004ac08fd7cf37b39b101545b3ef4e64bb7dc3f764736f6c634300081f0033\n}\n",
				"bytecode": {
					"linkReferences": {},
					"object": "6080604052348015600e575f5ffd5b506102158061001c5f395ff3fe608060405260043610610021575f3560e01c8063d018db3e1461005d57610022565b5b6040517f08c379a000000000000000000000000000000000000000000000000000000000815260040161005490610138565b60405180910390fd5b610077600480360381019061007291906101b4565b610079565b005b5f8190508073ffffffffffffffffffffffffffffffffffffffff1663d0e30db0346040518263ffffffff1660e01b81526004015f604051808303818588803b1580156100c3575f5ffd5b505af11580156100d5573d5f5f3e3d5ffd5b50505050505050565b5f82825260208201905092915050565b7f446f532041747461636b210000000000000000000000000000000000000000005f82015250565b5f610122600b836100de565b915061012d826100ee565b602082019050919050565b5f6020820190508181035f83015261014f81610116565b9050919050565b5f5ffd5b5f73ffffffffffffffffffffffffffffffffffffffff82169050919050565b5f6101838261015a565b9050919050565b61019381610179565b811461019d575f5ffd5b50565b5f813590506101ae8161018a565b92915050565b5f602082840312156101c9576101c8610156565b5b5f6101d6848285016101a0565b9150509291505056fea2646970667358221220d790ae50d952b6b018ed12d8004ac08fd7cf37b39b101545b3ef4e64bb7dc3f764736f6c634300081f0033",
					"opcodes": "PUSH1 0x80 PUSH1 0x40 MSTORE CALLVALUE DUP1 ISZERO PUSH1 0xE JUMPI PUSH0 PUSH0 REVERT JUMPDEST POP PUSH2 0x215 DUP1 PUSH2 0x1C PUSH0 CODECOPY PUSH0 RETURN INVALID PUSH1 0x80 PUSH1 0x40 MSTORE PUSH1 0x4 CALLDATASIZE LT PUSH2 0x21 JUMPI PUSH0 CALLDATALOAD PUSH1 0xE0 SHR DUP1 PUSH4 0xD018DB3E EQ PUSH2 0x5D JUMPI PUSH2 0x22 JUMP JUMPDEST JUMPDEST PUSH1 0x40 MLOAD PUSH32 0x8C379A000000000000000000000000000000000000000000000000000000000 DUP2 MSTORE PUSH1 0x4 ADD PUSH2 0x54 SWAP1 PUSH2 0x138 JUMP JUMPDEST PUSH1 0x40 MLOAD DUP1 SWAP2 SUB SWAP1 REVERT JUMPDEST PUSH2 0x77 PUSH1 0x4 DUP1 CALLDATASIZE SUB DUP2 ADD SWAP1 PUSH2 0x72 SWAP2 SWAP1 PUSH2 0x1B4 JUMP JUMPDEST PUSH2 0x79 JUMP JUMPDEST STOP JUMPDEST PUSH0 DUP2 SWAP1 POP DUP1 PUSH20 0xFFFFFFFFFFFFFFFFFFFFFFFFFFFFFFFFFFFFFFFF AND PUSH4 0xD0E30DB0 CALLVALUE PUSH1 0x40 MLOAD DUP3 PUSH4 0xFFFFFFFF AND PUSH1 0xE0 SHL DUP2 MSTORE PUSH1 0x4 ADD PUSH0 PUSH1 0x40 MLOAD DUP1 DUP4 SUB DUP2 DUP6 DUP9 DUP1 EXTCODESIZE ISZERO DUP1 ISZERO PUSH2 0xC3 JUMPI PUSH0 PUSH0 REVERT JUMPDEST POP GAS CALL ISZERO DUP1 ISZERO PUSH2 0xD5 JUMPI RETURNDATASIZE PUSH0 PUSH0 RETURNDATACOPY RETURNDATASIZE PUSH0 REVERT JUMPDEST POP POP POP POP POP POP POP JUMP JUMPDEST PUSH0 DUP3 DUP3 MSTORE PUSH1 0x20 DUP3 ADD SWAP1 POP SWAP3 SWAP2 POP POP JUMP JUMPDEST PUSH32 0x446F532041747461636B21000000000000000000000000000000000000000000 PUSH0 DUP3 ADD MSTORE POP JUMP JUMPDEST PUSH0 PUSH2 0x122 PUSH1 0xB DUP4 PUSH2 0xDE JUMP JUMPDEST SWAP2 POP PUSH2 0x12D DUP3 PUSH2 0xEE JUMP JUMPDEST PUSH1 0x20 DUP3 ADD SWAP1 POP SWAP2 SWAP1 POP JUMP JUMPDEST PUSH0 PUSH1 0x20 DUP3 ADD SWAP1 POP DUP2 DUP2 SUB PUSH0 DUP4 ADD MSTORE PUSH2 0x14F DUP2 PUSH2 0x116 JUMP JUMPDEST SWAP1 POP SWAP2 SWAP1 POP JUMP JUMPDEST PUSH0 PUSH0 REVERT JUMPDEST PUSH0 PUSH20 0xFFFFFFFFFFFFFFFFFFFFFFFFFFFFFFFFFFFFFFFF DUP3 AND SWAP1 POP SWAP2 SWAP1 POP JUMP JUMPDEST PUSH0 PUSH2 0x183 DUP3 PUSH2 0x15A JUMP JUMPDEST SWAP1 POP SWAP2 SWAP1 POP JUMP JUMPDEST PUSH2 0x193 DUP2 PUSH2 0x179 JUMP JUMPDEST DUP2 EQ PUSH2 0x19D JUMPI PUSH0 PUSH0 REVERT JUMPDEST POP JUMP JUMPDEST PUSH0 DUP2 CALLDATALOAD SWAP1 POP PUSH2 0x1AE DUP2 PUSH2 0x18A JUMP JUMPDEST SWAP3 SWAP2 POP POP JUMP JUMPDEST PUSH0 PUSH1 0x20 DUP3 DUP5 SUB SLT ISZERO PUSH2 0x1C9 JUMPI PUSH2 0x1C8 PUSH2 0x156 JUMP JUMPDEST JUMPDEST PUSH0 PUSH2 0x1D6 DUP5 DUP3 DUP6 ADD PUSH2 0x1A0 JUMP JUMPDEST SWAP2 POP POP SWAP3 SWAP2 POP POP JUMP INVALID LOG2 PUSH5 0x6970667358 0x22 SLT KECCAK256 0xD7 SWAP1 0xAE POP 0xD9 MSTORE 0xB6 0xB0 XOR 0xED SLT 0xD8 STOP BLOBBASEFEE 0xC0 DUP16 0xD7 0xCF CALLDATACOPY 0xB3 SWAP12 LT ISZERO GASLIMIT 0xB3 0xEF 0x4E PUSH5 0xBB7DC3F764 PUSH20 0x6F6C634300081F00330000000000000000000000 "
				},
				"gasEstimates": {
					"creation": {
						"codeDepositCost": "106600",
						"executionCost": "151",
						"totalCost": "106751"
					},
					"external": {
						"": "378",
						"attack(address)": "infinite"
					}
				},
				"methodIdentifiers": {
					"attack(address)": "d018db3e"
				}
			},
			"storageLayout": {
				"storage": [],
				"types": null
			},
			"userdoc": {
				"kind": "user",
				"methods": {},
				"version": 1
			}
		}
	}
}