{
	"data": {
		"bytecode": {
			"linkReferences": {},
			"object": "6080604052348015600e575f5ffd5b505f5f8190555061049e806100225f395ff3fe608060405234801561000f575f5ffd5b5060043610610034575f3560e01c80631d263f6714610038578063e6f334d714610068575b5f5ffd5b610052600480360381019061004d91906101da565b610086565b60405161005f9190610214565b60405180910390f35b61007061019c565b60405161007d9190610245565b60405180910390f35b5f5f600143610095919061028b565b405f1c90505f81036100dc576040517f08c379a00000000000000000000000000000000000000000000000000000000081526004016100d390610318565b60405180910390fd5b8060015403610120576040517f08c379a0000000000000000000000000000000000000000000000000000000008152600401610117906103a6565b60405180910390fd5b806001819055505f7f80000000000000000000000000000000000000000000000000000000000000008261015491906103f1565b90505f6001821490508415158115150361018a575f5f81548092919061017990610421565b919050555060019350505050610197565b5f5f819055505f93505050505b919050565b5f5481565b5f5ffd5b5f8115159050919050565b6101b9816101a5565b81146101c3575f5ffd5b50565b5f813590506101d4816101b0565b92915050565b5f602082840312156101ef576101ee6101a1565b5b5f6101fc848285016101c6565b91505092915050565b61020e816101a5565b82525050565b5f6020820190506102275f830184610205565b92915050565b5f819050919050565b61023f8161022d565b82525050565b5f6020820190506102585f830184610236565b92915050565b7f4e487b71000000000000000000000000000000000000000000000000000000005f52601160045260245ffd5b5f6102958261022d565b91506102a08361022d565b92508282039050818111156102b8576102b761025e565b5b92915050565b5f82825260208201905092915050565b7f426c6f636b20686173682073686f756c64206e6f74206265207a65726f0000005f82015250565b5f610302601d836102be565b915061030d826102ce565b602082019050919050565b5f6020820190508181035f83015261032f816102f6565b9050919050565b7f43616e6e6f742063616c6c20747769636520696e207468652073616d6520626c5f8201527f6f636b0000000000000000000000000000000000000000000000000000000000602082015250565b5f6103906023836102be565b915061039b82610336565b604082019050919050565b5f6020820190508181035f8301526103bd81610384565b9050919050565b7f4e487b71000000000000000000000000000000000000000000000000000000005f52601260045260245ffd5b5f6103fb8261022d565b91506104068361022d565b925082610416576104156103c4565b5b828204905092915050565b5f61042b8261022d565b91507fffffffffffffffffffffffffffffffffffffffffffffffffffffffffffffffff820361045d5761045c61025e565b5b60018201905091905056fea2646970667358221220a5c3b8683eee7918fa14d738acfcfd7e97b300d2a3f55eb2fd5939fa182ce52964736f6c634300081e0033",
			"opcodes": "PUSH1 0x80 PUSH1 0x40 MSTORE CALLVALUE DUP1 ISZERO PUSH1 0xE JUMPI PUSH0 PUSH0 REVERT JUMPDEST POP PUSH0 PUSH0 DUP2 SWAP1 SSTORE POP PUSH2 0x49E DUP1 PUSH2 0x22 PUSH0 CODECOPY PUSH0 RETURN INVALID PUSH1 0x80 PUSH1 0x40 MSTORE CALLVALUE DUP1 ISZERO PUSH2 0xF JUMPI PUSH0 PUSH0 REVERT JUMPDEST POP PUSH1 0x4 CALLDATASIZE LT PUSH2 0x34 JUMPI PUSH0 CALLDATALOAD PUSH1 0xE0 SHR DUP1 PUSH4 0x1D263F67 EQ PUSH2 0x38 JUMPI DUP1 PUSH4 0xE6F334D7 EQ PUSH2 0x68 JUMPI JUMPDEST PUSH0 PUSH0 REVERT JUMPDEST PUSH2 0x52 PUSH1 0x4 DUP1 CALLDATASIZE SUB DUP2 ADD SWAP1 PUSH2 0x4D SWAP2 SWAP1 PUSH2 0x1DA JUMP JUMPDEST PUSH2 0x86 JUMP JUMPDEST PUSH1 0x40 MLOAD PUSH2 0x5F SWAP2 SWAP1 PUSH2 0x214 JUMP JUMPDEST PUSH1 0x40 MLOAD DUP1 SWAP2 SUB SWAP1 RETURN JUMPDEST PUSH2 0x70 PUSH2 0x19C JUMP JUMPDEST PUSH1 0x40 MLOAD PUSH2 0x7D SWAP2 SWAP1 PUSH2 0x245 JUMP JUMPDEST PUSH1 0x40 MLOAD DUP1 SWAP2 SUB SWAP1 RETURN JUMPDEST PUSH0 PUSH0 PUSH1 0x1 NUMBER PUSH2 0x95 SWAP2 SWAP1 PUSH2 0x28B JUMP JUMPDEST BLOCKHASH PUSH0 SHR SWAP1 POP PUSH0 DUP2 SUB PUSH2 0xDC JUMPI PUSH1 0x40 MLOAD PUSH32 0x8C379A000000000000000000000000000000000000000000000000000000000 DUP2 MSTORE PUSH1 0x4 ADD PUSH2 0xD3 SWAP1 PUSH2 0x318 JUMP JUMPDEST PUSH1 0x40 MLOAD DUP1 SWAP2 SUB SWAP1 REVERT JUMPDEST DUP1 PUSH1 0x1 SLOAD SUB PUSH2 0x120 JUMPI PUSH1 0x40 MLOAD PUSH32 0x8C379A000000000000000000000000000000000000000000000000000000000 DUP2 MSTORE PUSH1 0x4 ADD PUSH2 0x117 SWAP1 PUSH2 0x3A6 JUMP JUMPDEST PUSH1 0x40 MLOAD DUP1 SWAP2 SUB SWAP1 REVERT JUMPDEST DUP1 PUSH1 0x1 DUP2 SWAP1 SSTORE POP PUSH0 PUSH32 0x8000000000000000000000000000000000000000000000000000000000000000 DUP3 PUSH2 0x154 SWAP2 SWAP1 PUSH2 0x3F1 JUMP JUMPDEST SWAP1 POP PUSH0 PUSH1 0x1 DUP3 EQ SWAP1 POP DUP5 ISZERO ISZERO DUP2 ISZERO ISZERO SUB PUSH2 0x18A JUMPI PUSH0 PUSH0 DUP2 SLOAD DUP1 SWAP3 SWAP2 SWAP1 PUSH2 0x179 SWAP1 PUSH2 0x421 JUMP JUMPDEST SWAP2 SWAP1 POP SSTORE POP PUSH1 0x1 SWAP4 POP POP POP POP PUSH2 0x197 JUMP JUMPDEST PUSH0 PUSH0 DUP2 SWAP1 SSTORE POP PUSH0 SWAP4 POP POP POP POP JUMPDEST SWAP2 SWAP1 POP JUMP JUMPDEST PUSH0 SLOAD DUP2 JUMP JUMPDEST PUSH0 PUSH0 REVERT JUMPDEST PUSH0 DUP2 ISZERO ISZERO SWAP1 POP SWAP2 SWAP1 POP JUMP JUMPDEST PUSH2 0x1B9 DUP2 PUSH2 0x1A5 JUMP JUMPDEST DUP2 EQ PUSH2 0x1C3 JUMPI PUSH0 PUSH0 REVERT JUMPDEST POP JUMP JUMPDEST PUSH0 DUP2 CALLDATALOAD SWAP1 POP PUSH2 0x1D4 DUP2 PUSH2 0x1B0 JUMP JUMPDEST SWAP3 SWAP2 POP POP JUMP JUMPDEST PUSH0 PUSH1 0x20 DUP3 DUP5 SUB SLT ISZERO PUSH2 0x1EF JUMPI PUSH2 0x1EE PUSH2 0x1A1 JUMP JUMPDEST JUMPDEST PUSH0 PUSH2 0x1FC DUP5 DUP3 DUP6 ADD PUSH2 0x1C6 JUMP JUMPDEST SWAP2 POP POP SWAP3 SWAP2 POP POP JUMP JUMPDEST PUSH2 0x20E DUP2 PUSH2 0x1A5 JUMP JUMPDEST DUP3 MSTORE POP POP JUMP JUMPDEST PUSH0 PUSH1 0x20 DUP3 ADD SWAP1 POP PUSH2 0x227 PUSH0 DUP4 ADD DUP5 PUSH2 0x205 JUMP JUMPDEST SWAP3 SWAP2 POP POP JUMP JUMPDEST PUSH0 DUP2 SWAP1 POP SWAP2 SWAP1 POP JUMP JUMPDEST PUSH2 0x23F DUP2 PUSH2 0x22D JUMP JUMPDEST DUP3 MSTORE POP POP JUMP JUMPDEST PUSH0 PUSH1 0x20 DUP3 ADD SWAP1 POP PUSH2 0x258 PUSH0 DUP4 ADD DUP5 PUSH2 0x236 JUMP JUMPDEST SWAP3 SWAP2 POP POP JUMP JUMPDEST PUSH32 0x4E487B7100000000000000000000000000000000000000000000000000000000 PUSH0 MSTORE PUSH1 0x11 PUSH1 0x4 MSTORE PUSH1 0x24 PUSH0 REVERT JUMPDEST PUSH0 PUSH2 0x295 DUP3 PUSH2 0x22D JUMP JUMPDEST SWAP2 POP PUSH2 0x2A0 DUP4 PUSH2 0x22D JUMP JUMPDEST SWAP3 POP DUP3 DUP3 SUB SWAP1 POP DUP2 DUP2 GT ISZERO PUSH2 0x2B8 JUMPI PUSH2 0x2B7 PUSH2 0x25E JUMP JUMPDEST JUMPDEST SWAP3 SWAP2 POP POP JUMP JUMPDEST PUSH0 DUP3 DUP3 MSTORE PUSH1 0x20 DUP3 ADD SWAP1 POP SWAP3 SWAP2 POP POP JUMP JUMPDEST PUSH32 0x426C6F636B20686173682073686F756C64206E6F74206265207A65726F000000 PUSH0 DUP3 ADD MSTORE POP JUMP JUMPDEST PUSH0 PUSH2 0x302 PUSH1 0x1D DUP4 PUSH2 0x2BE JUMP JUMPDEST SWAP2 POP PUSH2 0x30D DUP3 PUSH2 0x2CE JUMP JUMPDEST PUSH1 0x20 DUP3 ADD SWAP1 POP SWAP2 SWAP1 POP JUMP JUMPDEST PUSH0 PUSH1 0x20 DUP3 ADD SWAP1 POP DUP2 DUP2 SUB PUSH0 DUP4 ADD MSTORE PUSH2 0x32F DUP2 PUSH2 0x2F6 JUMP JUMPDEST SWAP1 POP SWAP2 SWAP1 POP JUMP JUMPDEST PUSH32 0x43616E6E6F742063616C6C20747769636520696E207468652073616D6520626C PUSH0 DUP3 ADD MSTORE PUSH32 0x6F636B0000000000000000000000000000000000000000000000000000000000 PUSH1 0x20 DUP3 ADD MSTORE POP JUMP JUMPDEST PUSH0 PUSH2 0x390 PUSH1 0x23 DUP4 PUSH2 0x2BE JUMP JUMPDEST SWAP2 POP PUSH2 0x39B DUP3 PUSH2 0x336 JUMP JUMPDEST PUSH1 0x40 DUP3 ADD SWAP1 POP SWAP2 SWAP1 POP JUMP JUMPDEST PUSH0 PUSH1 0x20 DUP3 ADD SWAP1 POP DUP2 DUP2 SUB PUSH0 DUP4 ADD MSTORE PUSH2 0x3BD DUP2 PUSH2 0x384 JUMP JUMPDEST SWAP1 POP SWAP2 SWAP1 POP JUMP JUMPDEST PUSH32 0x4E487B7100000000000000000000000000000000000000000000000000000000 PUSH0 MSTORE PUSH1 0x12 PUSH1 0x4 MSTORE PUSH1 0x24 PUSH0 REVERT JUMPDEST PUSH0 PUSH2 0x3FB DUP3 PUSH2 0x22D JUMP JUMPDEST SWAP2 POP PUSH2 0x406 DUP4 PUSH2 0x22D JUMP JUMPDEST SWAP3 POP DUP3 PUSH2 0x416 JUMPI PUSH2 0x415 PUSH2 0x3C4 JUMP JUMPDEST JUMPDEST DUP3 DUP3 DIV SWAP1 POP SWAP3 SWAP2 POP POP JUMP JUMPDEST PUSH0 PUSH2 0x42B DUP3 PUSH2 0x22D JUMP JUMPDEST SWAP2 POP PUSH32 0xFFFFFFFFFFFFFFFFFFFFFFFFFFFFFFFFFFFFFFFFFFFFFFFFFFFFFFFFFFFFFFFF DUP3 SUB PUSH2 0x45D JUMPI PUSH2 0x45C PUSH2 0x25E JUMP JUMPDEST JUMPDEST PUSH1 0x1 DUP3 ADD SWAP1 POP SWAP2 SWAP1 POP JUMP INVALID LOG2 PUSH5 0x6970667358 0x22 SLT KECCAK256 0xA5 0xC3 0xB8 PUSH9 0x3EEE7918FA14D738AC 0xFC REVERT PUSH31 0x97B300D2A3F55EB2FD5939FA182CE52964736F6C634300081E003300000000 "
		},
		"gasEstimates": {
			"creation": {
				"codeDepositCost": "236400",
				"executionCost": "5285",
				"totalCost": "241685"
			},
			"external": {
				"consecutiveWins()": "2424",
				"flip(bool)": "infinite"
			}
		},
		"methodIdentifiers": {
			"consecutiveWins()": "e6f334d7",
			"flip(bool)": "1d263f67"
		}
	},
	"abi": [
		{
			"inputs": [],
			"stateMutability": "nonpayable",
			"type": "constructor"
		},
		{
			"inputs": [],
			"name": "consecutiveWins",
			"outputs": [
				{
					"internalType": "uint256",
					"name": "",
					"type": "uint256"
				}
			],
			"stateMutability": "view",
			"type": "function"
		},
		{
			"inputs": [
				{
					"internalType": "bool",
					"name": "_guess",
					"type": "bool"
				}
			],
			"name": "flip",
			"outputs": [
				{
					"internalType": "bool",
					"name": "",
					"type": "bool"
				}
			],
			"stateMutability": "nonpayable",
			"type": "function"
		}
	]
}